{
  "address": "0x5eb3Bc0a489C5A8288765d2336659EbCA68FCd00",
  "abi": [
    {
      "inputs": [
        {
          "internalType": "address",
          "name": "_snow",
          "type": "address"
        },
        {
          "internalType": "address",
          "name": "_snowOracle",
          "type": "address"
        },
        {
          "internalType": "address",
          "name": "_treasury",
          "type": "address"
        },
        {
          "internalType": "address",
          "name": "_usdc",
          "type": "address"
        }
      ],
      "stateMutability": "nonpayable",
      "type": "constructor"
    },
    {
      "anonymous": false,
      "inputs": [
        {
          "indexed": true,
          "internalType": "address",
          "name": "previousOwner",
          "type": "address"
        },
        {
          "indexed": true,
          "internalType": "address",
          "name": "newOwner",
          "type": "address"
        }
      ],
      "name": "OwnershipTransferred",
      "type": "event"
    },
    {
      "inputs": [],
      "name": "DENOMINATOR",
      "outputs": [
        {
          "internalType": "uint256",
          "name": "",
          "type": "uint256"
        }
      ],
      "stateMutability": "view",
      "type": "function"
    },
    {
      "inputs": [],
      "name": "Snow",
      "outputs": [
        {
          "internalType": "contract IERC20",
          "name": "",
          "type": "address"
        }
      ],
      "stateMutability": "view",
      "type": "function"
    },
    {
      "inputs": [],
      "name": "SnowOracle",
      "outputs": [
        {
          "internalType": "contract IOracle",
          "name": "",
          "type": "address"
        }
      ],
      "stateMutability": "view",
      "type": "function"
    },
    {
      "inputs": [],
      "name": "Treasury",
      "outputs": [
        {
          "internalType": "contract ITreasury",
          "name": "",
          "type": "address"
        }
      ],
      "stateMutability": "view",
      "type": "function"
    },
    {
      "inputs": [],
      "name": "USDC",
      "outputs": [
        {
          "internalType": "address",
          "name": "",
          "type": "address"
        }
      ],
      "stateMutability": "view",
      "type": "function"
    },
    {
      "inputs": [
        {
          "internalType": "address",
          "name": "",
          "type": "address"
        }
      ],
      "name": "assets",
      "outputs": [
        {
          "internalType": "bool",
          "name": "isAdded",
          "type": "bool"
        },
        {
          "internalType": "uint256",
          "name": "multiplier",
          "type": "uint256"
        },
        {
          "internalType": "address",
          "name": "oracle",
          "type": "address"
        },
        {
          "internalType": "bool",
          "name": "isLP",
          "type": "bool"
        },
        {
          "internalType": "address",
          "name": "pair",
          "type": "address"
        }
      ],
      "stateMutability": "view",
      "type": "function"
    },
    {
      "inputs": [
        {
          "internalType": "address",
          "name": "_token",
          "type": "address"
        },
        {
          "internalType": "uint256",
          "name": "_amount",
          "type": "uint256"
        }
      ],
      "name": "bond",
      "outputs": [],
      "stateMutability": "nonpayable",
      "type": "function"
    },
    {
      "inputs": [],
      "name": "bondFactor",
      "outputs": [
        {
          "internalType": "uint256",
          "name": "",
          "type": "uint256"
        }
      ],
      "stateMutability": "view",
      "type": "function"
    },
    {
      "inputs": [],
      "name": "bondThreshold",
      "outputs": [
        {
          "internalType": "uint256",
          "name": "",
          "type": "uint256"
        }
      ],
      "stateMutability": "view",
      "type": "function"
    },
    {
      "inputs": [],
      "name": "bondVesting",
      "outputs": [
        {
          "internalType": "uint256",
          "name": "",
          "type": "uint256"
        }
      ],
      "stateMutability": "view",
      "type": "function"
    },
    {
      "inputs": [],
      "name": "buybackAmount",
      "outputs": [
        {
          "internalType": "uint256",
          "name": "",
          "type": "uint256"
        }
      ],
      "stateMutability": "view",
      "type": "function"
    },
    {
      "inputs": [],
      "name": "claimRewards",
      "outputs": [],
      "stateMutability": "nonpayable",
      "type": "function"
    },
    {
      "inputs": [
        {
          "internalType": "address",
          "name": "_account",
          "type": "address"
        }
      ],
      "name": "claimableSnow",
      "outputs": [
        {
          "internalType": "uint256",
          "name": "",
          "type": "uint256"
        }
      ],
      "stateMutability": "view",
      "type": "function"
    },
    {
      "inputs": [],
      "name": "daoOperator",
      "outputs": [
        {
          "internalType": "address",
          "name": "",
          "type": "address"
        }
      ],
      "stateMutability": "view",
      "type": "function"
    },
    {
      "inputs": [],
      "name": "discount",
      "outputs": [
        {
          "internalType": "uint256",
          "name": "",
          "type": "uint256"
        }
      ],
      "stateMutability": "view",
      "type": "function"
    },
    {
      "inputs": [
        {
          "internalType": "address",
          "name": "_token",
          "type": "address"
        }
      ],
      "name": "getBondPremium",
      "outputs": [
        {
          "internalType": "uint256",
          "name": "",
          "type": "uint256"
        }
      ],
      "stateMutability": "view",
      "type": "function"
    },
    {
      "inputs": [],
      "name": "getSnowPrice",
      "outputs": [
        {
          "internalType": "uint256",
          "name": "",
          "type": "uint256"
        }
      ],
      "stateMutability": "view",
      "type": "function"
    },
    {
      "inputs": [
        {
          "internalType": "address",
          "name": "_token",
          "type": "address"
        },
        {
          "internalType": "uint256",
          "name": "_amount",
          "type": "uint256"
        }
      ],
      "name": "getSnowReturn",
      "outputs": [
        {
          "internalType": "uint256",
          "name": "",
          "type": "uint256"
        }
      ],
      "stateMutability": "view",
      "type": "function"
    },
    {
      "inputs": [
        {
          "internalType": "address",
          "name": "_token",
          "type": "address"
        }
      ],
      "name": "getTokenPrice",
      "outputs": [
        {
          "internalType": "uint256",
          "name": "",
          "type": "uint256"
        }
      ],
      "stateMutability": "view",
      "type": "function"
    },
    {
      "inputs": [],
      "name": "lastBuyback",
      "outputs": [
        {
          "internalType": "uint256",
          "name": "",
          "type": "uint256"
        }
      ],
      "stateMutability": "view",
      "type": "function"
    },
    {
      "inputs": [],
      "name": "owner",
      "outputs": [
        {
          "internalType": "address",
          "name": "",
          "type": "address"
        }
      ],
      "stateMutability": "view",
      "type": "function"
    },
    {
      "inputs": [
        {
          "internalType": "address[]",
          "name": "_tokens",
          "type": "address[]"
        }
      ],
      "name": "redeemAssetsForBuyback",
      "outputs": [],
      "stateMutability": "nonpayable",
      "type": "function"
    },
    {
      "inputs": [],
      "name": "renounceOwnership",
      "outputs": [],
      "stateMutability": "nonpayable",
      "type": "function"
    },
    {
      "inputs": [],
      "name": "secondaryFactor",
      "outputs": [
        {
          "internalType": "uint256",
          "name": "",
          "type": "uint256"
        }
      ],
      "stateMutability": "view",
      "type": "function"
    },
    {
      "inputs": [],
      "name": "secondaryThreshold",
      "outputs": [
        {
          "internalType": "uint256",
          "name": "",
          "type": "uint256"
        }
      ],
      "stateMutability": "view",
      "type": "function"
    },
    {
      "inputs": [
        {
          "internalType": "address",
          "name": "_token",
          "type": "address"
        },
        {
          "internalType": "bool",
          "name": "_isAdded",
          "type": "bool"
        },
        {
          "internalType": "uint256",
          "name": "_multiplier",
          "type": "uint256"
        },
        {
          "internalType": "address",
          "name": "_oracle",
          "type": "address"
        },
        {
          "internalType": "bool",
          "name": "_isLP",
          "type": "bool"
        },
        {
          "internalType": "address",
          "name": "_pair",
          "type": "address"
        }
      ],
      "name": "setAsset",
      "outputs": [],
      "stateMutability": "nonpayable",
      "type": "function"
    },
    {
      "inputs": [
        {
          "internalType": "uint256",
          "name": "_primaryThreshold",
          "type": "uint256"
        },
        {
          "internalType": "uint256",
          "name": "_primaryFactor",
          "type": "uint256"
        },
        {
          "internalType": "uint256",
          "name": "_secondThreshold",
          "type": "uint256"
        },
        {
          "internalType": "uint256",
          "name": "_secondFactor",
          "type": "uint256"
        },
        {
          "internalType": "uint256",
          "name": "_vestingPeriod",
          "type": "uint256"
        },
        {
          "internalType": "uint256",
          "name": "_discount",
          "type": "uint256"
        },
        {
          "internalType": "bool",
          "name": "_staticPremiumEnabled",
          "type": "bool"
        }
      ],
      "name": "setBondParameters",
      "outputs": [],
      "stateMutability": "nonpayable",
      "type": "function"
    },
    {
      "inputs": [
        {
          "internalType": "address",
          "name": "_operator",
          "type": "address"
        }
      ],
      "name": "setDaoOperator",
      "outputs": [],
      "stateMutability": "nonpayable",
      "type": "function"
    },
    {
      "inputs": [
        {
          "internalType": "address",
          "name": "_snow",
          "type": "address"
        }
      ],
      "name": "setSnow",
      "outputs": [],
      "stateMutability": "nonpayable",
      "type": "function"
    },
    {
      "inputs": [
        {
          "internalType": "address",
          "name": "_oracle",
          "type": "address"
        }
      ],
      "name": "setSnowOracle",
      "outputs": [],
      "stateMutability": "nonpayable",
      "type": "function"
    },
    {
      "inputs": [
        {
          "internalType": "address",
          "name": "_treasury",
          "type": "address"
        }
      ],
      "name": "setTreasury",
      "outputs": [],
      "stateMutability": "nonpayable",
      "type": "function"
    },
    {
      "inputs": [],
      "name": "staticPremiumEnabled",
      "outputs": [
        {
          "internalType": "bool",
          "name": "",
          "type": "bool"
        }
      ],
      "stateMutability": "view",
      "type": "function"
    },
    {
      "inputs": [],
      "name": "totalVested",
      "outputs": [
        {
          "internalType": "uint256",
          "name": "",
          "type": "uint256"
        }
      ],
      "stateMutability": "view",
      "type": "function"
    },
    {
      "inputs": [
        {
          "internalType": "address",
          "name": "newOwner",
          "type": "address"
        }
      ],
      "name": "transferOwnership",
      "outputs": [],
      "stateMutability": "nonpayable",
      "type": "function"
    },
    {
      "inputs": [
        {
          "internalType": "address",
          "name": "",
          "type": "address"
        }
      ],
      "name": "vesting",
      "outputs": [
        {
          "internalType": "uint256",
          "name": "amount",
          "type": "uint256"
        },
        {
          "internalType": "uint256",
          "name": "period",
          "type": "uint256"
        },
        {
          "internalType": "uint256",
          "name": "end",
          "type": "uint256"
        },
        {
          "internalType": "uint256",
          "name": "claimed",
          "type": "uint256"
        },
        {
          "internalType": "uint256",
          "name": "lastClaimed",
          "type": "uint256"
        }
      ],
      "stateMutability": "view",
      "type": "function"
    }
  ],
  "transactionHash": "0x3f8260b56adcf2376fa20b1510f816e6e823bc8b0e4d2caaf7b6c779da4c1396",
  "args": [
    "0x4ed7c70F96B99c776995fB64377f0d4aB3B0e1C1",
    "0x84eA74d481Ee0A5332c457a4d796187F6Ba67fEB",
    "0x851356ae760d987E095750cCeb3bC6014560891C",
    "0x959922bE3CAee4b8Cd9a407cc3ac1C251C2007B1"
  ],
  "numDeployments": 1,
  "solcInputHash": "f77d36897e3ec85e8f1aed5cd075e017",
  "bytecode": "0x60a06040526007805460ff1916600117905562030d40600855620c3500600955620aae60600a55620249f0600b5562015180600c556000600d55620186a0600f553480156200004d57600080fd5b50604051620020ea380380620020ea833981016040819052620000709162000140565b6200007b33620000d3565b600180546001600160a01b039586166001600160a01b0319918216179091556002805494861694821694909417909355600380549285169284169290921790915590911660805260108054909116331790556200019d565b600080546001600160a01b038381166001600160a01b0319831681178455604051919092169283917f8be0079c531659141344cd1fd0a4f28419497f9722a3daafe3b4186f6b6457e09190a35050565b80516001600160a01b03811681146200013b57600080fd5b919050565b600080600080608085870312156200015757600080fd5b620001628562000123565b9350620001726020860162000123565b9250620001826040860162000123565b9150620001926060860162000123565b905092959194509250565b608051611f2a620001c06000396000818161037b015261156b0152611f2a6000f3fe608060405234801561001057600080fd5b50600436106102415760003560e01c80638969ce3911610145578063d02641a0116100bd578063e388c4231161008c578063f0f4426011610071578063f0f44260146104bd578063f11b8188146104d0578063f2fde38b1461055957600080fd5b8063e388c42314610445578063e3a7f783146104aa57600080fd5b8063d02641a01461040d578063d411401d14610420578063d5ae728e14610429578063db0a9c3d1461043c57600080fd5b8063918f8674116101145780639f882bd5116100f95780639f882bd5146103d4578063a515366a146103e7578063aa7de509146103fa57600080fd5b8063918f8674146103c15780639235f197146103cb57600080fd5b80638969ce391461036357806389a30271146103765780638c9bc2081461039d5780638da5cb5b146103b057600080fd5b80633dd788a1116101d857806363fd7f49116101a757806367f77e9b1161018c57806367f77e9b146103495780636b6f4a9d14610352578063715018a61461035b57600080fd5b806363fd7f491461032d57806364354d651461033657600080fd5b80633dd788a1146102eb578063562e49fe146102f4578063563df32f146103075780635f390ec01461031a57600080fd5b806333920e291161021457806333920e29146102b5578063367384ef146102be578063372500ab146102c657806338546e4c146102ce57600080fd5b80630e6fd74c14610246578063199cbc541461025b5780631c73e44b146102775780632959fc0a1461028a575b600080fd5b610259610254366004611a6e565b61056c565b005b610264600d5481565b6040519081526020015b60405180910390f35b610264610285366004611ae3565b6105a2565b60025461029d906001600160a01b031681565b6040516001600160a01b03909116815260200161026e565b610264600c5481565b610264610717565b6102596107b3565b6007546102db9060ff1681565b604051901515815260200161026e565b610264600e5481565b610259610302366004611b0f565b6107be565b60035461029d906001600160a01b031681565b610259610328366004611b33565b6107e8565b61026460085481565b610259610344366004611b0f565b610b62565b610264600b5481565b61026460065481565b610259610b8c565b610264610371366004611b0f565b610b9e565b61029d7f000000000000000000000000000000000000000000000000000000000000000081565b60105461029d906001600160a01b031681565b6000546001600160a01b031661029d565b610264620f424081565b610264600a5481565b6102596103e2366004611ba8565b610c67565b6102596103f5366004611ae3565b610d09565b610264610408366004611b0f565b61100b565b61026461041b366004611b0f565b61121f565b61026460095481565b60015461029d906001600160a01b031681565b610264600f5481565b610482610453366004611b0f565b600560205260009081526040902080546001820154600283015460038401546004909401549293919290919085565b604080519586526020860194909452928401919091526060830152608082015260a00161026e565b6102596104b8366004611b0f565b61173a565b6102596104cb366004611b0f565b611764565b6105216104de366004611b0f565b600460205260009081526040902080546001820154600283015460039093015460ff9283169391926001600160a01b0380841693600160a01b9004909116911685565b60408051951515865260208601949094526001600160a01b03928316938501939093521515606084015216608082015260a00161026e565b610259610567366004611b0f565b61178e565b61057461181e565b600896909655600994909455600a92909255600b55600c556006556007805460ff1916911515919091179055565b6001600160a01b038216600090815260046020526040812054839060ff166106275760405162461bcd60e51b815260206004820152602d60248201527f52656261746554726561737572793a20746f6b656e206973206e6f742061206260448201526c1bdb9918589b1948185cdcd95d609a1b60648201526084015b60405180910390fd5b6000610631610717565b9050600061063e8661121f565b9050600061064b8761100b565b90506000876001600160a01b031663313ce5676040518163ffffffff1660e01b8152600401602060405180830381865afa15801561068d573d6000803e3d6000fd5b505050506040513d601f19601f820116820180604052508101906106b19190611c21565b6106bc906012611c5a565b6106c790600a611d5d565b9050836106d7620f424080611d6c565b83856106e3858c611d6c565b6106ed9190611d6c565b6106f79190611d6c565b6107019190611d83565b61070b9190611d83565b98975050505050505050565b600254600154604051633ddac95360e01b81526001600160a01b039182166004820152670de0b6b3a764000060248201526000929190911690633ddac95390604401602060405180830381865afa158015610776573d6000803e3d6000fd5b505050506040513d601f19601f8201168201806040525081019061079a9190611da5565b71ffffffffffffffffffffffffffffffffffff16905090565b6107bc33611878565b565b6107c661181e565b600280546001600160a01b0319166001600160a01b0392909216919091179055565b6010546001600160a01b031633146108685760405162461bcd60e51b815260206004820152602a60248201527f52656261746554726561737572793a2063616c6c6572206973206e6f7420746860448201527f65206f70657261746f7200000000000000000000000000000000000000000000606482015260840161061e565b600354604080517f900cf0cf00000000000000000000000000000000000000000000000000000000815290516000926001600160a01b03169163900cf0cf9160048083019260209291908290030181865afa1580156108cb573d6000803e3d6000fd5b505050506040513d601f19601f820116820180604052508101906108ef9190611dd9565b905080600e54036109685760405162461bcd60e51b815260206004820152602360248201527f52656261746554726561737572793a20616c726561647920626f75676874206260448201527f61636b0000000000000000000000000000000000000000000000000000000000606482015260840161061e565b600e81905560005b82811015610b5c576004600085858481811061098e5761098e611df2565b90506020020160208101906109a39190611b0f565b6001600160a01b0316815260208101919091526040016000205460ff16610a0c5760405162461bcd60e51b815260206004820152601d60248201527f52656261746554726561737572793a20696e76616c696420746f6b656e000000604482015260640161061e565b6000848483818110610a2057610a20611df2565b9050602002016020810190610a359190611b0f565b9050806001600160a01b031663a9059cbb610a586000546001600160a01b031690565b6040516370a0823160e01b81523060048201526001600160a01b038516906370a0823190602401602060405180830381865afa158015610a9c573d6000803e3d6000fd5b505050506040513d601f19601f82011682018060405250810190610ac09190611dd9565b6040517fffffffff0000000000000000000000000000000000000000000000000000000060e085901b1681526001600160a01b03909216600483015260248201526044016020604051808303816000875af1158015610b23573d6000803e3d6000fd5b505050506040513d601f19601f82011682018060405250810190610b479190611e08565b50508080610b5490611e25565b915050610970565b50505050565b610b6a61181e565b601080546001600160a01b0319166001600160a01b0392909216919091179055565b610b9461181e565b6107bc6000611a10565b6001600160a01b0381166000908152600560209081526040808320815160a0810183528154815260018201549381019390935260028101549183019190915260038101546060830152600401546080820181905242111580610c0857508060400151816080015110155b15610c165750600092915050565b6000816080015182604001514211610c2e5742610c34565b82604001515b610c3e9190611e3e565b90508160200151818360000151610c559190611d6c565b610c5f9190611d83565b949350505050565b610c6f61181e565b620f4240841015610c7f57600080fd5b6001600160a01b039586166000908152600460205260409020805460ff191695151595909517855560018501939093556002840180549286167fffffffffffffffffffffff00000000000000000000000000000000000000000090931692909217600160a01b91151591909102179055600390910180546001600160a01b03191691909216179055565b6001600160a01b038216600090815260046020526040902054829060ff16610d895760405162461bcd60e51b815260206004820152602d60248201527f52656261746554726561737572793a20746f6b656e206973206e6f742061206260448201526c1bdb9918589b1948185cdcd95d609a1b606482015260840161061e565b60008211610dff5760405162461bcd60e51b815260206004820152602360248201527f52656261746554726561737572793a20696e76616c696420626f6e6420616d6f60448201527f756e740000000000000000000000000000000000000000000000000000000000606482015260840161061e565b6000610e0b84846105a2565b600d546001546040516370a0823160e01b815230600482015292935090916001600160a01b03909116906370a0823190602401602060405180830381865afa158015610e5b573d6000803e3d6000fd5b505050506040513d601f19601f82011682018060405250810190610e7f9190611dd9565b610e899190611e3e565b811115610efe5760405162461bcd60e51b815260206004820152602960248201527f52656261746554726561737572793a20696e73756666696369656e7420736e6f60448201527f772062616c616e63650000000000000000000000000000000000000000000000606482015260840161061e565b6040517f23b872dd000000000000000000000000000000000000000000000000000000008152336004820152306024820152604481018490526001600160a01b038516906323b872dd906064016020604051808303816000875af1158015610f6a573d6000803e3d6000fd5b505050506040513d601f19601f82011682018060405250810190610f8e9190611e08565b50610f9833611878565b336000908152600560205260409020600381015481548391610fb991611e3e565b610fc39190611e51565b8155600c5460018201819055610fd99042611e51565b6002820155600060038201819055426004830155600d8054849290610fff908490611e51565b90915550505050505050565b6001600160a01b038116600090815260046020526040812054829060ff1661108b5760405162461bcd60e51b815260206004820152602d60248201527f52656261746554726561737572793a20746f6b656e206973206e6f742061206260448201526c1bdb9918589b1948185cdcd95d609a1b606482015260840161061e565b60075460ff16156110d4576001600160a01b0383166000908152600460205260409020600101546006546110c390620f424090611e51565b6110cd9190611d6c565b9150611219565b6000806110df610717565b905067016345785d8a00008110156110fc57600093505050611219565b6000620f4240670de0b6b3a76400006111158285611d6c565b61111f9190611d83565b6111299190611e3e565b90506008548110156111415760009450505050611219565b600a54811161117a57620f42406009546008548361115f9190611e3e565b6111699190611d6c565b6111739190611d83565b92506111e0565b6000620f4240600954600854600a546111939190611e3e565b61119d9190611d6c565b6111a79190611d83565b9050620f4240600b54600a54846111be9190611e3e565b6111c89190611d6c565b6111d29190611d83565b6111dc9082611e51565b9350505b6001600160a01b038616600090815260046020526040902060010154611209620f424085611e51565b6112139190611d6c565b94505050505b50919050565b6001600160a01b038116600090815260046020526040812054829060ff1661129f5760405162461bcd60e51b815260206004820152602d60248201527f52656261746554726561737572793a20746f6b656e206973206e6f742061206260448201526c1bdb9918589b1948185cdcd95d609a1b606482015260840161061e565b6001600160a01b03808416600090815260046020908152604091829020825160a081018452815460ff908116151582526001830154938201939093526002820154808616948201859052600160a01b90049092161515606083018190526003909101549093166080820152916113a457604051633ddac95360e01b81526001600160a01b038681166004830152670de0b6b3a76400006024830152821690633ddac95390604401602060405180830381865afa158015611363573d6000803e3d6000fd5b505050506040513d601f19601f820116820180604052508101906113879190611da5565b71ffffffffffffffffffffffffffffffffffff1693505050611219565b6000826080015190506000816001600160a01b03166318160ddd6040518163ffffffff1660e01b8152600401602060405180830381865afa1580156113ed573d6000803e3d6000fd5b505050506040513d601f19601f820116820180604052508101906114119190611dd9565b90506000826001600160a01b0316630dfe16816040518163ffffffff1660e01b8152600401602060405180830381865afa158015611453573d6000803e3d6000fd5b505050506040513d601f19601f820116820180604052508101906114779190611e64565b90506000836001600160a01b031663d21220a76040518163ffffffff1660e01b8152600401602060405180830381865afa1580156114b9573d6000803e3d6000fd5b505050506040513d601f19601f820116820180604052508101906114dd9190611e64565b9050600080856001600160a01b0316630902f1ac6040518163ffffffff1660e01b8152600401606060405180830381865afa158015611520573d6000803e3d6000fd5b505050506040513d601f19601f820116820180604052508101906115449190611ea4565b506dffffffffffffffffffffffffffff1691506dffffffffffffffffffffffffffff1691507f00000000000000000000000000000000000000000000000000000000000000006001600160a01b0316836001600160a01b03160361168057604051633ddac95360e01b81526001600160a01b038581166004830152670de0b6b3a7640000602483015260009190891690633ddac95390604401602060405180830381865afa1580156115fa573d6000803e3d6000fd5b505050506040513d601f19601f8201168201806040525081019061161e9190611da5565b71ffffffffffffffffffffffffffffffffffff1690508561164783670de0b6b3a7640000611d6c565b6116519190611d83565b8661165c8584611d6c565b6116669190611d83565b6116709190611e51565b9a50505050505050505050611219565b604051633ddac95360e01b81526001600160a01b038481166004830152670de0b6b3a7640000602483015260009190891690633ddac95390604401602060405180830381865afa1580156116d8573d6000803e3d6000fd5b505050506040513d601f19601f820116820180604052508101906116fc9190611da5565b71ffffffffffffffffffffffffffffffffffff1690508561172584670de0b6b3a7640000611d6c565b61172f9190611d83565b8661165c8484611d6c565b61174261181e565b600180546001600160a01b0319166001600160a01b0392909216919091179055565b61176c61181e565b600380546001600160a01b0319166001600160a01b0392909216919091179055565b61179661181e565b6001600160a01b0381166118125760405162461bcd60e51b815260206004820152602660248201527f4f776e61626c653a206e6577206f776e657220697320746865207a65726f206160448201527f6464726573730000000000000000000000000000000000000000000000000000606482015260840161061e565b61181b81611a10565b50565b6000546001600160a01b031633146107bc5760405162461bcd60e51b815260206004820181905260248201527f4f776e61626c653a2063616c6c6572206973206e6f7420746865206f776e6572604482015260640161061e565b6001600160a01b0381166000908152600560205260409020805415806118a2575060038101548154145b156118ab575050565b8060040154421115806118c657508060020154816004015410155b156118cf575050565b60008160040154826002015442116118e757426118ed565b82600201545b6118f79190611e3e565b9050600082600101548284600001546119109190611d6c565b61191a9190611d83565b90508060000361192a5750505050565b8083600301600082825461193e9190611e51565b909155505060028301544211611954574261195a565b82600201545b836004018190555080600d60008282546119749190611e3e565b90915550506001546040517fa9059cbb0000000000000000000000000000000000000000000000000000000081526001600160a01b038681166004830152602482018490529091169063a9059cbb906044016020604051808303816000875af11580156119e5573d6000803e3d6000fd5b505050506040513d601f19601f82011682018060405250810190611a099190611e08565b5050505050565b600080546001600160a01b038381166001600160a01b0319831681178455604051919092169283917f8be0079c531659141344cd1fd0a4f28419497f9722a3daafe3b4186f6b6457e09190a35050565b801515811461181b57600080fd5b600080600080600080600060e0888a031215611a8957600080fd5b873596506020880135955060408801359450606088013593506080880135925060a0880135915060c0880135611abe81611a60565b8091505092959891949750929550565b6001600160a01b038116811461181b57600080fd5b60008060408385031215611af657600080fd5b8235611b0181611ace565b946020939093013593505050565b600060208284031215611b2157600080fd5b8135611b2c81611ace565b9392505050565b60008060208385031215611b4657600080fd5b823567ffffffffffffffff80821115611b5e57600080fd5b818501915085601f830112611b7257600080fd5b813581811115611b8157600080fd5b8660208260051b8501011115611b9657600080fd5b60209290920196919550909350505050565b60008060008060008060c08789031215611bc157600080fd5b8635611bcc81611ace565b95506020870135611bdc81611a60565b9450604087013593506060870135611bf381611ace565b92506080870135611c0381611a60565b915060a0870135611c1381611ace565b809150509295509295509295565b600060208284031215611c3357600080fd5b815160ff81168114611b2c57600080fd5b634e487b7160e01b600052601160045260246000fd5b60ff8281168282160390811115611c7357611c73611c44565b92915050565b600181815b80851115611cb4578160001904821115611c9a57611c9a611c44565b80851615611ca757918102915b93841c9390800290611c7e565b509250929050565b600082611ccb57506001611c73565b81611cd857506000611c73565b8160018114611cee5760028114611cf857611d14565b6001915050611c73565b60ff841115611d0957611d09611c44565b50506001821b611c73565b5060208310610133831016604e8410600b8410161715611d37575081810a611c73565b611d418383611c79565b8060001904821115611d5557611d55611c44565b029392505050565b6000611b2c60ff841683611cbc565b8082028115828204841417611c7357611c73611c44565b600082611da057634e487b7160e01b600052601260045260246000fd5b500490565b600060208284031215611db757600080fd5b815171ffffffffffffffffffffffffffffffffffff81168114611b2c57600080fd5b600060208284031215611deb57600080fd5b5051919050565b634e487b7160e01b600052603260045260246000fd5b600060208284031215611e1a57600080fd5b8151611b2c81611a60565b600060018201611e3757611e37611c44565b5060010190565b81810381811115611c7357611c73611c44565b80820180821115611c7357611c73611c44565b600060208284031215611e7657600080fd5b8151611b2c81611ace565b80516dffffffffffffffffffffffffffff81168114611e9f57600080fd5b919050565b600080600060608486031215611eb957600080fd5b611ec284611e81565b9250611ed060208501611e81565b9150604084015163ffffffff81168114611ee957600080fd5b80915050925092509256fea26469706673582212208c36ef6b8562ac73dca2c1515d0104a74d530541f864b560d639ca13eb13d75f64736f6c63430008110033",
  "devdoc": {
    "kind": "dev",
    "methods": {
      "owner()": {
        "details": "Returns the address of the current owner."
      },
      "renounceOwnership()": {
        "details": "Leaves the contract without owner. It will not be possible to call `onlyOwner` functions anymore. Can only be called by the current owner. NOTE: Renouncing ownership will leave the contract without an owner, thereby removing any functionality that is only available to the owner."
      },
      "transferOwnership(address)": {
        "details": "Transfers ownership of the contract to a new account (`newOwner`). Can only be called by the current owner."
      }
    },
    "version": 1
  },
  "userdoc": {
    "kind": "user",
    "methods": {},
    "version": 1
  },
  "storageLayout": {
    "storage": [
      {
        "astId": 7,
        "contract": "contracts/DevSnowRebateTreasury.sol:DevSnowRebateTreasury",
        "label": "_owner",
        "offset": 0,
        "slot": "0",
        "type": "t_address"
      },
      {
        "astId": 1106,
        "contract": "contracts/DevSnowRebateTreasury.sol:DevSnowRebateTreasury",
        "label": "Snow",
        "offset": 0,
        "slot": "1",
        "type": "t_contract(IERC20)190"
      },
      {
        "astId": 1109,
        "contract": "contracts/DevSnowRebateTreasury.sol:DevSnowRebateTreasury",
        "label": "SnowOracle",
        "offset": 0,
        "slot": "2",
        "type": "t_contract(IOracle)8512"
      },
      {
        "astId": 1112,
        "contract": "contracts/DevSnowRebateTreasury.sol:DevSnowRebateTreasury",
        "label": "Treasury",
        "offset": 0,
        "slot": "3",
        "type": "t_contract(ITreasury)8549"
      },
      {
        "astId": 1117,
        "contract": "contracts/DevSnowRebateTreasury.sol:DevSnowRebateTreasury",
        "label": "assets",
        "offset": 0,
        "slot": "4",
        "type": "t_mapping(t_address,t_struct(Asset)1092_storage)"
      },
      {
        "astId": 1122,
        "contract": "contracts/DevSnowRebateTreasury.sol:DevSnowRebateTreasury",
        "label": "vesting",
        "offset": 0,
        "slot": "5",
        "type": "t_mapping(t_address,t_struct(VestingSchedule)1103_storage)"
      },
      {
        "astId": 1124,
        "contract": "contracts/DevSnowRebateTreasury.sol:DevSnowRebateTreasury",
        "label": "discount",
        "offset": 0,
        "slot": "6",
        "type": "t_uint256"
      },
      {
        "astId": 1127,
        "contract": "contracts/DevSnowRebateTreasury.sol:DevSnowRebateTreasury",
        "label": "staticPremiumEnabled",
        "offset": 0,
        "slot": "7",
        "type": "t_bool"
      },
      {
        "astId": 1132,
        "contract": "contracts/DevSnowRebateTreasury.sol:DevSnowRebateTreasury",
        "label": "bondThreshold",
        "offset": 0,
        "slot": "8",
        "type": "t_uint256"
      },
      {
        "astId": 1137,
        "contract": "contracts/DevSnowRebateTreasury.sol:DevSnowRebateTreasury",
        "label": "bondFactor",
        "offset": 0,
        "slot": "9",
        "type": "t_uint256"
      },
      {
        "astId": 1142,
        "contract": "contracts/DevSnowRebateTreasury.sol:DevSnowRebateTreasury",
        "label": "secondaryThreshold",
        "offset": 0,
        "slot": "10",
        "type": "t_uint256"
      },
      {
        "astId": 1147,
        "contract": "contracts/DevSnowRebateTreasury.sol:DevSnowRebateTreasury",
        "label": "secondaryFactor",
        "offset": 0,
        "slot": "11",
        "type": "t_uint256"
      },
      {
        "astId": 1150,
        "contract": "contracts/DevSnowRebateTreasury.sol:DevSnowRebateTreasury",
        "label": "bondVesting",
        "offset": 0,
        "slot": "12",
        "type": "t_uint256"
      },
      {
        "astId": 1153,
        "contract": "contracts/DevSnowRebateTreasury.sol:DevSnowRebateTreasury",
        "label": "totalVested",
        "offset": 0,
        "slot": "13",
        "type": "t_uint256"
      },
      {
        "astId": 1155,
        "contract": "contracts/DevSnowRebateTreasury.sol:DevSnowRebateTreasury",
        "label": "lastBuyback",
        "offset": 0,
        "slot": "14",
        "type": "t_uint256"
      },
      {
        "astId": 1160,
        "contract": "contracts/DevSnowRebateTreasury.sol:DevSnowRebateTreasury",
        "label": "buybackAmount",
        "offset": 0,
        "slot": "15",
        "type": "t_uint256"
      },
      {
        "astId": 1167,
        "contract": "contracts/DevSnowRebateTreasury.sol:DevSnowRebateTreasury",
        "label": "daoOperator",
        "offset": 0,
        "slot": "16",
        "type": "t_address"
      }
    ],
    "types": {
      "t_address": {
        "encoding": "inplace",
        "label": "address",
        "numberOfBytes": "20"
      },
      "t_bool": {
        "encoding": "inplace",
        "label": "bool",
        "numberOfBytes": "1"
      },
      "t_contract(IERC20)190": {
        "encoding": "inplace",
        "label": "contract IERC20",
        "numberOfBytes": "20"
      },
      "t_contract(IOracle)8512": {
        "encoding": "inplace",
        "label": "contract IOracle",
        "numberOfBytes": "20"
      },
      "t_contract(ITreasury)8549": {
        "encoding": "inplace",
        "label": "contract ITreasury",
        "numberOfBytes": "20"
      },
      "t_mapping(t_address,t_struct(Asset)1092_storage)": {
        "encoding": "mapping",
        "key": "t_address",
        "label": "mapping(address => struct DevSnowRebateTreasury.Asset)",
        "numberOfBytes": "32",
        "value": "t_struct(Asset)1092_storage"
      },
      "t_mapping(t_address,t_struct(VestingSchedule)1103_storage)": {
        "encoding": "mapping",
        "key": "t_address",
        "label": "mapping(address => struct DevSnowRebateTreasury.VestingSchedule)",
        "numberOfBytes": "32",
        "value": "t_struct(VestingSchedule)1103_storage"
      },
      "t_struct(Asset)1092_storage": {
        "encoding": "inplace",
        "label": "struct DevSnowRebateTreasury.Asset",
        "members": [
          {
            "astId": 1083,
            "contract": "contracts/DevSnowRebateTreasury.sol:DevSnowRebateTreasury",
            "label": "isAdded",
            "offset": 0,
            "slot": "0",
            "type": "t_bool"
          },
          {
            "astId": 1085,
            "contract": "contracts/DevSnowRebateTreasury.sol:DevSnowRebateTreasury",
            "label": "multiplier",
            "offset": 0,
            "slot": "1",
            "type": "t_uint256"
          },
          {
            "astId": 1087,
            "contract": "contracts/DevSnowRebateTreasury.sol:DevSnowRebateTreasury",
            "label": "oracle",
            "offset": 0,
            "slot": "2",
            "type": "t_address"
          },
          {
            "astId": 1089,
            "contract": "contracts/DevSnowRebateTreasury.sol:DevSnowRebateTreasury",
            "label": "isLP",
            "offset": 20,
            "slot": "2",
            "type": "t_bool"
          },
          {
            "astId": 1091,
            "contract": "contracts/DevSnowRebateTreasury.sol:DevSnowRebateTreasury",
            "label": "pair",
            "offset": 0,
            "slot": "3",
            "type": "t_address"
          }
        ],
        "numberOfBytes": "128"
      },
      "t_struct(VestingSchedule)1103_storage": {
        "encoding": "inplace",
        "label": "struct DevSnowRebateTreasury.VestingSchedule",
        "members": [
          {
            "astId": 1094,
            "contract": "contracts/DevSnowRebateTreasury.sol:DevSnowRebateTreasury",
            "label": "amount",
            "offset": 0,
            "slot": "0",
            "type": "t_uint256"
          },
          {
            "astId": 1096,
            "contract": "contracts/DevSnowRebateTreasury.sol:DevSnowRebateTreasury",
            "label": "period",
            "offset": 0,
            "slot": "1",
            "type": "t_uint256"
          },
          {
            "astId": 1098,
            "contract": "contracts/DevSnowRebateTreasury.sol:DevSnowRebateTreasury",
            "label": "end",
            "offset": 0,
            "slot": "2",
            "type": "t_uint256"
          },
          {
            "astId": 1100,
            "contract": "contracts/DevSnowRebateTreasury.sol:DevSnowRebateTreasury",
            "label": "claimed",
            "offset": 0,
            "slot": "3",
            "type": "t_uint256"
          },
          {
            "astId": 1102,
            "contract": "contracts/DevSnowRebateTreasury.sol:DevSnowRebateTreasury",
            "label": "lastClaimed",
            "offset": 0,
            "slot": "4",
            "type": "t_uint256"
          }
        ],
        "numberOfBytes": "160"
      },
      "t_uint256": {
        "encoding": "inplace",
        "label": "uint256",
        "numberOfBytes": "32"
      }
    }
  }
}