{
  "address": "0xa85233C63b9Ee964Add6F2cffe00Fd84eb32338f",
  "abi": [
    {
      "inputs": [
        {
          "internalType": "string",
          "name": "name_",
          "type": "string"
        },
        {
          "internalType": "string",
          "name": "symbol_",
          "type": "string"
        },
        {
          "internalType": "uint256",
          "name": "_startTime",
          "type": "uint256"
        },
        {
          "internalType": "address",
          "name": "_daoFund",
          "type": "address"
        },
        {
          "internalType": "address",
          "name": "_devFund",
          "type": "address"
        }
      ],
      "stateMutability": "nonpayable",
      "type": "constructor"
    },
    {
      "anonymous": false,
      "inputs": [
        {
          "indexed": true,
          "internalType": "address",
          "name": "owner",
          "type": "address"
        },
        {
          "indexed": true,
          "internalType": "address",
          "name": "spender",
          "type": "address"
        },
        {
          "indexed": false,
          "internalType": "uint256",
          "name": "value",
          "type": "uint256"
        }
      ],
      "name": "Approval",
      "type": "event"
    },
    {
      "anonymous": false,
      "inputs": [
        {
          "indexed": true,
          "internalType": "address",
          "name": "previousOperator",
          "type": "address"
        },
        {
          "indexed": true,
          "internalType": "address",
          "name": "newOperator",
          "type": "address"
        }
      ],
      "name": "OperatorTransferred",
      "type": "event"
    },
    {
      "anonymous": false,
      "inputs": [
        {
          "indexed": true,
          "internalType": "address",
          "name": "previousOwner",
          "type": "address"
        },
        {
          "indexed": true,
          "internalType": "address",
          "name": "newOwner",
          "type": "address"
        }
      ],
      "name": "OwnershipTransferred",
      "type": "event"
    },
    {
      "anonymous": false,
      "inputs": [
        {
          "indexed": true,
          "internalType": "address",
          "name": "from",
          "type": "address"
        },
        {
          "indexed": true,
          "internalType": "address",
          "name": "to",
          "type": "address"
        },
        {
          "indexed": false,
          "internalType": "uint256",
          "name": "value",
          "type": "uint256"
        }
      ],
      "name": "Transfer",
      "type": "event"
    },
    {
      "inputs": [],
      "name": "BASIS_POINTS_DENOM",
      "outputs": [
        {
          "internalType": "uint256",
          "name": "",
          "type": "uint256"
        }
      ],
      "stateMutability": "view",
      "type": "function"
    },
    {
      "inputs": [],
      "name": "COMMUNITY_FUND_POOL_ALLOCATION",
      "outputs": [
        {
          "internalType": "uint256",
          "name": "",
          "type": "uint256"
        }
      ],
      "stateMutability": "view",
      "type": "function"
    },
    {
      "inputs": [],
      "name": "DEV_FUND_POOL_ALLOCATION",
      "outputs": [
        {
          "internalType": "uint256",
          "name": "",
          "type": "uint256"
        }
      ],
      "stateMutability": "view",
      "type": "function"
    },
    {
      "inputs": [],
      "name": "FARMING_POOL_REWARD_ALLOCATION",
      "outputs": [
        {
          "internalType": "uint256",
          "name": "",
          "type": "uint256"
        }
      ],
      "stateMutability": "view",
      "type": "function"
    },
    {
      "inputs": [],
      "name": "MAX_TAX_RATE",
      "outputs": [
        {
          "internalType": "uint256",
          "name": "",
          "type": "uint256"
        }
      ],
      "stateMutability": "view",
      "type": "function"
    },
    {
      "inputs": [],
      "name": "VESTING_DURATION",
      "outputs": [
        {
          "internalType": "uint256",
          "name": "",
          "type": "uint256"
        }
      ],
      "stateMutability": "view",
      "type": "function"
    },
    {
      "inputs": [
        {
          "internalType": "address",
          "name": "owner",
          "type": "address"
        },
        {
          "internalType": "address",
          "name": "spender",
          "type": "address"
        }
      ],
      "name": "allowance",
      "outputs": [
        {
          "internalType": "uint256",
          "name": "",
          "type": "uint256"
        }
      ],
      "stateMutability": "view",
      "type": "function"
    },
    {
      "inputs": [
        {
          "internalType": "address",
          "name": "spender",
          "type": "address"
        },
        {
          "internalType": "uint256",
          "name": "amount",
          "type": "uint256"
        }
      ],
      "name": "approve",
      "outputs": [
        {
          "internalType": "bool",
          "name": "",
          "type": "bool"
        }
      ],
      "stateMutability": "nonpayable",
      "type": "function"
    },
    {
      "inputs": [
        {
          "internalType": "address",
          "name": "account",
          "type": "address"
        }
      ],
      "name": "balanceOf",
      "outputs": [
        {
          "internalType": "uint256",
          "name": "",
          "type": "uint256"
        }
      ],
      "stateMutability": "view",
      "type": "function"
    },
    {
      "inputs": [
        {
          "internalType": "uint256",
          "name": "amount",
          "type": "uint256"
        }
      ],
      "name": "burn",
      "outputs": [],
      "stateMutability": "nonpayable",
      "type": "function"
    },
    {
      "inputs": [
        {
          "internalType": "address",
          "name": "account",
          "type": "address"
        },
        {
          "internalType": "uint256",
          "name": "amount",
          "type": "uint256"
        }
      ],
      "name": "burnFrom",
      "outputs": [],
      "stateMutability": "nonpayable",
      "type": "function"
    },
    {
      "inputs": [],
      "name": "claimRewards",
      "outputs": [],
      "stateMutability": "nonpayable",
      "type": "function"
    },
    {
      "inputs": [],
      "name": "communityFund",
      "outputs": [
        {
          "internalType": "address",
          "name": "",
          "type": "address"
        }
      ],
      "stateMutability": "view",
      "type": "function"
    },
    {
      "inputs": [],
      "name": "communityFundLastClaimed",
      "outputs": [
        {
          "internalType": "uint256",
          "name": "",
          "type": "uint256"
        }
      ],
      "stateMutability": "view",
      "type": "function"
    },
    {
      "inputs": [],
      "name": "communityFundRewardRate",
      "outputs": [
        {
          "internalType": "uint256",
          "name": "",
          "type": "uint256"
        }
      ],
      "stateMutability": "view",
      "type": "function"
    },
    {
      "inputs": [],
      "name": "decimals",
      "outputs": [
        {
          "internalType": "uint8",
          "name": "",
          "type": "uint8"
        }
      ],
      "stateMutability": "view",
      "type": "function"
    },
    {
      "inputs": [
        {
          "internalType": "address",
          "name": "spender",
          "type": "address"
        },
        {
          "internalType": "uint256",
          "name": "subtractedValue",
          "type": "uint256"
        }
      ],
      "name": "decreaseAllowance",
      "outputs": [
        {
          "internalType": "bool",
          "name": "",
          "type": "bool"
        }
      ],
      "stateMutability": "nonpayable",
      "type": "function"
    },
    {
      "inputs": [],
      "name": "devFund",
      "outputs": [
        {
          "internalType": "address",
          "name": "",
          "type": "address"
        }
      ],
      "stateMutability": "view",
      "type": "function"
    },
    {
      "inputs": [],
      "name": "devFundLastClaimed",
      "outputs": [
        {
          "internalType": "uint256",
          "name": "",
          "type": "uint256"
        }
      ],
      "stateMutability": "view",
      "type": "function"
    },
    {
      "inputs": [],
      "name": "devFundRewardRate",
      "outputs": [
        {
          "internalType": "uint256",
          "name": "",
          "type": "uint256"
        }
      ],
      "stateMutability": "view",
      "type": "function"
    },
    {
      "inputs": [
        {
          "internalType": "address",
          "name": "_farmingIncentiveFund",
          "type": "address"
        }
      ],
      "name": "distributeReward",
      "outputs": [],
      "stateMutability": "nonpayable",
      "type": "function"
    },
    {
      "inputs": [],
      "name": "dynamicTaxRate",
      "outputs": [
        {
          "internalType": "uint256",
          "name": "",
          "type": "uint256"
        }
      ],
      "stateMutability": "view",
      "type": "function"
    },
    {
      "inputs": [],
      "name": "enableDynamicTax",
      "outputs": [
        {
          "internalType": "bool",
          "name": "",
          "type": "bool"
        }
      ],
      "stateMutability": "view",
      "type": "function"
    },
    {
      "inputs": [],
      "name": "endTime",
      "outputs": [
        {
          "internalType": "uint256",
          "name": "",
          "type": "uint256"
        }
      ],
      "stateMutability": "view",
      "type": "function"
    },
    {
      "inputs": [],
      "name": "getCurrentTaxRate",
      "outputs": [
        {
          "internalType": "uint256",
          "name": "",
          "type": "uint256"
        }
      ],
      "stateMutability": "nonpayable",
      "type": "function"
    },
    {
      "inputs": [
        {
          "internalType": "contract IERC20",
          "name": "_token",
          "type": "address"
        },
        {
          "internalType": "uint256",
          "name": "_amount",
          "type": "uint256"
        },
        {
          "internalType": "address",
          "name": "_to",
          "type": "address"
        }
      ],
      "name": "governanceRecoverUnsupported",
      "outputs": [],
      "stateMutability": "nonpayable",
      "type": "function"
    },
    {
      "inputs": [
        {
          "internalType": "address",
          "name": "spender",
          "type": "address"
        },
        {
          "internalType": "uint256",
          "name": "addedValue",
          "type": "uint256"
        }
      ],
      "name": "increaseAllowance",
      "outputs": [
        {
          "internalType": "bool",
          "name": "",
          "type": "bool"
        }
      ],
      "stateMutability": "nonpayable",
      "type": "function"
    },
    {
      "inputs": [],
      "name": "isOperator",
      "outputs": [
        {
          "internalType": "bool",
          "name": "",
          "type": "bool"
        }
      ],
      "stateMutability": "view",
      "type": "function"
    },
    {
      "inputs": [
        {
          "internalType": "address",
          "name": "_account",
          "type": "address"
        }
      ],
      "name": "isWhitelistedRecipient",
      "outputs": [
        {
          "internalType": "bool",
          "name": "isWhitelisted",
          "type": "bool"
        }
      ],
      "stateMutability": "view",
      "type": "function"
    },
    {
      "inputs": [
        {
          "internalType": "address",
          "name": "_account",
          "type": "address"
        }
      ],
      "name": "isWhitelistedSender",
      "outputs": [
        {
          "internalType": "bool",
          "name": "isWhitelisted",
          "type": "bool"
        }
      ],
      "stateMutability": "view",
      "type": "function"
    },
    {
      "inputs": [],
      "name": "name",
      "outputs": [
        {
          "internalType": "string",
          "name": "",
          "type": "string"
        }
      ],
      "stateMutability": "view",
      "type": "function"
    },
    {
      "inputs": [],
      "name": "operator",
      "outputs": [
        {
          "internalType": "address",
          "name": "",
          "type": "address"
        }
      ],
      "stateMutability": "view",
      "type": "function"
    },
    {
      "inputs": [],
      "name": "owner",
      "outputs": [
        {
          "internalType": "address",
          "name": "",
          "type": "address"
        }
      ],
      "stateMutability": "view",
      "type": "function"
    },
    {
      "inputs": [],
      "name": "renounceOwnership",
      "outputs": [],
      "stateMutability": "nonpayable",
      "type": "function"
    },
    {
      "inputs": [],
      "name": "rewardPoolDistributed",
      "outputs": [
        {
          "internalType": "bool",
          "name": "",
          "type": "bool"
        }
      ],
      "stateMutability": "view",
      "type": "function"
    },
    {
      "inputs": [
        {
          "internalType": "address",
          "name": "_devFund",
          "type": "address"
        }
      ],
      "name": "setDevFund",
      "outputs": [],
      "stateMutability": "nonpayable",
      "type": "function"
    },
    {
      "inputs": [
        {
          "internalType": "bool",
          "name": "_enableDynamicTax",
          "type": "bool"
        }
      ],
      "name": "setEnableDynamicTax",
      "outputs": [],
      "stateMutability": "nonpayable",
      "type": "function"
    },
    {
      "inputs": [
        {
          "internalType": "uint256",
          "name": "_taxRate",
          "type": "uint256"
        }
      ],
      "name": "setStaticTaxRate",
      "outputs": [],
      "stateMutability": "nonpayable",
      "type": "function"
    },
    {
      "inputs": [
        {
          "internalType": "address",
          "name": "_taxOffice",
          "type": "address"
        }
      ],
      "name": "setTaxOffice",
      "outputs": [],
      "stateMutability": "nonpayable",
      "type": "function"
    },
    {
      "inputs": [
        {
          "internalType": "address",
          "name": "_daoFund",
          "type": "address"
        }
      ],
      "name": "setTreasuryFund",
      "outputs": [],
      "stateMutability": "nonpayable",
      "type": "function"
    },
    {
      "inputs": [
        {
          "internalType": "address",
          "name": "_account",
          "type": "address"
        },
        {
          "internalType": "uint8",
          "name": "_type",
          "type": "uint8"
        }
      ],
      "name": "setWhitelistType",
      "outputs": [],
      "stateMutability": "nonpayable",
      "type": "function"
    },
    {
      "inputs": [],
      "name": "startTime",
      "outputs": [
        {
          "internalType": "uint256",
          "name": "",
          "type": "uint256"
        }
      ],
      "stateMutability": "view",
      "type": "function"
    },
    {
      "inputs": [],
      "name": "staticTaxRate",
      "outputs": [
        {
          "internalType": "uint256",
          "name": "",
          "type": "uint256"
        }
      ],
      "stateMutability": "view",
      "type": "function"
    },
    {
      "inputs": [],
      "name": "symbol",
      "outputs": [
        {
          "internalType": "string",
          "name": "",
          "type": "string"
        }
      ],
      "stateMutability": "view",
      "type": "function"
    },
    {
      "inputs": [],
      "name": "taxOffice",
      "outputs": [
        {
          "internalType": "address",
          "name": "",
          "type": "address"
        }
      ],
      "stateMutability": "view",
      "type": "function"
    },
    {
      "inputs": [],
      "name": "taxRate",
      "outputs": [
        {
          "internalType": "uint256",
          "name": "",
          "type": "uint256"
        }
      ],
      "stateMutability": "view",
      "type": "function"
    },
    {
      "inputs": [],
      "name": "totalSupply",
      "outputs": [
        {
          "internalType": "uint256",
          "name": "",
          "type": "uint256"
        }
      ],
      "stateMutability": "view",
      "type": "function"
    },
    {
      "inputs": [
        {
          "internalType": "address",
          "name": "recipient",
          "type": "address"
        },
        {
          "internalType": "uint256",
          "name": "amount",
          "type": "uint256"
        }
      ],
      "name": "transfer",
      "outputs": [
        {
          "internalType": "bool",
          "name": "",
          "type": "bool"
        }
      ],
      "stateMutability": "nonpayable",
      "type": "function"
    },
    {
      "inputs": [
        {
          "internalType": "address",
          "name": "_sender",
          "type": "address"
        },
        {
          "internalType": "address",
          "name": "_recipient",
          "type": "address"
        },
        {
          "internalType": "uint256",
          "name": "_amount",
          "type": "uint256"
        }
      ],
      "name": "transferFrom",
      "outputs": [
        {
          "internalType": "bool",
          "name": "successFlag",
          "type": "bool"
        }
      ],
      "stateMutability": "nonpayable",
      "type": "function"
    },
    {
      "inputs": [
        {
          "internalType": "address",
          "name": "newOperator_",
          "type": "address"
        }
      ],
      "name": "transferOperator",
      "outputs": [],
      "stateMutability": "nonpayable",
      "type": "function"
    },
    {
      "inputs": [
        {
          "internalType": "address",
          "name": "newOwner",
          "type": "address"
        }
      ],
      "name": "transferOwnership",
      "outputs": [],
      "stateMutability": "nonpayable",
      "type": "function"
    },
    {
      "inputs": [],
      "name": "unclaimedDevFund",
      "outputs": [
        {
          "internalType": "uint256",
          "name": "_pending",
          "type": "uint256"
        }
      ],
      "stateMutability": "view",
      "type": "function"
    },
    {
      "inputs": [],
      "name": "unclaimedTreasuryFund",
      "outputs": [
        {
          "internalType": "uint256",
          "name": "_pending",
          "type": "uint256"
        }
      ],
      "stateMutability": "view",
      "type": "function"
    },
    {
      "inputs": [
        {
          "internalType": "address",
          "name": "",
          "type": "address"
        }
      ],
      "name": "whitelistType",
      "outputs": [
        {
          "internalType": "enum ERC20Taxable.WhitelistType",
          "name": "",
          "type": "uint8"
        }
      ],
      "stateMutability": "view",
      "type": "function"
    }
  ],
  "transactionHash": "0x73ecf664d13dd9ce44705bb33df78651d06e4c9dfa548abd111cd7f2afcf9e2e",
  "args": [
    "snowcrystals.finance SHARE",
    "GLCR",
    1666852685,
    "0x70997970C51812dc3A010C7d01b50e0d17dc79C8",
    "0x3C44CdDdB6a900fa2b585dd299e03d12FA4293BC"
  ],
  "numDeployments": 1,
  "solcInputHash": "73395350a0819fb65c5145526fa0b4d9",
  "bytecode": "0x6101006040526011805460ff191690553480156200001c57600080fd5b5060405162002a8d38038062002a8d833981810160405260a08110156200004257600080fd5b81019080805160405193929190846401000000008211156200006357600080fd5b9083019060208201858111156200007957600080fd5b82516401000000008111828201881017156200009457600080fd5b82525081516020918201929091019080838360005b83811015620000c3578181015183820152602001620000a9565b50505050905090810190601f168015620000f15780820380516001836020036101000a031916815260200191505b50604052602001805160405193929190846401000000008211156200011557600080fd5b9083019060208201858111156200012b57600080fd5b82516401000000008111828201881017156200014657600080fd5b82525081516020918201929091019080838360005b83811015620001755781810151838201526020016200015b565b50505050905090810190601f168015620001a35780820380516001836020036101000a031916815260200191505b5060409081526020828101519183015160609093015187519295509293508691869183918391620001da9160039185019062000616565b508051620001f090600490602084019062000616565b50506005805460ff191660121790555060006200020c62000433565b60058054610100600160a81b0319166101006001600160a01b03841690810291909117909155604051919250906000907f8be0079c531659141344cd1fd0a4f28419497f9722a3daafe3b4186f6b6457e0908290a3506200026c62000433565b600680546001600160a01b0319166001600160a01b0392831617908190556040519116906000907f74da04524d50c64947f5dd5381ef1a4dca5cba8ed1d816243f9e48aa0b5617ed908290a350620002cf905033678ac7230489e8000062000437565b620002e48268015af1d78b58c4000062000437565b60808390526301dfe20080840160a052600f8490556010849055620003219069017a1d91e8ddbd9c00009062000546602090811b6200188417901c565b60c0526200034968bd317abd30014800006301dfe20062000546602090811b6200188417901c565b60e0526001600160a01b0381166200039e576040805162461bcd60e51b81526020600482015260136024820152720416464726573732063616e6e6f74206265203606c1b604482015290519081900360640190fd5b600e80546001600160a01b0319166001600160a01b0383811691909117909155821662000408576040805162461bcd60e51b81526020600482015260136024820152720416464726573732063616e6e6f74206265203606c1b604482015290519081900360640190fd5b50600d80546001600160a01b0319166001600160a01b039290921691909117905550620006b2915050565b3390565b6001600160a01b03821662000493576040805162461bcd60e51b815260206004820152601f60248201527f45524332303a206d696e7420746f20746865207a65726f206164647265737300604482015290519081900360640190fd5b620004a160008383620005af565b620004bd81600254620005b460201b620018eb1790919060201c565b6002556001600160a01b03821660009081526020818152604090912054620004f0918390620018eb620005b4821b17901c565b6001600160a01b0383166000818152602081815260408083209490945583518581529351929391927fddf252ad1be2c89b69c2b068fc378daa952ba7f163c4a11628f55a4df523b3ef9281900390910190a35050565b60008082116200059d576040805162461bcd60e51b815260206004820152601a60248201527f536166654d6174683a206469766973696f6e206279207a65726f000000000000604482015290519081900360640190fd5b818381620005a757fe5b049392505050565b505050565b6000828201838110156200060f576040805162461bcd60e51b815260206004820152601b60248201527f536166654d6174683a206164646974696f6e206f766572666c6f770000000000604482015290519081900360640190fd5b9392505050565b828054600181600116156101000203166002900490600052602060002090601f016020900481019282601f106200065957805160ff191683800117855562000689565b8280016001018555821562000689579182015b82811115620006895782518255916020019190600101906200066c565b50620006979291506200069b565b5090565b5b808211156200069757600081556001016200069c565b60805160a05160c05160e0516123876200070660003980610e895280610ebf525080610b375280611126525080610ad65280610aff5280610e285280610e515280610eec52508061138e52506123876000f3fe608060405234801561001057600080fd5b50600436106103615760003560e01c80634f337dd5116101c85780638fa8173211610104578063ae4db919116100a2578063f1b15c941161007c578063f1b15c9414610835578063f2fde38b1461083d578063f746b71814610863578063fe46be441461088957610361565b8063ae4db919146107c4578063dd62ed3e146107ea578063e1ea1fa31461081857610361565b8063a06160fd116100de578063a06160fd1461075c578063a457c2d714610764578063a9059cbb14610790578063abb4b1be146107bc57610361565b80638fa817321461074457806395d89b411461074c5780639662676c1461075457610361565b8063678014b011610171578063771a3a1d1161014b578063771a3a1d1461070057806378e979251461070857806379cc6790146107105780638da5cb5b1461073c57610361565b8063678014b0146106ca57806370a08231146106d2578063715018a6146106f857610361565b8063570ca735116101a2578063570ca735146106b257806361482bed146106ba57806364f53f2e146106c257610361565b80634f337dd51461066c5780635024ec1f1461067457806354575af41461067c57610361565b8063313ce567116102a25780633f07d76a116102405780634456eda21161021a5780634456eda21461062e57806344cdc45414610636578063483846401461063e5780634cfc4d301461066457610361565b80633f07d76a146105e357806342966c68146106095780634390d2a81461062657610361565b806338d2776e1161027c57806338d2776e1461058857806339509351146105a75780633bba8eed146105d35780633e5f13d4146105db57610361565b8063313ce5671461055a5780633197cbb614610578578063372500ab1461058057610361565b806318160ddd1161030f57806323b872dd116102e957806323b872dd146104ee57806329605e77146105245780632c07a6241461054a5780632e3367ce1461055257610361565b806318160ddd146104915780631b9e2fad14610499578063232798df146104bf57610361565b8063092193ab11610340578063092193ab14610421578063095ea7b314610449578063177647821461048957610361565b8062f380f414610366578063040173151461038a57806306fdde03146103a4575b600080fd5b61036e6108d0565b604080516001600160a01b039092168252519081900360200190f35b6103926108df565b60408051918252519081900360200190f35b6103ac6108e5565b6040805160208082528351818301528351919283929083019185019080838360005b838110156103e65781810151838201526020016103ce565b50505050905090810190601f1680156104135780820380516001836020036101000a031916815260200191505b509250505060405180910390f35b6104476004803603602081101561043757600080fd5b50356001600160a01b031661097c565b005b6104756004803603604081101561045f57600080fd5b506001600160a01b038135169060200135610ab3565b604080519115158252519081900360200190f35b610392610ad1565b610392610b77565b610475600480360360208110156104af57600080fd5b50356001600160a01b0316610b7d565b610447600480360360408110156104d557600080fd5b5080356001600160a01b0316906020013560ff16610be0565b6104756004803603606081101561050457600080fd5b506001600160a01b03813581169160208101359091169060400135610c6d565b6104476004803603602081101561053a57600080fd5b50356001600160a01b0316610da6565b610392610e23565b610392610ebd565b610562610ee1565b6040805160ff9092168252519081900360200190f35b610392610eea565b610447610f0e565b6104476004803603602081101561059e57600080fd5b50351515610f9a565b610475600480360360408110156105bd57600080fd5b506001600160a01b038135169060200135610ff6565b610392611049565b61036e611057565b610447600480360360208110156105f957600080fd5b50356001600160a01b0316611066565b6104476004803603602081101561061f57600080fd5b50356110de565b61036e6110ef565b6104756110fe565b610392611124565b6104756004803603602081101561065457600080fd5b50356001600160a01b0316611148565b610392611151565b610392611159565b610392611166565b6104476004803603606081101561069257600080fd5b506001600160a01b0381358116916020810135916040909101351661116c565b61036e61123d565b61039261124c565b610392611252565b610392611294565b610392600480360360208110156106e857600080fd5b50356001600160a01b031661129a565b6104476112b5565b610392611386565b61039261138c565b6104476004803603604081101561072657600080fd5b506001600160a01b0381351690602001356113b0565b61036e61140a565b61039261141e565b6103ac611424565b610475611485565b61039261148e565b6104756004803603604081101561077a57600080fd5b506001600160a01b03813516906020013561149c565b610475600480360360408110156107a657600080fd5b506001600160a01b038135169060200135611504565b610392611518565b610447600480360360208110156107da57600080fd5b50356001600160a01b031661151e565b6103926004803603604081101561080057600080fd5b506001600160a01b03813581169160200135166115f2565b6104476004803603602081101561082e57600080fd5b503561161d565b6104756116c2565b6104476004803603602081101561085357600080fd5b50356001600160a01b03166116cb565b6104476004803603602081101561087957600080fd5b50356001600160a01b03166117f8565b6108af6004803603602081101561089f57600080fd5b50356001600160a01b031661186f565b604051808260038111156108bf57fe5b815260200191505060405180910390f35b600d546001600160a01b031681565b60105481565b60038054604080516020601f60026000196101006001881615020190951694909404938401819004810282018101909252828152606093909290918301828280156109715780601f1061094657610100808354040283529160200191610971565b820191906000526020600020905b81548152906001019060200180831161095457829003601f168201915b505050505090505b90565b6006546001600160a01b031633146109c55760405162461bcd60e51b815260040180806020018281038252602481526020018061229f6024913960400191505060405180910390fd5b60115460ff1615610a1d576040805162461bcd60e51b815260206004820152601860248201527f6f6e6c792063616e2064697374726962757465206f6e63650000000000000000604482015290519081900360640190fd5b6001600160a01b03811615801590610a3e57506001600160a01b0381163014155b610a8f576040805162461bcd60e51b815260206004820152601660248201527f215f6661726d696e67496e63656e7469766546756e6400000000000000000000604482015290519081900360640190fd5b6011805460ff19166001179055610ab08169048d8470181e3270000061194c565b50565b6000610ac7610ac0611a3c565b8484611a40565b5060015b92915050565b6000427f0000000000000000000000000000000000000000000000000000000000000000811115610b1f57507f00000000000000000000000000000000000000000000000000000000000000005b80600f5410610b32576000915050610979565b610b717f0000000000000000000000000000000000000000000000000000000000000000610b6b600f5484611b2c90919063ffffffff16565b90611b89565b91505090565b60025490565b600060015b6001600160a01b03831660009081526007602052604090205460ff166003811115610ba957fe5b1480610acb575060036001600160a01b03831660009081526007602052604090205460ff166003811115610bd957fe5b1492915050565b600b546001600160a01b03163314610c295760405162461bcd60e51b81526004018080602001828103825260238152602001806121e26023913960400191505060405180910390fd5b8060ff166003811115610c3857fe5b6001600160a01b0383166000908152600760205260409020805460ff19166001836003811115610c6457fe5b02179055505050565b6000610c7884610b7d565b158015610c8b5750610c8983611148565b155b15610d93576000610c9a611252565b90508015610d9157600b54604080517f5803abaa0000000000000000000000000000000000000000000000000000000081526001600160a01b03888116600483015287811660248301529151600093610d4a931691635803abaa91604480830192602092919082900301818887803b158015610d1557600080fd5b505af1158015610d29573d6000803e3d6000fd5b505050506040513d6020811015610d3f57600080fd5b505161271090611b2c565b9050610d62612710610d5c8484611b89565b90611884565b91506000610d76612710610d5c8786611b89565b9050610d828582611b2c565b9450610d8e8782611be2565b50505b505b610d9e848484611c95565b949350505050565b610dae611a3c565b6001600160a01b0316610dbf61140a565b6001600160a01b031614610e1a576040805162461bcd60e51b815260206004820181905260248201527f4f776e61626c653a2063616c6c6572206973206e6f7420746865206f776e6572604482015290519081900360640190fd5b610ab081611d17565b6000427f0000000000000000000000000000000000000000000000000000000000000000811115610e7157507f00000000000000000000000000000000000000000000000000000000000000005b8060105410610e84576000915050610979565b610b717f0000000000000000000000000000000000000000000000000000000000000000610b6b60105484611b2c90919063ffffffff16565b7f000000000000000000000000000000000000000000000000000000000000000081565b60055460ff1690565b7f000000000000000000000000000000000000000000000000000000000000000081565b6000610f18610ad1565b9050600081118015610f345750600d546001600160a01b031615155b15610f5457600d54610f4f906001600160a01b03168261194c565b42600f555b610f5c610e23565b9050600081118015610f785750600e546001600160a01b031615155b15610ab057600e54610f93906001600160a01b03168261194c565b4260105550565b600b546001600160a01b03163314610fe35760405162461bcd60e51b81526004018080602001828103825260238152602001806121e26023913960400191505060405180910390fd5b6008805460ff1916911515919091179055565b6000610ac7611003611a3c565b846110448560016000611014611a3c565b6001600160a01b03908116825260208083019390935260409182016000908120918c1681529252902054906118eb565b611a40565b69017a1d91e8ddbd9c000081565b600b546001600160a01b031681565b6006546001600160a01b031633146110af5760405162461bcd60e51b815260040180806020018281038252602481526020018061229f6024913960400191505060405180910390fd5b600b805473ffffffffffffffffffffffffffffffffffffffff19166001600160a01b0392909216919091179055565b610ab06110e9611a3c565b82611dc1565b600e546001600160a01b031681565b6006546000906001600160a01b0316611115611a3c565b6001600160a01b031614905090565b7f000000000000000000000000000000000000000000000000000000000000000081565b60006002610b82565b6301dfe20081565b68bd317abd300148000081565b60095481565b6006546001600160a01b031633146111b55760405162461bcd60e51b815260040180806020018281038252602481526020018061229f6024913960400191505060405180910390fd5b826001600160a01b031663a9059cbb82846040518363ffffffff1660e01b815260040180836001600160a01b0316815260200182815260200192505050602060405180830381600087803b15801561120c57600080fd5b505af1158015611220573d6000803e3d6000fd5b505050506040513d602081101561123657600080fd5b5050505050565b6006546001600160a01b031690565b600a5481565b600954600c5560085460009060ff1615156001141561128d57611273611ebd565b610dac600a54111561128657610dac600a555b600a54600c555b50600c5490565b61271081565b6001600160a01b031660009081526020819052604090205490565b6112bd611a3c565b6001600160a01b03166112ce61140a565b6001600160a01b031614611329576040805162461bcd60e51b815260206004820181905260248201527f4f776e61626c653a2063616c6c6572206973206e6f7420746865206f776e6572604482015290519081900360640190fd5b60055460405160009161010090046001600160a01b0316907f8be0079c531659141344cd1fd0a4f28419497f9722a3daafe3b4186f6b6457e0908390a36005805474ffffffffffffffffffffffffffffffffffffffff0019169055565b600c5481565b7f000000000000000000000000000000000000000000000000000000000000000081565b60006113e78260405180606001604052806024815260200161227b602491396113e0866113db611a3c565b6115f2565b9190611f3c565b90506113fb836113f5611a3c565b83611a40565b6114058383611dc1565b505050565b60055461010090046001600160a01b031690565b610dac81565b60048054604080516020601f60026000196101006001881615020190951694909404938401819004810282018101909252828152606093909290918301828280156109715780601f1061094657610100808354040283529160200191610971565b60115460ff1681565b69048d8470181e3270000081565b6000610ac76114a9611a3c565b846110448560405180606001604052806025815260200161232d60259139600160006114d3611a3c565b6001600160a01b03908116825260208083019390935260409182016000908120918d16815292529020549190611f3c565b6000610ac7611511611a3c565b8484611fd3565b600f5481565b600e546001600160a01b03163314611566576040805162461bcd60e51b8152602060048083019190915260248201526310b232bb60e11b604482015290519081900360640190fd5b6001600160a01b0381166115c3576040805162461bcd60e51b8152602060048083019190915260248201527f7a65726f00000000000000000000000000000000000000000000000000000000604482015290519081900360640190fd5b600e805473ffffffffffffffffffffffffffffffffffffffff19166001600160a01b0392909216919091179055565b6001600160a01b03918216600090815260016020908152604080832093909416825291909152205490565b600b546001600160a01b031633146116665760405162461bcd60e51b81526004018080602001828103825260238152602001806121e26023913960400191505060405180910390fd5b610dac8111156116bd576040805162461bcd60e51b815260206004820152601d60248201527f4572726f723a204d61782074617820726174652065786365656465642e000000604482015290519081900360640190fd5b600955565b60085460ff1681565b6116d3611a3c565b6001600160a01b03166116e461140a565b6001600160a01b03161461173f576040805162461bcd60e51b815260206004820181905260248201527f4f776e61626c653a2063616c6c6572206973206e6f7420746865206f776e6572604482015290519081900360640190fd5b6001600160a01b0381166117845760405162461bcd60e51b81526004018080602001828103825260268152602001806121746026913960400191505060405180910390fd5b6005546040516001600160a01b0380841692610100900416907f8be0079c531659141344cd1fd0a4f28419497f9722a3daafe3b4186f6b6457e090600090a3600580546001600160a01b039092166101000274ffffffffffffffffffffffffffffffffffffffff0019909216919091179055565b600e546001600160a01b03163314611840576040805162461bcd60e51b8152602060048083019190915260248201526310b232bb60e11b604482015290519081900360640190fd5b600d805473ffffffffffffffffffffffffffffffffffffffff19166001600160a01b0392909216919091179055565b60076020526000908152604090205460ff1681565b60008082116118da576040805162461bcd60e51b815260206004820152601a60248201527f536166654d6174683a206469766973696f6e206279207a65726f000000000000604482015290519081900360640190fd5b8183816118e357fe5b049392505050565b600082820183811015611945576040805162461bcd60e51b815260206004820152601b60248201527f536166654d6174683a206164646974696f6e206f766572666c6f770000000000604482015290519081900360640190fd5b9392505050565b6001600160a01b0382166119a7576040805162461bcd60e51b815260206004820152601f60248201527f45524332303a206d696e7420746f20746865207a65726f206164647265737300604482015290519081900360640190fd5b6119b360008383611405565b6002546119c090826118eb565b6002556001600160a01b0382166000908152602081905260409020546119e690826118eb565b6001600160a01b0383166000818152602081815260408083209490945583518581529351929391927fddf252ad1be2c89b69c2b068fc378daa952ba7f163c4a11628f55a4df523b3ef9281900390910190a35050565b3390565b6001600160a01b038316611a855760405162461bcd60e51b81526004018080602001828103825260248152602001806123096024913960400191505060405180910390fd5b6001600160a01b038216611aca5760405162461bcd60e51b815260040180806020018281038252602281526020018061219a6022913960400191505060405180910390fd5b6001600160a01b03808416600081815260016020908152604080832094871680845294825291829020859055815185815291517f8c5be1e5ebec7d5bd14f71427d1e84f3dd0314c0f7b2291e5b200ac8c7c3b9259281900390910190a3505050565b600082821115611b83576040805162461bcd60e51b815260206004820152601e60248201527f536166654d6174683a207375627472616374696f6e206f766572666c6f770000604482015290519081900360640190fd5b50900390565b600082611b9857506000610acb565b82820282848281611ba557fe5b04146119455760405162461bcd60e51b81526004018080602001828103825260218152602001806122326021913960400191505060405180910390fd5b600b54611bfa9083906001600160a01b031683611a40565b600b54611c129083906001600160a01b031683611c95565b50600b54604080517febaf41560000000000000000000000000000000000000000000000000000000081526004810184905290516001600160a01b039092169163ebaf41569160248082019260009290919082900301818387803b158015611c7957600080fd5b505af1158015611c8d573d6000803e3d6000fd5b505050505050565b6000611ca2848484611fd3565b611d0d84611cae611a3c565b61104485604051806060016040528060288152602001612253602891396001600160a01b038a16600090815260016020526040812090611cec611a3c565b6001600160a01b031681526020810191909152604001600020549190611f3c565b5060019392505050565b6001600160a01b038116611d5c5760405162461bcd60e51b815260040180806020018281038252602d815260200180612205602d913960400191505060405180910390fd5b6040516001600160a01b038216906000907f74da04524d50c64947f5dd5381ef1a4dca5cba8ed1d816243f9e48aa0b5617ed908290a36006805473ffffffffffffffffffffffffffffffffffffffff19166001600160a01b0392909216919091179055565b6001600160a01b038216611e065760405162461bcd60e51b81526004018080602001828103825260218152602001806122c36021913960400191505060405180910390fd5b611e1282600083611405565b611e4f81604051806060016040528060228152602001612152602291396001600160a01b0385166000908152602081905260409020549190611f3c565b6001600160a01b038316600090815260208190526040902055600254611e759082611b2c565b6002556040805182815290516000916001600160a01b038516917fddf252ad1be2c89b69c2b068fc378daa952ba7f163c4a11628f55a4df523b3ef9181900360200190a35050565b600b60009054906101000a90046001600160a01b03166001600160a01b031663d27428136040518163ffffffff1660e01b815260040160206040518083038186803b158015611f0b57600080fd5b505afa158015611f1f573d6000803e3d6000fd5b505050506040513d6020811015611f3557600080fd5b5051600a55565b60008184841115611fcb5760405162461bcd60e51b81526004018080602001828103825283818151815260200191508051906020019080838360005b83811015611f90578181015183820152602001611f78565b50505050905090810190601f168015611fbd5780820380516001836020036101000a031916815260200191505b509250505060405180910390fd5b505050900390565b6001600160a01b0383166120185760405162461bcd60e51b81526004018080602001828103825260258152602001806122e46025913960400191505060405180910390fd5b6001600160a01b03821661205d5760405162461bcd60e51b815260040180806020018281038252602381526020018061212f6023913960400191505060405180910390fd5b612068838383611405565b6120a5816040518060600160405280602681526020016121bc602691396001600160a01b0386166000908152602081905260409020549190611f3c565b6001600160a01b0380851660009081526020819052604080822093909355908416815220546120d490826118eb565b6001600160a01b038084166000818152602081815260409182902094909455805185815290519193928716927fddf252ad1be2c89b69c2b068fc378daa952ba7f163c4a11628f55a4df523b3ef92918290030190a350505056fe45524332303a207472616e7366657220746f20746865207a65726f206164647265737345524332303a206275726e20616d6f756e7420657863656564732062616c616e63654f776e61626c653a206e6577206f776e657220697320746865207a65726f206164647265737345524332303a20617070726f766520746f20746865207a65726f206164647265737345524332303a207472616e7366657220616d6f756e7420657863656564732062616c616e63654572726f723a2043616c6c6572206973206e6f742074686520746178206f66666963656f70657261746f723a207a65726f206164647265737320676976656e20666f72206e6577206f70657261746f72536166654d6174683a206d756c7469706c69636174696f6e206f766572666c6f7745524332303a207472616e7366657220616d6f756e74206578636565647320616c6c6f77616e636545524332303a206275726e20616d6f756e74206578636565647320616c6c6f77616e63656f70657261746f723a2063616c6c6572206973206e6f7420746865206f70657261746f7245524332303a206275726e2066726f6d20746865207a65726f206164647265737345524332303a207472616e736665722066726f6d20746865207a65726f206164647265737345524332303a20617070726f76652066726f6d20746865207a65726f206164647265737345524332303a2064656372656173656420616c6c6f77616e63652062656c6f77207a65726fa26469706673582212205a9521166a91eb398fa92989e8e56af6bf3d0ba43cabf723b83730892a82e9f664736f6c634300060c0033",
  "devdoc": {
    "kind": "dev",
    "methods": {
      "allowance(address,address)": {
        "details": "See {IERC20-allowance}."
      },
      "approve(address,uint256)": {
        "details": "See {IERC20-approve}. Requirements: - `spender` cannot be the zero address."
      },
      "balanceOf(address)": {
        "details": "See {IERC20-balanceOf}."
      },
      "burn(uint256)": {
        "details": "Destroys `amount` tokens from the caller. See {ERC20-_burn}."
      },
      "burnFrom(address,uint256)": {
        "details": "Destroys `amount` tokens from `account`, deducting from the caller's allowance. See {ERC20-_burn} and {ERC20-allowance}. Requirements: - the caller must have allowance for ``accounts``'s tokens of at least `amount`."
      },
      "claimRewards()": {
        "details": "Claim pending rewards to community and dev fund"
      },
      "decimals()": {
        "details": "Returns the number of decimals used to get its user representation. For example, if `decimals` equals `2`, a balance of `505` tokens should be displayed to a user as `5,05` (`505 / 10 ** 2`). Tokens usually opt for a value of 18, imitating the relationship between Ether and Wei. This is the value {ERC20} uses, unless {_setupDecimals} is called. NOTE: This information is only used for _display_ purposes: it in no way affects any of the arithmetic of the contract, including {IERC20-balanceOf} and {IERC20-transfer}."
      },
      "decreaseAllowance(address,uint256)": {
        "details": "Atomically decreases the allowance granted to `spender` by the caller. This is an alternative to {approve} that can be used as a mitigation for problems described in {IERC20-approve}. Emits an {Approval} event indicating the updated allowance. Requirements: - `spender` cannot be the zero address. - `spender` must have allowance for the caller of at least `subtractedValue`."
      },
      "increaseAllowance(address,uint256)": {
        "details": "Atomically increases the allowance granted to `spender` by the caller. This is an alternative to {approve} that can be used as a mitigation for problems described in {IERC20-approve}. Emits an {Approval} event indicating the updated allowance. Requirements: - `spender` cannot be the zero address."
      },
      "name()": {
        "details": "Returns the name of the token."
      },
      "owner()": {
        "details": "Returns the address of the current owner."
      },
      "renounceOwnership()": {
        "details": "Leaves the contract without owner. It will not be possible to call `onlyOwner` functions anymore. Can only be called by the current owner. NOTE: Renouncing ownership will leave the contract without an owner, thereby removing any functionality that is only available to the owner."
      },
      "symbol()": {
        "details": "Returns the symbol of the token, usually a shorter version of the name."
      },
      "totalSupply()": {
        "details": "See {IERC20-totalSupply}."
      },
      "transfer(address,uint256)": {
        "details": "See {IERC20-transfer}. Requirements: - `recipient` cannot be the zero address. - the caller must have a balance of at least `amount`."
      },
      "transferOwnership(address)": {
        "details": "Transfers ownership of the contract to a new account (`newOwner`). Can only be called by the current owner."
      }
    },
    "version": 1
  },
  "userdoc": {
    "kind": "user",
    "methods": {
      "distributeReward(address)": {
        "notice": "distribute to reward pool (only once)"
      }
    },
    "version": 1
  },
  "storageLayout": {
    "storage": [
      {
        "astId": 554,
        "contract": "contracts/Glcr.sol:Glcr",
        "label": "_balances",
        "offset": 0,
        "slot": "0",
        "type": "t_mapping(t_address,t_uint256)"
      },
      {
        "astId": 560,
        "contract": "contracts/Glcr.sol:Glcr",
        "label": "_allowances",
        "offset": 0,
        "slot": "1",
        "type": "t_mapping(t_address,t_mapping(t_address,t_uint256))"
      },
      {
        "astId": 562,
        "contract": "contracts/Glcr.sol:Glcr",
        "label": "_totalSupply",
        "offset": 0,
        "slot": "2",
        "type": "t_uint256"
      },
      {
        "astId": 564,
        "contract": "contracts/Glcr.sol:Glcr",
        "label": "_name",
        "offset": 0,
        "slot": "3",
        "type": "t_string_storage"
      },
      {
        "astId": 566,
        "contract": "contracts/Glcr.sol:Glcr",
        "label": "_symbol",
        "offset": 0,
        "slot": "4",
        "type": "t_string_storage"
      },
      {
        "astId": 568,
        "contract": "contracts/Glcr.sol:Glcr",
        "label": "_decimals",
        "offset": 0,
        "slot": "5",
        "type": "t_uint8"
      },
      {
        "astId": 7,
        "contract": "contracts/Glcr.sol:Glcr",
        "label": "_owner",
        "offset": 1,
        "slot": "5",
        "type": "t_address"
      },
      {
        "astId": 13705,
        "contract": "contracts/Glcr.sol:Glcr",
        "label": "_operator",
        "offset": 0,
        "slot": "6",
        "type": "t_address"
      },
      {
        "astId": 15561,
        "contract": "contracts/Glcr.sol:Glcr",
        "label": "whitelistType",
        "offset": 0,
        "slot": "7",
        "type": "t_mapping(t_address,t_enum(WhitelistType)15557)"
      },
      {
        "astId": 15563,
        "contract": "contracts/Glcr.sol:Glcr",
        "label": "enableDynamicTax",
        "offset": 0,
        "slot": "8",
        "type": "t_bool"
      },
      {
        "astId": 15571,
        "contract": "contracts/Glcr.sol:Glcr",
        "label": "staticTaxRate",
        "offset": 0,
        "slot": "9",
        "type": "t_uint256"
      },
      {
        "astId": 15573,
        "contract": "contracts/Glcr.sol:Glcr",
        "label": "dynamicTaxRate",
        "offset": 0,
        "slot": "10",
        "type": "t_uint256"
      },
      {
        "astId": 15575,
        "contract": "contracts/Glcr.sol:Glcr",
        "label": "taxOffice",
        "offset": 0,
        "slot": "11",
        "type": "t_address"
      },
      {
        "astId": 15577,
        "contract": "contracts/Glcr.sol:Glcr",
        "label": "taxRate",
        "offset": 0,
        "slot": "12",
        "type": "t_uint256"
      },
      {
        "astId": 2588,
        "contract": "contracts/Glcr.sol:Glcr",
        "label": "communityFund",
        "offset": 0,
        "slot": "13",
        "type": "t_address"
      },
      {
        "astId": 2590,
        "contract": "contracts/Glcr.sol:Glcr",
        "label": "devFund",
        "offset": 0,
        "slot": "14",
        "type": "t_address"
      },
      {
        "astId": 2592,
        "contract": "contracts/Glcr.sol:Glcr",
        "label": "communityFundLastClaimed",
        "offset": 0,
        "slot": "15",
        "type": "t_uint256"
      },
      {
        "astId": 2594,
        "contract": "contracts/Glcr.sol:Glcr",
        "label": "devFundLastClaimed",
        "offset": 0,
        "slot": "16",
        "type": "t_uint256"
      },
      {
        "astId": 2597,
        "contract": "contracts/Glcr.sol:Glcr",
        "label": "rewardPoolDistributed",
        "offset": 0,
        "slot": "17",
        "type": "t_bool"
      }
    ],
    "types": {
      "t_address": {
        "encoding": "inplace",
        "label": "address",
        "numberOfBytes": "20"
      },
      "t_bool": {
        "encoding": "inplace",
        "label": "bool",
        "numberOfBytes": "1"
      },
      "t_enum(WhitelistType)15557": {
        "encoding": "inplace",
        "label": "enum ERC20Taxable.WhitelistType",
        "numberOfBytes": "1"
      },
      "t_mapping(t_address,t_enum(WhitelistType)15557)": {
        "encoding": "mapping",
        "key": "t_address",
        "label": "mapping(address => enum ERC20Taxable.WhitelistType)",
        "numberOfBytes": "32",
        "value": "t_enum(WhitelistType)15557"
      },
      "t_mapping(t_address,t_mapping(t_address,t_uint256))": {
        "encoding": "mapping",
        "key": "t_address",
        "label": "mapping(address => mapping(address => uint256))",
        "numberOfBytes": "32",
        "value": "t_mapping(t_address,t_uint256)"
      },
      "t_mapping(t_address,t_uint256)": {
        "encoding": "mapping",
        "key": "t_address",
        "label": "mapping(address => uint256)",
        "numberOfBytes": "32",
        "value": "t_uint256"
      },
      "t_string_storage": {
        "encoding": "bytes",
        "label": "string",
        "numberOfBytes": "32"
      },
      "t_uint256": {
        "encoding": "inplace",
        "label": "uint256",
        "numberOfBytes": "32"
      },
      "t_uint8": {
        "encoding": "inplace",
        "label": "uint8",
        "numberOfBytes": "1"
      }
    }
  }
}