{
  "address": "0x75b0B516B47A27b1819D21B26203Abf314d42CCE",
  "abi": [
    {
      "inputs": [
        {
          "internalType": "address",
          "name": "_snow",
          "type": "address"
        },
        {
          "internalType": "uint256",
          "name": "_poolStartTime",
          "type": "uint256"
        },
        {
          "internalType": "address",
          "name": "_daoFund",
          "type": "address"
        },
        {
          "internalType": "uint256",
          "name": "_depositFee",
          "type": "uint256"
        },
        {
          "internalType": "address",
          "name": "_depositToken",
          "type": "address"
        }
      ],
      "stateMutability": "nonpayable",
      "type": "constructor"
    },
    {
      "anonymous": false,
      "inputs": [
        {
          "indexed": true,
          "internalType": "address",
          "name": "user",
          "type": "address"
        },
        {
          "indexed": true,
          "internalType": "uint256",
          "name": "pid",
          "type": "uint256"
        },
        {
          "indexed": false,
          "internalType": "uint256",
          "name": "amount",
          "type": "uint256"
        }
      ],
      "name": "Deposit",
      "type": "event"
    },
    {
      "anonymous": false,
      "inputs": [
        {
          "indexed": true,
          "internalType": "address",
          "name": "user",
          "type": "address"
        },
        {
          "indexed": true,
          "internalType": "uint256",
          "name": "pid",
          "type": "uint256"
        },
        {
          "indexed": false,
          "internalType": "uint256",
          "name": "amount",
          "type": "uint256"
        }
      ],
      "name": "EmergencyWithdraw",
      "type": "event"
    },
    {
      "anonymous": false,
      "inputs": [
        {
          "indexed": true,
          "internalType": "address",
          "name": "previousOwner",
          "type": "address"
        },
        {
          "indexed": true,
          "internalType": "address",
          "name": "newOwner",
          "type": "address"
        }
      ],
      "name": "OwnershipTransferred",
      "type": "event"
    },
    {
      "anonymous": false,
      "inputs": [
        {
          "indexed": true,
          "internalType": "address",
          "name": "user",
          "type": "address"
        },
        {
          "indexed": false,
          "internalType": "uint256",
          "name": "amount",
          "type": "uint256"
        }
      ],
      "name": "RewardPaid",
      "type": "event"
    },
    {
      "anonymous": false,
      "inputs": [
        {
          "indexed": true,
          "internalType": "address",
          "name": "user",
          "type": "address"
        },
        {
          "indexed": true,
          "internalType": "uint256",
          "name": "pid",
          "type": "uint256"
        },
        {
          "indexed": false,
          "internalType": "uint256",
          "name": "amount",
          "type": "uint256"
        }
      ],
      "name": "Withdraw",
      "type": "event"
    },
    {
      "inputs": [],
      "name": "RUNNING_TIME",
      "outputs": [
        {
          "internalType": "uint256",
          "name": "",
          "type": "uint256"
        }
      ],
      "stateMutability": "view",
      "type": "function"
    },
    {
      "inputs": [],
      "name": "TOTAL_REWARDS",
      "outputs": [
        {
          "internalType": "uint256",
          "name": "",
          "type": "uint256"
        }
      ],
      "stateMutability": "view",
      "type": "function"
    },
    {
      "inputs": [
        {
          "internalType": "uint256",
          "name": "_allocPoint",
          "type": "uint256"
        },
        {
          "internalType": "contract IERC20",
          "name": "_token",
          "type": "address"
        },
        {
          "internalType": "bool",
          "name": "_withUpdate",
          "type": "bool"
        },
        {
          "internalType": "uint256",
          "name": "_lastRewardTime",
          "type": "uint256"
        }
      ],
      "name": "add",
      "outputs": [],
      "stateMutability": "nonpayable",
      "type": "function"
    },
    {
      "inputs": [],
      "name": "daoFund",
      "outputs": [
        {
          "internalType": "address",
          "name": "",
          "type": "address"
        }
      ],
      "stateMutability": "view",
      "type": "function"
    },
    {
      "inputs": [
        {
          "internalType": "uint256",
          "name": "_pid",
          "type": "uint256"
        },
        {
          "internalType": "uint256",
          "name": "_amount",
          "type": "uint256"
        }
      ],
      "name": "deposit",
      "outputs": [],
      "stateMutability": "nonpayable",
      "type": "function"
    },
    {
      "inputs": [],
      "name": "depositFee",
      "outputs": [
        {
          "internalType": "uint256",
          "name": "",
          "type": "uint256"
        }
      ],
      "stateMutability": "view",
      "type": "function"
    },
    {
      "inputs": [
        {
          "internalType": "uint256",
          "name": "_pid",
          "type": "uint256"
        }
      ],
      "name": "emergencyWithdraw",
      "outputs": [],
      "stateMutability": "nonpayable",
      "type": "function"
    },
    {
      "inputs": [
        {
          "internalType": "uint256",
          "name": "_fromTime",
          "type": "uint256"
        },
        {
          "internalType": "uint256",
          "name": "_toTime",
          "type": "uint256"
        }
      ],
      "name": "getGeneratedReward",
      "outputs": [
        {
          "internalType": "uint256",
          "name": "",
          "type": "uint256"
        }
      ],
      "stateMutability": "view",
      "type": "function"
    },
    {
      "inputs": [
        {
          "internalType": "address",
          "name": "_token",
          "type": "address"
        },
        {
          "internalType": "uint256",
          "name": "amount",
          "type": "uint256"
        },
        {
          "internalType": "address",
          "name": "to",
          "type": "address"
        }
      ],
      "name": "governanceRecoverUnsupported",
      "outputs": [],
      "stateMutability": "nonpayable",
      "type": "function"
    },
    {
      "inputs": [],
      "name": "massUpdatePools",
      "outputs": [],
      "stateMutability": "nonpayable",
      "type": "function"
    },
    {
      "inputs": [],
      "name": "operator",
      "outputs": [
        {
          "internalType": "address",
          "name": "",
          "type": "address"
        }
      ],
      "stateMutability": "view",
      "type": "function"
    },
    {
      "inputs": [],
      "name": "owner",
      "outputs": [
        {
          "internalType": "address",
          "name": "",
          "type": "address"
        }
      ],
      "stateMutability": "view",
      "type": "function"
    },
    {
      "inputs": [
        {
          "internalType": "uint256",
          "name": "_pid",
          "type": "uint256"
        },
        {
          "internalType": "address",
          "name": "_user",
          "type": "address"
        }
      ],
      "name": "pendingSNOW",
      "outputs": [
        {
          "internalType": "uint256",
          "name": "",
          "type": "uint256"
        }
      ],
      "stateMutability": "view",
      "type": "function"
    },
    {
      "inputs": [],
      "name": "poolEndTime",
      "outputs": [
        {
          "internalType": "uint256",
          "name": "",
          "type": "uint256"
        }
      ],
      "stateMutability": "view",
      "type": "function"
    },
    {
      "inputs": [
        {
          "internalType": "uint256",
          "name": "",
          "type": "uint256"
        }
      ],
      "name": "poolInfo",
      "outputs": [
        {
          "internalType": "contract IERC20",
          "name": "token",
          "type": "address"
        },
        {
          "internalType": "uint256",
          "name": "allocPoint",
          "type": "uint256"
        },
        {
          "internalType": "uint256",
          "name": "lastRewardTime",
          "type": "uint256"
        },
        {
          "internalType": "uint256",
          "name": "accSnowPerShare",
          "type": "uint256"
        },
        {
          "internalType": "bool",
          "name": "isStarted",
          "type": "bool"
        }
      ],
      "stateMutability": "view",
      "type": "function"
    },
    {
      "inputs": [],
      "name": "poolStartTime",
      "outputs": [
        {
          "internalType": "uint256",
          "name": "",
          "type": "uint256"
        }
      ],
      "stateMutability": "view",
      "type": "function"
    },
    {
      "inputs": [],
      "name": "renounceOwnership",
      "outputs": [],
      "stateMutability": "nonpayable",
      "type": "function"
    },
    {
      "inputs": [
        {
          "internalType": "uint256",
          "name": "_pid",
          "type": "uint256"
        },
        {
          "internalType": "uint256",
          "name": "_allocPoint",
          "type": "uint256"
        }
      ],
      "name": "set",
      "outputs": [],
      "stateMutability": "nonpayable",
      "type": "function"
    },
    {
      "inputs": [
        {
          "internalType": "address",
          "name": "_operator",
          "type": "address"
        }
      ],
      "name": "setOperator",
      "outputs": [],
      "stateMutability": "nonpayable",
      "type": "function"
    },
    {
      "inputs": [],
      "name": "snow",
      "outputs": [
        {
          "internalType": "contract IERC20",
          "name": "",
          "type": "address"
        }
      ],
      "stateMutability": "view",
      "type": "function"
    },
    {
      "inputs": [],
      "name": "snowPerSecond",
      "outputs": [
        {
          "internalType": "uint256",
          "name": "",
          "type": "uint256"
        }
      ],
      "stateMutability": "view",
      "type": "function"
    },
    {
      "inputs": [],
      "name": "totalAllocPoint",
      "outputs": [
        {
          "internalType": "uint256",
          "name": "",
          "type": "uint256"
        }
      ],
      "stateMutability": "view",
      "type": "function"
    },
    {
      "inputs": [
        {
          "internalType": "address",
          "name": "newOwner",
          "type": "address"
        }
      ],
      "name": "transferOwnership",
      "outputs": [],
      "stateMutability": "nonpayable",
      "type": "function"
    },
    {
      "inputs": [
        {
          "internalType": "uint256",
          "name": "_pid",
          "type": "uint256"
        }
      ],
      "name": "updatePool",
      "outputs": [],
      "stateMutability": "nonpayable",
      "type": "function"
    },
    {
      "inputs": [
        {
          "internalType": "uint256",
          "name": "",
          "type": "uint256"
        },
        {
          "internalType": "address",
          "name": "",
          "type": "address"
        }
      ],
      "name": "userInfo",
      "outputs": [
        {
          "internalType": "uint256",
          "name": "amount",
          "type": "uint256"
        },
        {
          "internalType": "uint256",
          "name": "rewardDebt",
          "type": "uint256"
        }
      ],
      "stateMutability": "view",
      "type": "function"
    },
    {
      "inputs": [
        {
          "internalType": "uint256",
          "name": "_pid",
          "type": "uint256"
        },
        {
          "internalType": "uint256",
          "name": "_amount",
          "type": "uint256"
        }
      ],
      "name": "withdraw",
      "outputs": [],
      "stateMutability": "nonpayable",
      "type": "function"
    }
  ],
  "transactionHash": "0x61dee2d1f864894e8f49f9f90cfc1220b5db55cb4324bc1444ae4bf4e104d414",
  "args": [
    "0x9C85258d9A00C01d00ded98065ea3840dF06f09c",
    1666743639,
    "0x70997970C51812dc3A010C7d01b50e0d17dc79C8",
    120,
    "0x124dDf9BdD2DdaD012ef1D5bBd77c00F05C610DA"
  ],
  "numDeployments": 1,
  "solcInputHash": "3c54a3c65be41d63bdc08efffa70f585",
  "bytecode": "0x60c060405260006005553480156200001657600080fd5b506040516200259c3803806200259c833981810160405260a08110156200003c57600080fd5b5080516020820151604083015160608401516080909401519293919290919060006200006762000198565b600080546001600160a01b0319166001600160a01b0383169081178255604051929350917f8be0079c531659141344cd1fd0a4f28419497f9722a3daafe3b4186f6b6457e0908290a350834210620000ef576040805162461bcd60e51b815260206004808301919091526024820152636c61746560e01b604482015290519081900360640190fd5b6001600160a01b038516156200011b57600280546001600160a01b0319166001600160a01b0387161790555b620001426202a3006905150ae84a8cdf0000006200019c60201b620014b51790919060201c565b60085560068490556202a30084016007556001600160601b0319606084901b1660805260a0829052600180546001600160a01b031916331790556200018d612ee08260008062000207565b5050505050620008c5565b3390565b6000808211620001f3576040805162461bcd60e51b815260206004820152601a60248201527f536166654d6174683a206469766973696f6e206279207a65726f000000000000604482015290519081900360640190fd5b818381620001fd57fe5b0490505b92915050565b6001546001600160a01b03163314620002525760405162461bcd60e51b815260040180806020018281038252602b81526020018062002571602b913960400191505060405180910390fd5b6200025d8362000423565b81156200026e576200026e620004c6565b6006544210156200029f578062000289575060065462000299565b6006548110156200029957506006545b620002b5565b801580620002ac57504281105b15620002b55750425b600060065482111580620002c95750428211155b6040805160a0810182526001600160a01b03878116825260208201898152928201868152600060608401818152861580156080870190815260038054600181018255945295517fc2575a0e9e593c00f959f8c92f12db2869c3395a3b0502d05e2516446f71f85b600590940293840180546001600160a01b031916919096161790945594517fc2575a0e9e593c00f959f8c92f12db2869c3395a3b0502d05e2516446f71f85c82015590517fc2575a0e9e593c00f959f8c92f12db2869c3395a3b0502d05e2516446f71f85d82015592517fc2575a0e9e593c00f959f8c92f12db2869c3395a3b0502d05e2516446f71f85e84015590517fc2575a0e9e593c00f959f8c92f12db2869c3395a3b0502d05e2516446f71f85f909201805460ff1916921515929092179091559091506200041c576200041885600554620004ed60201b6200151c1790919060201c565b6005555b5050505050565b60035460005b81811015620004c157826001600160a01b0316600382815481106200044a57fe5b60009182526020909120600590910201546001600160a01b03161415620004b8576040805162461bcd60e51b815260206004820152601f60248201527f536e6f775573646347656e657369733a206578697374696e6720706f6f6c3f00604482015290519081900360640190fd5b60010162000429565b505050565b60035460005b81811015620004e957620004e0816200054f565b600101620004cc565b5050565b60008282018381101562000548576040805162461bcd60e51b815260206004820152601b60248201527f536166654d6174683a206164646974696f6e206f766572666c6f770000000000604482015290519081900360640190fd5b9392505050565b6000600382815481106200055f57fe5b906000526020600020906005020190508060020154421162000582575062000707565b8054604080516370a0823160e01b815230600482015290516000926001600160a01b0316916370a08231916024808301926020929190829003018186803b158015620005cd57600080fd5b505afa158015620005e2573d6000803e3d6000fd5b505050506040513d6020811015620005f957600080fd5b50519050806200061157504260029091015562000707565b600482015460ff166200065257600482018054600160ff1990911681179091558201546005546200064e91620004ed602090811b6200151c17901c565b6005555b60055415620006fe576000620006738360020154426200070a60201b60201c565b90506000620006b06005546200069c8660010154856200080960201b6200157d1790919060201c565b6200019c60201b620014b51790919060201c565b9050620006f6620006dd846200069c670de0b6b3a7640000856200080960201b6200157d1790919060201c565b8560030154620004ed60201b6200151c1790919060201c565b600385015550505b50426002909101555b50565b60008183106200071d5750600062000201565b6007548210620007a85760075483106200073a5750600062000201565b600654831162000785576200077d600854620007696006546007546200086760201b620015d61790919060201c565b6200080960201b6200157d1790919060201c565b905062000201565b6200077d60085462000769856007546200086760201b620015d61790919060201c565b6006548211620007bb5750600062000201565b6006548311620007e8576200077d60085462000769600654856200086760201b620015d61790919060201c565b6200077d6008546200076985856200086760201b620015d61790919060201c565b6000826200081a5750600062000201565b828202828482816200082857fe5b0414620005485760405162461bcd60e51b8152600401808060200182810382526021815260200180620025506021913960400191505060405180910390fd5b600082821115620008bf576040805162461bcd60e51b815260206004820152601e60248201527f536166654d6174683a207375627472616374696f6e206f766572666c6f770000604482015290519081900360640190fd5b50900390565b60805160601c60a051611c506200090060003980610bea528061122c5280611261525080610cdf52806111f9528061129a5250611c506000f3fe608060405234801561001057600080fd5b50600436106101ae5760003560e01c8063630b5ba1116100ee57806393f1a40b11610097578063dd62ab3011610071578063dd62ab3014610415578063e2bbb15814610441578063e4affbc814610464578063f2fde38b1461046c576101ae565b806393f1a40b1461037057806396805e54146103b5578063b3ab15fb146103ef576101ae565b8063715018a6116100c8578063715018a6146103585780638d934f74146103605780638da5cb5b14610368576101ae565b8063630b5ba11461034057806367a52793146103485780636e271dd514610350576101ae565b80633a2b96261161015b5780635312ea8e116101355780635312ea8e146102dd57806354575af4146102fa578063570ca735146103305780635f96dc1114610338576101ae565b80633a2b962614610279578063441a3e701461029d57806351eb05a6146102c0576101ae565b80631ab06ee51161018c5780631ab06ee514610229578063231f0c6a1461024e5780633406037f14610271576101ae565b806309cf6091146101b35780631526fe27146101cd57806317caf6f114610221575b600080fd5b6101bb610492565b60408051918252519081900360200190f35b6101ea600480360360208110156101e357600080fd5b50356104a0565b604080516001600160a01b039096168652602086019490945284840192909252606084015215156080830152519081900360a00190f35b6101bb6104eb565b61024c6004803603604081101561023f57600080fd5b50803590602001356104f1565b005b6101bb6004803603604081101561026457600080fd5b508035906020013561059f565b6101bb610664565b61028161066b565b604080516001600160a01b039092168252519081900360200190f35b61024c600480360360408110156102b357600080fd5b508035906020013561067a565b61024c600480360360208110156102d657600080fd5b5035610842565b61024c600480360360208110156102f357600080fd5b50356109a0565b61024c6004803603606081101561031057600080fd5b506001600160a01b03813581169160208101359160409091013516610a3c565b610281610bb0565b6101bb610bbf565b61024c610bc5565b6101bb610be8565b6101bb610c0c565b61024c610c12565b610281610cdd565b610281610d01565b61039c6004803603604081101561038657600080fd5b50803590602001356001600160a01b0316610d10565b6040805192835260208301919091528051918290030190f35b61024c600480360360808110156103cb57600080fd5b508035906001600160a01b0360208201351690604081013515159060600135610d34565b61024c6004803603602081101561040557600080fd5b50356001600160a01b0316610f3e565b6101bb6004803603604081101561042b57600080fd5b50803590602001356001600160a01b0316610fb6565b61024c6004803603604081101561045757600080fd5b5080359060200135611117565b6101bb61138e565b61024c6004803603602081101561048257600080fd5b50356001600160a01b0316611394565b6905150ae84a8cdf00000081565b600381815481106104ad57fe5b6000918252602090912060059091020180546001820154600283015460038401546004909401546001600160a01b0390931694509092909160ff1685565b60055481565b6001546001600160a01b0316331461053a5760405162461bcd60e51b815260040180806020018281038252602b815260200180611bc6602b913960400191505060405180910390fd5b610542610bc5565b60006003838154811061055157fe5b60009182526020909120600590910201600481015490915060ff1615610598576105948261058e83600101546005546115d690919063ffffffff16565b9061151c565b6005555b6001015550565b60008183106105b05750600061065e565b60075482106106185760075483106105ca5750600061065e565b60065483116105fd576105f66008546105f06006546007546115d690919063ffffffff16565b9061157d565b905061065e565b6105f66008546105f0856007546115d690919063ffffffff16565b60065482116106295750600061065e565b600654831161064d576105f66008546105f0600654856115d690919063ffffffff16565b6008546105f6906105f084866115d6565b92915050565b6202a30081565b6002546001600160a01b031681565b600033905060006003848154811061068e57fe5b600091825260208083208784526004825260408085206001600160a01b03881686529092529220805460059092029092019250841115610715576040805162461bcd60e51b815260206004820152601260248201527f77697468647261773a206e6f7420676f6f640000000000000000000000000000604482015290519081900360640190fd5b61071e85610842565b600061075b8260010154610755670de0b6b3a764000061074f8760030154876000015461157d90919063ffffffff16565b906114b5565b906115d6565b905080156107ad5761076d8482611633565b6040805182815290516001600160a01b038616917fe2403640ba68fed3a2f88b7557551d1993f84b99bb10ff833f0cf8db0c5e0486919081900360200190a25b84156107d75781546107bf90866115d6565b825582546107d7906001600160a01b031685876116e9565b600383015482546107f591670de0b6b3a76400009161074f9161157d565b600183015560408051868152905187916001600160a01b038716917ff279e6a1f5e320cca91135676d9cb6e44ca8a08c0b88342bcdb1144f6511b5689181900360200190a3505050505050565b60006003828154811061085157fe5b9060005260206000209060050201905080600201544211610872575061099d565b8054604080516370a0823160e01b815230600482015290516000926001600160a01b0316916370a08231916024808301926020929190829003018186803b1580156108bc57600080fd5b505afa1580156108d0573d6000803e3d6000fd5b505050506040513d60208110156108e657600080fd5b50519050806108fc57504260029091015561099d565b600482015460ff1661092d5760048201805460ff191660019081179091558201546005546109299161151c565b6005555b6005541561099457600061094583600201544261059f565b9050600061096660055461074f86600101548561157d90919063ffffffff16565b905061098c6109818461074f84670de0b6b3a764000061157d565b60038601549061151c565b600385015550505b50426002909101555b50565b6000600382815481106109af57fe5b6000918252602080832085845260048252604080852033808752935284208054858255600182019590955560059093020180549094509192916109ff916001600160a01b039190911690836116e9565b604080518281529051859133917fbb757047c2b5f3974fe26b7c10f732e7bce710b0952a71082702781e62ae05959181900360200190a350505050565b6001546001600160a01b03163314610a855760405162461bcd60e51b815260040180806020018281038252602b815260200180611bc6602b913960400191505060405180910390fd5b6007546276a70001421015610b97576002546001600160a01b0384811691161415610af9576040805162461bcd60e51b8152602060048083019190915260248201527f736e6f7700000000000000000000000000000000000000000000000000000000604482015290519081900360640190fd5b60035460005b81811015610b9457600060038281548110610b1657fe5b6000918252602090912060059091020180549091506001600160a01b0387811691161415610b8b576040805162461bcd60e51b815260206004820152600a60248201527f706f6f6c2e746f6b656e00000000000000000000000000000000000000000000604482015290519081900360640190fd5b50600101610aff565b50505b610bab6001600160a01b03841682846116e9565b505050565b6001546001600160a01b031681565b60065481565b60035460005b81811015610be457610bdc81610842565b600101610bcb565b5050565b7f000000000000000000000000000000000000000000000000000000000000000081565b60075481565b610c1a611769565b6001600160a01b0316610c2b610d01565b6001600160a01b031614610c86576040805162461bcd60e51b815260206004820181905260248201527f4f776e61626c653a2063616c6c6572206973206e6f7420746865206f776e6572604482015290519081900360640190fd5b600080546040516001600160a01b03909116907f8be0079c531659141344cd1fd0a4f28419497f9722a3daafe3b4186f6b6457e0908390a36000805473ffffffffffffffffffffffffffffffffffffffff19169055565b7f000000000000000000000000000000000000000000000000000000000000000081565b6000546001600160a01b031690565b60046020908152600092835260408084209091529082529020805460019091015482565b6001546001600160a01b03163314610d7d5760405162461bcd60e51b815260040180806020018281038252602b815260200180611bc6602b913960400191505060405180910390fd5b610d868361176d565b8115610d9457610d94610bc5565b600654421015610dc05780610dac5750600654610dbb565b600654811015610dbb57506006545b610dd4565b801580610dcc57504281105b15610dd45750425b600060065482111580610de75750428211155b6040805160a0810182526001600160a01b03878116825260208201898152928201868152600060608401818152861580156080870190815260038054600181018255945295517fc2575a0e9e593c00f959f8c92f12db2869c3395a3b0502d05e2516446f71f85b6005909402938401805473ffffffffffffffffffffffffffffffffffffffff1916919096161790945594517fc2575a0e9e593c00f959f8c92f12db2869c3395a3b0502d05e2516446f71f85c82015590517fc2575a0e9e593c00f959f8c92f12db2869c3395a3b0502d05e2516446f71f85d82015592517fc2575a0e9e593c00f959f8c92f12db2869c3395a3b0502d05e2516446f71f85e84015590517fc2575a0e9e593c00f959f8c92f12db2869c3395a3b0502d05e2516446f71f85f909201805460ff191692151592909217909155909150610f3757600554610f33908661151c565b6005555b5050505050565b6001546001600160a01b03163314610f875760405162461bcd60e51b815260040180806020018281038252602b815260200180611bc6602b913960400191505060405180910390fd5b6001805473ffffffffffffffffffffffffffffffffffffffff19166001600160a01b0392909216919091179055565b60008060038481548110610fc657fe5b60009182526020808320878452600480835260408086206001600160a01b038a811688529085528187206005969096029093016003810154815483516370a0823160e01b81523095810195909552925191985095969491909316926370a08231926024808201939291829003018186803b15801561104357600080fd5b505afa158015611057573d6000803e3d6000fd5b505050506040513d602081101561106d57600080fd5b505160028501549091504211801561108457508015155b156110e157600061109985600201544261059f565b905060006110ba60055461074f88600101548561157d90919063ffffffff16565b90506110dc6110d58461074f84670de0b6b3a764000061157d565b859061151c565b935050505b61110c8360010154610755670de0b6b3a764000061074f86886000015461157d90919063ffffffff16565b979650505050505050565b600033905060006003848154811061112b57fe5b600091825260208083208784526004825260408085206001600160a01b038816865290925292206005909102909101915061116585610842565b8054156111f157600061119d8260010154610755670de0b6b3a764000061074f8760030154876000015461157d90919063ffffffff16565b905080156111ef576111af8482611633565b6040805182815290516001600160a01b038616917fe2403640ba68fed3a2f88b7557551d1993f84b99bb10ff833f0cf8db0c5e0486919081900360200190a25b505b8315611324577f00000000000000000000000000000000000000000000000000000000000000006001600160a01b03161580159061124e57507f000000000000000000000000000000000000000000000000000000000000000015155b156112fe57600061128561271061074f877f000000000000000000000000000000000000000000000000000000000000000061157d565b83549091506112bf906001600160a01b0316857f000000000000000000000000000000000000000000000000000000000000000084611807565b6112e184306112ce88856115d6565b86546001600160a01b0316929190611807565b6112f66112ee86836115d6565b83549061151c565b825550611324565b8154611315906001600160a01b0316843087611807565b8054611321908561151c565b81555b6003820154815461134291670de0b6b3a76400009161074f9161157d565b600182015560408051858152905186916001600160a01b038616917f90890809c654f11d6e72a28fa60149770a0d11ec6c92319d6ceb2bb0a4ea1a159181900360200190a35050505050565b60085481565b61139c611769565b6001600160a01b03166113ad610d01565b6001600160a01b031614611408576040805162461bcd60e51b815260206004820181905260248201527f4f776e61626c653a2063616c6c6572206973206e6f7420746865206f776e6572604482015290519081900360640190fd5b6001600160a01b03811661144d5760405162461bcd60e51b8152600401808060200182810382526026815260200180611b596026913960400191505060405180910390fd5b600080546040516001600160a01b03808516939216917f8be0079c531659141344cd1fd0a4f28419497f9722a3daafe3b4186f6b6457e091a36000805473ffffffffffffffffffffffffffffffffffffffff19166001600160a01b0392909216919091179055565b600080821161150b576040805162461bcd60e51b815260206004820152601a60248201527f536166654d6174683a206469766973696f6e206279207a65726f000000000000604482015290519081900360640190fd5b81838161151457fe5b049392505050565b600082820183811015611576576040805162461bcd60e51b815260206004820152601b60248201527f536166654d6174683a206164646974696f6e206f766572666c6f770000000000604482015290519081900360640190fd5b9392505050565b60008261158c5750600061065e565b8282028284828161159957fe5b04146115765760405162461bcd60e51b8152600401808060200182810382526021815260200180611ba56021913960400191505060405180910390fd5b60008282111561162d576040805162461bcd60e51b815260206004820152601e60248201527f536166654d6174683a207375627472616374696f6e206f766572666c6f770000604482015290519081900360640190fd5b50900390565b600254604080516370a0823160e01b815230600482015290516000926001600160a01b0316916370a08231916024808301926020929190829003018186803b15801561167e57600080fd5b505afa158015611692573d6000803e3d6000fd5b505050506040513d60208110156116a857600080fd5b505190508015610bab57808211156116d6576002546116d1906001600160a01b031684836116e9565b610bab565b600254610bab906001600160a01b031684845b604080516001600160a01b038416602482015260448082018490528251808303909101815260649091019091526020810180517bffffffffffffffffffffffffffffffffffffffffffffffffffffffff167fa9059cbb00000000000000000000000000000000000000000000000000000000179052610bab908490611895565b3390565b60035460005b81811015610bab57826001600160a01b03166003828154811061179257fe5b60009182526020909120600590910201546001600160a01b031614156117ff576040805162461bcd60e51b815260206004820152601f60248201527f536e6f775573646347656e657369733a206578697374696e6720706f6f6c3f00604482015290519081900360640190fd5b600101611773565b604080516001600160a01b0380861660248301528416604482015260648082018490528251808303909101815260849091019091526020810180517bffffffffffffffffffffffffffffffffffffffffffffffffffffffff167f23b872dd0000000000000000000000000000000000000000000000000000000017905261188f908590611895565b50505050565b60606118ea826040518060400160405280602081526020017f5361666545524332303a206c6f772d6c6576656c2063616c6c206661696c6564815250856001600160a01b03166119469092919063ffffffff16565b805190915015610bab5780806020019051602081101561190957600080fd5b5051610bab5760405162461bcd60e51b815260040180806020018281038252602a815260200180611bf1602a913960400191505060405180910390fd5b6060611955848460008561195d565b949350505050565b60608247101561199e5760405162461bcd60e51b8152600401808060200182810382526026815260200180611b7f6026913960400191505060405180910390fd5b6119a785611aae565b6119f8576040805162461bcd60e51b815260206004820152601d60248201527f416464726573733a2063616c6c20746f206e6f6e2d636f6e7472616374000000604482015290519081900360640190fd5b60006060866001600160a01b031685876040518082805190602001908083835b60208310611a375780518252601f199092019160209182019101611a18565b6001836020036101000a03801982511681845116808217855250505050505090500191505060006040518083038185875af1925050503d8060008114611a99576040519150601f19603f3d011682016040523d82523d6000602084013e611a9e565b606091505b509150915061110c828286611ab4565b3b151590565b60608315611ac3575081611576565b825115611ad35782518084602001fd5b8160405162461bcd60e51b81526004018080602001828103825283818151815260200191508051906020019080838360005b83811015611b1d578181015183820152602001611b05565b50505050905090810190601f168015611b4a5780820380516001836020036101000a031916815260200191505b509250505060405180910390fdfe4f776e61626c653a206e6577206f776e657220697320746865207a65726f2061646472657373416464726573733a20696e73756666696369656e742062616c616e636520666f722063616c6c536166654d6174683a206d756c7469706c69636174696f6e206f766572666c6f77536e6f775573646347656e657369733a2063616c6c6572206973206e6f7420746865206f70657261746f725361666545524332303a204552433230206f7065726174696f6e20646964206e6f742073756363656564a2646970667358221220f4e650f00ad6663ce7b642600de17a8744763154c544f57776443fdbee6673f864736f6c634300060c0033536166654d6174683a206d756c7469706c69636174696f6e206f766572666c6f77536e6f775573646347656e657369733a2063616c6c6572206973206e6f7420746865206f70657261746f72",
  "devdoc": {
    "kind": "dev",
    "methods": {
      "owner()": {
        "details": "Returns the address of the current owner."
      },
      "renounceOwnership()": {
        "details": "Leaves the contract without owner. It will not be possible to call `onlyOwner` functions anymore. Can only be called by the current owner. NOTE: Renouncing ownership will leave the contract without an owner, thereby removing any functionality that is only available to the owner."
      },
      "transferOwnership(address)": {
        "details": "Transfers ownership of the contract to a new account (`newOwner`). Can only be called by the current owner."
      }
    },
    "version": 1
  },
  "userdoc": {
    "kind": "user",
    "methods": {},
    "version": 1
  },
  "storageLayout": {
    "storage": [
      {
        "astId": 7,
        "contract": "contracts/SnowGenesisRewardPool.sol:SnowGenesisRewardPool",
        "label": "_owner",
        "offset": 0,
        "slot": "0",
        "type": "t_address"
      },
      {
        "astId": 6851,
        "contract": "contracts/SnowGenesisRewardPool.sol:SnowGenesisRewardPool",
        "label": "operator",
        "offset": 0,
        "slot": "1",
        "type": "t_address"
      },
      {
        "astId": 6873,
        "contract": "contracts/SnowGenesisRewardPool.sol:SnowGenesisRewardPool",
        "label": "snow",
        "offset": 0,
        "slot": "2",
        "type": "t_contract(IERC20)1177"
      },
      {
        "astId": 6876,
        "contract": "contracts/SnowGenesisRewardPool.sol:SnowGenesisRewardPool",
        "label": "poolInfo",
        "offset": 0,
        "slot": "3",
        "type": "t_array(t_struct(PoolInfo)6871_storage)dyn_storage"
      },
      {
        "astId": 6882,
        "contract": "contracts/SnowGenesisRewardPool.sol:SnowGenesisRewardPool",
        "label": "userInfo",
        "offset": 0,
        "slot": "4",
        "type": "t_mapping(t_uint256,t_mapping(t_address,t_struct(UserInfo)6860_storage))"
      },
      {
        "astId": 6885,
        "contract": "contracts/SnowGenesisRewardPool.sol:SnowGenesisRewardPool",
        "label": "totalAllocPoint",
        "offset": 0,
        "slot": "5",
        "type": "t_uint256"
      },
      {
        "astId": 6887,
        "contract": "contracts/SnowGenesisRewardPool.sol:SnowGenesisRewardPool",
        "label": "poolStartTime",
        "offset": 0,
        "slot": "6",
        "type": "t_uint256"
      },
      {
        "astId": 6889,
        "contract": "contracts/SnowGenesisRewardPool.sol:SnowGenesisRewardPool",
        "label": "poolEndTime",
        "offset": 0,
        "slot": "7",
        "type": "t_uint256"
      },
      {
        "astId": 6891,
        "contract": "contracts/SnowGenesisRewardPool.sol:SnowGenesisRewardPool",
        "label": "snowPerSecond",
        "offset": 0,
        "slot": "8",
        "type": "t_uint256"
      }
    ],
    "types": {
      "t_address": {
        "encoding": "inplace",
        "label": "address",
        "numberOfBytes": "20"
      },
      "t_array(t_struct(PoolInfo)6871_storage)dyn_storage": {
        "base": "t_struct(PoolInfo)6871_storage",
        "encoding": "dynamic_array",
        "label": "struct SnowGenesisRewardPool.PoolInfo[]",
        "numberOfBytes": "32"
      },
      "t_bool": {
        "encoding": "inplace",
        "label": "bool",
        "numberOfBytes": "1"
      },
      "t_contract(IERC20)1177": {
        "encoding": "inplace",
        "label": "contract IERC20",
        "numberOfBytes": "20"
      },
      "t_mapping(t_address,t_struct(UserInfo)6860_storage)": {
        "encoding": "mapping",
        "key": "t_address",
        "label": "mapping(address => struct SnowGenesisRewardPool.UserInfo)",
        "numberOfBytes": "32",
        "value": "t_struct(UserInfo)6860_storage"
      },
      "t_mapping(t_uint256,t_mapping(t_address,t_struct(UserInfo)6860_storage))": {
        "encoding": "mapping",
        "key": "t_uint256",
        "label": "mapping(uint256 => mapping(address => struct SnowGenesisRewardPool.UserInfo))",
        "numberOfBytes": "32",
        "value": "t_mapping(t_address,t_struct(UserInfo)6860_storage)"
      },
      "t_struct(PoolInfo)6871_storage": {
        "encoding": "inplace",
        "label": "struct SnowGenesisRewardPool.PoolInfo",
        "members": [
          {
            "astId": 6862,
            "contract": "contracts/SnowGenesisRewardPool.sol:SnowGenesisRewardPool",
            "label": "token",
            "offset": 0,
            "slot": "0",
            "type": "t_contract(IERC20)1177"
          },
          {
            "astId": 6864,
            "contract": "contracts/SnowGenesisRewardPool.sol:SnowGenesisRewardPool",
            "label": "allocPoint",
            "offset": 0,
            "slot": "1",
            "type": "t_uint256"
          },
          {
            "astId": 6866,
            "contract": "contracts/SnowGenesisRewardPool.sol:SnowGenesisRewardPool",
            "label": "lastRewardTime",
            "offset": 0,
            "slot": "2",
            "type": "t_uint256"
          },
          {
            "astId": 6868,
            "contract": "contracts/SnowGenesisRewardPool.sol:SnowGenesisRewardPool",
            "label": "accSnowPerShare",
            "offset": 0,
            "slot": "3",
            "type": "t_uint256"
          },
          {
            "astId": 6870,
            "contract": "contracts/SnowGenesisRewardPool.sol:SnowGenesisRewardPool",
            "label": "isStarted",
            "offset": 0,
            "slot": "4",
            "type": "t_bool"
          }
        ],
        "numberOfBytes": "160"
      },
      "t_struct(UserInfo)6860_storage": {
        "encoding": "inplace",
        "label": "struct SnowGenesisRewardPool.UserInfo",
        "members": [
          {
            "astId": 6857,
            "contract": "contracts/SnowGenesisRewardPool.sol:SnowGenesisRewardPool",
            "label": "amount",
            "offset": 0,
            "slot": "0",
            "type": "t_uint256"
          },
          {
            "astId": 6859,
            "contract": "contracts/SnowGenesisRewardPool.sol:SnowGenesisRewardPool",
            "label": "rewardDebt",
            "offset": 0,
            "slot": "1",
            "type": "t_uint256"
          }
        ],
        "numberOfBytes": "64"
      },
      "t_uint256": {
        "encoding": "inplace",
        "label": "uint256",
        "numberOfBytes": "32"
      }
    }
  }
}