{
  "address": "0x3E661784267F128e5f706De17Fac1Fc1c9d56f30",
  "abi": [
    {
      "inputs": [
        {
          "internalType": "contract IUniswapV2Pair",
          "name": "_pair",
          "type": "address"
        },
        {
          "internalType": "uint256",
          "name": "_period",
          "type": "uint256"
        },
        {
          "internalType": "uint256",
          "name": "_startTime",
          "type": "uint256"
        },
        {
          "internalType": "address",
          "name": "_snow",
          "type": "address"
        }
      ],
      "stateMutability": "nonpayable",
      "type": "constructor"
    },
    {
      "anonymous": false,
      "inputs": [
        {
          "indexed": true,
          "internalType": "address",
          "name": "previousOperator",
          "type": "address"
        },
        {
          "indexed": true,
          "internalType": "address",
          "name": "newOperator",
          "type": "address"
        }
      ],
      "name": "OperatorTransferred",
      "type": "event"
    },
    {
      "anonymous": false,
      "inputs": [
        {
          "indexed": true,
          "internalType": "address",
          "name": "previousOwner",
          "type": "address"
        },
        {
          "indexed": true,
          "internalType": "address",
          "name": "newOwner",
          "type": "address"
        }
      ],
      "name": "OwnershipTransferred",
      "type": "event"
    },
    {
      "anonymous": false,
      "inputs": [
        {
          "indexed": false,
          "internalType": "uint256",
          "name": "price0CumulativeLast",
          "type": "uint256"
        },
        {
          "indexed": false,
          "internalType": "uint256",
          "name": "price1CumulativeLast",
          "type": "uint256"
        }
      ],
      "name": "Updated",
      "type": "event"
    },
    {
      "inputs": [],
      "name": "DECIMALS_MULTIPLER",
      "outputs": [
        {
          "internalType": "uint144",
          "name": "",
          "type": "uint144"
        }
      ],
      "stateMutability": "view",
      "type": "function"
    },
    {
      "inputs": [],
      "name": "blockTimestampLast",
      "outputs": [
        {
          "internalType": "uint32",
          "name": "",
          "type": "uint32"
        }
      ],
      "stateMutability": "view",
      "type": "function"
    },
    {
      "inputs": [
        {
          "internalType": "address",
          "name": "_token",
          "type": "address"
        },
        {
          "internalType": "uint256",
          "name": "_amountIn",
          "type": "uint256"
        }
      ],
      "name": "consult",
      "outputs": [
        {
          "internalType": "uint144",
          "name": "amountOut",
          "type": "uint144"
        }
      ],
      "stateMutability": "view",
      "type": "function"
    },
    {
      "inputs": [],
      "name": "getCurrentEpoch",
      "outputs": [
        {
          "internalType": "uint256",
          "name": "",
          "type": "uint256"
        }
      ],
      "stateMutability": "view",
      "type": "function"
    },
    {
      "inputs": [],
      "name": "getLastEpochTime",
      "outputs": [
        {
          "internalType": "uint256",
          "name": "",
          "type": "uint256"
        }
      ],
      "stateMutability": "view",
      "type": "function"
    },
    {
      "inputs": [],
      "name": "getPeriod",
      "outputs": [
        {
          "internalType": "uint256",
          "name": "",
          "type": "uint256"
        }
      ],
      "stateMutability": "view",
      "type": "function"
    },
    {
      "inputs": [],
      "name": "getStartTime",
      "outputs": [
        {
          "internalType": "uint256",
          "name": "",
          "type": "uint256"
        }
      ],
      "stateMutability": "view",
      "type": "function"
    },
    {
      "inputs": [],
      "name": "isOperator",
      "outputs": [
        {
          "internalType": "bool",
          "name": "",
          "type": "bool"
        }
      ],
      "stateMutability": "view",
      "type": "function"
    },
    {
      "inputs": [],
      "name": "nextEpochPoint",
      "outputs": [
        {
          "internalType": "uint256",
          "name": "",
          "type": "uint256"
        }
      ],
      "stateMutability": "view",
      "type": "function"
    },
    {
      "inputs": [],
      "name": "operator",
      "outputs": [
        {
          "internalType": "address",
          "name": "",
          "type": "address"
        }
      ],
      "stateMutability": "view",
      "type": "function"
    },
    {
      "inputs": [],
      "name": "owner",
      "outputs": [
        {
          "internalType": "address",
          "name": "",
          "type": "address"
        }
      ],
      "stateMutability": "view",
      "type": "function"
    },
    {
      "inputs": [],
      "name": "pair",
      "outputs": [
        {
          "internalType": "contract IUniswapV2Pair",
          "name": "",
          "type": "address"
        }
      ],
      "stateMutability": "view",
      "type": "function"
    },
    {
      "inputs": [],
      "name": "price0Average",
      "outputs": [
        {
          "internalType": "uint224",
          "name": "_x",
          "type": "uint224"
        }
      ],
      "stateMutability": "view",
      "type": "function"
    },
    {
      "inputs": [],
      "name": "price0CumulativeLast",
      "outputs": [
        {
          "internalType": "uint256",
          "name": "",
          "type": "uint256"
        }
      ],
      "stateMutability": "view",
      "type": "function"
    },
    {
      "inputs": [],
      "name": "price1Average",
      "outputs": [
        {
          "internalType": "uint224",
          "name": "_x",
          "type": "uint224"
        }
      ],
      "stateMutability": "view",
      "type": "function"
    },
    {
      "inputs": [],
      "name": "price1CumulativeLast",
      "outputs": [
        {
          "internalType": "uint256",
          "name": "",
          "type": "uint256"
        }
      ],
      "stateMutability": "view",
      "type": "function"
    },
    {
      "inputs": [],
      "name": "renounceOwnership",
      "outputs": [],
      "stateMutability": "nonpayable",
      "type": "function"
    },
    {
      "inputs": [
        {
          "internalType": "uint256",
          "name": "_epoch",
          "type": "uint256"
        }
      ],
      "name": "setEpoch",
      "outputs": [],
      "stateMutability": "nonpayable",
      "type": "function"
    },
    {
      "inputs": [
        {
          "internalType": "uint256",
          "name": "_period",
          "type": "uint256"
        }
      ],
      "name": "setPeriod",
      "outputs": [],
      "stateMutability": "nonpayable",
      "type": "function"
    },
    {
      "inputs": [],
      "name": "snow",
      "outputs": [
        {
          "internalType": "address",
          "name": "",
          "type": "address"
        }
      ],
      "stateMutability": "view",
      "type": "function"
    },
    {
      "inputs": [],
      "name": "token0",
      "outputs": [
        {
          "internalType": "address",
          "name": "",
          "type": "address"
        }
      ],
      "stateMutability": "view",
      "type": "function"
    },
    {
      "inputs": [],
      "name": "token1",
      "outputs": [
        {
          "internalType": "address",
          "name": "",
          "type": "address"
        }
      ],
      "stateMutability": "view",
      "type": "function"
    },
    {
      "inputs": [
        {
          "internalType": "address",
          "name": "newOperator_",
          "type": "address"
        }
      ],
      "name": "transferOperator",
      "outputs": [],
      "stateMutability": "nonpayable",
      "type": "function"
    },
    {
      "inputs": [
        {
          "internalType": "address",
          "name": "newOwner",
          "type": "address"
        }
      ],
      "name": "transferOwnership",
      "outputs": [],
      "stateMutability": "nonpayable",
      "type": "function"
    },
    {
      "inputs": [
        {
          "internalType": "address",
          "name": "_token",
          "type": "address"
        },
        {
          "internalType": "uint256",
          "name": "_amountIn",
          "type": "uint256"
        }
      ],
      "name": "twap",
      "outputs": [
        {
          "internalType": "uint144",
          "name": "_amountOut",
          "type": "uint144"
        }
      ],
      "stateMutability": "view",
      "type": "function"
    },
    {
      "inputs": [],
      "name": "update",
      "outputs": [],
      "stateMutability": "nonpayable",
      "type": "function"
    }
  ],
  "transactionHash": "0xd6960ac9290fca8d5bd2ef1395dbee42c063cbce31a1bed4a67169eb3993853c",
  "args": [
    "0x99750751C9C1fEaa510eB1Ba6f1BcD3e8822Fb15",
    21600,
    1666742450,
    "0x9C85258d9A00C01d00ded98065ea3840dF06f09c"
  ],
  "numDeployments": 1,
  "solcInputHash": "3c54a3c65be41d63bdc08efffa70f585",
  "bytecode": "0x6101206040523480156200001257600080fd5b5060405162001a6238038062001a62833981810160405260808110156200003857600080fd5b508051602082015160408301516060909301519192909182826000806200005e62000444565b600080546001600160a01b0319166001600160a01b0383169081178255604051929350917f8be0079c531659141344cd1fd0a4f28419497f9722a3daafe3b4186f6b6457e0908290a350620000b262000444565b600180546001600160a01b0319166001600160a01b0392831617908190556040519116906000907f74da04524d50c64947f5dd5381ef1a4dca5cba8ed1d816243f9e48aa0b5617ed908290a360028390556080829052600481905562000125828462000448602090811b62000ee317901c565b6003555050506001600160601b0319606082811b821660a05285901b166101005260408051630dfe168160e01b815290516001600160a01b03861691630dfe1681916004808301926020929190829003018186803b1580156200018757600080fd5b505afa1580156200019c573d6000803e3d6000fd5b505050506040513d6020811015620001b357600080fd5b505160601b6001600160601b03191660c0526040805163d21220a760e01b815290516001600160a01b0386169163d21220a7916004808301926020929190829003018186803b1580156200020657600080fd5b505afa1580156200021b573d6000803e3d6000fd5b505050506040513d60208110156200023257600080fd5b505160601b6001600160601b03191660e05260408051635909c0d560e01b815290516001600160a01b03861691635909c0d5916004808301926020929190829003018186803b1580156200028557600080fd5b505afa1580156200029a573d6000803e3d6000fd5b505050506040513d6020811015620002b157600080fd5b505160065560408051635a3d549360e01b815290516001600160a01b03861691635a3d5493916004808301926020929190829003018186803b158015620002f757600080fd5b505afa1580156200030c573d6000803e3d6000fd5b505050506040513d60208110156200032357600080fd5b505160075560408051630240bc6b60e21b8152905160009182916001600160a01b03881691630902f1ac916004808301926060929190829003018186803b1580156200036e57600080fd5b505afa15801562000383573d6000803e3d6000fd5b505050506040513d60608110156200039a57600080fd5b50805160208201516040909201516005805463ffffffff191663ffffffff909216919091179055925090506001600160701b03821615801590620003e657506001600160701b03811615155b62000438576040805162461bcd60e51b815260206004820152601360248201527f4f7261636c653a204e4f5f524553455256455300000000000000000000000000604482015290519081900360640190fd5b505050505050620004a6565b3390565b600082821115620004a0576040805162461bcd60e51b815260206004820152601e60248201527f536166654d6174683a207375627472616374696f6e206f766572666c6f770000604482015290519081900360640190fd5b50900390565b60805160a05160601c60c05160601c60e05160601c6101005160601c6115436200051f6000398061078a5280610a725280610bb45280610d2252508061061252806108365280610da052508061042152806105a552806107c352508061057f52806106c25280610898525080610d7c52506115436000f3fe608060405234801561001057600080fd5b50600436106101ae5760003560e01c80636808a128116100ee578063b97dd9e211610097578063c5967c2611610071578063c5967c2614610393578063c828371e1461039b578063d21220a7146103a3578063f2fde38b146103ab576101ae565b8063b97dd9e214610362578063ba5224581461036a578063c5700a0214610372576101ae565b8063a2e62045116100c8578063a2e620451461034a578063a6bb453914610352578063a8aa1b311461035a576101ae565b80636808a1281461030e578063715018a61461033a5780638da5cb5b14610342576101ae565b80633ddac9531161015b5780635909c0d5116101355780635909c0d5146102d25780635a3d5493146102da5780635bde1a87146102e25780635e6aaf2c146102ea576101ae565b80633ddac9531461025b5780634456eda2146102ae578063570ca735146102ca576101ae565b80631ed241951161018c5780631ed241951461021357806329605e771461022d5780633a2b962614610253576101ae565b80630ceb2cef146101b35780630dfe1681146101d25780630f3a9f65146101f6575b600080fd5b6101d0600480360360208110156101c957600080fd5b50356103d1565b005b6101da61041f565b604080516001600160a01b039092168252519081900360200190f35b6101d06004803603602081101561020c57600080fd5b5035610443565b61021b6104f7565b60408051918252519081900360200190f35b6101d06004803603602081101561024357600080fd5b50356001600160a01b03166104fd565b6101da61057d565b6102876004803603604081101561027157600080fd5b506001600160a01b0381351690602001356105a1565b6040805171ffffffffffffffffffffffffffffffffffff9092168252519081900360200190f35b6102b6610726565b604080519115158252519081900360200190f35b6101da61074c565b61021b61075b565b61021b610761565b610287610767565b6102f2610770565b604080516001600160e01b039092168252519081900360200190f35b6102876004803603604081101561032457600080fd5b506001600160a01b03813516906020013561077f565b6101d0610900565b6101da6109cb565b6101d06109da565b6102f2610d11565b6101da610d20565b61021b610d44565b61021b610d4a565b61037a610d50565b6040805163ffffffff9092168252519081900360200190f35b61021b610d5c565b61021b610d7a565b6101da610d9e565b6101d0600480360360208110156103c157600080fd5b50356001600160a01b0316610dc2565b6001546001600160a01b0316331461041a5760405162461bcd60e51b81526004018080602001828103825260248152602001806114c76024913960400191505060405180910390fd5b600455565b7f000000000000000000000000000000000000000000000000000000000000000081565b6001546001600160a01b0316331461048c5760405162461bcd60e51b81526004018080602001828103825260248152602001806114c76024913960400191505060405180910390fd5b610e1081101580156104a157506202a3008111155b6104f2576040805162461bcd60e51b815260206004820152601560248201527f5f706572696f643a206f7574206f662072616e67650000000000000000000000604482015290519081900360640190fd5b600255565b60025490565b610505610f40565b6001600160a01b03166105166109cb565b6001600160a01b031614610571576040805162461bcd60e51b815260206004820181905260248201527f4f776e61626c653a2063616c6c6572206973206e6f7420746865206f776e6572604482015290519081900360640190fd5b61057a81610f44565b50565b7f000000000000000000000000000000000000000000000000000000000000000081565b60007f00000000000000000000000000000000000000000000000000000000000000006001600160a01b0316836001600160a01b031614156106105760408051602081019091526008546001600160e01b03168152610609906106049084610fee565b61106c565b90506106c0565b7f00000000000000000000000000000000000000000000000000000000000000006001600160a01b0316836001600160a01b031614610696576040805162461bcd60e51b815260206004820152601560248201527f4f7261636c653a20494e56414c49445f544f4b454e0000000000000000000000604482015290519081900360640190fd5b60408051602081019091526009546001600160e01b031681526106bd906106049084610fee565b90505b7f00000000000000000000000000000000000000000000000000000000000000006001600160a01b0316836001600160a01b031614156107205761071d71ffffffffffffffffffffffffffffffffffff821664e8d4a51000611073565b90505b92915050565b6001546000906001600160a01b031661073d610f40565b6001600160a01b031614905090565b6001546001600160a01b031690565b60065481565b60075481565b64e8d4a5100081565b6009546001600160e01b031681565b6000806000806107ae7f00000000000000000000000000000000000000000000000000000000000000006110cc565b600554929550909350915063ffffffff1681037f00000000000000000000000000000000000000000000000000000000000000006001600160a01b0390811690881614156108345761082d6106048760405180602001604052808563ffffffff166006548a038161081b57fe5b046001600160e01b0316905290610fee565b9450610896565b7f00000000000000000000000000000000000000000000000000000000000000006001600160a01b0316876001600160a01b03161415610896576108936106048760405180602001604052808563ffffffff1660075489038161081b57fe5b94505b7f00000000000000000000000000000000000000000000000000000000000000006001600160a01b0316876001600160a01b031614156108f6576108f371ffffffffffffffffffffffffffffffffffff861664e8d4a51000611073565b94505b5050505092915050565b610908610f40565b6001600160a01b03166109196109cb565b6001600160a01b031614610974576040805162461bcd60e51b815260206004820181905260248201527f4f776e61626c653a2063616c6c6572206973206e6f7420746865206f776e6572604482015290519081900360640190fd5b600080546040516001600160a01b03909116907f8be0079c531659141344cd1fd0a4f28419497f9722a3daafe3b4186f6b6457e0908390a36000805473ffffffffffffffffffffffffffffffffffffffff19169055565b6000546001600160a01b031690565b60006109e4610d5c565b905080421015610baa576109f661074c565b6001600160a01b0316336001600160a01b03161480610a2d5750610a186109cb565b6001600160a01b0316336001600160a01b0316145b610a685760405162461bcd60e51b81526004018080602001828103825260338152602001806114206033913960400191505060405180910390fd5b6000806000610a967f00000000000000000000000000000000000000000000000000000000000000006110cc565b600554929550909350915063ffffffff9081168203908116610abb5750505050610ba5565b60405180602001604052808263ffffffff16600654870381610ad957fe5b046001600160e01b039081169091529051600880546001600160e01b031916919092161790556040805160208101909152600754819063ffffffff841690860381610b2057fe5b046001600160e01b039081169091529051600980546001600160e01b03191691909216179055600684905560078390556005805463ffffffff191663ffffffff8416179055604080518581526020810185905281517fd78a0cb8bb633d06981248b816e7bd33c2a35a6089241d099fa519e361cab902929181900390910190a1505050505b61057a565b6000806000610bd87f00000000000000000000000000000000000000000000000000000000000000006110cc565b600554929550909350915063ffffffff9081168203908116610bfd5750505050610ce7565b60405180602001604052808263ffffffff16600654870381610c1b57fe5b046001600160e01b039081169091529051600880546001600160e01b031916919092161790556040805160208101909152600754819063ffffffff841690860381610c6257fe5b046001600160e01b039081169091529051600980546001600160e01b03191691909216179055600684905560078390556005805463ffffffff191663ffffffff8416179055604080518581526020810185905281517fd78a0cb8bb633d06981248b816e7bd33c2a35a6089241d099fa519e361cab902929181900390910190a1505050505b6003819055600480546001019055610cfd610d5c565b905080421015610d0c5761057a565b610ce7565b6008546001600160e01b031681565b7f000000000000000000000000000000000000000000000000000000000000000081565b60045490565b60035490565b60055463ffffffff1681565b6000610d756002546003546112cd90919063ffffffff16565b905090565b7f000000000000000000000000000000000000000000000000000000000000000090565b7f000000000000000000000000000000000000000000000000000000000000000081565b610dca610f40565b6001600160a01b0316610ddb6109cb565b6001600160a01b031614610e36576040805162461bcd60e51b815260206004820181905260248201527f4f776e61626c653a2063616c6c6572206973206e6f7420746865206f776e6572604482015290519081900360640190fd5b6001600160a01b038116610e7b5760405162461bcd60e51b81526004018080602001828103825260268152602001806114536026913960400191505060405180910390fd5b600080546040516001600160a01b03808516939216917f8be0079c531659141344cd1fd0a4f28419497f9722a3daafe3b4186f6b6457e091a36000805473ffffffffffffffffffffffffffffffffffffffff19166001600160a01b0392909216919091179055565b600082821115610f3a576040805162461bcd60e51b815260206004820152601e60248201527f536166654d6174683a207375627472616374696f6e206f766572666c6f770000604482015290519081900360640190fd5b50900390565b3390565b6001600160a01b038116610f895760405162461bcd60e51b815260040180806020018281038252602d815260200180611479602d913960400191505060405180910390fd5b6040516001600160a01b038216906000907f74da04524d50c64947f5dd5381ef1a4dca5cba8ed1d816243f9e48aa0b5617ed908290a36001805473ffffffffffffffffffffffffffffffffffffffff19166001600160a01b0392909216919091179055565b610ff66113fa565b600082158061101c57505082516001600160e01b03168281029083828161101957fe5b04145b6110575760405162461bcd60e51b81526004018080602001828103825260238152602001806114eb6023913960400191505060405180910390fd5b60408051602081019091529081529392505050565b5160701c90565b60008261108257506000610720565b8282028284828161108f57fe5b041461071d5760405162461bcd60e51b81526004018080602001828103825260218152602001806114a66021913960400191505060405180910390fd5b60008060006110d9611327565b9050836001600160a01b0316635909c0d56040518163ffffffff1660e01b815260040160206040518083038186803b15801561111457600080fd5b505afa158015611128573d6000803e3d6000fd5b505050506040513d602081101561113e57600080fd5b5051604080517f5a3d549300000000000000000000000000000000000000000000000000000000815290519194506001600160a01b03861691635a3d549391600480820192602092909190829003018186803b15801561119d57600080fd5b505afa1580156111b1573d6000803e3d6000fd5b505050506040513d60208110156111c757600080fd5b5051604080517f0902f1ac0000000000000000000000000000000000000000000000000000000081529051919350600091829182916001600160a01b03891691630902f1ac916004808301926060929190829003018186803b15801561122c57600080fd5b505afa158015611240573d6000803e3d6000fd5b505050506040513d606081101561125657600080fd5b5080516020820151604090920151909450909250905063ffffffff808216908516146112c35780840363ffffffff81166112908486611331565b516001600160e01b031602969096019563ffffffff81166112b18585611331565b516001600160e01b0316029590950194505b5050509193909250565b60008282018381101561071d576040805162461bcd60e51b815260206004820152601b60248201527f536166654d6174683a206164646974696f6e206f766572666c6f770000000000604482015290519081900360640190fd5b63ffffffff421690565b61133961140d565b6000826dffffffffffffffffffffffffffff161161139e576040805162461bcd60e51b815260206004820152601760248201527f4669786564506f696e743a204449565f42595f5a45524f000000000000000000604482015290519081900360640190fd5b6040805160208101909152806dffffffffffffffffffffffffffff84167bffffffffffffffffffffffffffff0000000000000000000000000000607087901b16816113e557fe5b046001600160e01b0316815250905092915050565b6040518060200160405280600081525090565b6040805160208101909152600081529056fe45706f63683a206f6e6c79206f70657261746f72206f72206f776e657220616c6c6f77656420666f72207072652d65706f63684f776e61626c653a206e6577206f776e657220697320746865207a65726f20616464726573736f70657261746f723a207a65726f206164647265737320676976656e20666f72206e6577206f70657261746f72536166654d6174683a206d756c7469706c69636174696f6e206f766572666c6f776f70657261746f723a2063616c6c6572206973206e6f7420746865206f70657261746f724669786564506f696e743a204d554c5449504c49434154494f4e5f4f564552464c4f57a26469706673582212205468f25fcc354ee10fcf2842516c237231165020c9ea2cc609b007d015d2b6fc64736f6c634300060c0033",
  "devdoc": {
    "kind": "dev",
    "methods": {
      "owner()": {
        "details": "Returns the address of the current owner."
      },
      "renounceOwnership()": {
        "details": "Leaves the contract without owner. It will not be possible to call `onlyOwner` functions anymore. Can only be called by the current owner. NOTE: Renouncing ownership will leave the contract without an owner, thereby removing any functionality that is only available to the owner."
      },
      "transferOwnership(address)": {
        "details": "Transfers ownership of the contract to a new account (`newOwner`). Can only be called by the current owner."
      },
      "update()": {
        "details": "Updates 1-day EMA price from Uniswap.  "
      }
    },
    "version": 1
  },
  "userdoc": {
    "kind": "user",
    "methods": {},
    "version": 1
  },
  "storageLayout": {
    "storage": [
      {
        "astId": 7,
        "contract": "contracts/SnowOracle.sol:SnowOracle",
        "label": "_owner",
        "offset": 0,
        "slot": "0",
        "type": "t_address"
      },
      {
        "astId": 13744,
        "contract": "contracts/SnowOracle.sol:SnowOracle",
        "label": "_operator",
        "offset": 0,
        "slot": "1",
        "type": "t_address"
      },
      {
        "astId": 15913,
        "contract": "contracts/SnowOracle.sol:SnowOracle",
        "label": "period",
        "offset": 0,
        "slot": "2",
        "type": "t_uint256"
      },
      {
        "astId": 15917,
        "contract": "contracts/SnowOracle.sol:SnowOracle",
        "label": "lastEpochTime",
        "offset": 0,
        "slot": "3",
        "type": "t_uint256"
      },
      {
        "astId": 15919,
        "contract": "contracts/SnowOracle.sol:SnowOracle",
        "label": "epoch",
        "offset": 0,
        "slot": "4",
        "type": "t_uint256"
      },
      {
        "astId": 9461,
        "contract": "contracts/SnowOracle.sol:SnowOracle",
        "label": "blockTimestampLast",
        "offset": 0,
        "slot": "5",
        "type": "t_uint32"
      },
      {
        "astId": 9463,
        "contract": "contracts/SnowOracle.sol:SnowOracle",
        "label": "price0CumulativeLast",
        "offset": 0,
        "slot": "6",
        "type": "t_uint256"
      },
      {
        "astId": 9465,
        "contract": "contracts/SnowOracle.sol:SnowOracle",
        "label": "price1CumulativeLast",
        "offset": 0,
        "slot": "7",
        "type": "t_uint256"
      },
      {
        "astId": 9467,
        "contract": "contracts/SnowOracle.sol:SnowOracle",
        "label": "price0Average",
        "offset": 0,
        "slot": "8",
        "type": "t_struct(uq112x112)14954_storage"
      },
      {
        "astId": 9469,
        "contract": "contracts/SnowOracle.sol:SnowOracle",
        "label": "price1Average",
        "offset": 0,
        "slot": "9",
        "type": "t_struct(uq112x112)14954_storage"
      }
    ],
    "types": {
      "t_address": {
        "encoding": "inplace",
        "label": "address",
        "numberOfBytes": "20"
      },
      "t_struct(uq112x112)14954_storage": {
        "encoding": "inplace",
        "label": "struct FixedPoint.uq112x112",
        "members": [
          {
            "astId": 14953,
            "contract": "contracts/SnowOracle.sol:SnowOracle",
            "label": "_x",
            "offset": 0,
            "slot": "0",
            "type": "t_uint224"
          }
        ],
        "numberOfBytes": "32"
      },
      "t_uint224": {
        "encoding": "inplace",
        "label": "uint224",
        "numberOfBytes": "28"
      },
      "t_uint256": {
        "encoding": "inplace",
        "label": "uint256",
        "numberOfBytes": "32"
      },
      "t_uint32": {
        "encoding": "inplace",
        "label": "uint32",
        "numberOfBytes": "4"
      }
    }
  }
}