{
  "address": "0x9C85258d9A00C01d00ded98065ea3840dF06f09c",
  "abi": [
    {
      "inputs": [
        {
          "internalType": "string",
          "name": "name_",
          "type": "string"
        },
        {
          "internalType": "string",
          "name": "symbol_",
          "type": "string"
        }
      ],
      "stateMutability": "nonpayable",
      "type": "constructor"
    },
    {
      "anonymous": false,
      "inputs": [
        {
          "indexed": true,
          "internalType": "address",
          "name": "owner",
          "type": "address"
        },
        {
          "indexed": true,
          "internalType": "address",
          "name": "spender",
          "type": "address"
        },
        {
          "indexed": false,
          "internalType": "uint256",
          "name": "value",
          "type": "uint256"
        }
      ],
      "name": "Approval",
      "type": "event"
    },
    {
      "anonymous": false,
      "inputs": [
        {
          "indexed": true,
          "internalType": "address",
          "name": "previousOperator",
          "type": "address"
        },
        {
          "indexed": true,
          "internalType": "address",
          "name": "newOperator",
          "type": "address"
        }
      ],
      "name": "OperatorTransferred",
      "type": "event"
    },
    {
      "anonymous": false,
      "inputs": [
        {
          "indexed": true,
          "internalType": "address",
          "name": "previousOwner",
          "type": "address"
        },
        {
          "indexed": true,
          "internalType": "address",
          "name": "newOwner",
          "type": "address"
        }
      ],
      "name": "OwnershipTransferred",
      "type": "event"
    },
    {
      "anonymous": false,
      "inputs": [
        {
          "indexed": true,
          "internalType": "address",
          "name": "account",
          "type": "address"
        },
        {
          "indexed": false,
          "internalType": "uint256",
          "name": "amount",
          "type": "uint256"
        }
      ],
      "name": "TokenBurned",
      "type": "event"
    },
    {
      "anonymous": false,
      "inputs": [
        {
          "indexed": true,
          "internalType": "address",
          "name": "from",
          "type": "address"
        },
        {
          "indexed": true,
          "internalType": "address",
          "name": "to",
          "type": "address"
        },
        {
          "indexed": false,
          "internalType": "uint256",
          "name": "value",
          "type": "uint256"
        }
      ],
      "name": "Transfer",
      "type": "event"
    },
    {
      "inputs": [],
      "name": "BASIS_POINTS_DENOM",
      "outputs": [
        {
          "internalType": "uint256",
          "name": "",
          "type": "uint256"
        }
      ],
      "stateMutability": "view",
      "type": "function"
    },
    {
      "inputs": [],
      "name": "INITIAL_DAO_WALLET_DISTRIBUTION",
      "outputs": [
        {
          "internalType": "uint256",
          "name": "",
          "type": "uint256"
        }
      ],
      "stateMutability": "view",
      "type": "function"
    },
    {
      "inputs": [],
      "name": "INITIAL_GENESIS_POOL_DISTRIBUTION",
      "outputs": [
        {
          "internalType": "uint256",
          "name": "",
          "type": "uint256"
        }
      ],
      "stateMutability": "view",
      "type": "function"
    },
    {
      "inputs": [],
      "name": "MAX_TAX_RATE",
      "outputs": [
        {
          "internalType": "uint256",
          "name": "",
          "type": "uint256"
        }
      ],
      "stateMutability": "view",
      "type": "function"
    },
    {
      "inputs": [
        {
          "internalType": "address",
          "name": "owner",
          "type": "address"
        },
        {
          "internalType": "address",
          "name": "spender",
          "type": "address"
        }
      ],
      "name": "allowance",
      "outputs": [
        {
          "internalType": "uint256",
          "name": "",
          "type": "uint256"
        }
      ],
      "stateMutability": "view",
      "type": "function"
    },
    {
      "inputs": [
        {
          "internalType": "address",
          "name": "spender",
          "type": "address"
        },
        {
          "internalType": "uint256",
          "name": "amount",
          "type": "uint256"
        }
      ],
      "name": "approve",
      "outputs": [
        {
          "internalType": "bool",
          "name": "",
          "type": "bool"
        }
      ],
      "stateMutability": "nonpayable",
      "type": "function"
    },
    {
      "inputs": [
        {
          "internalType": "address",
          "name": "account",
          "type": "address"
        }
      ],
      "name": "balanceOf",
      "outputs": [
        {
          "internalType": "uint256",
          "name": "",
          "type": "uint256"
        }
      ],
      "stateMutability": "view",
      "type": "function"
    },
    {
      "inputs": [
        {
          "internalType": "uint256",
          "name": "amount",
          "type": "uint256"
        }
      ],
      "name": "burn",
      "outputs": [],
      "stateMutability": "nonpayable",
      "type": "function"
    },
    {
      "inputs": [
        {
          "internalType": "address",
          "name": "account",
          "type": "address"
        },
        {
          "internalType": "uint256",
          "name": "amount",
          "type": "uint256"
        }
      ],
      "name": "burnFrom",
      "outputs": [],
      "stateMutability": "nonpayable",
      "type": "function"
    },
    {
      "inputs": [],
      "name": "decimals",
      "outputs": [
        {
          "internalType": "uint8",
          "name": "",
          "type": "uint8"
        }
      ],
      "stateMutability": "view",
      "type": "function"
    },
    {
      "inputs": [
        {
          "internalType": "address",
          "name": "spender",
          "type": "address"
        },
        {
          "internalType": "uint256",
          "name": "subtractedValue",
          "type": "uint256"
        }
      ],
      "name": "decreaseAllowance",
      "outputs": [
        {
          "internalType": "bool",
          "name": "",
          "type": "bool"
        }
      ],
      "stateMutability": "nonpayable",
      "type": "function"
    },
    {
      "inputs": [
        {
          "internalType": "address",
          "name": "_genesisPool",
          "type": "address"
        },
        {
          "internalType": "address",
          "name": "_daoWallet",
          "type": "address"
        }
      ],
      "name": "distributeReward",
      "outputs": [],
      "stateMutability": "nonpayable",
      "type": "function"
    },
    {
      "inputs": [],
      "name": "dynamicTaxRate",
      "outputs": [
        {
          "internalType": "uint256",
          "name": "",
          "type": "uint256"
        }
      ],
      "stateMutability": "view",
      "type": "function"
    },
    {
      "inputs": [],
      "name": "enableDynamicTax",
      "outputs": [
        {
          "internalType": "bool",
          "name": "",
          "type": "bool"
        }
      ],
      "stateMutability": "view",
      "type": "function"
    },
    {
      "inputs": [],
      "name": "getCurrentTaxRate",
      "outputs": [
        {
          "internalType": "uint256",
          "name": "",
          "type": "uint256"
        }
      ],
      "stateMutability": "nonpayable",
      "type": "function"
    },
    {
      "inputs": [
        {
          "internalType": "contract IERC20",
          "name": "_token",
          "type": "address"
        },
        {
          "internalType": "uint256",
          "name": "_amount",
          "type": "uint256"
        },
        {
          "internalType": "address",
          "name": "_to",
          "type": "address"
        }
      ],
      "name": "governanceRecoverUnsupported",
      "outputs": [],
      "stateMutability": "nonpayable",
      "type": "function"
    },
    {
      "inputs": [
        {
          "internalType": "address",
          "name": "spender",
          "type": "address"
        },
        {
          "internalType": "uint256",
          "name": "addedValue",
          "type": "uint256"
        }
      ],
      "name": "increaseAllowance",
      "outputs": [
        {
          "internalType": "bool",
          "name": "",
          "type": "bool"
        }
      ],
      "stateMutability": "nonpayable",
      "type": "function"
    },
    {
      "inputs": [],
      "name": "isOperator",
      "outputs": [
        {
          "internalType": "bool",
          "name": "",
          "type": "bool"
        }
      ],
      "stateMutability": "view",
      "type": "function"
    },
    {
      "inputs": [
        {
          "internalType": "address",
          "name": "_account",
          "type": "address"
        }
      ],
      "name": "isWhitelistedRecipient",
      "outputs": [
        {
          "internalType": "bool",
          "name": "isWhitelisted",
          "type": "bool"
        }
      ],
      "stateMutability": "view",
      "type": "function"
    },
    {
      "inputs": [
        {
          "internalType": "address",
          "name": "_account",
          "type": "address"
        }
      ],
      "name": "isWhitelistedSender",
      "outputs": [
        {
          "internalType": "bool",
          "name": "isWhitelisted",
          "type": "bool"
        }
      ],
      "stateMutability": "view",
      "type": "function"
    },
    {
      "inputs": [
        {
          "internalType": "address",
          "name": "recipient_",
          "type": "address"
        },
        {
          "internalType": "uint256",
          "name": "amount_",
          "type": "uint256"
        }
      ],
      "name": "mint",
      "outputs": [
        {
          "internalType": "bool",
          "name": "",
          "type": "bool"
        }
      ],
      "stateMutability": "nonpayable",
      "type": "function"
    },
    {
      "inputs": [],
      "name": "name",
      "outputs": [
        {
          "internalType": "string",
          "name": "",
          "type": "string"
        }
      ],
      "stateMutability": "view",
      "type": "function"
    },
    {
      "inputs": [],
      "name": "operator",
      "outputs": [
        {
          "internalType": "address",
          "name": "",
          "type": "address"
        }
      ],
      "stateMutability": "view",
      "type": "function"
    },
    {
      "inputs": [],
      "name": "owner",
      "outputs": [
        {
          "internalType": "address",
          "name": "",
          "type": "address"
        }
      ],
      "stateMutability": "view",
      "type": "function"
    },
    {
      "inputs": [],
      "name": "renounceOwnership",
      "outputs": [],
      "stateMutability": "nonpayable",
      "type": "function"
    },
    {
      "inputs": [],
      "name": "rewardPoolDistributed",
      "outputs": [
        {
          "internalType": "bool",
          "name": "",
          "type": "bool"
        }
      ],
      "stateMutability": "view",
      "type": "function"
    },
    {
      "inputs": [
        {
          "internalType": "bool",
          "name": "_enableDynamicTax",
          "type": "bool"
        }
      ],
      "name": "setEnableDynamicTax",
      "outputs": [],
      "stateMutability": "nonpayable",
      "type": "function"
    },
    {
      "inputs": [
        {
          "internalType": "uint256",
          "name": "_taxRate",
          "type": "uint256"
        }
      ],
      "name": "setStaticTaxRate",
      "outputs": [],
      "stateMutability": "nonpayable",
      "type": "function"
    },
    {
      "inputs": [
        {
          "internalType": "address",
          "name": "_taxOffice",
          "type": "address"
        }
      ],
      "name": "setTaxOffice",
      "outputs": [],
      "stateMutability": "nonpayable",
      "type": "function"
    },
    {
      "inputs": [
        {
          "internalType": "address",
          "name": "_account",
          "type": "address"
        },
        {
          "internalType": "uint8",
          "name": "_type",
          "type": "uint8"
        }
      ],
      "name": "setWhitelistType",
      "outputs": [],
      "stateMutability": "nonpayable",
      "type": "function"
    },
    {
      "inputs": [],
      "name": "staticTaxRate",
      "outputs": [
        {
          "internalType": "uint256",
          "name": "",
          "type": "uint256"
        }
      ],
      "stateMutability": "view",
      "type": "function"
    },
    {
      "inputs": [],
      "name": "symbol",
      "outputs": [
        {
          "internalType": "string",
          "name": "",
          "type": "string"
        }
      ],
      "stateMutability": "view",
      "type": "function"
    },
    {
      "inputs": [],
      "name": "taxOffice",
      "outputs": [
        {
          "internalType": "address",
          "name": "",
          "type": "address"
        }
      ],
      "stateMutability": "view",
      "type": "function"
    },
    {
      "inputs": [],
      "name": "taxRate",
      "outputs": [
        {
          "internalType": "uint256",
          "name": "",
          "type": "uint256"
        }
      ],
      "stateMutability": "view",
      "type": "function"
    },
    {
      "inputs": [],
      "name": "totalBurned",
      "outputs": [
        {
          "internalType": "uint256",
          "name": "",
          "type": "uint256"
        }
      ],
      "stateMutability": "view",
      "type": "function"
    },
    {
      "inputs": [],
      "name": "totalSupply",
      "outputs": [
        {
          "internalType": "uint256",
          "name": "",
          "type": "uint256"
        }
      ],
      "stateMutability": "view",
      "type": "function"
    },
    {
      "inputs": [
        {
          "internalType": "address",
          "name": "recipient",
          "type": "address"
        },
        {
          "internalType": "uint256",
          "name": "amount",
          "type": "uint256"
        }
      ],
      "name": "transfer",
      "outputs": [
        {
          "internalType": "bool",
          "name": "",
          "type": "bool"
        }
      ],
      "stateMutability": "nonpayable",
      "type": "function"
    },
    {
      "inputs": [
        {
          "internalType": "address",
          "name": "_sender",
          "type": "address"
        },
        {
          "internalType": "address",
          "name": "_recipient",
          "type": "address"
        },
        {
          "internalType": "uint256",
          "name": "_amount",
          "type": "uint256"
        }
      ],
      "name": "transferFrom",
      "outputs": [
        {
          "internalType": "bool",
          "name": "successFlag",
          "type": "bool"
        }
      ],
      "stateMutability": "nonpayable",
      "type": "function"
    },
    {
      "inputs": [
        {
          "internalType": "address",
          "name": "newOperator_",
          "type": "address"
        }
      ],
      "name": "transferOperator",
      "outputs": [],
      "stateMutability": "nonpayable",
      "type": "function"
    },
    {
      "inputs": [
        {
          "internalType": "address",
          "name": "newOwner",
          "type": "address"
        }
      ],
      "name": "transferOwnership",
      "outputs": [],
      "stateMutability": "nonpayable",
      "type": "function"
    },
    {
      "inputs": [
        {
          "internalType": "address",
          "name": "",
          "type": "address"
        }
      ],
      "name": "whitelistType",
      "outputs": [
        {
          "internalType": "enum ERC20Taxable.WhitelistType",
          "name": "",
          "type": "uint8"
        }
      ],
      "stateMutability": "view",
      "type": "function"
    }
  ],
  "transactionHash": "0x88b8c1b65c457cc8a384a71e339a93f773dbbb6e1cf5e4b345b0c75a41eed58f",
  "args": [
    "snowcrystals.finance",
    "SNOW"
  ],
  "numDeployments": 1,
  "solcInputHash": "3c54a3c65be41d63bdc08efffa70f585",
  "bytecode": "0x6080604052600d805460ff191690553480156200001b57600080fd5b506040516200251638038062002516833981810160405260408110156200004157600080fd5b81019080805160405193929190846401000000008211156200006257600080fd5b9083019060208201858111156200007857600080fd5b82516401000000008111828201881017156200009357600080fd5b82525081516020918201929091019080838360005b83811015620000c2578181015183820152602001620000a8565b50505050905090810190601f168015620000f05780820380516001836020036101000a031916815260200191505b50604052602001805160405193929190846401000000008211156200011457600080fd5b9083019060208201858111156200012a57600080fd5b82516401000000008111828201881017156200014557600080fd5b82525081516020918201929091019080838360005b83811015620001745781810151838201526020016200015a565b50505050905090810190601f168015620001a25780820380516001836020036101000a031916815260200191505b50604052505050818181818160039080519060200190620001c59291906200043d565b508051620001db9060049060208401906200043d565b50506005805460ff19166012179055506000620001f7620002c3565b60058054610100600160a81b0319166101006001600160a01b03841690810291909117909155604051919250906000907f8be0079c531659141344cd1fd0a4f28419497f9722a3daafe3b4186f6b6457e0908290a35062000257620002c3565b600680546001600160a01b0319166001600160a01b0392831617908190556040519116906000907f74da04524d50c64947f5dd5381ef1a4dca5cba8ed1d816243f9e48aa0b5617ed908290a350620002bb905033683635c9adc5dea00000620002c7565b5050620004d9565b3390565b6001600160a01b03821662000323576040805162461bcd60e51b815260206004820152601f60248201527f45524332303a206d696e7420746f20746865207a65726f206164647265737300604482015290519081900360640190fd5b6200033160008383620003d6565b6200034d81600254620003db60201b620014621790919060201c565b6002556001600160a01b038216600090815260208181526040909120546200038091839062001462620003db821b17901c565b6001600160a01b0383166000818152602081815260408083209490945583518581529351929391927fddf252ad1be2c89b69c2b068fc378daa952ba7f163c4a11628f55a4df523b3ef9281900390910190a35050565b505050565b60008282018381101562000436576040805162461bcd60e51b815260206004820152601b60248201527f536166654d6174683a206164646974696f6e206f766572666c6f770000000000604482015290519081900360640190fd5b9392505050565b828054600181600116156101000203166002900490600052602060002090601f016020900481019282601f106200048057805160ff1916838001178555620004b0565b82800160010185558215620004b0579182015b82811115620004b057825182559160200191906001019062000493565b50620004be929150620004c2565b5090565b5b80821115620004be5760008155600101620004c3565b61202d80620004e96000396000f3fe608060405234801561001057600080fd5b50600436106102d35760003560e01c8063570ca7351161018657806395d89b41116100e3578063dd62ed3e11610097578063f2fde38b11610071578063f2fde38b1461072f578063f4fd47cf14610755578063fe46be4414610783576102d3565b8063dd62ed3e146106dc578063e1ea1fa31461070a578063f1b15c9414610727576102d3565b8063a457c2d7116100c8578063a457c2d71461067c578063a9059cbb146106a8578063d89135cd146106d4576102d3565b806395d89b411461066c5780639662676c14610674576102d3565b8063715018a61161013a57806379cc67901161011f57806379cc6790146106305780638da5cb5b1461065c5780638fa8173214610664576102d3565b8063715018a614610620578063771a3a1d14610628576102d3565b806364f53f2e1161016b57806364f53f2e146105ea578063678014b0146105f257806370a08231146105fa576102d3565b8063570ca735146105da57806361482bed146105e2576102d3565b806339509351116102345780634456eda2116101e85780634e20a02c116101cd5780634e20a02c146105945780635024ec1f1461059c57806354575af4146105a4576102d3565b80634456eda214610566578063483846401461056e576102d3565b80633f07d76a116102195780633f07d76a146104f757806340c10f191461051d57806342966c6814610549576102d3565b806339509351146104a75780633e5f13d4146104d3576102d3565b806323b872dd1161028b578063313ce56711610270578063313ce56714610462578063323440d11461048057806338d2776e14610488576102d3565b806323b872dd1461040657806329605e771461043c576102d3565b806318160ddd116102bc57806318160ddd146103955780631b9e2fad146103af578063232798df146103d5576102d3565b806306fdde03146102d8578063095ea7b314610355575b600080fd5b6102e06107ca565b6040805160208082528351818301528351919283929083019185019080838360005b8381101561031a578181015183820152602001610302565b50505050905090810190601f1680156103475780820380516001836020036101000a031916815260200191505b509250505060405180910390f35b6103816004803603604081101561036b57600080fd5b506001600160a01b038135169060200135610860565b604080519115158252519081900360200190f35b61039d61087e565b60408051918252519081900360200190f35b610381600480360360208110156103c557600080fd5b50356001600160a01b0316610884565b610404600480360360408110156103eb57600080fd5b5080356001600160a01b0316906020013560ff166108e7565b005b6103816004803603606081101561041c57600080fd5b506001600160a01b03813581169160208101359091169060400135610974565b6104046004803603602081101561045257600080fd5b50356001600160a01b0316610aad565b61046a610b2d565b6040805160ff9092168252519081900360200190f35b61039d610b36565b6104046004803603602081101561049e57600080fd5b50351515610b43565b610381600480360360408110156104bd57600080fd5b506001600160a01b038135169060200135610b9f565b6104db610bf2565b604080516001600160a01b039092168252519081900360200190f35b6104046004803603602081101561050d57600080fd5b50356001600160a01b0316610c01565b6103816004803603604081101561053357600080fd5b506001600160a01b038135169060200135610c79565b6104046004803603602081101561055f57600080fd5b5035610cf3565b610381610cfc565b6103816004803603602081101561058457600080fd5b50356001600160a01b0316610d22565b61039d610d2b565b61039d610d39565b610404600480360360608110156105ba57600080fd5b506001600160a01b03813581169160208101359160409091013516610d3f565b6104db610e10565b61039d610e1f565b61039d610e25565b61039d610e67565b61039d6004803603602081101561061057600080fd5b50356001600160a01b0316610e6d565b610404610e88565b61039d610f59565b6104046004803603604081101561064657600080fd5b506001600160a01b038135169060200135610f5f565b6104db610fb6565b61039d610fca565b6102e0610fd0565b610381611031565b6103816004803603604081101561069257600080fd5b506001600160a01b03813516906020013561103a565b610381600480360360408110156106be57600080fd5b506001600160a01b0381351690602001356110a2565b61039d6110b6565b61039d600480360360408110156106f257600080fd5b506001600160a01b03813581169160200135166110bc565b6104046004803603602081101561072057600080fd5b50356110e7565b61038161118c565b6104046004803603602081101561074557600080fd5b50356001600160a01b0316611195565b6104046004803603604081101561076b57600080fd5b506001600160a01b03813581169160200135166112c2565b6107a96004803603602081101561079957600080fd5b50356001600160a01b031661144d565b604051808260038111156107b957fe5b815260200191505060405180910390f35b60038054604080516020601f60026000196101006001881615020190951694909404938401819004810282018101909252828152606093909290918301828280156108565780601f1061082b57610100808354040283529160200191610856565b820191906000526020600020905b81548152906001019060200180831161083957829003601f168201915b5050505050905090565b600061087461086d6114c3565b84846114c7565b5060015b92915050565b60025490565b600060015b6001600160a01b03831660009081526007602052604090205460ff1660038111156108b057fe5b1480610878575060036001600160a01b03831660009081526007602052604090205460ff1660038111156108e057fe5b1492915050565b600b546001600160a01b031633146109305760405162461bcd60e51b8152600401808060200182810382526023815260200180611e886023913960400191505060405180910390fd5b8060ff16600381111561093f57fe5b6001600160a01b0383166000908152600760205260409020805460ff1916600183600381111561096b57fe5b02179055505050565b600061097f84610884565b158015610992575061099083610d22565b155b15610a9a5760006109a1610e25565b90508015610a9857600b54604080517f5803abaa0000000000000000000000000000000000000000000000000000000081526001600160a01b03888116600483015287811660248301529151600093610a51931691635803abaa91604480830192602092919082900301818887803b158015610a1c57600080fd5b505af1158015610a30573d6000803e3d6000fd5b505050506040513d6020811015610a4657600080fd5b5051612710906115b3565b9050610a69612710610a638484611610565b90611669565b91506000610a7d612710610a638786611610565b9050610a8985826115b3565b9450610a9587826116d0565b50505b505b610aa5848484611783565b949350505050565b610ab56114c3565b6001600160a01b0316610ac6610fb6565b6001600160a01b031614610b21576040805162461bcd60e51b815260206004820181905260248201527f4f776e61626c653a2063616c6c6572206973206e6f7420746865206f776e6572604482015290519081900360640190fd5b610b2a81611805565b50565b60055460ff1690565b683635c9adc5dea0000081565b600b546001600160a01b03163314610b8c5760405162461bcd60e51b8152600401808060200182810382526023815260200180611e886023913960400191505060405180910390fd5b6008805460ff1916911515919091179055565b6000610874610bac6114c3565b84610bed8560016000610bbd6114c3565b6001600160a01b03908116825260208083019390935260409182016000908120918c168152925290205490611462565b6114c7565b600b546001600160a01b031681565b6006546001600160a01b03163314610c4a5760405162461bcd60e51b8152600401808060200182810382526024815260200180611f456024913960400191505060405180910390fd5b600b805473ffffffffffffffffffffffffffffffffffffffff19166001600160a01b0392909216919091179055565b6006546000906001600160a01b03163314610cc55760405162461bcd60e51b8152600401808060200182810382526024815260200180611f456024913960400191505060405180910390fd5b6000610cd084610e6d565b9050610cdc84846118af565b6000610ce785610e6d565b91909111949350505050565b610b2a8161199f565b6006546000906001600160a01b0316610d136114c3565b6001600160a01b031614905090565b60006002610889565b6905150ae84a8cdf00000081565b60095481565b6006546001600160a01b03163314610d885760405162461bcd60e51b8152600401808060200182810382526024815260200180611f456024913960400191505060405180910390fd5b826001600160a01b031663a9059cbb82846040518363ffffffff1660e01b815260040180836001600160a01b0316815260200182815260200192505050602060405180830381600087803b158015610ddf57600080fd5b505af1158015610df3573d6000803e3d6000fd5b505050506040513d6020811015610e0957600080fd5b5050505050565b6006546001600160a01b031690565b600a5481565b600954600c5560085460009060ff16151560011415610e6057610e466119b0565b610dac600a541115610e5957610dac600a555b600a54600c555b50600c5490565b61271081565b6001600160a01b031660009081526020819052604090205490565b610e906114c3565b6001600160a01b0316610ea1610fb6565b6001600160a01b031614610efc576040805162461bcd60e51b815260206004820181905260248201527f4f776e61626c653a2063616c6c6572206973206e6f7420746865206f776e6572604482015290519081900360640190fd5b60055460405160009161010090046001600160a01b0316907f8be0079c531659141344cd1fd0a4f28419497f9722a3daafe3b4186f6b6457e0908390a36005805474ffffffffffffffffffffffffffffffffffffffff0019169055565b600c5481565b6006546001600160a01b03163314610fa85760405162461bcd60e51b8152600401808060200182810382526024815260200180611f456024913960400191505060405180910390fd5b610fb28282611a2f565b5050565b60055461010090046001600160a01b031690565b610dac81565b60048054604080516020601f60026000196101006001881615020190951694909404938401819004810282018101909252828152606093909290918301828280156108565780601f1061082b57610100808354040283529160200191610856565b600d5460ff1681565b60006108746110476114c3565b84610bed85604051806060016040528060258152602001611fd360259139600160006110716114c3565b6001600160a01b03908116825260208083019390935260409182016000908120918d16815292529020549190611a89565b60006108746110af6114c3565b8484611b20565b600e5481565b6001600160a01b03918216600090815260016020908152604080832093909416825291909152205490565b600b546001600160a01b031633146111305760405162461bcd60e51b8152600401808060200182810382526023815260200180611e886023913960400191505060405180910390fd5b610dac811115611187576040805162461bcd60e51b815260206004820152601d60248201527f4572726f723a204d61782074617820726174652065786365656465642e000000604482015290519081900360640190fd5b600955565b60085460ff1681565b61119d6114c3565b6001600160a01b03166111ae610fb6565b6001600160a01b031614611209576040805162461bcd60e51b815260206004820181905260248201527f4f776e61626c653a2063616c6c6572206973206e6f7420746865206f776e6572604482015290519081900360640190fd5b6001600160a01b03811661124e5760405162461bcd60e51b8152600401808060200182810382526026815260200180611e1a6026913960400191505060405180910390fd5b6005546040516001600160a01b0380841692610100900416907f8be0079c531659141344cd1fd0a4f28419497f9722a3daafe3b4186f6b6457e090600090a3600580546001600160a01b039092166101000274ffffffffffffffffffffffffffffffffffffffff0019909216919091179055565b6006546001600160a01b0316331461130b5760405162461bcd60e51b8152600401808060200182810382526024815260200180611f456024913960400191505060405180910390fd5b600d5460ff1615611363576040805162461bcd60e51b815260206004820152601f60248201527f4572726f723a2063616e206f6e6c792064697374726962757465206f6e636500604482015290519081900360640190fd5b6001600160a01b0382166113be576040805162461bcd60e51b815260206004820152600d60248201527f215f67656e65736973506f6f6c00000000000000000000000000000000000000604482015290519081900360640190fd5b6001600160a01b038116611419576040805162461bcd60e51b815260206004820152600b60248201527f215f64616f57616c6c6574000000000000000000000000000000000000000000604482015290519081900360640190fd5b600d805460ff1916600117905561143a826905150ae84a8cdf0000006118af565b610fb281683635c9adc5dea000006118af565b60076020526000908152604090205460ff1681565b6000828201838110156114bc576040805162461bcd60e51b815260206004820152601b60248201527f536166654d6174683a206164646974696f6e206f766572666c6f770000000000604482015290519081900360640190fd5b9392505050565b3390565b6001600160a01b03831661150c5760405162461bcd60e51b8152600401808060200182810382526024815260200180611faf6024913960400191505060405180910390fd5b6001600160a01b0382166115515760405162461bcd60e51b8152600401808060200182810382526022815260200180611e406022913960400191505060405180910390fd5b6001600160a01b03808416600081815260016020908152604080832094871680845294825291829020859055815185815291517f8c5be1e5ebec7d5bd14f71427d1e84f3dd0314c0f7b2291e5b200ac8c7c3b9259281900390910190a3505050565b60008282111561160a576040805162461bcd60e51b815260206004820152601e60248201527f536166654d6174683a207375627472616374696f6e206f766572666c6f770000604482015290519081900360640190fd5b50900390565b60008261161f57506000610878565b8282028284828161162c57fe5b04146114bc5760405162461bcd60e51b8152600401808060200182810382526021815260200180611ed86021913960400191505060405180910390fd5b60008082116116bf576040805162461bcd60e51b815260206004820152601a60248201527f536166654d6174683a206469766973696f6e206279207a65726f000000000000604482015290519081900360640190fd5b8183816116c857fe5b049392505050565b600b546116e89083906001600160a01b0316836114c7565b600b546117009083906001600160a01b031683611783565b50600b54604080517fbfc770a80000000000000000000000000000000000000000000000000000000081526004810184905290516001600160a01b039092169163bfc770a89160248082019260009290919082900301818387803b15801561176757600080fd5b505af115801561177b573d6000803e3d6000fd5b505050505050565b6000611790848484611b20565b6117fb8461179c6114c3565b610bed85604051806060016040528060288152602001611ef9602891396001600160a01b038a166000908152600160205260408120906117da6114c3565b6001600160a01b031681526020810191909152604001600020549190611a89565b5060019392505050565b6001600160a01b03811661184a5760405162461bcd60e51b815260040180806020018281038252602d815260200180611eab602d913960400191505060405180910390fd5b6040516001600160a01b038216906000907f74da04524d50c64947f5dd5381ef1a4dca5cba8ed1d816243f9e48aa0b5617ed908290a36006805473ffffffffffffffffffffffffffffffffffffffff19166001600160a01b0392909216919091179055565b6001600160a01b03821661190a576040805162461bcd60e51b815260206004820152601f60248201527f45524332303a206d696e7420746f20746865207a65726f206164647265737300604482015290519081900360640190fd5b61191660008383611a84565b6002546119239082611462565b6002556001600160a01b0382166000908152602081905260409020546119499082611462565b6001600160a01b0383166000818152602081815260408083209490945583518581529351929391927fddf252ad1be2c89b69c2b068fc378daa952ba7f163c4a11628f55a4df523b3ef9281900390910190a35050565b610b2a6119aa6114c3565b82611c7b565b600b60009054906101000a90046001600160a01b03166001600160a01b031663d39abead6040518163ffffffff1660e01b815260040160206040518083038186803b1580156119fe57600080fd5b505afa158015611a12573d6000803e3d6000fd5b505050506040513d6020811015611a2857600080fd5b5051600a55565b6000611a6682604051806060016040528060248152602001611f2160249139611a5f86611a5a6114c3565b6110bc565b9190611a89565b9050611a7a83611a746114c3565b836114c7565b611a848383611c7b565b505050565b60008184841115611b185760405162461bcd60e51b81526004018080602001828103825283818151815260200191508051906020019080838360005b83811015611add578181015183820152602001611ac5565b50505050905090810190601f168015611b0a5780820380516001836020036101000a031916815260200191505b509250505060405180910390fd5b505050900390565b6001600160a01b038316611b655760405162461bcd60e51b8152600401808060200182810382526025815260200180611f8a6025913960400191505060405180910390fd5b6001600160a01b038216611baa5760405162461bcd60e51b8152600401808060200182810382526023815260200180611dd56023913960400191505060405180910390fd5b611bb5838383611a84565b611bf281604051806060016040528060268152602001611e62602691396001600160a01b0386166000908152602081905260409020549190611a89565b6001600160a01b038085166000908152602081905260408082209390935590841681522054611c219082611462565b6001600160a01b038084166000818152602081815260409182902094909455805185815290519193928716927fddf252ad1be2c89b69c2b068fc378daa952ba7f163c4a11628f55a4df523b3ef92918290030190a3505050565b611c858282611cd8565b600e54611c929082611462565b600e556040805182815290516001600160a01b038416917f1af5163f80e79b5e554f61e1d052084d3a3fe1166e42a265798c4e2ddce8ffa2919081900360200190a25050565b6001600160a01b038216611d1d5760405162461bcd60e51b8152600401808060200182810382526021815260200180611f696021913960400191505060405180910390fd5b611d2982600083611a84565b611d6681604051806060016040528060228152602001611df8602291396001600160a01b0385166000908152602081905260409020549190611a89565b6001600160a01b038316600090815260208190526040902055600254611d8c90826115b3565b6002556040805182815290516000916001600160a01b038516917fddf252ad1be2c89b69c2b068fc378daa952ba7f163c4a11628f55a4df523b3ef9181900360200190a3505056fe45524332303a207472616e7366657220746f20746865207a65726f206164647265737345524332303a206275726e20616d6f756e7420657863656564732062616c616e63654f776e61626c653a206e6577206f776e657220697320746865207a65726f206164647265737345524332303a20617070726f766520746f20746865207a65726f206164647265737345524332303a207472616e7366657220616d6f756e7420657863656564732062616c616e63654572726f723a2043616c6c6572206973206e6f742074686520746178206f66666963656f70657261746f723a207a65726f206164647265737320676976656e20666f72206e6577206f70657261746f72536166654d6174683a206d756c7469706c69636174696f6e206f766572666c6f7745524332303a207472616e7366657220616d6f756e74206578636565647320616c6c6f77616e636545524332303a206275726e20616d6f756e74206578636565647320616c6c6f77616e63656f70657261746f723a2063616c6c6572206973206e6f7420746865206f70657261746f7245524332303a206275726e2066726f6d20746865207a65726f206164647265737345524332303a207472616e736665722066726f6d20746865207a65726f206164647265737345524332303a20617070726f76652066726f6d20746865207a65726f206164647265737345524332303a2064656372656173656420616c6c6f77616e63652062656c6f77207a65726fa2646970667358221220458e7a72a15d3459227200b9e2b0574ffd68dcc2ff0a198b86adc3aba3df980d64736f6c634300060c0033",
  "devdoc": {
    "kind": "dev",
    "methods": {
      "allowance(address,address)": {
        "details": "See {IERC20-allowance}."
      },
      "approve(address,uint256)": {
        "details": "See {IERC20-approve}. Requirements: - `spender` cannot be the zero address."
      },
      "balanceOf(address)": {
        "details": "See {IERC20-balanceOf}."
      },
      "burn(uint256)": {
        "details": "Destroys `amount` tokens from the caller. See {ERC20-_burn}."
      },
      "burnFrom(address,uint256)": {
        "details": "Destroys `amount` tokens from `account`, deducting from the caller's allowance. See {ERC20-_burn} and {ERC20-allowance}. Requirements: - the caller must have allowance for ``accounts``'s tokens of at least `amount`."
      },
      "decimals()": {
        "details": "Returns the number of decimals used to get its user representation. For example, if `decimals` equals `2`, a balance of `505` tokens should be displayed to a user as `5,05` (`505 / 10 ** 2`). Tokens usually opt for a value of 18, imitating the relationship between Ether and Wei. This is the value {ERC20} uses, unless {_setupDecimals} is called. NOTE: This information is only used for _display_ purposes: it in no way affects any of the arithmetic of the contract, including {IERC20-balanceOf} and {IERC20-transfer}."
      },
      "decreaseAllowance(address,uint256)": {
        "details": "Atomically decreases the allowance granted to `spender` by the caller. This is an alternative to {approve} that can be used as a mitigation for problems described in {IERC20-approve}. Emits an {Approval} event indicating the updated allowance. Requirements: - `spender` cannot be the zero address. - `spender` must have allowance for the caller of at least `subtractedValue`."
      },
      "increaseAllowance(address,uint256)": {
        "details": "Atomically increases the allowance granted to `spender` by the caller. This is an alternative to {approve} that can be used as a mitigation for problems described in {IERC20-approve}. Emits an {Approval} event indicating the updated allowance. Requirements: - `spender` cannot be the zero address."
      },
      "name()": {
        "details": "Returns the name of the token."
      },
      "owner()": {
        "details": "Returns the address of the current owner."
      },
      "renounceOwnership()": {
        "details": "Leaves the contract without owner. It will not be possible to call `onlyOwner` functions anymore. Can only be called by the current owner. NOTE: Renouncing ownership will leave the contract without an owner, thereby removing any functionality that is only available to the owner."
      },
      "symbol()": {
        "details": "Returns the symbol of the token, usually a shorter version of the name."
      },
      "totalSupply()": {
        "details": "See {IERC20-totalSupply}."
      },
      "transfer(address,uint256)": {
        "details": "See {IERC20-transfer}. Requirements: - `recipient` cannot be the zero address. - the caller must have a balance of at least `amount`."
      },
      "transferOwnership(address)": {
        "details": "Transfers ownership of the contract to a new account (`newOwner`). Can only be called by the current owner."
      }
    },
    "version": 1
  },
  "userdoc": {
    "kind": "user",
    "methods": {
      "constructor": "Constructs the SNOW ERC-20 contract."
    },
    "version": 1
  },
  "storageLayout": {
    "storage": [
      {
        "astId": 554,
        "contract": "contracts/Snow.sol:Snow",
        "label": "_balances",
        "offset": 0,
        "slot": "0",
        "type": "t_mapping(t_address,t_uint256)"
      },
      {
        "astId": 560,
        "contract": "contracts/Snow.sol:Snow",
        "label": "_allowances",
        "offset": 0,
        "slot": "1",
        "type": "t_mapping(t_address,t_mapping(t_address,t_uint256))"
      },
      {
        "astId": 562,
        "contract": "contracts/Snow.sol:Snow",
        "label": "_totalSupply",
        "offset": 0,
        "slot": "2",
        "type": "t_uint256"
      },
      {
        "astId": 564,
        "contract": "contracts/Snow.sol:Snow",
        "label": "_name",
        "offset": 0,
        "slot": "3",
        "type": "t_string_storage"
      },
      {
        "astId": 566,
        "contract": "contracts/Snow.sol:Snow",
        "label": "_symbol",
        "offset": 0,
        "slot": "4",
        "type": "t_string_storage"
      },
      {
        "astId": 568,
        "contract": "contracts/Snow.sol:Snow",
        "label": "_decimals",
        "offset": 0,
        "slot": "5",
        "type": "t_uint8"
      },
      {
        "astId": 7,
        "contract": "contracts/Snow.sol:Snow",
        "label": "_owner",
        "offset": 1,
        "slot": "5",
        "type": "t_address"
      },
      {
        "astId": 13744,
        "contract": "contracts/Snow.sol:Snow",
        "label": "_operator",
        "offset": 0,
        "slot": "6",
        "type": "t_address"
      },
      {
        "astId": 15600,
        "contract": "contracts/Snow.sol:Snow",
        "label": "whitelistType",
        "offset": 0,
        "slot": "7",
        "type": "t_mapping(t_address,t_enum(WhitelistType)15596)"
      },
      {
        "astId": 15602,
        "contract": "contracts/Snow.sol:Snow",
        "label": "enableDynamicTax",
        "offset": 0,
        "slot": "8",
        "type": "t_bool"
      },
      {
        "astId": 15610,
        "contract": "contracts/Snow.sol:Snow",
        "label": "staticTaxRate",
        "offset": 0,
        "slot": "9",
        "type": "t_uint256"
      },
      {
        "astId": 15612,
        "contract": "contracts/Snow.sol:Snow",
        "label": "dynamicTaxRate",
        "offset": 0,
        "slot": "10",
        "type": "t_uint256"
      },
      {
        "astId": 15614,
        "contract": "contracts/Snow.sol:Snow",
        "label": "taxOffice",
        "offset": 0,
        "slot": "11",
        "type": "t_address"
      },
      {
        "astId": 15616,
        "contract": "contracts/Snow.sol:Snow",
        "label": "taxRate",
        "offset": 0,
        "slot": "12",
        "type": "t_uint256"
      },
      {
        "astId": 6621,
        "contract": "contracts/Snow.sol:Snow",
        "label": "rewardPoolDistributed",
        "offset": 0,
        "slot": "13",
        "type": "t_bool"
      },
      {
        "astId": 6623,
        "contract": "contracts/Snow.sol:Snow",
        "label": "totalBurned",
        "offset": 0,
        "slot": "14",
        "type": "t_uint256"
      }
    ],
    "types": {
      "t_address": {
        "encoding": "inplace",
        "label": "address",
        "numberOfBytes": "20"
      },
      "t_bool": {
        "encoding": "inplace",
        "label": "bool",
        "numberOfBytes": "1"
      },
      "t_enum(WhitelistType)15596": {
        "encoding": "inplace",
        "label": "enum ERC20Taxable.WhitelistType",
        "numberOfBytes": "1"
      },
      "t_mapping(t_address,t_enum(WhitelistType)15596)": {
        "encoding": "mapping",
        "key": "t_address",
        "label": "mapping(address => enum ERC20Taxable.WhitelistType)",
        "numberOfBytes": "32",
        "value": "t_enum(WhitelistType)15596"
      },
      "t_mapping(t_address,t_mapping(t_address,t_uint256))": {
        "encoding": "mapping",
        "key": "t_address",
        "label": "mapping(address => mapping(address => uint256))",
        "numberOfBytes": "32",
        "value": "t_mapping(t_address,t_uint256)"
      },
      "t_mapping(t_address,t_uint256)": {
        "encoding": "mapping",
        "key": "t_address",
        "label": "mapping(address => uint256)",
        "numberOfBytes": "32",
        "value": "t_uint256"
      },
      "t_string_storage": {
        "encoding": "bytes",
        "label": "string",
        "numberOfBytes": "32"
      },
      "t_uint256": {
        "encoding": "inplace",
        "label": "uint256",
        "numberOfBytes": "32"
      },
      "t_uint8": {
        "encoding": "inplace",
        "label": "uint8",
        "numberOfBytes": "1"
      }
    }
  }
}