{
  "address": "0x4826533B4897376654Bb4d4AD88B7faFD0C98528",
  "abi": [
    {
      "inputs": [
        {
          "internalType": "address",
          "name": "_mainToken",
          "type": "address"
        },
        {
          "internalType": "address",
          "name": "_shareToken",
          "type": "address"
        },
        {
          "internalType": "address",
          "name": "_mainTokenOracle",
          "type": "address"
        },
        {
          "internalType": "address",
          "name": "_pegToken",
          "type": "address"
        },
        {
          "internalType": "address",
          "name": "_router",
          "type": "address"
        }
      ],
      "stateMutability": "nonpayable",
      "type": "constructor"
    },
    {
      "anonymous": false,
      "inputs": [
        {
          "indexed": false,
          "internalType": "uint256",
          "name": "_amount",
          "type": "uint256"
        }
      ],
      "name": "HandledMainTokenTax",
      "type": "event"
    },
    {
      "anonymous": false,
      "inputs": [
        {
          "indexed": false,
          "internalType": "uint256",
          "name": "_amount",
          "type": "uint256"
        }
      ],
      "name": "HandledShareTokenTax",
      "type": "event"
    },
    {
      "anonymous": false,
      "inputs": [
        {
          "indexed": true,
          "internalType": "address",
          "name": "previousOperator",
          "type": "address"
        },
        {
          "indexed": true,
          "internalType": "address",
          "name": "newOperator",
          "type": "address"
        }
      ],
      "name": "OperatorTransferred",
      "type": "event"
    },
    {
      "anonymous": false,
      "inputs": [
        {
          "indexed": true,
          "internalType": "address",
          "name": "previousOwner",
          "type": "address"
        },
        {
          "indexed": true,
          "internalType": "address",
          "name": "newOwner",
          "type": "address"
        }
      ],
      "name": "OwnershipTransferred",
      "type": "event"
    },
    {
      "inputs": [],
      "name": "BASIS_POINTS_DENOM",
      "outputs": [
        {
          "internalType": "uint256",
          "name": "",
          "type": "uint256"
        }
      ],
      "stateMutability": "view",
      "type": "function"
    },
    {
      "inputs": [],
      "name": "calculateMainTokenTax",
      "outputs": [
        {
          "internalType": "uint256",
          "name": "taxRate",
          "type": "uint256"
        }
      ],
      "stateMutability": "view",
      "type": "function"
    },
    {
      "inputs": [],
      "name": "calculateShareTokenTax",
      "outputs": [
        {
          "internalType": "uint256",
          "name": "taxRate",
          "type": "uint256"
        }
      ],
      "stateMutability": "view",
      "type": "function"
    },
    {
      "inputs": [],
      "name": "getMainTokenPrice",
      "outputs": [
        {
          "internalType": "uint256",
          "name": "",
          "type": "uint256"
        }
      ],
      "stateMutability": "view",
      "type": "function"
    },
    {
      "inputs": [],
      "name": "getMainTokenUpdatedPrice",
      "outputs": [
        {
          "internalType": "uint256",
          "name": "",
          "type": "uint256"
        }
      ],
      "stateMutability": "view",
      "type": "function"
    },
    {
      "inputs": [
        {
          "internalType": "uint256",
          "name": "_amount",
          "type": "uint256"
        }
      ],
      "name": "handleMainTokenTax",
      "outputs": [],
      "stateMutability": "nonpayable",
      "type": "function"
    },
    {
      "inputs": [
        {
          "internalType": "uint256",
          "name": "_amount",
          "type": "uint256"
        }
      ],
      "name": "handleShareTokenTax",
      "outputs": [],
      "stateMutability": "nonpayable",
      "type": "function"
    },
    {
      "inputs": [],
      "name": "isOperator",
      "outputs": [
        {
          "internalType": "bool",
          "name": "",
          "type": "bool"
        }
      ],
      "stateMutability": "view",
      "type": "function"
    },
    {
      "inputs": [],
      "name": "mainToken",
      "outputs": [
        {
          "internalType": "contract IERC20Taxable",
          "name": "",
          "type": "address"
        }
      ],
      "stateMutability": "view",
      "type": "function"
    },
    {
      "inputs": [],
      "name": "mainTokenOracle",
      "outputs": [
        {
          "internalType": "contract IOracle",
          "name": "",
          "type": "address"
        }
      ],
      "stateMutability": "view",
      "type": "function"
    },
    {
      "inputs": [
        {
          "internalType": "uint256",
          "name": "",
          "type": "uint256"
        }
      ],
      "name": "mainTokenTaxRateTiers",
      "outputs": [
        {
          "internalType": "uint256",
          "name": "",
          "type": "uint256"
        }
      ],
      "stateMutability": "view",
      "type": "function"
    },
    {
      "inputs": [
        {
          "internalType": "uint256",
          "name": "",
          "type": "uint256"
        }
      ],
      "name": "mainTokenTaxTwapTiers",
      "outputs": [
        {
          "internalType": "uint256",
          "name": "",
          "type": "uint256"
        }
      ],
      "stateMutability": "view",
      "type": "function"
    },
    {
      "inputs": [],
      "name": "operator",
      "outputs": [
        {
          "internalType": "address",
          "name": "",
          "type": "address"
        }
      ],
      "stateMutability": "view",
      "type": "function"
    },
    {
      "inputs": [],
      "name": "owner",
      "outputs": [
        {
          "internalType": "address",
          "name": "",
          "type": "address"
        }
      ],
      "stateMutability": "view",
      "type": "function"
    },
    {
      "inputs": [],
      "name": "pegToken",
      "outputs": [
        {
          "internalType": "contract IERC20",
          "name": "",
          "type": "address"
        }
      ],
      "stateMutability": "view",
      "type": "function"
    },
    {
      "inputs": [],
      "name": "renounceOwnership",
      "outputs": [],
      "stateMutability": "nonpayable",
      "type": "function"
    },
    {
      "inputs": [],
      "name": "router",
      "outputs": [
        {
          "internalType": "address",
          "name": "",
          "type": "address"
        }
      ],
      "stateMutability": "view",
      "type": "function"
    },
    {
      "inputs": [
        {
          "internalType": "bool",
          "name": "_enableDynamicTax",
          "type": "bool"
        }
      ],
      "name": "setMainTokenEnableDynamicTax",
      "outputs": [],
      "stateMutability": "nonpayable",
      "type": "function"
    },
    {
      "inputs": [
        {
          "internalType": "address",
          "name": "_mainTokenOracle",
          "type": "address"
        }
      ],
      "name": "setMainTokenOracle",
      "outputs": [],
      "stateMutability": "nonpayable",
      "type": "function"
    },
    {
      "inputs": [
        {
          "internalType": "uint256",
          "name": "_taxRate",
          "type": "uint256"
        }
      ],
      "name": "setMainTokenStaticTaxRate",
      "outputs": [],
      "stateMutability": "nonpayable",
      "type": "function"
    },
    {
      "inputs": [
        {
          "internalType": "uint256[]",
          "name": "_mainTokenTaxTwapTiers",
          "type": "uint256[]"
        },
        {
          "internalType": "uint256[]",
          "name": "_mainTokenTaxRateTiers",
          "type": "uint256[]"
        }
      ],
      "name": "setMainTokenTaxTiers",
      "outputs": [],
      "stateMutability": "nonpayable",
      "type": "function"
    },
    {
      "inputs": [
        {
          "internalType": "address",
          "name": "_account",
          "type": "address"
        },
        {
          "internalType": "uint8",
          "name": "_type",
          "type": "uint8"
        }
      ],
      "name": "setMainTokenWhitelistType",
      "outputs": [],
      "stateMutability": "nonpayable",
      "type": "function"
    },
    {
      "inputs": [
        {
          "internalType": "address",
          "name": "_router",
          "type": "address"
        }
      ],
      "name": "setRouterAddress",
      "outputs": [],
      "stateMutability": "nonpayable",
      "type": "function"
    },
    {
      "inputs": [
        {
          "internalType": "bool",
          "name": "_enableDynamicTax",
          "type": "bool"
        }
      ],
      "name": "setShareTokenEnableDynamicTax",
      "outputs": [],
      "stateMutability": "nonpayable",
      "type": "function"
    },
    {
      "inputs": [
        {
          "internalType": "uint256",
          "name": "_taxRate",
          "type": "uint256"
        }
      ],
      "name": "setShareTokenStaticTaxRate",
      "outputs": [],
      "stateMutability": "nonpayable",
      "type": "function"
    },
    {
      "inputs": [
        {
          "internalType": "uint256[]",
          "name": "_shareTokenTaxTwapTiers",
          "type": "uint256[]"
        },
        {
          "internalType": "uint256[]",
          "name": "_shareTokenTaxRateTiers",
          "type": "uint256[]"
        }
      ],
      "name": "setShareTokenTaxTiers",
      "outputs": [],
      "stateMutability": "nonpayable",
      "type": "function"
    },
    {
      "inputs": [
        {
          "internalType": "address",
          "name": "_account",
          "type": "address"
        },
        {
          "internalType": "uint8",
          "name": "_type",
          "type": "uint8"
        }
      ],
      "name": "setShareTokenWhitelistType",
      "outputs": [],
      "stateMutability": "nonpayable",
      "type": "function"
    },
    {
      "inputs": [
        {
          "internalType": "address",
          "name": "_sender",
          "type": "address"
        },
        {
          "internalType": "address",
          "name": "_recipient",
          "type": "address"
        },
        {
          "internalType": "uint256",
          "name": "_amount",
          "type": "uint256"
        }
      ],
      "name": "setTaxDiscount",
      "outputs": [],
      "stateMutability": "nonpayable",
      "type": "function"
    },
    {
      "inputs": [],
      "name": "shareToken",
      "outputs": [
        {
          "internalType": "contract IERC20Taxable",
          "name": "",
          "type": "address"
        }
      ],
      "stateMutability": "view",
      "type": "function"
    },
    {
      "inputs": [
        {
          "internalType": "uint256",
          "name": "",
          "type": "uint256"
        }
      ],
      "name": "shareTokenTaxRateTiers",
      "outputs": [
        {
          "internalType": "uint256",
          "name": "",
          "type": "uint256"
        }
      ],
      "stateMutability": "view",
      "type": "function"
    },
    {
      "inputs": [
        {
          "internalType": "uint256",
          "name": "",
          "type": "uint256"
        }
      ],
      "name": "shareTokenTaxTwapTiers",
      "outputs": [
        {
          "internalType": "uint256",
          "name": "",
          "type": "uint256"
        }
      ],
      "stateMutability": "view",
      "type": "function"
    },
    {
      "inputs": [
        {
          "internalType": "address",
          "name": "",
          "type": "address"
        },
        {
          "internalType": "address",
          "name": "",
          "type": "address"
        }
      ],
      "name": "taxDiscount",
      "outputs": [
        {
          "internalType": "uint256",
          "name": "",
          "type": "uint256"
        }
      ],
      "stateMutability": "view",
      "type": "function"
    },
    {
      "inputs": [
        {
          "internalType": "address",
          "name": "newOperator_",
          "type": "address"
        }
      ],
      "name": "transferOperator",
      "outputs": [],
      "stateMutability": "nonpayable",
      "type": "function"
    },
    {
      "inputs": [
        {
          "internalType": "address",
          "name": "newOwner",
          "type": "address"
        }
      ],
      "name": "transferOwnership",
      "outputs": [],
      "stateMutability": "nonpayable",
      "type": "function"
    },
    {
      "inputs": [],
      "name": "updateMainTokenPrice",
      "outputs": [],
      "stateMutability": "nonpayable",
      "type": "function"
    },
    {
      "inputs": [
        {
          "internalType": "address",
          "name": "_token",
          "type": "address"
        },
        {
          "internalType": "address",
          "name": "_recipient",
          "type": "address"
        },
        {
          "internalType": "uint256",
          "name": "_amount",
          "type": "uint256"
        }
      ],
      "name": "withdraw",
      "outputs": [],
      "stateMutability": "nonpayable",
      "type": "function"
    }
  ],
  "transactionHash": "0x5067095ef5c7f15000f56c63ebf2caf2227f9a7b92b26a0222aa1a5bba8a50cd",
  "args": [
    "0x4ed7c70F96B99c776995fB64377f0d4aB3B0e1C1",
    "0xa85233C63b9Ee964Add6F2cffe00Fd84eb32338f",
    "0x9E545E3C0baAB3E08CdfD552C960A1050f373042",
    "0x959922bE3CAee4b8Cd9a407cc3ac1C251C2007B1",
    "0x145677FC4d9b8F19B5D56d1820c48e0443049a30"
  ],
  "numDeployments": 1,
  "solcInputHash": "73395350a0819fb65c5145526fa0b4d9",
  "bytecode": "0x6102a0604052600060e090815266b1a2bc2ec500006101005266d529ae9e8600006101205266f8b0a10e4700006101405267011c37937e0800006101605267013fbe85edc900006101805267015181ff25a980006101a05267016345785d8a00006101c05267017508f1956a80006101e052670186cc6acd4b0000610200526701aa535d3d0c0000610220526701cdda4faccd0000610240526701f161421c8e000061026052670214e8348c4f000061028052620000c290600390600e62000416565b50604080516101c0810182526108ca80825260208201819052918101919091526107d060608201819052608082015261064060a0820181905260c0820181905260e08201526103206101008201819052610120820152610258610140820181905261016082018190526101808201526101906101a08201526200014a90600490600e62000471565b50604080516101c0810182526000815266b1a2bc2ec50000602082015266d529ae9e8600009181019190915266f8b0a10e470000606082015267011c37937e080000608082015267013fbe85edc9000060a082015267015181ff25a9800060c082015267016345785d8a000060e082015267017508f1956a8000610100820152670186cc6acd4b00006101208201526701aa535d3d0c00006101408201526701cdda4faccd00006101608201526701f161421c8e0000610180820152670214e8348c4f00006101a08201526200022590600590600e62000416565b50604080516101c0810182526108ca80825260208201819052918101919091526107d060608201819052608082015261064060a0820181905260c0820181905260e08201526103206101008201819052610120820152610258610140820181905261016082018190526101808201526101906101a0820152620002ad90600690600e62000471565b50348015620002bb57600080fd5b5060405162002fce38038062002fce833981810160405260a0811015620002e157600080fd5b50805160208201516040830151606084015160809094015192939192909190848484848484848460006200031462000412565b600080546001600160a01b0319166001600160a01b0383169081178255604051929350917f8be0079c531659141344cd1fd0a4f28419497f9722a3daafe3b4186f6b6457e0908290a3506200036862000412565b600180546001600160a01b0319166001600160a01b0392831617908190556040519116906000907f74da04524d50c64947f5dd5381ef1a4dca5cba8ed1d816243f9e48aa0b5617ed908290a3606092831b6001600160601b031990811660805291831b821660a052600280546001600160a01b03199081166001600160a01b03938416179091559490921b1660c05260088054909316911617905550620004cc9650505050505050565b3390565b8280548282559060005260206000209081019282156200045f579160200282015b828111156200045f57825182906001600160401b031690559160200191906001019062000437565b506200046d929150620004b5565b5090565b8280548282559060005260206000209081019282156200045f579160200282015b828111156200045f578251829061ffff1690559160200191906001019062000492565b5b808211156200046d5760008155600101620004b6565b60805160601c60a05160601c60c05160601c612a6d62000561600039806111015280611342528061185852806118c45250806109155280610b475280610d44528061106d528061178e528061183752806118a35250806108185280610bad5280610cac5280610d9a52806111ed5280611288528061132152806114c4528061155e528061187952806122c75250612a6d6000f3fe608060405234801561001057600080fd5b506004361061025c5760003560e01c806373d8700b11610145578063d2742813116100bd578063d9caed121161008c578063ebaf415611610071578063ebaf41561461070c578063f2fde38b14610729578063f887ea401461074f5761025c565b8063d9caed12146106a0578063e6ff187a146106d65761025c565b8063d274281314610669578063d39abead14610671578063d3bca4ce14610679578063d419ae53146106985761025c565b8063a6f58b1511610114578063b1d5ca1d116100f9578063b1d5ca1d1461061e578063bcf0c9f914610644578063bfc770a81461064c5761025c565b8063a6f58b15146105f9578063adda69f5146106165761025c565b806373d8700b146104e35780638da5cb5b146105a55780639b358076146105ad578063a179de2c146105dc5761025c565b806341cb87fc116101d85780635803abaa116101a75780636c9fa59e1161018c5780636c9fa59e146104cb57806370ff8322146104d3578063715018a6146104db5761025c565b80635803abaa14610495578063678014b0146104c35761025c565b806341cb87fc1461042e5780634456eda21461045457806356ee5f4c14610470578063570ca7351461048d5761025c565b806329605e771161022f5780633b16c9c4116102145780633b16c9c41461032b5780633b42f67b146103ed5780633fc15f151461040a5761025c565b806329605e77146102e85780632df5a70a1461030e5761025c565b80630d565702146102615780630dbce9751461026b5780631daf0dca1461029a5780632041c24c146102c9575b600080fd5b610269610757565b005b6102696004803603604081101561028157600080fd5b5080356001600160a01b0316906020013560ff166107cd565b6102b7600480360360208110156102b057600080fd5b50356108ac565b60408051918252519081900360200190f35b610269600480360360208110156102df57600080fd5b503515156108ca565b610269600480360360208110156102fe57600080fd5b50356001600160a01b0316610996565b6102b76004803603602081101561032457600080fd5b5035610a13565b6102696004803603604081101561034157600080fd5b81019060208101813564010000000081111561035c57600080fd5b82018360208201111561036e57600080fd5b8035906020019184602083028401116401000000008311171561039057600080fd5b9193909290916020810190356401000000008111156103ae57600080fd5b8201836020820111156103c057600080fd5b803590602001918460208302840111640100000000831117156103e257600080fd5b509092509050610a20565b6102696004803603602081101561040357600080fd5b5035610afc565b610412610bab565b604080516001600160a01b039092168252519081900360200190f35b6102696004803603602081101561044457600080fd5b50356001600160a01b0316610bcf565b61045c610c3a565b604080519115158252519081900360200190f35b6102696004803603602081101561048657600080fd5b5035610c61565b610412610d10565b6102b7600480360360408110156104ab57600080fd5b506001600160a01b0381358116916020013516610d1f565b6102b7610d3c565b610412610d42565b6102b7610d66565b610269610e79565b610269600480360360408110156104f957600080fd5b81019060208101813564010000000081111561051457600080fd5b82018360208201111561052657600080fd5b8035906020019184602083028401116401000000008311171561054857600080fd5b91939092909160208101903564010000000081111561056657600080fd5b82018360208201111561057857600080fd5b8035906020019184602083028401116401000000008311171561059a57600080fd5b509092509050610f37565b610412611013565b610269600480360360408110156105c357600080fd5b5080356001600160a01b0316906020013560ff16611022565b6102b7600480360360208110156105f257600080fd5b50356110e5565b6102b76004803603602081101561060f57600080fd5b50356110f2565b6104126110ff565b6102696004803603602081101561063457600080fd5b50356001600160a01b0316611123565b6104126111d3565b6102696004803603602081101561066257600080fd5b50356111e2565b6102b7611373565b6102b7611400565b6102696004803603602081101561068f57600080fd5b50351515611479565b6102b761152a565b610269600480360360608110156106b657600080fd5b506001600160a01b038135811691602081013590911690604001356115c2565b610269600480360360608110156106ec57600080fd5b506001600160a01b0381358116916020810135909116906040013561168c565b6102696004803603602081101561072257600080fd5b5035611783565b6102696004803603602081101561073f57600080fd5b50356001600160a01b0316611928565b610412611a3c565b6002546001600160a01b0316156107cb57600260009054906101000a90046001600160a01b03166001600160a01b031663a2e620456040518163ffffffff1660e01b8152600401600060405180830381600087803b1580156107b857600080fd5b505af19250505080156107c9575060015b505b565b6001546001600160a01b031633146108165760405162461bcd60e51b815260040180806020018281038252602481526020018061295f6024913960400191505060405180910390fd5b7f00000000000000000000000000000000000000000000000000000000000000006001600160a01b031663232798df83836040518363ffffffff1660e01b815260040180836001600160a01b031681526020018260ff16815260200192505050600060405180830381600087803b15801561089057600080fd5b505af11580156108a4573d6000803e3d6000fd5b505050505050565b600381815481106108b957fe5b600091825260209091200154905081565b6001546001600160a01b031633146109135760405162461bcd60e51b815260040180806020018281038252602481526020018061295f6024913960400191505060405180910390fd5b7f00000000000000000000000000000000000000000000000000000000000000006001600160a01b03166338d2776e826040518263ffffffff1660e01b8152600401808215158152602001915050600060405180830381600087803b15801561097b57600080fd5b505af115801561098f573d6000803e3d6000fd5b5050505050565b61099e611a4b565b6001600160a01b03166109af611013565b6001600160a01b031614610a0a576040805162461bcd60e51b815260206004820181905260248201527f4f776e61626c653a2063616c6c6572206973206e6f7420746865206f776e6572604482015290519081900360640190fd5b6107c981611a4f565b600581815481106108b957fe5b6001546001600160a01b03163314610a695760405162461bcd60e51b815260040180806020018281038252602481526020018061295f6024913960400191505060405180910390fd5b828114610aa75760405162461bcd60e51b81526004018080602001828103825260278152602001806128436027913960400191505060405180910390fd5b610ae3848480806020026020016040519081016040528093929190818152602001838360200280828437600092019190915250611aec92505050565b610aef600385856127e2565b5061098f600483836127e2565b6001546001600160a01b03163314610b455760405162461bcd60e51b815260040180806020018281038252602481526020018061295f6024913960400191505060405180910390fd5b7f00000000000000000000000000000000000000000000000000000000000000006001600160a01b031663e1ea1fa3826040518263ffffffff1660e01b815260040180828152602001915050600060405180830381600087803b15801561097b57600080fd5b7f000000000000000000000000000000000000000000000000000000000000000081565b6001546001600160a01b03163314610c185760405162461bcd60e51b815260040180806020018281038252602481526020018061295f6024913960400191505060405180910390fd5b600880546001600160a01b0319166001600160a01b0392909216919091179055565b6001546000906001600160a01b0316610c51611a4b565b6001600160a01b03161490505b90565b6001546001600160a01b03163314610caa5760405162461bcd60e51b815260040180806020018281038252602481526020018061295f6024913960400191505060405180910390fd5b7f00000000000000000000000000000000000000000000000000000000000000006001600160a01b031663e1ea1fa3826040518263ffffffff1660e01b815260040180828152602001915050600060405180830381600087803b15801561097b57600080fd5b6001546001600160a01b031690565b600760209081526000928352604080842090915290825290205481565b61271081565b7f000000000000000000000000000000000000000000000000000000000000000081565b600254604080517f6808a1280000000000000000000000000000000000000000000000000000000081526001600160a01b037f000000000000000000000000000000000000000000000000000000000000000081166004830152670de0b6b3a7640000602483015291516000939290921691636808a12891604480820192602092909190829003018186803b158015610dfe57600080fd5b505afa925050508015610e2357506040513d6020811015610e1e57600080fd5b505160015b610e5e5760405162461bcd60e51b815260040180806020018281038252603281526020018061290c6032913960400191505060405180910390fd5b71ffffffffffffffffffffffffffffffffffff169050610c5e565b610e81611a4b565b6001600160a01b0316610e92611013565b6001600160a01b031614610eed576040805162461bcd60e51b815260206004820181905260248201527f4f776e61626c653a2063616c6c6572206973206e6f7420746865206f776e6572604482015290519081900360640190fd5b600080546040516001600160a01b03909116907f8be0079c531659141344cd1fd0a4f28419497f9722a3daafe3b4186f6b6457e0908390a3600080546001600160a01b0319169055565b6001546001600160a01b03163314610f805760405162461bcd60e51b815260040180806020018281038252602481526020018061295f6024913960400191505060405180910390fd5b828114610fbe5760405162461bcd60e51b81526004018080602001828103825260278152602001806128436027913960400191505060405180910390fd5b610ffa848480806020026020016040519081016040528093929190818152602001838360200280828437600092019190915250611aec92505050565b611006600585856127e2565b5061098f600683836127e2565b6000546001600160a01b031690565b6001546001600160a01b0316331461106b5760405162461bcd60e51b815260040180806020018281038252602481526020018061295f6024913960400191505060405180910390fd5b7f00000000000000000000000000000000000000000000000000000000000000006001600160a01b031663232798df83836040518363ffffffff1660e01b815260040180836001600160a01b031681526020018260ff16815260200192505050600060405180830381600087803b15801561089057600080fd5b600481815481106108b957fe5b600681815481106108b957fe5b7f000000000000000000000000000000000000000000000000000000000000000081565b6001546001600160a01b0316331461116c5760405162461bcd60e51b815260040180806020018281038252602481526020018061295f6024913960400191505060405180910390fd5b6001600160a01b0381166111b15760405162461bcd60e51b815260040180806020018281038252602981526020018061286a6029913960400191505060405180910390fd5b600280546001600160a01b0319166001600160a01b0392909216919091179055565b6002546001600160a01b031681565b336001600160a01b037f0000000000000000000000000000000000000000000000000000000000000000161480611231575061121c610d10565b6001600160a01b0316336001600160a01b0316145b61126c5760405162461bcd60e51b81526004018080602001828103825260298152602001806129836029913960400191505060405180910390fd5b6000611284606461127e846050611c07565b90611c69565b90507f00000000000000000000000000000000000000000000000000000000000000006001600160a01b03166342966c68826040518263ffffffff1660e01b815260040180828152602001915050600060405180830381600087803b1580156112ec57600080fd5b505af1158015611300573d6000803e3d6000fd5b5050505060006113198284611cd090919063ffffffff16565b9050611366817f00000000000000000000000000000000000000000000000000000000000000007f0000000000000000000000000000000000000000000000000000000000000000611d2d565b61136e610757565b505050565b60008061137e610d66565b905060006113dc60058054806020026020016040519081016040528092919081815260200182805480156113d157602002820191906000526020600020905b8154815260200190600101908083116113bd575b505050505083611fec565b905060068160ff16815481106113ee57fe5b90600052602060002001549250505090565b60008061140b610d66565b9050600061146760038054806020026020016040519081016040528092919081815260200182805480156113d157602002820191906000526020600020908154815260200190600101908083116113bd57505050505083611fec565b905060048160ff16815481106113ee57fe5b6001546001600160a01b031633146114c25760405162461bcd60e51b815260040180806020018281038252602481526020018061295f6024913960400191505060405180910390fd5b7f00000000000000000000000000000000000000000000000000000000000000006001600160a01b03166338d2776e826040518263ffffffff1660e01b8152600401808215158152602001915050600060405180830381600087803b15801561097b57600080fd5b600254604080517f3ddac9530000000000000000000000000000000000000000000000000000000081526001600160a01b037f000000000000000000000000000000000000000000000000000000000000000081166004830152670de0b6b3a7640000602483015291516000939290921691633ddac95391604480820192602092909190829003018186803b158015610dfe57600080fd5b6001546001600160a01b0316331461160b5760405162461bcd60e51b815260040180806020018281038252602481526020018061295f6024913960400191505060405180910390fd5b826001600160a01b031663a9059cbb83836040518363ffffffff1660e01b815260040180836001600160a01b0316815260200182815260200192505050602060405180830381600087803b15801561166257600080fd5b505af1158015611676573d6000803e3d6000fd5b505050506040513d602081101561098f57600080fd5b611694611a4b565b6001600160a01b03166116a5611013565b6001600160a01b031614611700576040805162461bcd60e51b815260206004820181905260248201527f4f776e61626c653a2063616c6c6572206973206e6f7420746865206f776e6572604482015290519081900360640190fd5b612710811115611757576040805162461bcd60e51b815260206004820152601e60248201527f4572726f723a20446973636f756e74207261746520746f6f20686967682e0000604482015290519081900360640190fd5b6001600160a01b0392831660009081526007602090815260408083209490951682529290925291902055565b336001600160a01b037f00000000000000000000000000000000000000000000000000000000000000001614806117d257506117bd610d10565b6001600160a01b0316336001600160a01b0316145b61180d5760405162461bcd60e51b81526004018080602001828103825260298152602001806129836029913960400191505060405180910390fd5b60006118216103e861127e84610320611c07565b9050600061182f8383611cd0565b905061189d827f00000000000000000000000000000000000000000000000000000000000000007f00000000000000000000000000000000000000000000000000000000000000007f0000000000000000000000000000000000000000000000000000000000000000612037565b6118e8817f00000000000000000000000000000000000000000000000000000000000000007f0000000000000000000000000000000000000000000000000000000000000000611d2d565b6118f0610757565b6040805184815290517f254b3311b04550bb196e4bb4037b828129988892e707804f06d72089a6ecf69a9181900360200190a1505050565b611930611a4b565b6001600160a01b0316611941611013565b6001600160a01b03161461199c576040805162461bcd60e51b815260206004820181905260248201527f4f776e61626c653a2063616c6c6572206973206e6f7420746865206f776e6572604482015290519081900360640190fd5b6001600160a01b0381166119e15760405162461bcd60e51b81526004018080602001828103825260268152602001806128936026913960400191505060405180910390fd5b600080546040516001600160a01b03808516939216917f8be0079c531659141344cd1fd0a4f28419497f9722a3daafe3b4186f6b6457e091a3600080546001600160a01b0319166001600160a01b0392909216919091179055565b6008546001600160a01b031681565b3390565b6001600160a01b038116611a945760405162461bcd60e51b815260040180806020018281038252602d8152602001806128df602d913960400191505060405180910390fd5b6040516001600160a01b038216906000907f74da04524d50c64947f5dd5381ef1a4dca5cba8ed1d816243f9e48aa0b5617ed908290a3600180546001600160a01b0319166001600160a01b0392909216919091179055565b8051600090611afc906001611cd0565b905060005b8160ff168160ff161161136e5760ff811615611b8457826001820360ff1681518110611b2957fe5b6020026020010151838260ff1681518110611b4057fe5b602002602001015111611b845760405162461bcd60e51b815260040180806020018281038252602c8152602001806129ac602c913960400191505060405180910390fd5b8160ff168160ff161015611bff57828160010160ff1681518110611ba457fe5b6020026020010151838260ff1681518110611bbb57fe5b602002602001015110611bff5760405162461bcd60e51b815260040180806020018281038252602c8152602001806129ac602c913960400191505060405180910390fd5b600101611b01565b600082611c1657506000611c63565b82820282848281611c2357fe5b0414611c605760405162461bcd60e51b815260040180806020018281038252602181526020018061293e6021913960400191505060405180910390fd5b90505b92915050565b6000808211611cbf576040805162461bcd60e51b815260206004820152601a60248201527f536166654d6174683a206469766973696f6e206279207a65726f000000000000604482015290519081900360640190fd5b818381611cc857fe5b049392505050565b600082821115611d27576040805162461bcd60e51b815260206004820152601e60248201527f536166654d6174683a207375627472616374696f6e206f766572666c6f770000604482015290519081900360640190fd5b50900390565b6000826001600160a01b03166370a08231306040518263ffffffff1660e01b815260040180826001600160a01b0316815260200191505060206040518083038186803b158015611d7c57600080fd5b505afa158015611d90573d6000803e3d6000fd5b505050506040513d6020811015611da657600080fd5b5051905080841115611db6578093505b60408051600280825260608083018452926020830190803683370190505090508381600081518110611de457fe5b60200260200101906001600160a01b031690816001600160a01b0316815250508281600181518110611e1257fe5b6001600160a01b039283166020918202929092010152600854611e38918691168761234c565b600854611e509084906001600160a01b03168761234c565b6008546040517f38ed1739000000000000000000000000000000000000000000000000000000008152600481018781526000602483018190523060648401819052602842016084850181905260a060448601908152875160a487015287516001600160a01b03909716966338ed1739968d968a9594939092909160c40190602080880191028083838b5b83811015611ef2578181015183820152602001611eda565b505050509050019650505050505050600060405180830381600087803b158015611f1b57600080fd5b505af1158015611f2f573d6000803e3d6000fd5b505050506040513d6000823e601f3d908101601f191682016040526020811015611f5857600080fd5b8101908080516040519392919084640100000000821115611f7857600080fd5b908301906020820185811115611f8d57600080fd5b8251866020820283011164010000000082111715611faa57600080fd5b82525081516020918201928201910280838360005b83811015611fd7578181015183820152602001611fbf565b50505050905001604052505050505050505050565b60008061200460018551611cd090919063ffffffff16565b9050805b848160ff168151811061201757fe5b6020026020010151841061202e579150611c639050565b60001901612008565b60408051600380825260808201909252606091602082018380368337019050509050838160008151811061206757fe5b60200260200101906001600160a01b031690816001600160a01b031681525050828160018151811061209557fe5b60200260200101906001600160a01b031690816001600160a01b03168152505081816002815181106120c357fe5b6001600160a01b0392831660209182029290920101526008546120e9918691168761234c565b6008546121019084906001600160a01b03168761234c565b6008546121199083906001600160a01b03168761234c565b6060600860009054906101000a90046001600160a01b03166001600160a01b03166338ed17398760008530426028016040518663ffffffff1660e01b81526004018086815260200185815260200180602001846001600160a01b03168152602001838152602001828103825285818151815260200191508051906020019060200280838360005b838110156121b85781810151838201526020016121a0565b505050509050019650505050505050600060405180830381600087803b1580156121e157600080fd5b505af11580156121f5573d6000803e3d6000fd5b505050506040513d6000823e601f3d908101601f19168201604052602081101561221e57600080fd5b810190808051604051939291908464010000000082111561223e57600080fd5b90830190602082018581111561225357600080fd5b825186602082028301116401000000008211171561227057600080fd5b82525081516020918201928201910280838360005b8381101561229d578181015183820152602001612285565b5050505090500160405250505090506000816002815181106122bb57fe5b602002602001015190507f00000000000000000000000000000000000000000000000000000000000000006001600160a01b03166342966c68826040518263ffffffff1660e01b815260040180828152602001915050600060405180830381600087803b15801561232b57600080fd5b505af115801561233f573d6000803e3d6000fd5b5050505050505050505050565b60408051636eb1769f60e11b81523060048201526001600160a01b0384811660248301529151839286169163dd62ed3e916044808301926020929190829003018186803b15801561239c57600080fd5b505afa1580156123b0573d6000803e3d6000fd5b505050506040513d60208110156123c657600080fd5b5051101561136e5761136e6001600160a01b0384168360001960408051636eb1769f60e11b81523060048201526001600160a01b03848116602483015291519185169163dd62ed3e91604480820192602092909190829003018186803b15801561242f57600080fd5b505afa158015612443573d6000803e3d6000fd5b505050506040513d602081101561245957600080fd5b5051156124975760405162461bcd60e51b8152600401808060200182810382526036815260200180612a026036913960400191505060405180910390fd5b604080516001600160a01b038416602482015260448082018490528251808303909101815260649091019091526020810180517bffffffffffffffffffffffffffffffffffffffffffffffffffffffff167f095ea7b30000000000000000000000000000000000000000000000000000000017905261136e9084906060612567826040518060400160405280602081526020017f5361666545524332303a206c6f772d6c6576656c2063616c6c206661696c6564815250856001600160a01b03166125c39092919063ffffffff16565b80519091501561136e5780806020019051602081101561258657600080fd5b505161136e5760405162461bcd60e51b815260040180806020018281038252602a8152602001806129d8602a913960400191505060405180910390fd5b60606125d284846000856125dc565b90505b9392505050565b60608247101561261d5760405162461bcd60e51b81526004018080602001828103825260268152602001806128b96026913960400191505060405180910390fd5b61262685612738565b612677576040805162461bcd60e51b815260206004820152601d60248201527f416464726573733a2063616c6c20746f206e6f6e2d636f6e7472616374000000604482015290519081900360640190fd5b60006060866001600160a01b031685876040518082805190602001908083835b602083106126b65780518252601f199092019160209182019101612697565b6001836020036101000a03801982511681845116808217855250505050505090500191505060006040518083038185875af1925050503d8060008114612718576040519150601f19603f3d011682016040523d82523d6000602084013e61271d565b606091505b509150915061272d82828661273e565b979650505050505050565b3b151590565b6060831561274d5750816125d5565b82511561275d5782518084602001fd5b8160405162461bcd60e51b81526004018080602001828103825283818151815260200191508051906020019080838360005b838110156127a757818101518382015260200161278f565b50505050905090810190601f1680156127d45780820380516001836020036101000a031916815260200191505b509250505060405180910390fd5b82805482825590600052602060002090810192821561281d579160200282015b8281111561281d578235825591602001919060010190612802565b5061282992915061282d565b5090565b5b80821115612829576000815560010161282e56fe4572726f723a20766563746f72206c656e6774687320617265206e6f74207468652073616d652e4572726f723a204f7261636c6520616464726573732063616e6e6f74206265203020616464726573734f776e61626c653a206e6577206f776e657220697320746865207a65726f2061646472657373416464726573733a20696e73756666696369656e742062616c616e636520666f722063616c6c6f70657261746f723a207a65726f206164647265737320676976656e20666f72206e6577206f70657261746f724572726f3a206661696c656420746f206665746368204d61696e20546f6b656e2070726963652066726f6d204f7261636c65536166654d6174683a206d756c7469706c69636174696f6e206f766572666c6f776f70657261746f723a2063616c6c6572206973206e6f7420746865206f70657261746f724572726f723a205769746864726177207065726d697373696f6e7320696e73756666696369656e742e4572726f723a20545741502074696572732073657175656e636520617265206e6f74206d6f6e6f746f6e69635361666545524332303a204552433230206f7065726174696f6e20646964206e6f7420737563636565645361666545524332303a20617070726f76652066726f6d206e6f6e2d7a65726f20746f206e6f6e2d7a65726f20616c6c6f77616e6365a2646970667358221220683c38eae16f9463457b99b82d04681e97c6e88cf853397a42ea3731242a070c64736f6c634300060c0033",
  "devdoc": {
    "kind": "dev",
    "methods": {
      "owner()": {
        "details": "Returns the address of the current owner."
      },
      "renounceOwnership()": {
        "details": "Leaves the contract without owner. It will not be possible to call `onlyOwner` functions anymore. Can only be called by the current owner. NOTE: Renouncing ownership will leave the contract without an owner, thereby removing any functionality that is only available to the owner."
      },
      "transferOwnership(address)": {
        "details": "Transfers ownership of the contract to a new account (`newOwner`). Can only be called by the current owner."
      }
    },
    "version": 1
  },
  "userdoc": {
    "kind": "user",
    "methods": {},
    "version": 1
  },
  "storageLayout": {
    "storage": [
      {
        "astId": 7,
        "contract": "contracts/TaxOffice.sol:TaxOfficeV3",
        "label": "_owner",
        "offset": 0,
        "slot": "0",
        "type": "t_address"
      },
      {
        "astId": 13705,
        "contract": "contracts/TaxOffice.sol:TaxOfficeV3",
        "label": "_operator",
        "offset": 0,
        "slot": "1",
        "type": "t_address"
      },
      {
        "astId": 9813,
        "contract": "contracts/TaxOffice.sol:TaxOfficeV3",
        "label": "mainTokenOracle",
        "offset": 0,
        "slot": "2",
        "type": "t_contract(IOracle)14082"
      },
      {
        "astId": 9834,
        "contract": "contracts/TaxOffice.sol:TaxOfficeV3",
        "label": "mainTokenTaxTwapTiers",
        "offset": 0,
        "slot": "3",
        "type": "t_array(t_uint256)dyn_storage"
      },
      {
        "astId": 9852,
        "contract": "contracts/TaxOffice.sol:TaxOfficeV3",
        "label": "mainTokenTaxRateTiers",
        "offset": 0,
        "slot": "4",
        "type": "t_array(t_uint256)dyn_storage"
      },
      {
        "astId": 9870,
        "contract": "contracts/TaxOffice.sol:TaxOfficeV3",
        "label": "shareTokenTaxTwapTiers",
        "offset": 0,
        "slot": "5",
        "type": "t_array(t_uint256)dyn_storage"
      },
      {
        "astId": 9888,
        "contract": "contracts/TaxOffice.sol:TaxOfficeV3",
        "label": "shareTokenTaxRateTiers",
        "offset": 0,
        "slot": "6",
        "type": "t_array(t_uint256)dyn_storage"
      },
      {
        "astId": 9894,
        "contract": "contracts/TaxOffice.sol:TaxOfficeV3",
        "label": "taxDiscount",
        "offset": 0,
        "slot": "7",
        "type": "t_mapping(t_address,t_mapping(t_address,t_uint256))"
      },
      {
        "astId": 10418,
        "contract": "contracts/TaxOffice.sol:TaxOfficeV3",
        "label": "router",
        "offset": 0,
        "slot": "8",
        "type": "t_address"
      }
    ],
    "types": {
      "t_address": {
        "encoding": "inplace",
        "label": "address",
        "numberOfBytes": "20"
      },
      "t_array(t_uint256)dyn_storage": {
        "base": "t_uint256",
        "encoding": "dynamic_array",
        "label": "uint256[]",
        "numberOfBytes": "32"
      },
      "t_contract(IOracle)14082": {
        "encoding": "inplace",
        "label": "contract IOracle",
        "numberOfBytes": "20"
      },
      "t_mapping(t_address,t_mapping(t_address,t_uint256))": {
        "encoding": "mapping",
        "key": "t_address",
        "label": "mapping(address => mapping(address => uint256))",
        "numberOfBytes": "32",
        "value": "t_mapping(t_address,t_uint256)"
      },
      "t_mapping(t_address,t_uint256)": {
        "encoding": "mapping",
        "key": "t_address",
        "label": "mapping(address => uint256)",
        "numberOfBytes": "32",
        "value": "t_uint256"
      },
      "t_uint256": {
        "encoding": "inplace",
        "label": "uint256",
        "numberOfBytes": "32"
      }
    }
  }
}