{
  "address": "0x64Ed22277402f01f3AD382270B419b9F5e87F4c4",
  "abi": [
    {
      "anonymous": false,
      "inputs": [
        {
          "indexed": false,
          "internalType": "uint256",
          "name": "timestamp",
          "type": "uint256"
        },
        {
          "indexed": false,
          "internalType": "uint256",
          "name": "seigniorage",
          "type": "uint256"
        }
      ],
      "name": "BoardroomFunded",
      "type": "event"
    },
    {
      "anonymous": false,
      "inputs": [
        {
          "indexed": true,
          "internalType": "address",
          "name": "from",
          "type": "address"
        },
        {
          "indexed": false,
          "internalType": "uint256",
          "name": "snowAmount",
          "type": "uint256"
        },
        {
          "indexed": false,
          "internalType": "uint256",
          "name": "bondAmount",
          "type": "uint256"
        }
      ],
      "name": "BoughtBonds",
      "type": "event"
    },
    {
      "anonymous": false,
      "inputs": [
        {
          "indexed": true,
          "internalType": "address",
          "name": "from",
          "type": "address"
        },
        {
          "indexed": false,
          "internalType": "uint256",
          "name": "bondAmount",
          "type": "uint256"
        }
      ],
      "name": "BurnedBonds",
      "type": "event"
    },
    {
      "anonymous": false,
      "inputs": [
        {
          "indexed": false,
          "internalType": "uint256",
          "name": "timestamp",
          "type": "uint256"
        },
        {
          "indexed": false,
          "internalType": "uint256",
          "name": "seigniorage",
          "type": "uint256"
        }
      ],
      "name": "DaoFundFunded",
      "type": "event"
    },
    {
      "anonymous": false,
      "inputs": [
        {
          "indexed": false,
          "internalType": "uint256",
          "name": "timestamp",
          "type": "uint256"
        },
        {
          "indexed": false,
          "internalType": "uint256",
          "name": "seigniorage",
          "type": "uint256"
        }
      ],
      "name": "DevFundFunded",
      "type": "event"
    },
    {
      "anonymous": false,
      "inputs": [
        {
          "indexed": true,
          "internalType": "address",
          "name": "executor",
          "type": "address"
        },
        {
          "indexed": false,
          "internalType": "uint256",
          "name": "at",
          "type": "uint256"
        }
      ],
      "name": "Initialized",
      "type": "event"
    },
    {
      "anonymous": false,
      "inputs": [
        {
          "indexed": false,
          "internalType": "uint256",
          "name": "timestamp",
          "type": "uint256"
        },
        {
          "indexed": false,
          "internalType": "uint256",
          "name": "seigniorage",
          "type": "uint256"
        }
      ],
      "name": "RebateTreasuryFunded",
      "type": "event"
    },
    {
      "anonymous": false,
      "inputs": [
        {
          "indexed": true,
          "internalType": "address",
          "name": "from",
          "type": "address"
        },
        {
          "indexed": false,
          "internalType": "uint256",
          "name": "snowAmount",
          "type": "uint256"
        },
        {
          "indexed": false,
          "internalType": "uint256",
          "name": "bondAmount",
          "type": "uint256"
        }
      ],
      "name": "RedeemedBonds",
      "type": "event"
    },
    {
      "anonymous": false,
      "inputs": [
        {
          "indexed": false,
          "internalType": "uint256",
          "name": "timestamp",
          "type": "uint256"
        },
        {
          "indexed": false,
          "internalType": "uint256",
          "name": "seigniorage",
          "type": "uint256"
        }
      ],
      "name": "TreasuryFunded",
      "type": "event"
    },
    {
      "inputs": [],
      "name": "PERIOD",
      "outputs": [
        {
          "internalType": "uint256",
          "name": "",
          "type": "uint256"
        }
      ],
      "stateMutability": "view",
      "type": "function"
    },
    {
      "inputs": [],
      "name": "allocateSeigniorage",
      "outputs": [],
      "stateMutability": "nonpayable",
      "type": "function"
    },
    {
      "inputs": [],
      "name": "boardroom",
      "outputs": [
        {
          "internalType": "address",
          "name": "",
          "type": "address"
        }
      ],
      "stateMutability": "view",
      "type": "function"
    },
    {
      "inputs": [
        {
          "internalType": "uint256",
          "name": "amount",
          "type": "uint256"
        }
      ],
      "name": "boardroomAllocateSeigniorage",
      "outputs": [],
      "stateMutability": "nonpayable",
      "type": "function"
    },
    {
      "inputs": [
        {
          "internalType": "address",
          "name": "_token",
          "type": "address"
        },
        {
          "internalType": "uint256",
          "name": "_amount",
          "type": "uint256"
        },
        {
          "internalType": "address",
          "name": "_to",
          "type": "address"
        }
      ],
      "name": "boardroomGovernanceRecoverUnsupported",
      "outputs": [],
      "stateMutability": "nonpayable",
      "type": "function"
    },
    {
      "inputs": [
        {
          "internalType": "uint256",
          "name": "_withdrawLockupEpochs",
          "type": "uint256"
        },
        {
          "internalType": "uint256",
          "name": "_rewardLockupEpochs",
          "type": "uint256"
        }
      ],
      "name": "boardroomSetLockUp",
      "outputs": [],
      "stateMutability": "nonpayable",
      "type": "function"
    },
    {
      "inputs": [
        {
          "internalType": "address",
          "name": "_operator",
          "type": "address"
        }
      ],
      "name": "boardroomSetOperator",
      "outputs": [],
      "stateMutability": "nonpayable",
      "type": "function"
    },
    {
      "inputs": [],
      "name": "bondDepletionFloorPercent",
      "outputs": [
        {
          "internalType": "uint256",
          "name": "",
          "type": "uint256"
        }
      ],
      "stateMutability": "view",
      "type": "function"
    },
    {
      "inputs": [],
      "name": "bootstrapEpochs",
      "outputs": [
        {
          "internalType": "uint256",
          "name": "",
          "type": "uint256"
        }
      ],
      "stateMutability": "view",
      "type": "function"
    },
    {
      "inputs": [],
      "name": "bootstrapSupplyExpansionPercent",
      "outputs": [
        {
          "internalType": "uint256",
          "name": "",
          "type": "uint256"
        }
      ],
      "stateMutability": "view",
      "type": "function"
    },
    {
      "inputs": [
        {
          "internalType": "uint256",
          "name": "_snowAmount",
          "type": "uint256"
        },
        {
          "internalType": "uint256",
          "name": "targetPrice",
          "type": "uint256"
        }
      ],
      "name": "buyBonds",
      "outputs": [],
      "stateMutability": "nonpayable",
      "type": "function"
    },
    {
      "inputs": [],
      "name": "daoFund",
      "outputs": [
        {
          "internalType": "address",
          "name": "",
          "type": "address"
        }
      ],
      "stateMutability": "view",
      "type": "function"
    },
    {
      "inputs": [],
      "name": "daoFundSharedPercent",
      "outputs": [
        {
          "internalType": "uint256",
          "name": "",
          "type": "uint256"
        }
      ],
      "stateMutability": "view",
      "type": "function"
    },
    {
      "inputs": [],
      "name": "devFundSharedPercent",
      "outputs": [
        {
          "internalType": "uint256",
          "name": "",
          "type": "uint256"
        }
      ],
      "stateMutability": "view",
      "type": "function"
    },
    {
      "inputs": [],
      "name": "discountPercent",
      "outputs": [
        {
          "internalType": "uint256",
          "name": "",
          "type": "uint256"
        }
      ],
      "stateMutability": "view",
      "type": "function"
    },
    {
      "inputs": [],
      "name": "epoch",
      "outputs": [
        {
          "internalType": "uint256",
          "name": "",
          "type": "uint256"
        }
      ],
      "stateMutability": "view",
      "type": "function"
    },
    {
      "inputs": [],
      "name": "epochSupplyContractionLeft",
      "outputs": [
        {
          "internalType": "uint256",
          "name": "",
          "type": "uint256"
        }
      ],
      "stateMutability": "view",
      "type": "function"
    },
    {
      "inputs": [
        {
          "internalType": "uint256",
          "name": "",
          "type": "uint256"
        }
      ],
      "name": "excludedFromTotalSupply",
      "outputs": [
        {
          "internalType": "address",
          "name": "",
          "type": "address"
        }
      ],
      "stateMutability": "view",
      "type": "function"
    },
    {
      "inputs": [],
      "name": "expansionFactor",
      "outputs": [
        {
          "internalType": "uint256",
          "name": "",
          "type": "uint256"
        }
      ],
      "stateMutability": "view",
      "type": "function"
    },
    {
      "inputs": [],
      "name": "fixedExpansion",
      "outputs": [
        {
          "internalType": "uint256",
          "name": "",
          "type": "uint256"
        }
      ],
      "stateMutability": "view",
      "type": "function"
    },
    {
      "inputs": [],
      "name": "getBondDiscountRate",
      "outputs": [
        {
          "internalType": "uint256",
          "name": "_rate",
          "type": "uint256"
        }
      ],
      "stateMutability": "view",
      "type": "function"
    },
    {
      "inputs": [],
      "name": "getBondPremiumRate",
      "outputs": [
        {
          "internalType": "uint256",
          "name": "_rate",
          "type": "uint256"
        }
      ],
      "stateMutability": "view",
      "type": "function"
    },
    {
      "inputs": [],
      "name": "getBurnableSnowLeft",
      "outputs": [
        {
          "internalType": "uint256",
          "name": "_burnableSnowLeft",
          "type": "uint256"
        }
      ],
      "stateMutability": "view",
      "type": "function"
    },
    {
      "inputs": [],
      "name": "getExpansionPercent",
      "outputs": [
        {
          "internalType": "uint256",
          "name": "",
          "type": "uint256"
        }
      ],
      "stateMutability": "view",
      "type": "function"
    },
    {
      "inputs": [],
      "name": "getRedeemableBonds",
      "outputs": [
        {
          "internalType": "uint256",
          "name": "_redeemableBonds",
          "type": "uint256"
        }
      ],
      "stateMutability": "view",
      "type": "function"
    },
    {
      "inputs": [],
      "name": "getReserve",
      "outputs": [
        {
          "internalType": "uint256",
          "name": "",
          "type": "uint256"
        }
      ],
      "stateMutability": "view",
      "type": "function"
    },
    {
      "inputs": [],
      "name": "getSnowCirculatingSupply",
      "outputs": [
        {
          "internalType": "uint256",
          "name": "",
          "type": "uint256"
        }
      ],
      "stateMutability": "view",
      "type": "function"
    },
    {
      "inputs": [],
      "name": "getSnowPrice",
      "outputs": [
        {
          "internalType": "uint256",
          "name": "snowPrice",
          "type": "uint256"
        }
      ],
      "stateMutability": "view",
      "type": "function"
    },
    {
      "inputs": [],
      "name": "getSnowUpdatedPrice",
      "outputs": [
        {
          "internalType": "uint256",
          "name": "_snowPrice",
          "type": "uint256"
        }
      ],
      "stateMutability": "view",
      "type": "function"
    },
    {
      "inputs": [],
      "name": "glcr",
      "outputs": [
        {
          "internalType": "address",
          "name": "",
          "type": "address"
        }
      ],
      "stateMutability": "view",
      "type": "function"
    },
    {
      "inputs": [
        {
          "internalType": "contract IERC20",
          "name": "_token",
          "type": "address"
        },
        {
          "internalType": "uint256",
          "name": "_amount",
          "type": "uint256"
        },
        {
          "internalType": "address",
          "name": "_to",
          "type": "address"
        }
      ],
      "name": "glcrGovernanceRecoverUnsupported",
      "outputs": [],
      "stateMutability": "nonpayable",
      "type": "function"
    },
    {
      "inputs": [
        {
          "internalType": "address",
          "name": "_token",
          "type": "address"
        },
        {
          "internalType": "uint256",
          "name": "_amount",
          "type": "uint256"
        },
        {
          "internalType": "address",
          "name": "_to",
          "type": "address"
        }
      ],
      "name": "governanceRecoverUnsupported",
      "outputs": [],
      "stateMutability": "nonpayable",
      "type": "function"
    },
    {
      "inputs": [
        {
          "internalType": "address",
          "name": "_snow",
          "type": "address"
        },
        {
          "internalType": "address",
          "name": "_sBond",
          "type": "address"
        },
        {
          "internalType": "address",
          "name": "_glcr",
          "type": "address"
        },
        {
          "internalType": "address",
          "name": "_snowOracle",
          "type": "address"
        },
        {
          "internalType": "address",
          "name": "_boardroom",
          "type": "address"
        },
        {
          "internalType": "uint256",
          "name": "_startTime",
          "type": "uint256"
        },
        {
          "internalType": "address",
          "name": "_taxOffice",
          "type": "address"
        },
        {
          "internalType": "address[]",
          "name": "_excludedFromTotalSupply",
          "type": "address[]"
        }
      ],
      "name": "initialize",
      "outputs": [],
      "stateMutability": "nonpayable",
      "type": "function"
    },
    {
      "inputs": [],
      "name": "initialized",
      "outputs": [
        {
          "internalType": "bool",
          "name": "",
          "type": "bool"
        }
      ],
      "stateMutability": "view",
      "type": "function"
    },
    {
      "inputs": [],
      "name": "isInitialized",
      "outputs": [
        {
          "internalType": "bool",
          "name": "",
          "type": "bool"
        }
      ],
      "stateMutability": "view",
      "type": "function"
    },
    {
      "inputs": [],
      "name": "maxDebtRatioPercent",
      "outputs": [
        {
          "internalType": "uint256",
          "name": "",
          "type": "uint256"
        }
      ],
      "stateMutability": "view",
      "type": "function"
    },
    {
      "inputs": [],
      "name": "maxDiscountRate",
      "outputs": [
        {
          "internalType": "uint256",
          "name": "",
          "type": "uint256"
        }
      ],
      "stateMutability": "view",
      "type": "function"
    },
    {
      "inputs": [
        {
          "internalType": "uint256",
          "name": "",
          "type": "uint256"
        }
      ],
      "name": "maxExpansionTiers",
      "outputs": [
        {
          "internalType": "uint256",
          "name": "",
          "type": "uint256"
        }
      ],
      "stateMutability": "view",
      "type": "function"
    },
    {
      "inputs": [],
      "name": "maxPremiumRate",
      "outputs": [
        {
          "internalType": "uint256",
          "name": "",
          "type": "uint256"
        }
      ],
      "stateMutability": "view",
      "type": "function"
    },
    {
      "inputs": [],
      "name": "maxSupplyContractionPercent",
      "outputs": [
        {
          "internalType": "uint256",
          "name": "",
          "type": "uint256"
        }
      ],
      "stateMutability": "view",
      "type": "function"
    },
    {
      "inputs": [],
      "name": "maxSupplyExpansionPercent",
      "outputs": [
        {
          "internalType": "uint256",
          "name": "",
          "type": "uint256"
        }
      ],
      "stateMutability": "view",
      "type": "function"
    },
    {
      "inputs": [],
      "name": "minExpansion",
      "outputs": [
        {
          "internalType": "uint256",
          "name": "",
          "type": "uint256"
        }
      ],
      "stateMutability": "view",
      "type": "function"
    },
    {
      "inputs": [],
      "name": "mintingFactorForPayingDebt",
      "outputs": [
        {
          "internalType": "uint256",
          "name": "",
          "type": "uint256"
        }
      ],
      "stateMutability": "view",
      "type": "function"
    },
    {
      "inputs": [],
      "name": "nextEpochPoint",
      "outputs": [
        {
          "internalType": "uint256",
          "name": "",
          "type": "uint256"
        }
      ],
      "stateMutability": "view",
      "type": "function"
    },
    {
      "inputs": [],
      "name": "operator",
      "outputs": [
        {
          "internalType": "address",
          "name": "",
          "type": "address"
        }
      ],
      "stateMutability": "view",
      "type": "function"
    },
    {
      "inputs": [],
      "name": "premiumPercent",
      "outputs": [
        {
          "internalType": "uint256",
          "name": "",
          "type": "uint256"
        }
      ],
      "stateMutability": "view",
      "type": "function"
    },
    {
      "inputs": [],
      "name": "premiumThreshold",
      "outputs": [
        {
          "internalType": "uint256",
          "name": "",
          "type": "uint256"
        }
      ],
      "stateMutability": "view",
      "type": "function"
    },
    {
      "inputs": [],
      "name": "previousEpochSnowPrice",
      "outputs": [
        {
          "internalType": "uint256",
          "name": "",
          "type": "uint256"
        }
      ],
      "stateMutability": "view",
      "type": "function"
    },
    {
      "inputs": [],
      "name": "rebateTreasury",
      "outputs": [
        {
          "internalType": "address",
          "name": "",
          "type": "address"
        }
      ],
      "stateMutability": "view",
      "type": "function"
    },
    {
      "inputs": [],
      "name": "rebateTreasurySharedPercent",
      "outputs": [
        {
          "internalType": "uint256",
          "name": "",
          "type": "uint256"
        }
      ],
      "stateMutability": "view",
      "type": "function"
    },
    {
      "inputs": [
        {
          "internalType": "uint256",
          "name": "_bondAmount",
          "type": "uint256"
        },
        {
          "internalType": "uint256",
          "name": "targetPrice",
          "type": "uint256"
        }
      ],
      "name": "redeemBonds",
      "outputs": [],
      "stateMutability": "nonpayable",
      "type": "function"
    },
    {
      "inputs": [],
      "name": "sBond",
      "outputs": [
        {
          "internalType": "address",
          "name": "",
          "type": "address"
        }
      ],
      "stateMutability": "view",
      "type": "function"
    },
    {
      "inputs": [],
      "name": "seigniorageExpansionFloorPercent",
      "outputs": [
        {
          "internalType": "uint256",
          "name": "",
          "type": "uint256"
        }
      ],
      "stateMutability": "view",
      "type": "function"
    },
    {
      "inputs": [],
      "name": "seigniorageSaved",
      "outputs": [
        {
          "internalType": "uint256",
          "name": "",
          "type": "uint256"
        }
      ],
      "stateMutability": "view",
      "type": "function"
    },
    {
      "inputs": [
        {
          "internalType": "address",
          "name": "_boardroom",
          "type": "address"
        }
      ],
      "name": "setBoardroom",
      "outputs": [],
      "stateMutability": "nonpayable",
      "type": "function"
    },
    {
      "inputs": [
        {
          "internalType": "uint256",
          "name": "_bondDepletionFloorPercent",
          "type": "uint256"
        }
      ],
      "name": "setBondDepletionFloorPercent",
      "outputs": [],
      "stateMutability": "nonpayable",
      "type": "function"
    },
    {
      "inputs": [
        {
          "internalType": "uint256",
          "name": "_bootstrapEpochs",
          "type": "uint256"
        },
        {
          "internalType": "uint256",
          "name": "_bootstrapSupplyExpansionPercent",
          "type": "uint256"
        }
      ],
      "name": "setBootstrap",
      "outputs": [],
      "stateMutability": "nonpayable",
      "type": "function"
    },
    {
      "inputs": [
        {
          "internalType": "uint256",
          "name": "_discountPercent",
          "type": "uint256"
        }
      ],
      "name": "setDiscountPercent",
      "outputs": [],
      "stateMutability": "nonpayable",
      "type": "function"
    },
    {
      "inputs": [
        {
          "internalType": "uint256",
          "name": "_value",
          "type": "uint256"
        }
      ],
      "name": "setExpansionFactor",
      "outputs": [
        {
          "internalType": "bool",
          "name": "",
          "type": "bool"
        }
      ],
      "stateMutability": "nonpayable",
      "type": "function"
    },
    {
      "inputs": [
        {
          "internalType": "address",
          "name": "_daoFund",
          "type": "address"
        },
        {
          "internalType": "uint256",
          "name": "_daoFundSharedPercent",
          "type": "uint256"
        },
        {
          "internalType": "address",
          "name": "_devFund",
          "type": "address"
        },
        {
          "internalType": "uint256",
          "name": "_devFundSharedPercent",
          "type": "uint256"
        },
        {
          "internalType": "address",
          "name": "_rebateTreasury",
          "type": "address"
        },
        {
          "internalType": "uint256",
          "name": "_rebateTreasurySharedPercent",
          "type": "uint256"
        }
      ],
      "name": "setExtraFunds",
      "outputs": [],
      "stateMutability": "nonpayable",
      "type": "function"
    },
    {
      "inputs": [
        {
          "internalType": "uint256",
          "name": "_value",
          "type": "uint256"
        }
      ],
      "name": "setFixedExpansion",
      "outputs": [
        {
          "internalType": "bool",
          "name": "",
          "type": "bool"
        }
      ],
      "stateMutability": "nonpayable",
      "type": "function"
    },
    {
      "inputs": [
        {
          "internalType": "address",
          "name": "_taxOffice",
          "type": "address"
        }
      ],
      "name": "setGlcrTaxOffice",
      "outputs": [],
      "stateMutability": "nonpayable",
      "type": "function"
    },
    {
      "inputs": [
        {
          "internalType": "uint256",
          "name": "_maxDebtRatioPercent",
          "type": "uint256"
        }
      ],
      "name": "setMaxDebtRatioPercent",
      "outputs": [],
      "stateMutability": "nonpayable",
      "type": "function"
    },
    {
      "inputs": [
        {
          "internalType": "uint256",
          "name": "_maxDiscountRate",
          "type": "uint256"
        }
      ],
      "name": "setMaxDiscountRate",
      "outputs": [],
      "stateMutability": "nonpayable",
      "type": "function"
    },
    {
      "inputs": [
        {
          "internalType": "uint8",
          "name": "_index",
          "type": "uint8"
        },
        {
          "internalType": "uint256",
          "name": "_value",
          "type": "uint256"
        }
      ],
      "name": "setMaxExpansionTiersEntry",
      "outputs": [
        {
          "internalType": "bool",
          "name": "",
          "type": "bool"
        }
      ],
      "stateMutability": "nonpayable",
      "type": "function"
    },
    {
      "inputs": [
        {
          "internalType": "uint256",
          "name": "_maxPremiumRate",
          "type": "uint256"
        }
      ],
      "name": "setMaxPremiumRate",
      "outputs": [],
      "stateMutability": "nonpayable",
      "type": "function"
    },
    {
      "inputs": [
        {
          "internalType": "uint256",
          "name": "_maxSupplyContractionPercent",
          "type": "uint256"
        }
      ],
      "name": "setMaxSupplyContractionPercent",
      "outputs": [],
      "stateMutability": "nonpayable",
      "type": "function"
    },
    {
      "inputs": [
        {
          "internalType": "uint256",
          "name": "_maxSupplyExpansionPercent",
          "type": "uint256"
        }
      ],
      "name": "setMaxSupplyExpansionPercents",
      "outputs": [],
      "stateMutability": "nonpayable",
      "type": "function"
    },
    {
      "inputs": [
        {
          "internalType": "uint256",
          "name": "_value",
          "type": "uint256"
        }
      ],
      "name": "setMinExpansion",
      "outputs": [
        {
          "internalType": "bool",
          "name": "",
          "type": "bool"
        }
      ],
      "stateMutability": "nonpayable",
      "type": "function"
    },
    {
      "inputs": [
        {
          "internalType": "uint256",
          "name": "_mintingFactorForPayingDebt",
          "type": "uint256"
        }
      ],
      "name": "setMintingFactorForPayingDebt",
      "outputs": [],
      "stateMutability": "nonpayable",
      "type": "function"
    },
    {
      "inputs": [
        {
          "internalType": "address",
          "name": "_operator",
          "type": "address"
        }
      ],
      "name": "setOperator",
      "outputs": [],
      "stateMutability": "nonpayable",
      "type": "function"
    },
    {
      "inputs": [
        {
          "internalType": "uint256",
          "name": "_premiumPercent",
          "type": "uint256"
        }
      ],
      "name": "setPremiumPercent",
      "outputs": [],
      "stateMutability": "nonpayable",
      "type": "function"
    },
    {
      "inputs": [
        {
          "internalType": "uint256",
          "name": "_premiumThreshold",
          "type": "uint256"
        }
      ],
      "name": "setPremiumThreshold",
      "outputs": [],
      "stateMutability": "nonpayable",
      "type": "function"
    },
    {
      "inputs": [
        {
          "internalType": "address",
          "name": "_snowOracle",
          "type": "address"
        }
      ],
      "name": "setSnowOracle",
      "outputs": [],
      "stateMutability": "nonpayable",
      "type": "function"
    },
    {
      "inputs": [
        {
          "internalType": "uint256",
          "name": "_snowPriceCeiling",
          "type": "uint256"
        }
      ],
      "name": "setSnowPriceCeiling",
      "outputs": [],
      "stateMutability": "nonpayable",
      "type": "function"
    },
    {
      "inputs": [
        {
          "internalType": "address",
          "name": "_taxOffice",
          "type": "address"
        }
      ],
      "name": "setSnowTaxOffice",
      "outputs": [],
      "stateMutability": "nonpayable",
      "type": "function"
    },
    {
      "inputs": [
        {
          "internalType": "uint8",
          "name": "_index",
          "type": "uint8"
        },
        {
          "internalType": "uint256",
          "name": "_value",
          "type": "uint256"
        }
      ],
      "name": "setSupplyTiersEntry",
      "outputs": [
        {
          "internalType": "bool",
          "name": "",
          "type": "bool"
        }
      ],
      "stateMutability": "nonpayable",
      "type": "function"
    },
    {
      "inputs": [
        {
          "internalType": "address",
          "name": "_taxOffice",
          "type": "address"
        }
      ],
      "name": "setTaxOffice",
      "outputs": [],
      "stateMutability": "nonpayable",
      "type": "function"
    },
    {
      "inputs": [],
      "name": "snow",
      "outputs": [
        {
          "internalType": "address",
          "name": "",
          "type": "address"
        }
      ],
      "stateMutability": "view",
      "type": "function"
    },
    {
      "inputs": [
        {
          "internalType": "contract IERC20",
          "name": "_token",
          "type": "address"
        },
        {
          "internalType": "uint256",
          "name": "_amount",
          "type": "uint256"
        },
        {
          "internalType": "address",
          "name": "_to",
          "type": "address"
        }
      ],
      "name": "snowGovernanceRecoverUnsupported",
      "outputs": [],
      "stateMutability": "nonpayable",
      "type": "function"
    },
    {
      "inputs": [],
      "name": "snowOracle",
      "outputs": [
        {
          "internalType": "address",
          "name": "",
          "type": "address"
        }
      ],
      "stateMutability": "view",
      "type": "function"
    },
    {
      "inputs": [],
      "name": "snowPriceCeiling",
      "outputs": [
        {
          "internalType": "uint256",
          "name": "",
          "type": "uint256"
        }
      ],
      "stateMutability": "view",
      "type": "function"
    },
    {
      "inputs": [],
      "name": "snowPriceOne",
      "outputs": [
        {
          "internalType": "uint256",
          "name": "",
          "type": "uint256"
        }
      ],
      "stateMutability": "view",
      "type": "function"
    },
    {
      "inputs": [],
      "name": "startTime",
      "outputs": [
        {
          "internalType": "uint256",
          "name": "",
          "type": "uint256"
        }
      ],
      "stateMutability": "view",
      "type": "function"
    },
    {
      "inputs": [
        {
          "internalType": "uint256",
          "name": "",
          "type": "uint256"
        }
      ],
      "name": "supplyTiers",
      "outputs": [
        {
          "internalType": "uint256",
          "name": "",
          "type": "uint256"
        }
      ],
      "stateMutability": "view",
      "type": "function"
    },
    {
      "inputs": [],
      "name": "taxOffice",
      "outputs": [
        {
          "internalType": "address",
          "name": "",
          "type": "address"
        }
      ],
      "stateMutability": "view",
      "type": "function"
    }
  ],
  "transactionHash": "0x59e2fd3f7f9ddfcce8726e1b5499b06a0da058831619d36a3637b09a167b62ee",
  "args": [],
  "numDeployments": 1,
  "solcInputHash": "1b639f77524f1abe25fe8cc2666ca16e",
  "bytecode": "0x60806040526002805460ff60a01b191690556000600481905560055534801561002757600080fd5b50600180556152c58061003b6000396000f3fe608060405234801561001057600080fd5b50600436106105c25760003560e01c8063766b5846116102f8578063b355e9601161019c578063cecce38e116100ee578063e8f8768c116100a2578063f8cd4d721161007c578063f8cd4d7214610d4f578063fcb6f00814610d72578063fd1933ea14610d7a576105c2565b8063e8f8768c14610d19578063e90b245414610d3f578063f14698de14610d47576105c2565b8063d98f2495116100d3578063d98f249514610d01578063da3ed41914610d09578063dae5ca2114610d11576105c2565b8063cecce38e14610cbe578063d4b1494414610cdb576105c2565b8063b5a4590211610150578063c5967c261161012a578063c5967c2614610ca6578063c8412d0214610cae578063c8f987f314610cb6576105c2565b8063b5a4590214610c5b578063b8a878f914610c78578063ba9d8fc214610c80576105c2565b8063b3ab15fb11610181578063b3ab15fb14610c07578063b3ffc77714610c2d578063b4d1d79514610c53576105c2565b8063b355e96014610b1c578063b3a110ae14610b24576105c2565b806391bbfed511610255578063a0487eea11610209578063af0e872a116101e3578063af0e872a14610ad1578063b06ce14a14610ad9578063b219ad7d14610aff576105c2565b8063a0487eea14610a61578063a204452b14610a7e578063a3ec30fe14610a9b576105c2565b806398b762a11161023a57806398b762a114610a1f5780639982002514610a3c5780639cf7452514610a59576105c2565b806391bbfed5146109d6578063940e6064146109f9576105c2565b8063874106cc116102ac5780638c664db6116102915780638c664db6146109a95780638d934f74146109c6578063900cf0cf146109ce576105c2565b8063874106cc1461096b5780638c42e08914610973576105c2565b8063812ec15a116102dd578063812ec15a1461093e57806381d11eaf1461094657806382cad8381461094e576105c2565b8063766b58461461092e57806378e9792514610936576105c2565b80634013a08e1161046a57806357eaf54f116103bc5780635e02c51e116103705780636ed435ad1161034a5780636ed435ad146109165780636f5368b51461091e57806372c054f914610926576105c2565b80635e02c51e146108d0578063670e0cdd146108d8578063692b6edf146108e0576105c2565b806359bf5d39116103a157806359bf5d39146108b85780635a0fc79c146108c05780635b756179146108c8576105c2565b806357eaf54f14610893578063591663e11461089b576105c2565b80634b102fb01161041e57806355ebdeef116103f857806355ebdeef1461085d578063562e49fe14610865578063570ca7351461088b576105c2565b80634b102fb0146107fc57806354575af41461080457806354f04a111461083a576105c2565b806347a0fd4d1161044f57806347a0fd4d146107ba578063499f3f19146107d75780634a5b94b8146107f4576105c2565b80634013a08e1461079557806340af7ba51461079d576105c2565b80631cc9092a11610523578063367384ef116104d75780633a2b9626116104b15780633a2b96261461075f5780633e5f13d4146107675780633f07d76a1461076f576105c2565b8063367384ef14610732578063381ce1431461073a578063392e53cd14610757576105c2565b806322f832cd1161050857806322f832cd1461071a57806329ef1919146107225780632e9c7b651461072a576105c2565b80631cc9092a146106ee5780631dfa243c14610712576105c2565b80630db7eb0b1161057a578063154ec2db1161055f578063154ec2db1461066d578063158ef93e1461068a5780631b0fb35f146106a6576105c2565b80630db7eb0b14610642578063118ebbf91461064a576105c2565b806304e5c7b1116105ab57806304e5c7b1146106005780630b5bcec71461061d5780630cf601751461063a576105c2565b806301a93783146105c757806303be7e76146105e6575b600080fd5b6105e4600480360360208110156105dd57600080fd5b5035610d82565b005b6105ee610e33565b60408051918252519081900360200190f35b6105e46004803603602081101561061657600080fd5b5035610e39565b6105e46004803603602081101561063357600080fd5b5035610f08565b6105ee610fa4565b6105ee611056565b6105e46004803603604081101561066057600080fd5b50803590602001356110f8565b6105e46004803603602081101561068357600080fd5b50356117b4565b610692611859565b604080519115158252519081900360200190f35b6105e4600480360360c08110156106bc57600080fd5b506001600160a01b03813581169160208101359160408201358116916060810135916080820135169060a00135611869565b6106f6611a9f565b604080516001600160a01b039092168252519081900360200190f35b6105ee611aae565b6105ee611c0f565b6105ee611c15565b6105ee611c1b565b6105ee611c21565b6106926004803603602081101561075057600080fd5b5035611d17565b610692611d6c565b6106f6611d7c565b6106f6611d8b565b6105e46004803603602081101561078557600080fd5b50356001600160a01b0316611d9a565b6105ee611e05565b6105e4600480360360208110156107b357600080fd5b5035611e0b565b610692600480360360208110156107d057600080fd5b5035611eb0565b6105e4600480360360208110156107ed57600080fd5b5035611f05565b6105ee611fa2565b6106f6611fa8565b6105e46004803603606081101561081a57600080fd5b506001600160a01b03813581169160208101359160409091013516611fb7565b6105e46004803603604081101561085057600080fd5b5080359060200135612146565b6105ee6128ee565b6105e46004803603602081101561087b57600080fd5b50356001600160a01b03166128f4565b6106f661295f565b6105ee61296e565b6105e4600480360360208110156108b157600080fd5b5035612a13565b6105ee612ab5565b6105ee612abb565b6105e4612ac1565b6106f6613236565b6105ee613245565b6105e4600480360360608110156108f657600080fd5b506001600160a01b0381358116916020810135916040909101351661324b565b6105ee61330e565b6105ee613314565b6105ee61331a565b6105ee6133d2565b6105ee6134d9565b6105ee6134df565b6105ee6135ba565b6106f66004803603602081101561096457600080fd5b50356135c0565b6105ee6135e7565b6105e46004803603606081101561098957600080fd5b506001600160a01b038135811691602081013591604090910135166135ed565b6105e4600480360360208110156109bf57600080fd5b5035613693565b6106f6613735565b6105ee613744565b6105e4600480360360408110156109ec57600080fd5b508035906020013561374a565b61069260048036036040811015610a0f57600080fd5b5060ff8135169060200135613842565b6105e460048036036020811015610a3557600080fd5b5035613964565b6105ee60048036036020811015610a5257600080fd5b50356139b2565b6105ee6139d0565b6105ee60048036036020811015610a7757600080fd5b50356139d6565b6105e460048036036020811015610a9457600080fd5b50356139e3565b6105e460048036036060811015610ab157600080fd5b506001600160a01b03813581169160208101359160409091013516613a31565b6105ee613ad7565b6105e460048036036020811015610aef57600080fd5b50356001600160a01b0316613add565b61069260048036036020811015610b1557600080fd5b5035613b8d565b6106f6613be2565b6105e46004803603610100811015610b3b57600080fd5b6001600160a01b038235811692602081013582169260408201358316926060830135811692608081013582169260a08201359260c0830135169190810190610100810160e0820135640100000000811115610b9557600080fd5b820183602082011115610ba757600080fd5b80359060200191846020830284011164010000000083111715610bc957600080fd5b919080806020026020016040519081016040528093929190818152602001838360200280828437600092019190915250929550613bf1945050505050565b6105e460048036036020811015610c1d57600080fd5b50356001600160a01b0316613edd565b6105e460048036036020811015610c4357600080fd5b50356001600160a01b0316613f48565b6105ee613fb3565b6105e460048036036020811015610c7157600080fd5b5035613fb9565b6105ee614073565b6105e460048036036020811015610c9657600080fd5b50356001600160a01b0316614079565b6105ee614110565b6105ee61413a565b6105ee614140565b6105e460048036036020811015610cd457600080fd5b5035614146565b61069260048036036040811015610cf157600080fd5b5060ff81351690602001356141e7565b6105ee6142eb565b6105ee6142f1565b6105ee6142f7565b6105e460048036036020811015610d2f57600080fd5b50356001600160a01b03166142fd565b6105ee614394565b6105ee61439a565b6105e460048036036040811015610d6557600080fd5b50803590602001356143a0565b6105ee614472565b6106f6614478565b6002546001600160a01b03163314610dcb5760405162461bcd60e51b81526004018080602001828103825260248152602001806151c46024913960400191505060405180910390fd5b600a54604080516397ffe1d760e01b81526004810184905290516001600160a01b03909216916397ffe1d79160248082019260009290919082900301818387803b158015610e1857600080fd5b505af1158015610e2c573d6000803e3d6000fd5b5050505050565b60225481565b6002546001600160a01b03163314610e825760405162461bcd60e51b81526004018080602001828103825260248152602001806151c46024913960400191505060405180910390fd5b600d54811015610ec35760405162461bcd60e51b815260040180806020018281038252602a8152602001806150aa602a913960400191505060405180910390fd5b6096811115610f035760405162461bcd60e51b815260040180806020018281038252602481526020018061502a6024913960400191505060405180910390fd5b601c55565b6002546001600160a01b03163314610f515760405162461bcd60e51b81526004018080602001828103825260248152602001806151c46024913960400191505060405180910390fd5b600a8110158015610f6457506103e88111155b610f9f5760405162461bcd60e51b81526004018080602001828103825260288152602001806151736028913960400191505060405180910390fd5b601155565b600080610faf611c21565b9050600c54811161105257601b54610fcb57600c549150611052565b6000610ff482610fee670de0b6b3a7640000600c5461448790919063ffffffff16565b906144e7565b9050600061101f612710610fee601b54611019600c548761454e90919063ffffffff16565b90614487565b600c5490915061102f90826145ab565b93506000601954118015611044575060195484115b1561104f5760195493505b50505b5090565b600080611061611c21565b9050600d5481111561105257600061108b6064610fee601c54600c5461448790919063ffffffff16565b90508082106110ed5760006110b7612710610fee601d54611019600c548861454e90919063ffffffff16565b600c549091506110c790826145ab565b93506000601a541180156110dc5750601a5484115b156110e757601a5493505b506110f3565b600c5492505b505090565b611100614605565b1561113c5760405162461bcd60e51b81526004018080602001828103825260268152602001806152126026913960400191505060405180910390fd5b611144614624565b156111805760405162461bcd60e51b81526004018080602001828103825260268152602001806152126026913960400191505060405180910390fd5b6003544210156111d7576040805162461bcd60e51b815260206004820152601960248201527f54726561737572793a206e6f7420737461727465642079657400000000000000604482015290519081900360640190fd5b6007546040805163570ca73560e01b8152905130926001600160a01b03169163570ca735916004808301926020929190829003018186803b15801561121b57600080fd5b505afa15801561122f573d6000803e3d6000fd5b505050506040513d602081101561124557600080fd5b50516001600160a01b03161480156112d357506008546040805163570ca73560e01b8152905130926001600160a01b03169163570ca735916004808301926020929190829003018186803b15801561129c57600080fd5b505afa1580156112b0573d6000803e3d6000fd5b505050506040513d60208110156112c657600080fd5b50516001600160a01b0316145b801561135557506009546040805163570ca73560e01b8152905130926001600160a01b03169163570ca735916004808301926020929190829003018186803b15801561131e57600080fd5b505afa158015611332573d6000803e3d6000fd5b505050506040513d602081101561134857600080fd5b50516001600160a01b0316145b80156113d75750600a546040805163570ca73560e01b8152905130926001600160a01b03169163570ca735916004808301926020929190829003018186803b1580156113a057600080fd5b505afa1580156113b4573d6000803e3d6000fd5b505050506040513d60208110156113ca57600080fd5b50516001600160a01b0316145b611428576040805162461bcd60e51b815260206004820152601e60248201527f54726561737572793a206e656564206d6f7265207065726d697373696f6e0000604482015290519081900360640190fd5b60026001541415611480576040805162461bcd60e51b815260206004820152601f60248201527f5265656e7472616e637947756172643a207265656e7472616e742063616c6c00604482015290519081900360640190fd5b6002600155816114c15760405162461bcd60e51b815260040180806020018281038252602e815260200180614fc6602e913960400191505060405180910390fd5b60006114cb611c21565b9050818114611521576040805162461bcd60e51b815260206004820152601a60248201527f54726561737572793a20536e6f77207072696365206d6f766564000000000000604482015290519081900360640190fd5b600d5481116115615760405162461bcd60e51b8152600401808060200182810382526032815260200180614f946032913960400191505060405180910390fd5b600061156b611056565b9050600081116115c2576040805162461bcd60e51b815260206004820152601b60248201527f54726561737572793a20696e76616c696420626f6e6420726174650000000000604482015290519081900360640190fd5b60006115da670de0b6b3a7640000610fee8785614487565b600754604080516370a0823160e01b8152306004820152905192935083926001600160a01b03909216916370a0823191602480820192602092909190829003018186803b15801561162a57600080fd5b505afa15801561163e573d6000803e3d6000fd5b505050506040513d602081101561165457600080fd5b505110156116935760405162461bcd60e51b81526004018080602001828103825260258152602001806150d46025913960400191505060405180910390fd5b6116ab6116a2600e5483614643565b600e549061454e565b600e556008546040805163079cc67960e41b81523360048201526024810188905290516001600160a01b03909216916379cc67909160448082019260009290919082900301818387803b15801561170157600080fd5b505af1158015611715573d6000803e3d6000fd5b505060075461173192506001600160a01b031690503383614659565b6117396146c0565b6040805182815260208101879052815133927f51e0d16595cabc591e64da08e45bb223577e5b9a39cd947b4ddc3472b2dd8878928290030190a25050600180805543600090815260208181526040808320328452909152808220805460ff199081168517909155338352912080549091169091179055505050565b6002546001600160a01b031633146117fd5760405162461bcd60e51b81526004018080602001828103825260248152602001806151c46024913960400191505060405180910390fd5b614e20811115611854576040805162461bcd60e51b815260206004820152601d60248201527f5f646973636f756e7450657263656e74206973206f7665722032303025000000604482015290519081900360640190fd5b601b55565b600254600160a01b900460ff1681565b6002546001600160a01b031633146118b25760405162461bcd60e51b81526004018080602001828103825260248152602001806151c46024913960400191505060405180910390fd5b6001600160a01b0386166118f6576040805162461bcd60e51b815260206004808301919091526024820152637a65726f60e01b604482015290519081900360640190fd5b610bb885111561193c576040805162461bcd60e51b815260206004820152600c60248201526b6f7574206f662072616e676560a01b604482015290519081900360640190fd5b6001600160a01b038416611980576040805162461bcd60e51b815260206004808301919091526024820152637a65726f60e01b604482015290519081900360640190fd5b6103e88311156119c6576040805162461bcd60e51b815260206004820152600c60248201526b6f7574206f662072616e676560a01b604482015290519081900360640190fd5b6001600160a01b038216611a0a576040805162461bcd60e51b815260206004808301919091526024820152637a65726f60e01b604482015290519081900360640190fd5b610bb8811115611a50576040805162461bcd60e51b815260206004820152600c60248201526b6f7574206f662072616e676560a01b604482015290519081900360640190fd5b601f80546001600160a01b03199081166001600160a01b039889161790915560209590955560218054861694871694909417909355602291909155602480549093169316929092179055602555565b6009546001600160a01b031681565b600754604080516318160ddd60e01b815290516000926001600160a01b031691839183916318160ddd916004808301926020929190829003018186803b158015611af757600080fd5b505afa158015611b0b573d6000803e3d6000fd5b505050506040513d6020811015611b2157600080fd5b505190506000805b60065460ff82161015611bfb57611bf1846001600160a01b03166370a0823160068460ff1681548110611b5857fe5b60009182526020918290200154604080517fffffffff0000000000000000000000000000000000000000000000000000000060e086901b1681526001600160a01b0390921660048301525160248083019392829003018186803b158015611bbe57600080fd5b505afa158015611bd2573d6000803e3d6000fd5b505050506040513d6020811015611be857600080fd5b505183906145ab565b9150600101611b29565b50611c06828261454e565b93505050505b90565b60135481565b601b5481565b601a5481565b600b54600754604080517f3ddac9530000000000000000000000000000000000000000000000000000000081526001600160a01b039283166004820152670de0b6b3a7640000602482015290516000939290921691633ddac95391604480820192602092909190829003018186803b158015611c9c57600080fd5b505afa925050508015611cc157506040513d6020811015611cbc57600080fd5b505160015b611cfc5760405162461bcd60e51b81526004018080602001828103825260368152602001806150746036913960400191505060405180910390fd5b71ffffffffffffffffffffffffffffffffffff169050611c0c565b6002546000906001600160a01b03163314611d635760405162461bcd60e51b81526004018080602001828103825260248152602001806151c46024913960400191505060405180910390fd5b50602755600190565b600254600160a01b900460ff1690565b6007546001600160a01b031681565b6023546001600160a01b031681565b6002546001600160a01b03163314611de35760405162461bcd60e51b81526004018080602001828103825260248152602001806151c46024913960400191505060405180910390fd5b602380546001600160a01b0319166001600160a01b0392909216919091179055565b601e5481565b6002546001600160a01b03163314611e545760405162461bcd60e51b81526004018080602001828103825260248152602001806151c46024913960400191505060405180910390fd5b614e20811115611eab576040805162461bcd60e51b815260206004820152601c60248201527f5f7072656d69756d50657263656e74206973206f766572203230302500000000604482015290519081900360640190fd5b601d55565b6002546000906001600160a01b03163314611efc5760405162461bcd60e51b81526004018080602001828103825260248152602001806151c46024913960400191505060405180910390fd5b50602655600190565b6002546001600160a01b03163314611f4e5760405162461bcd60e51b81526004018080602001828103825260248152602001806151c46024913960400191505060405180910390fd5b6127108110158015611f625750614e208111155b611f9d5760405162461bcd60e51b815260040180806020018281038252602981526020018061514a6029913960400191505060405180910390fd5b601e55565b60265481565b6008546001600160a01b031681565b6002546001600160a01b031633146120005760405162461bcd60e51b81526004018080602001828103825260248152602001806151c46024913960400191505060405180910390fd5b6007546001600160a01b0384811691161415612065576040805162461bcd60e51b8152602060048083019190915260248201527f736e6f7700000000000000000000000000000000000000000000000000000000604482015290519081900360640190fd5b6008546001600160a01b03848116911614156120ca576040805162461bcd60e51b8152602060048083019190915260248201527f626f6e6400000000000000000000000000000000000000000000000000000000604482015290519081900360640190fd5b6009546001600160a01b038481169116141561212d576040805162461bcd60e51b815260206004820152600560248201527f7368617265000000000000000000000000000000000000000000000000000000604482015290519081900360640190fd5b6121416001600160a01b0384168284614659565b505050565b61214e614605565b1561218a5760405162461bcd60e51b81526004018080602001828103825260268152602001806152126026913960400191505060405180910390fd5b612192614624565b156121ce5760405162461bcd60e51b81526004018080602001828103825260268152602001806152126026913960400191505060405180910390fd5b600354421015612225576040805162461bcd60e51b815260206004820152601960248201527f54726561737572793a206e6f7420737461727465642079657400000000000000604482015290519081900360640190fd5b6007546040805163570ca73560e01b8152905130926001600160a01b03169163570ca735916004808301926020929190829003018186803b15801561226957600080fd5b505afa15801561227d573d6000803e3d6000fd5b505050506040513d602081101561229357600080fd5b50516001600160a01b031614801561232157506008546040805163570ca73560e01b8152905130926001600160a01b03169163570ca735916004808301926020929190829003018186803b1580156122ea57600080fd5b505afa1580156122fe573d6000803e3d6000fd5b505050506040513d602081101561231457600080fd5b50516001600160a01b0316145b80156123a357506009546040805163570ca73560e01b8152905130926001600160a01b03169163570ca735916004808301926020929190829003018186803b15801561236c57600080fd5b505afa158015612380573d6000803e3d6000fd5b505050506040513d602081101561239657600080fd5b50516001600160a01b0316145b80156124255750600a546040805163570ca73560e01b8152905130926001600160a01b03169163570ca735916004808301926020929190829003018186803b1580156123ee57600080fd5b505afa158015612402573d6000803e3d6000fd5b505050506040513d602081101561241857600080fd5b50516001600160a01b0316145b612476576040805162461bcd60e51b815260206004820152601e60248201527f54726561737572793a206e656564206d6f7265207065726d697373696f6e0000604482015290519081900360640190fd5b600260015414156124ce576040805162461bcd60e51b815260206004820152601f60248201527f5265656e7472616e637947756172643a207265656e7472616e742063616c6c00604482015290519081900360640190fd5b60026001558161250f5760405162461bcd60e51b815260040180806020018281038252603081526020018061511a6030913960400191505060405180910390fd5b6000612519611c21565b905081811461256f576040805162461bcd60e51b815260206004820152601a60248201527f54726561737572793a20536e6f77207072696365206d6f766564000000000000604482015290519081900360640190fd5b600c5481106125af5760405162461bcd60e51b8152600401808060200182810382526032815260200180614f946032913960400191505060405180910390fd5b6005548311156125f05760405162461bcd60e51b815260040180806020018281038252602a815260200180615238602a913960400191505060405180910390fd5b60006125fa610fa4565b905060008111612651576040805162461bcd60e51b815260206004820152601b60248201527f54726561737572793a20696e76616c696420626f6e6420726174650000000000604482015290519081900360640190fd5b6000612669670de0b6b3a7640000610fee8785614487565b90506000612675611aae565b905060006126fd83600860009054906101000a90046001600160a01b03166001600160a01b03166318160ddd6040518163ffffffff1660e01b815260040160206040518083038186803b1580156126cb57600080fd5b505afa1580156126df573d6000803e3d6000fd5b505050506040513d60208110156126f557600080fd5b5051906145ab565b905061271a612710610fee6015548561448790919063ffffffff16565b81111561276e576040805162461bcd60e51b815260206004820152601360248201527f6f766572206d6178206465627420726174696f00000000000000000000000000604482015290519081900360640190fd5b6007546040805163079cc67960e41b8152336004820152602481018a905290516001600160a01b03909216916379cc67909160448082019260009290919082900301818387803b1580156127c157600080fd5b505af11580156127d5573d6000803e3d6000fd5b5050600854604080516340c10f1960e01b81523360048201526024810188905290516001600160a01b0390921693506340c10f1992506044808201926020929091908290030181600087803b15801561282d57600080fd5b505af1158015612841573d6000803e3d6000fd5b505050506040513d602081101561285757600080fd5b5050600554612866908861454e565b6005556128716146c0565b6040805188815260208101859052815133927f73017f1b70789e2e66759eeb3c7ec11f59e6eedb55d921cfaec5410dd42a4799928290030190a25050600180805543600090815260208181526040808320328452909152808220805460ff1990811685179091553383529120805490911690911790555050505050565b60205481565b6002546001600160a01b0316331461293d5760405162461bcd60e51b81526004018080602001828103825260248152602001806151c46024913960400191505060405180910390fd5b600b80546001600160a01b0319166001600160a01b0392909216919091179055565b6002546001600160a01b031681565b600080612979611c21565b90506000612992600c548361454e90919063ffffffff16565b905060006129b1655af3107a400060115461448790919063ffffffff16565b90506027546000146129ca576027549350505050611c0c565b602854156129f0576129ed612710610fee6028548561448790919063ffffffff16565b91505b816026541115612a005760265491505b80821115612a0c578091505b5091505090565b6002546001600160a01b03163314612a5c5760405162461bcd60e51b81526004018080602001828103825260248152602001806151c46024913960400191505060405180910390fd5b6103e88110158015612a7057506127108111155b612ab0576040805162461bcd60e51b815260206004820152600c60248201526b6f7574206f662072616e676560a01b604482015290519081900360640190fd5b601555565b600e5490565b600e5481565b612ac9614605565b15612b055760405162461bcd60e51b81526004018080602001828103825260268152602001806152126026913960400191505060405180910390fd5b612b0d614624565b15612b495760405162461bcd60e51b81526004018080602001828103825260268152602001806152126026913960400191505060405180910390fd5b600354421015612ba0576040805162461bcd60e51b815260206004820152601960248201527f54726561737572793a206e6f7420737461727465642079657400000000000000604482015290519081900360640190fd5b612ba8614110565b421015612bfc576040805162461bcd60e51b815260206004820152601860248201527f54726561737572793a206e6f74206f70656e6564207965740000000000000000604482015290519081900360640190fd5b6007546040805163570ca73560e01b8152905130926001600160a01b03169163570ca735916004808301926020929190829003018186803b158015612c4057600080fd5b505afa158015612c54573d6000803e3d6000fd5b505050506040513d6020811015612c6a57600080fd5b50516001600160a01b0316148015612cf857506008546040805163570ca73560e01b8152905130926001600160a01b03169163570ca735916004808301926020929190829003018186803b158015612cc157600080fd5b505afa158015612cd5573d6000803e3d6000fd5b505050506040513d6020811015612ceb57600080fd5b50516001600160a01b0316145b8015612d7a57506009546040805163570ca73560e01b8152905130926001600160a01b03169163570ca735916004808301926020929190829003018186803b158015612d4357600080fd5b505afa158015612d57573d6000803e3d6000fd5b505050506040513d6020811015612d6d57600080fd5b50516001600160a01b0316145b8015612dfc5750600a546040805163570ca73560e01b8152905130926001600160a01b03169163570ca735916004808301926020929190829003018186803b158015612dc557600080fd5b505afa158015612dd9573d6000803e3d6000fd5b505050506040513d6020811015612def57600080fd5b50516001600160a01b0316145b612e4d576040805162461bcd60e51b815260206004820152601e60248201527f54726561737572793a206e656564206d6f7265207065726d697373696f6e0000604482015290519081900360640190fd5b60026001541415612ea5576040805162461bcd60e51b815260206004820152601f60248201527f5265656e7472616e637947756172643a207265656e7472616e742063616c6c00604482015290519081900360640190fd5b6002600155612eb26146c0565b612eba611c21565b601855600e54600090612ed590612ecf611aae565b9061454e565b90506016546004541015612f0b57612f06612f01612710610fee6017548561448790919063ffffffff16565b614724565b613135565b600d54601854111561313557612f2081614a49565b50600854604080516318160ddd60e01b815290516000926001600160a01b0316916318160ddd916004808301926020929190829003018186803b158015612f6657600080fd5b505afa158015612f7a573d6000803e3d6000fd5b505050506040513d6020811015612f9057600080fd5b505190506000612f9e61296e565b9050600080612fbe612710610fee6012548761448790919063ffffffff16565b600e5410612fe357612fdc670de0b6b3a7640000610fee8786614487565b905061304f565b6000612ffb670de0b6b3a7640000610fee8887614487565b9050613018612710610fee6013548461448790919063ffffffff16565b9150613024818361454e565b601e549093501561304d5761304a612710610fee601e548661448790919063ffffffff16565b92505b505b801561305e5761305e81614724565b811561313057600e5461307190836145ab565b600e55600754604080516340c10f1960e01b81523060048201526024810185905290516001600160a01b03909216916340c10f19916044808201926020929091908290030181600087803b1580156130c857600080fd5b505af11580156130dc573d6000803e3d6000fd5b505050506040513d60208110156130f257600080fd5b5050604080514281526020810184905281517ff705142bf09f04297640495ddf7c59b7fd6f51894c5aea9602d631cf05f0efc2929181900390910190a15b505050505b602354601854600d546001600160a01b039092169163048ebff39190613159614110565b6040518463ffffffff1660e01b8152600401808481526020018381526020018281526020019350505050600060405180830381600087803b15801561319d57600080fd5b505af11580156131b1573d6000803e3d6000fd5b505060018080556004546131c99450925090506145ab565b600455600d546131d7611c21565b116131f5576131f0612710610fee601454611019611aae565b6131f8565b60005b600555436000908152602081815260408083203284529091528082208054600160ff1991821681179092553384529190922080549091169091179055565b600a546001600160a01b031681565b60275481565b6002546001600160a01b031633146132945760405162461bcd60e51b81526004018080602001828103825260248152602001806151c46024913960400191505060405180910390fd5b60075460408051631515d6bd60e21b81526001600160a01b038681166004830152602482018690528481166044830152915191909216916354575af491606480830192600092919082900301818387803b1580156132f157600080fd5b505af1158015613305573d6000803e3d6000fd5b50505050505050565b600d5481565b60255481565b600080613325611c21565b9050600d5481111561105257600754604080516370a0823160e01b815230600482015290516000926001600160a01b0316916370a08231916024808301926020929190829003018186803b15801561337c57600080fd5b505afa158015613390573d6000803e3d6000fd5b505050506040513d60208110156133a657600080fd5b5051905060006133b4611056565b9050801561104f57611c0681610fee84670de0b6b3a7640000614487565b6000806133dd611c21565b9050600c5481116110525760006133f2611aae565b90506000613411612710610fee6015548561448790919063ffffffff16565b90506000600860009054906101000a90046001600160a01b03166001600160a01b03166318160ddd6040518163ffffffff1660e01b815260040160206040518083038186803b15801561346357600080fd5b505afa158015613477573d6000803e3d6000fd5b505050506040513d602081101561348d57600080fd5b50519050808211156134d25760006134a5838361454e565b905060006134bf670de0b6b3a7640000610fee8489614487565b90506134cd60055482614643565b965050505b5050505090565b60035481565b600b54600754604080517f6808a1280000000000000000000000000000000000000000000000000000000081526001600160a01b039283166004820152670de0b6b3a7640000602482015290516000939290921691636808a12891604480820192602092909190829003018186803b15801561355a57600080fd5b505afa92505050801561357f57506040513d602081101561357a57600080fd5b505160015b611cfc5760405162461bcd60e51b8152600401808060200182810382526036815260200180614ff46036913960400191505060405180910390fd5b60125481565b600681815481106135cd57fe5b6000918252602090912001546001600160a01b0316905081565b60175481565b6002546001600160a01b031633146136365760405162461bcd60e51b81526004018080602001828103825260248152602001806151c46024913960400191505060405180910390fd5b60095460408051631515d6bd60e21b81526001600160a01b038681166004830152602482018690528481166044830152915191909216916354575af491606480830192600092919082900301818387803b1580156132f157600080fd5b6002546001600160a01b031633146136dc5760405162461bcd60e51b81526004018080602001828103825260248152602001806151c46024913960400191505060405180910390fd5b6101f481101580156136f057506127108111155b613730576040805162461bcd60e51b815260206004820152600c60248201526b6f7574206f662072616e676560a01b604482015290519081900360640190fd5b601255565b601f546001600160a01b031681565b60045481565b6002546001600160a01b031633146137935760405162461bcd60e51b81526004018080602001828103825260248152602001806151c46024913960400191505060405180910390fd5b60788211156137e9576040805162461bcd60e51b815260206004820152601e60248201527f5f626f6f74737472617045706f6368733a206f7574206f662072616e67650000604482015290519081900360640190fd5b606481101580156137fc57506103e88111155b6138375760405162461bcd60e51b815260040180806020018281038252602e815260200180615262602e913960400191505060405180910390fd5b601691909155601755565b6002546000906001600160a01b0316331461388e5760405162461bcd60e51b81526004018080602001828103825260248152602001806151c46024913960400191505060405180910390fd5b600f5460ff8416106138d15760405162461bcd60e51b815260040180806020018281038252602981526020018061519b6029913960400191505060405180910390fd5b60ff83161561390357600f6001840360ff16815481106138ed57fe5b9060005260206000200154821161390357600080fd5b600f546000190160ff8416101561393d57600f8360010160ff168154811061392757fe5b9060005260206000200154821061393d57600080fd5b81600f8460ff168154811061394e57fe5b6000918252602090912001555060015b92915050565b6002546001600160a01b031633146139ad5760405162461bcd60e51b81526004018080602001828103825260248152602001806151c46024913960400191505060405180910390fd5b601955565b600f81815481106139bf57fe5b600091825260209091200154905081565b600c5481565b601081815481106139bf57fe5b6002546001600160a01b03163314613a2c5760405162461bcd60e51b81526004018080602001828103825260248152602001806151c46024913960400191505060405180910390fd5b601a55565b6002546001600160a01b03163314613a7a5760405162461bcd60e51b81526004018080602001828103825260248152602001806151c46024913960400191505060405180910390fd5b600a5460408051631515d6bd60e21b81526001600160a01b038681166004830152602482018690528481166044830152915191909216916354575af491606480830192600092919082900301818387803b1580156132f157600080fd5b60185481565b6002546001600160a01b03163314613b265760405162461bcd60e51b81526004018080602001828103825260248152602001806151c46024913960400191505060405180910390fd5b600a54604080517fb3ab15fb0000000000000000000000000000000000000000000000000000000081526001600160a01b0384811660048301529151919092169163b3ab15fb91602480830192600092919082900301818387803b158015610e1857600080fd5b6002546000906001600160a01b03163314613bd95760405162461bcd60e51b81526004018080602001828103825260248152602001806151c46024913960400191505060405180910390fd5b50602855600190565b600b546001600160a01b031681565b600254600160a01b900460ff1615613c50576040805162461bcd60e51b815260206004820152601d60248201527f54726561737572793a20616c726561647920696e697469616c697a6564000000604482015290519081900360640190fd5b600780546001600160a01b03199081166001600160a01b038b8116919091179092556008805482168a8416179055600980548216898416179055600b80548216888416179055600a805482168784161790556003859055602380549091169184169190911790558051613cca906006906020840190614e67565b5067016345785d8a0000600c819055613ceb90606490610fee906065614487565b600d556040805160c081018252600081526969e10de76676d080000060208201526a01a784379d99db42000000918101919091526a034f086f3b33b68400000060608201526a069e10de76676d0800000060808201526a108b2a2c2802909400000060a0820152613d6090600f906006614ec8565b506040805160c08101825261012c815260fa602082015260c89181019190915260966060820152607d6080820152606460a0820152613da3906010906006614f1e565b506101906011819055612710601255610dac60135561012c601455610fa0601555606e601c908155611b58601d55601655601755600754604080516370a0823160e01b815230600482015290516001600160a01b03909216916370a0823191602480820192602092909190829003018186803b158015613e2257600080fd5b505afa158015613e36573d6000803e3d6000fd5b505050506040513d6020811015613e4c57600080fd5b5051600e55662386f26fc100006026556096602855600280546001600160a01b03197fffffffffffffffffffffff00ffffffffffffffffffffffffffffffffffffffff909116600160a01b1716339081179091556040805143815290517f25ff68dd81b34665b5ba7e553ee5511bf6812e12adb4a7e2c0d9e26b3099ce799181900360200190a25050505050505050565b6002546001600160a01b03163314613f265760405162461bcd60e51b81526004018080602001828103825260248152602001806151c46024913960400191505060405180910390fd5b600280546001600160a01b0319166001600160a01b0392909216919091179055565b6002546001600160a01b03163314613f915760405162461bcd60e51b81526004018080602001828103825260248152602001806151c46024913960400191505060405180910390fd5b600a80546001600160a01b0319166001600160a01b0392909216919091179055565b61546081565b6002546001600160a01b031633146140025760405162461bcd60e51b81526004018080602001828103825260248152602001806151c46024913960400191505060405180910390fd5b600c54811015801561402e575061402a6064610fee6078600c5461448790919063ffffffff16565b8111155b61406e576040805162461bcd60e51b815260206004820152600c60248201526b6f7574206f662072616e676560a01b604482015290519081900360640190fd5b600d55565b60195481565b6002546001600160a01b031633146140c25760405162461bcd60e51b81526004018080602001828103825260248152602001806151c46024913960400191505060405180910390fd5b60095460408051631f83ebb560e11b81526001600160a01b03848116600483015291519190921691633f07d76a91602480830192600092919082900301818387803b158015610e1857600080fd5b600061413561412c61546060045461448790919063ffffffff16565b600354906145ab565b905090565b601d5481565b601c5481565b6002546001600160a01b0316331461418f5760405162461bcd60e51b81526004018080602001828103825260248152602001806151c46024913960400191505060405180910390fd5b606481101580156141a257506105dc8111155b6141e2576040805162461bcd60e51b815260206004820152600c60248201526b6f7574206f662072616e676560a01b604482015290519081900360640190fd5b601455565b6002546000906001600160a01b031633146142335760405162461bcd60e51b81526004018080602001828103825260248152602001806151c46024913960400191505060405180910390fd5b60105460ff8416106142765760405162461bcd60e51b815260040180806020018281038252602981526020018061519b6029913960400191505060405180910390fd5b600a821015801561428957506103e88211155b6142da576040805162461bcd60e51b815260206004820152601460248201527f5f76616c75653a206f7574206f662072616e6765000000000000000000000000604482015290519081900360640190fd5b8160108460ff168154811061394e57fe5b60115481565b60155481565b60285481565b6002546001600160a01b031633146143465760405162461bcd60e51b81526004018080602001828103825260248152602001806151c46024913960400191505060405180910390fd5b60075460408051631f83ebb560e11b81526001600160a01b03848116600483015291519190921691633f07d76a91602480830192600092919082900301818387803b158015610e1857600080fd5b60145481565b60165481565b6002546001600160a01b031633146143e95760405162461bcd60e51b81526004018080602001828103825260248152602001806151c46024913960400191505060405180910390fd5b600a54604080517f2ffaaa09000000000000000000000000000000000000000000000000000000008152600481018590526024810184905290516001600160a01b0390921691632ffaaa099160448082019260009290919082900301818387803b15801561445657600080fd5b505af115801561446a573d6000803e3d6000fd5b505050505050565b60055481565b6024546001600160a01b031681565b6000826144965750600061395e565b828202828482816144a357fe5b04146144e05760405162461bcd60e51b81526004018080602001828103825260218152602001806150f96021913960400191505060405180910390fd5b9392505050565b600080821161453d576040805162461bcd60e51b815260206004820152601a60248201527f536166654d6174683a206469766973696f6e206279207a65726f000000000000604482015290519081900360640190fd5b81838161454657fe5b049392505050565b6000828211156145a5576040805162461bcd60e51b815260206004820152601e60248201527f536166654d6174683a207375627472616374696f6e206f766572666c6f770000604482015290519081900360640190fd5b50900390565b6000828201838110156144e0576040805162461bcd60e51b815260206004820152601b60248201527f536166654d6174683a206164646974696f6e206f766572666c6f770000000000604482015290519081900360640190fd5b4360009081526020818152604080832032845290915290205460ff1690565b4360009081526020818152604080832033845290915290205460ff1690565b600081831061465257816144e0565b5090919050565b604080516001600160a01b038416602482015260448082018490528251808303909101815260649091019091526020810180517bffffffffffffffffffffffffffffffffffffffffffffffffffffffff1663a9059cbb60e01b179052612141908490614aac565b600b60009054906101000a90046001600160a01b03166001600160a01b031663a2e620456040518163ffffffff1660e01b8152600401600060405180830381600087803b15801561471057600080fd5b505af1925050508015614721575060015b50565b600754604080516340c10f1960e01b81523060048201526024810184905290516001600160a01b03909216916340c10f19916044808201926020929091908290030181600087803b15801561477857600080fd5b505af115801561478c573d6000803e3d6000fd5b505050506040513d60208110156147a257600080fd5b50506020546000901561488d576147ca612710610fee6020548561448790919063ffffffff16565b600754601f546040805163a9059cbb60e01b81526001600160a01b03928316600482015260248101859052905193945091169163a9059cbb916044808201926020929091908290030181600087803b15801561482557600080fd5b505af1158015614839573d6000803e3d6000fd5b505050506040513d602081101561484f57600080fd5b5050604080514281526020810183905281517fcb3f34aaa3445b461e6da5492dc89e5c257a59fa598131f3b6bbc97a3638e409929181900390910190a15b60225460009015614976576148b3612710610fee6022548661448790919063ffffffff16565b6007546021546040805163a9059cbb60e01b81526001600160a01b03928316600482015260248101859052905193945091169163a9059cbb916044808201926020929091908290030181600087803b15801561490e57600080fd5b505af1158015614922573d6000803e3d6000fd5b505050506040513d602081101561493857600080fd5b5050604080514281526020810183905281517fdc8b715b18523e58b7fd0da53259dfa91efd91df4a854d94b136e3333a3b9395929181900390910190a15b61498481612ecf858561454e565b600a546007549194506149a4916001600160a01b03908116911685614b5d565b600a54604080516397ffe1d760e01b81526004810186905290516001600160a01b03909216916397ffe1d79160248082019260009290919082900301818387803b1580156149f157600080fd5b505af1158015614a05573d6000803e3d6000fd5b5050604080514281526020810187905281517f03ca7276ab7799bf73fb79d27ff0610cd7049574f2508ef8445162833d439aea9450908190039091019150a1505050565b600f54600090600019015b600f8160ff1681548110614a6457fe5b90600052602060002001548310614a995760108160ff1681548110614a8557fe5b600091825260209091200154601155614aa2565b60001901614a54565b5050601154919050565b6060614b01826040518060400160405280602081526020017f5361666545524332303a206c6f772d6c6576656c2063616c6c206661696c6564815250856001600160a01b0316614c4a9092919063ffffffff16565b80519091501561214157808060200190516020811015614b2057600080fd5b50516121415760405162461bcd60e51b815260040180806020018281038252602a8152602001806151e8602a913960400191505060405180910390fd5b6000614bc182856001600160a01b031663dd62ed3e30876040518363ffffffff1660e01b815260040180836001600160a01b03168152602001826001600160a01b031681526020019250505060206040518083038186803b1580156126cb57600080fd5b604080516001600160a01b038616602482015260448082018490528251808303909101815260649091019091526020810180517bffffffffffffffffffffffffffffffffffffffffffffffffffffffff167f095ea7b300000000000000000000000000000000000000000000000000000000179052909150614c44908590614aac565b50505050565b6060614c598484600085614c61565b949350505050565b606082471015614ca25760405162461bcd60e51b815260040180806020018281038252602681526020018061504e6026913960400191505060405180910390fd5b614cab85614dbd565b614cfc576040805162461bcd60e51b815260206004820152601d60248201527f416464726573733a2063616c6c20746f206e6f6e2d636f6e7472616374000000604482015290519081900360640190fd5b60006060866001600160a01b031685876040518082805190602001908083835b60208310614d3b5780518252601f199092019160209182019101614d1c565b6001836020036101000a03801982511681845116808217855250505050505090500191505060006040518083038185875af1925050503d8060008114614d9d576040519150601f19603f3d011682016040523d82523d6000602084013e614da2565b606091505b5091509150614db2828286614dc3565b979650505050505050565b3b151590565b60608315614dd25750816144e0565b825115614de25782518084602001fd5b8160405162461bcd60e51b81526004018080602001828103825283818151815260200191508051906020019080838360005b83811015614e2c578181015183820152602001614e14565b50505050905090810190601f168015614e595780820380516001836020036101000a031916815260200191505b509250505060405180910390fd5b828054828255906000526020600020908101928215614ebc579160200282015b82811115614ebc57825182546001600160a01b0319166001600160a01b03909116178255602090920191600190910190614e87565b50611052929150614f5f565b828054828255906000526020600020908101928215614f12579160200282015b82811115614f1257825182906affffffffffffffffffffff16905591602001919060010190614ee8565b50611052929150614f7e565b828054828255906000526020600020908101928215614f12579160200282015b82811115614f12578251829061ffff16905591602001919060010190614f3e565b5b808211156110525780546001600160a01b0319168155600101614f60565b5b808211156110525760008155600101614f7f56fe54726561737572793a20736e6f775072696365206e6f7420656c696769626c6520666f7220626f6e6420707572636861736554726561737572793a2063616e6e6f742072656465656d20626f6e64732077697468207a65726f20616d6f756e7454726561737572793a206661696c656420746f20636f6e73756c7420536e6f772070726963652066726f6d20746865206f7261636c655f7072656d69756d5468726573686f6c6420697320686967686572207468616e20312e35416464726573733a20696e73756666696369656e742062616c616e636520666f722063616c6c54726561737572793a206661696c656420746f20636f6e73756c7420534e4f572070726963652066726f6d20746865206f7261636c655f7072656d69756d5468726573686f6c64206578636565647320736e6f7750726963654365696c696e6754726561737572793a20747265617375727920686173206e6f206d6f726520627564676574536166654d6174683a206d756c7469706c69636174696f6e206f766572666c6f7754726561737572793a2063616e6e6f7420707572636861736520626f6e64732077697468207a65726f20616d6f756e745f6d696e74696e67466163746f72466f72506179696e67446562743a206f7574206f662072616e67655f6d6178537570706c79457870616e73696f6e50657263656e743a206f7574206f662072616e6765496e6465782068617320746f206265206c6f776572207468616e20636f756e74206f6620746965727354726561737572793a2063616c6c6572206973206e6f7420746865206f70657261746f725361666545524332303a204552433230206f7065726174696f6e20646964206e6f742073756363656564436f6e747261637447756172643a206f6e6520626c6f636b2c206f6e652066756e6374696f6e54726561737572793a206e6f7420656e6f75676820626f6e64206c65667420746f2070757263686173655f626f6f747374726170537570706c79457870616e73696f6e50657263656e743a206f7574206f662072616e6765a264697066735822122010a813d9e9b2e4ef1f684a18277cd8633b69d29131e99710f6bb72647a6d3bbb64736f6c634300060c0033",
  "devdoc": {
    "kind": "dev",
    "methods": {},
    "version": 1
  },
  "userdoc": {
    "kind": "user",
    "methods": {
      "boardroomSetOperator(address)": {
        "notice": "Boardroom governance*"
      },
      "setSnowTaxOffice(address)": {
        "notice": "Snow token contract governance*"
      }
    },
    "version": 1
  },
  "storageLayout": {
    "storage": [
      {
        "astId": 15508,
        "contract": "contracts/Treasury.sol:Treasury",
        "label": "_status",
        "offset": 0,
        "slot": "0",
        "type": "t_mapping(t_uint256,t_mapping(t_address,t_bool))"
      },
      {
        "astId": 1720,
        "contract": "contracts/Treasury.sol:Treasury",
        "label": "_status",
        "offset": 0,
        "slot": "1",
        "type": "t_uint256"
      },
      {
        "astId": 10872,
        "contract": "contracts/Treasury.sol:Treasury",
        "label": "operator",
        "offset": 0,
        "slot": "2",
        "type": "t_address"
      },
      {
        "astId": 10875,
        "contract": "contracts/Treasury.sol:Treasury",
        "label": "initialized",
        "offset": 20,
        "slot": "2",
        "type": "t_bool"
      },
      {
        "astId": 10877,
        "contract": "contracts/Treasury.sol:Treasury",
        "label": "startTime",
        "offset": 0,
        "slot": "3",
        "type": "t_uint256"
      },
      {
        "astId": 10880,
        "contract": "contracts/Treasury.sol:Treasury",
        "label": "epoch",
        "offset": 0,
        "slot": "4",
        "type": "t_uint256"
      },
      {
        "astId": 10883,
        "contract": "contracts/Treasury.sol:Treasury",
        "label": "epochSupplyContractionLeft",
        "offset": 0,
        "slot": "5",
        "type": "t_uint256"
      },
      {
        "astId": 10886,
        "contract": "contracts/Treasury.sol:Treasury",
        "label": "excludedFromTotalSupply",
        "offset": 0,
        "slot": "6",
        "type": "t_array(t_address)dyn_storage"
      },
      {
        "astId": 10888,
        "contract": "contracts/Treasury.sol:Treasury",
        "label": "snow",
        "offset": 0,
        "slot": "7",
        "type": "t_address"
      },
      {
        "astId": 10890,
        "contract": "contracts/Treasury.sol:Treasury",
        "label": "sBond",
        "offset": 0,
        "slot": "8",
        "type": "t_address"
      },
      {
        "astId": 10892,
        "contract": "contracts/Treasury.sol:Treasury",
        "label": "glcr",
        "offset": 0,
        "slot": "9",
        "type": "t_address"
      },
      {
        "astId": 10894,
        "contract": "contracts/Treasury.sol:Treasury",
        "label": "boardroom",
        "offset": 0,
        "slot": "10",
        "type": "t_address"
      },
      {
        "astId": 10896,
        "contract": "contracts/Treasury.sol:Treasury",
        "label": "snowOracle",
        "offset": 0,
        "slot": "11",
        "type": "t_address"
      },
      {
        "astId": 10898,
        "contract": "contracts/Treasury.sol:Treasury",
        "label": "snowPriceOne",
        "offset": 0,
        "slot": "12",
        "type": "t_uint256"
      },
      {
        "astId": 10900,
        "contract": "contracts/Treasury.sol:Treasury",
        "label": "snowPriceCeiling",
        "offset": 0,
        "slot": "13",
        "type": "t_uint256"
      },
      {
        "astId": 10902,
        "contract": "contracts/Treasury.sol:Treasury",
        "label": "seigniorageSaved",
        "offset": 0,
        "slot": "14",
        "type": "t_uint256"
      },
      {
        "astId": 10905,
        "contract": "contracts/Treasury.sol:Treasury",
        "label": "supplyTiers",
        "offset": 0,
        "slot": "15",
        "type": "t_array(t_uint256)dyn_storage"
      },
      {
        "astId": 10908,
        "contract": "contracts/Treasury.sol:Treasury",
        "label": "maxExpansionTiers",
        "offset": 0,
        "slot": "16",
        "type": "t_array(t_uint256)dyn_storage"
      },
      {
        "astId": 10910,
        "contract": "contracts/Treasury.sol:Treasury",
        "label": "maxSupplyExpansionPercent",
        "offset": 0,
        "slot": "17",
        "type": "t_uint256"
      },
      {
        "astId": 10912,
        "contract": "contracts/Treasury.sol:Treasury",
        "label": "bondDepletionFloorPercent",
        "offset": 0,
        "slot": "18",
        "type": "t_uint256"
      },
      {
        "astId": 10914,
        "contract": "contracts/Treasury.sol:Treasury",
        "label": "seigniorageExpansionFloorPercent",
        "offset": 0,
        "slot": "19",
        "type": "t_uint256"
      },
      {
        "astId": 10916,
        "contract": "contracts/Treasury.sol:Treasury",
        "label": "maxSupplyContractionPercent",
        "offset": 0,
        "slot": "20",
        "type": "t_uint256"
      },
      {
        "astId": 10918,
        "contract": "contracts/Treasury.sol:Treasury",
        "label": "maxDebtRatioPercent",
        "offset": 0,
        "slot": "21",
        "type": "t_uint256"
      },
      {
        "astId": 10920,
        "contract": "contracts/Treasury.sol:Treasury",
        "label": "bootstrapEpochs",
        "offset": 0,
        "slot": "22",
        "type": "t_uint256"
      },
      {
        "astId": 10922,
        "contract": "contracts/Treasury.sol:Treasury",
        "label": "bootstrapSupplyExpansionPercent",
        "offset": 0,
        "slot": "23",
        "type": "t_uint256"
      },
      {
        "astId": 10924,
        "contract": "contracts/Treasury.sol:Treasury",
        "label": "previousEpochSnowPrice",
        "offset": 0,
        "slot": "24",
        "type": "t_uint256"
      },
      {
        "astId": 10926,
        "contract": "contracts/Treasury.sol:Treasury",
        "label": "maxDiscountRate",
        "offset": 0,
        "slot": "25",
        "type": "t_uint256"
      },
      {
        "astId": 10928,
        "contract": "contracts/Treasury.sol:Treasury",
        "label": "maxPremiumRate",
        "offset": 0,
        "slot": "26",
        "type": "t_uint256"
      },
      {
        "astId": 10930,
        "contract": "contracts/Treasury.sol:Treasury",
        "label": "discountPercent",
        "offset": 0,
        "slot": "27",
        "type": "t_uint256"
      },
      {
        "astId": 10932,
        "contract": "contracts/Treasury.sol:Treasury",
        "label": "premiumThreshold",
        "offset": 0,
        "slot": "28",
        "type": "t_uint256"
      },
      {
        "astId": 10934,
        "contract": "contracts/Treasury.sol:Treasury",
        "label": "premiumPercent",
        "offset": 0,
        "slot": "29",
        "type": "t_uint256"
      },
      {
        "astId": 10936,
        "contract": "contracts/Treasury.sol:Treasury",
        "label": "mintingFactorForPayingDebt",
        "offset": 0,
        "slot": "30",
        "type": "t_uint256"
      },
      {
        "astId": 10938,
        "contract": "contracts/Treasury.sol:Treasury",
        "label": "daoFund",
        "offset": 0,
        "slot": "31",
        "type": "t_address"
      },
      {
        "astId": 10940,
        "contract": "contracts/Treasury.sol:Treasury",
        "label": "daoFundSharedPercent",
        "offset": 0,
        "slot": "32",
        "type": "t_uint256"
      },
      {
        "astId": 10942,
        "contract": "contracts/Treasury.sol:Treasury",
        "label": "devFund",
        "offset": 0,
        "slot": "33",
        "type": "t_address"
      },
      {
        "astId": 10944,
        "contract": "contracts/Treasury.sol:Treasury",
        "label": "devFundSharedPercent",
        "offset": 0,
        "slot": "34",
        "type": "t_uint256"
      },
      {
        "astId": 10946,
        "contract": "contracts/Treasury.sol:Treasury",
        "label": "taxOffice",
        "offset": 0,
        "slot": "35",
        "type": "t_address"
      },
      {
        "astId": 10948,
        "contract": "contracts/Treasury.sol:Treasury",
        "label": "rebateTreasury",
        "offset": 0,
        "slot": "36",
        "type": "t_address"
      },
      {
        "astId": 10950,
        "contract": "contracts/Treasury.sol:Treasury",
        "label": "rebateTreasurySharedPercent",
        "offset": 0,
        "slot": "37",
        "type": "t_uint256"
      },
      {
        "astId": 10952,
        "contract": "contracts/Treasury.sol:Treasury",
        "label": "minExpansion",
        "offset": 0,
        "slot": "38",
        "type": "t_uint256"
      },
      {
        "astId": 10954,
        "contract": "contracts/Treasury.sol:Treasury",
        "label": "fixedExpansion",
        "offset": 0,
        "slot": "39",
        "type": "t_uint256"
      },
      {
        "astId": 10956,
        "contract": "contracts/Treasury.sol:Treasury",
        "label": "expansionFactor",
        "offset": 0,
        "slot": "40",
        "type": "t_uint256"
      }
    ],
    "types": {
      "t_address": {
        "encoding": "inplace",
        "label": "address",
        "numberOfBytes": "20"
      },
      "t_array(t_address)dyn_storage": {
        "base": "t_address",
        "encoding": "dynamic_array",
        "label": "address[]",
        "numberOfBytes": "32"
      },
      "t_array(t_uint256)dyn_storage": {
        "base": "t_uint256",
        "encoding": "dynamic_array",
        "label": "uint256[]",
        "numberOfBytes": "32"
      },
      "t_bool": {
        "encoding": "inplace",
        "label": "bool",
        "numberOfBytes": "1"
      },
      "t_mapping(t_address,t_bool)": {
        "encoding": "mapping",
        "key": "t_address",
        "label": "mapping(address => bool)",
        "numberOfBytes": "32",
        "value": "t_bool"
      },
      "t_mapping(t_uint256,t_mapping(t_address,t_bool))": {
        "encoding": "mapping",
        "key": "t_uint256",
        "label": "mapping(uint256 => mapping(address => bool))",
        "numberOfBytes": "32",
        "value": "t_mapping(t_address,t_bool)"
      },
      "t_uint256": {
        "encoding": "inplace",
        "label": "uint256",
        "numberOfBytes": "32"
      }
    }
  }
}