{
  "address": "0x4f42528B7bF8Da96516bECb22c1c6f53a8Ac7312",
  "abi": [
    {
      "inputs": [
        {
          "internalType": "address",
          "name": "_router",
          "type": "address"
        }
      ],
      "stateMutability": "nonpayable",
      "type": "constructor"
    },
    {
      "anonymous": false,
      "inputs": [
        {
          "indexed": true,
          "internalType": "address",
          "name": "previousOwner",
          "type": "address"
        },
        {
          "indexed": true,
          "internalType": "address",
          "name": "newOwner",
          "type": "address"
        }
      ],
      "name": "OwnershipTransferred",
      "type": "event"
    },
    {
      "inputs": [
        {
          "internalType": "address",
          "name": "_tokenA",
          "type": "address"
        },
        {
          "internalType": "address",
          "name": "_tokenB",
          "type": "address"
        },
        {
          "internalType": "uint256",
          "name": "_amountADesired",
          "type": "uint256"
        },
        {
          "internalType": "uint256",
          "name": "_amountBDesired",
          "type": "uint256"
        },
        {
          "internalType": "uint256",
          "name": "_amountAMin",
          "type": "uint256"
        },
        {
          "internalType": "uint256",
          "name": "_amountBMin",
          "type": "uint256"
        },
        {
          "internalType": "address",
          "name": "_to",
          "type": "address"
        },
        {
          "internalType": "uint256",
          "name": "_deadline",
          "type": "uint256"
        }
      ],
      "name": "addLiquidity",
      "outputs": [
        {
          "internalType": "uint256",
          "name": "amountA",
          "type": "uint256"
        },
        {
          "internalType": "uint256",
          "name": "amountB",
          "type": "uint256"
        },
        {
          "internalType": "uint256",
          "name": "liquidity",
          "type": "uint256"
        }
      ],
      "stateMutability": "nonpayable",
      "type": "function"
    },
    {
      "inputs": [
        {
          "internalType": "address",
          "name": "",
          "type": "address"
        }
      ],
      "name": "operator",
      "outputs": [
        {
          "internalType": "bool",
          "name": "",
          "type": "bool"
        }
      ],
      "stateMutability": "view",
      "type": "function"
    },
    {
      "inputs": [],
      "name": "owner",
      "outputs": [
        {
          "internalType": "address",
          "name": "",
          "type": "address"
        }
      ],
      "stateMutability": "view",
      "type": "function"
    },
    {
      "inputs": [],
      "name": "renounceOwnership",
      "outputs": [],
      "stateMutability": "nonpayable",
      "type": "function"
    },
    {
      "inputs": [],
      "name": "router",
      "outputs": [
        {
          "internalType": "contract IUniswapV2Router",
          "name": "",
          "type": "address"
        }
      ],
      "stateMutability": "view",
      "type": "function"
    },
    {
      "inputs": [
        {
          "internalType": "address",
          "name": "_account",
          "type": "address"
        },
        {
          "internalType": "bool",
          "name": "_isOperator",
          "type": "bool"
        }
      ],
      "name": "setIsOperator",
      "outputs": [],
      "stateMutability": "nonpayable",
      "type": "function"
    },
    {
      "inputs": [
        {
          "internalType": "address",
          "name": "_router",
          "type": "address"
        }
      ],
      "name": "setRouter",
      "outputs": [],
      "stateMutability": "nonpayable",
      "type": "function"
    },
    {
      "inputs": [
        {
          "internalType": "uint256",
          "name": "_amountIn",
          "type": "uint256"
        },
        {
          "internalType": "uint256",
          "name": "_amountOutMin",
          "type": "uint256"
        },
        {
          "internalType": "address[]",
          "name": "_path",
          "type": "address[]"
        },
        {
          "internalType": "address",
          "name": "_to",
          "type": "address"
        },
        {
          "internalType": "uint256",
          "name": "_deadline",
          "type": "uint256"
        }
      ],
      "name": "swapExactTokensForTokens",
      "outputs": [
        {
          "internalType": "uint256[]",
          "name": "amounts",
          "type": "uint256[]"
        }
      ],
      "stateMutability": "nonpayable",
      "type": "function"
    },
    {
      "inputs": [
        {
          "internalType": "address",
          "name": "newOwner",
          "type": "address"
        }
      ],
      "name": "transferOwnership",
      "outputs": [],
      "stateMutability": "nonpayable",
      "type": "function"
    }
  ],
  "transactionHash": "0xcc397edaa4cca5fefe117e1cba97a761e9823ab71e1cc894192c05ba9389abd8",
  "args": [
    "0x145677FC4d9b8F19B5D56d1820c48e0443049a30"
  ],
  "numDeployments": 1,
  "solcInputHash": "3c54a3c65be41d63bdc08efffa70f585",
  "bytecode": "0x608060405234801561001057600080fd5b506040516114283803806114288339818101604052602081101561003357600080fd5b5051600061003f6100ca565b600080546001600160a01b0319166001600160a01b0383169081178255604051929350917f8be0079c531659141344cd1fd0a4f28419497f9722a3daafe3b4186f6b6457e0908290a3503360009081526002602052604090208054600160ff19909116811790915580546001600160a01b0319166001600160a01b03929092169190911790556100ce565b3390565b61134b806100dd6000396000f3fe608060405234801561001057600080fd5b50600436106100a35760003560e01c8063c0d7865511610076578063e8e337001161005b578063e8e337001461023f578063f2fde38b146102b2578063f887ea40146102d8576100a3565b8063c0d78655146101eb578063cbb5d4db14610211576100a3565b806338ed1739146100a8578063715018a6146101835780638da5cb5b1461018d5780639a307391146101b1575b600080fd5b610133600480360360a08110156100be57600080fd5b8135916020810135918101906060810160408201356401000000008111156100e557600080fd5b8201836020820111156100f757600080fd5b8035906020019184602083028401116401000000008311171561011957600080fd5b91935091506001600160a01b0381351690602001356102e0565b60408051602080825283518183015283519192839290830191858101910280838360005b8381101561016f578181015183820152602001610157565b505050509050019250505060405180910390f35b61018b61066e565b005b610195610739565b604080516001600160a01b039092168252519081900360200190f35b6101d7600480360360208110156101c757600080fd5b50356001600160a01b0316610748565b604080519115158252519081900360200190f35b61018b6004803603602081101561020157600080fd5b50356001600160a01b031661075d565b61018b6004803603604081101561022757600080fd5b506001600160a01b0381351690602001351515610800565b610294600480360361010081101561025657600080fd5b506001600160a01b038135811691602081013582169160408201359160608101359160808201359160a08101359160c0820135169060e0013561089f565b60408051938452602084019290925282820152519081900360600190f35b61018b600480360360208110156102c857600080fd5b50356001600160a01b0316610c33565b610195610d54565b3360009081526002602052604090205460609060ff16610347576040805162461bcd60e51b815260206004820152601960248201527f43616c6c6572206973206e6f7420616e206f70657261746f7200000000000000604482015290519081900360640190fd5b60008585600081811061035657fe5b905060200201356001600160a01b0316905061038833308a846001600160a01b0316610d63909392919063ffffffff16565b6001546103a2906001600160a01b0383811691168a610df1565b6001546040517f38ed1739000000000000000000000000000000000000000000000000000000008152600481018a8152602482018a90526001600160a01b0387811660648401526084830187905260a06044840190815260a484018a90529316926338ed1739928c928c928c928c928c928c9260c401866020870280828437600081840152601f19601f820116905080830192505050975050505050505050600060405180830381600087803b15801561045b57600080fd5b505af115801561046f573d6000803e3d6000fd5b505050506040513d6000823e601f3d908101601f19168201604052602081101561049857600080fd5b81019080805160405193929190846401000000008211156104b857600080fd5b9083019060208201858111156104cd57600080fd5b82518660208202830111640100000000821117156104ea57600080fd5b82525081516020918201928201910280838360005b838110156105175781810151838201526020016104ff565b505050509050016040525050509150600061054f8360008151811061053857fe5b60200260200101518a610f0a90919063ffffffff16565b90506000826001600160a01b03166370a08231306040518263ffffffff1660e01b815260040180826001600160a01b0316815260200191505060206040518083038186803b1580156105a057600080fd5b505afa1580156105b4573d6000803e3d6000fd5b505050506040513d60208110156105ca57600080fd5b505190508082116105db57816105dd565b805b91508115610661576040805163a9059cbb60e01b81523360048201526024810184905290516001600160a01b0385169163a9059cbb9160448083019260209291908290030181600087803b15801561063457600080fd5b505af1158015610648573d6000803e3d6000fd5b505050506040513d602081101561065e57600080fd5b50505b5050509695505050505050565b610676610f67565b6001600160a01b0316610687610739565b6001600160a01b0316146106e2576040805162461bcd60e51b815260206004820181905260248201527f4f776e61626c653a2063616c6c6572206973206e6f7420746865206f776e6572604482015290519081900360640190fd5b600080546040516001600160a01b03909116907f8be0079c531659141344cd1fd0a4f28419497f9722a3daafe3b4186f6b6457e0908390a36000805473ffffffffffffffffffffffffffffffffffffffff19169055565b6000546001600160a01b031690565b60026020526000908152604090205460ff1681565b610765610f67565b6001600160a01b0316610776610739565b6001600160a01b0316146107d1576040805162461bcd60e51b815260206004820181905260248201527f4f776e61626c653a2063616c6c6572206973206e6f7420746865206f776e6572604482015290519081900360640190fd5b6001805473ffffffffffffffffffffffffffffffffffffffff19166001600160a01b0392909216919091179055565b610808610f67565b6001600160a01b0316610819610739565b6001600160a01b031614610874576040805162461bcd60e51b815260206004820181905260248201527f4f776e61626c653a2063616c6c6572206973206e6f7420746865206f776e6572604482015290519081900360640190fd5b6001600160a01b03919091166000908152600260205260409020805460ff1916911515919091179055565b600080806108b86001600160a01b038c1633308c610d63565b6108cd6001600160a01b038b1633308b610d63565b6001546108e7906001600160a01b038d811691168b610df1565b600154610901906001600160a01b038c811691168a610df1565b600154604080517fe8e337000000000000000000000000000000000000000000000000000000000081526001600160a01b038e811660048301528d81166024830152604482018d9052606482018c9052608482018b905260a482018a905288811660c483015260e482018890529151919092169163e8e33700916101048083019260609291908290030181600087803b15801561099d57600080fd5b505af11580156109b1573d6000803e3d6000fd5b505050506040513d60608110156109c757600080fd5b5080516020820151604090920151909450909250905060006109e98a85610f0a565b905060008c6001600160a01b03166370a08231306040518263ffffffff1660e01b815260040180826001600160a01b0316815260200191505060206040518083038186803b158015610a3a57600080fd5b505afa158015610a4e573d6000803e3d6000fd5b505050506040513d6020811015610a6457600080fd5b50519050808211610a755781610a77565b805b91508115610afb576040805163a9059cbb60e01b81523360048201526024810184905290516001600160a01b038f169163a9059cbb9160448083019260209291908290030181600087803b158015610ace57600080fd5b505af1158015610ae2573d6000803e3d6000fd5b505050506040513d6020811015610af857600080fd5b50505b6000610b078b86610f0a565b905060008d6001600160a01b03166370a08231306040518263ffffffff1660e01b815260040180826001600160a01b0316815260200191505060206040518083038186803b158015610b5857600080fd5b505afa158015610b6c573d6000803e3d6000fd5b505050506040513d6020811015610b8257600080fd5b50519050808211610b935781610b95565b805b91508115610c21578d6001600160a01b031663a9059cbb33846040518363ffffffff1660e01b815260040180836001600160a01b0316815260200182815260200192505050602060405180830381600087803b158015610bf457600080fd5b505af1158015610c08573d6000803e3d6000fd5b505050506040513d6020811015610c1e57600080fd5b50505b50505050985098509895505050505050565b610c3b610f67565b6001600160a01b0316610c4c610739565b6001600160a01b031614610ca7576040805162461bcd60e51b815260206004820181905260248201527f4f776e61626c653a2063616c6c6572206973206e6f7420746865206f776e6572604482015290519081900360640190fd5b6001600160a01b038116610cec5760405162461bcd60e51b81526004018080602001828103825260268152602001806112a06026913960400191505060405180910390fd5b600080546040516001600160a01b03808516939216917f8be0079c531659141344cd1fd0a4f28419497f9722a3daafe3b4186f6b6457e091a36000805473ffffffffffffffffffffffffffffffffffffffff19166001600160a01b0392909216919091179055565b6001546001600160a01b031681565b604080516001600160a01b0380861660248301528416604482015260648082018490528251808303909101815260849091019091526020810180517bffffffffffffffffffffffffffffffffffffffffffffffffffffffff167f23b872dd00000000000000000000000000000000000000000000000000000000179052610deb908590610f6b565b50505050565b6000610e8782856001600160a01b031663dd62ed3e30876040518363ffffffff1660e01b815260040180836001600160a01b03168152602001826001600160a01b031681526020019250505060206040518083038186803b158015610e5557600080fd5b505afa158015610e69573d6000803e3d6000fd5b505050506040513d6020811015610e7f57600080fd5b505190611021565b604080516001600160a01b038616602482015260448082018490528251808303909101815260649091019091526020810180517bffffffffffffffffffffffffffffffffffffffffffffffffffffffff167f095ea7b300000000000000000000000000000000000000000000000000000000179052909150610deb908590610f6b565b600082821115610f61576040805162461bcd60e51b815260206004820152601e60248201527f536166654d6174683a207375627472616374696f6e206f766572666c6f770000604482015290519081900360640190fd5b50900390565b3390565b6060610fc0826040518060400160405280602081526020017f5361666545524332303a206c6f772d6c6576656c2063616c6c206661696c6564815250856001600160a01b03166110829092919063ffffffff16565b80519091501561101c57808060200190516020811015610fdf57600080fd5b505161101c5760405162461bcd60e51b815260040180806020018281038252602a8152602001806112ec602a913960400191505060405180910390fd5b505050565b60008282018381101561107b576040805162461bcd60e51b815260206004820152601b60248201527f536166654d6174683a206164646974696f6e206f766572666c6f770000000000604482015290519081900360640190fd5b9392505050565b60606110918484600085611099565b949350505050565b6060824710156110da5760405162461bcd60e51b81526004018080602001828103825260268152602001806112c66026913960400191505060405180910390fd5b6110e3856111f5565b611134576040805162461bcd60e51b815260206004820152601d60248201527f416464726573733a2063616c6c20746f206e6f6e2d636f6e7472616374000000604482015290519081900360640190fd5b60006060866001600160a01b031685876040518082805190602001908083835b602083106111735780518252601f199092019160209182019101611154565b6001836020036101000a03801982511681845116808217855250505050505090500191505060006040518083038185875af1925050503d80600081146111d5576040519150601f19603f3d011682016040523d82523d6000602084013e6111da565b606091505b50915091506111ea8282866111fb565b979650505050505050565b3b151590565b6060831561120a57508161107b565b82511561121a5782518084602001fd5b8160405162461bcd60e51b81526004018080602001828103825283818151815260200191508051906020019080838360005b8381101561126457818101518382015260200161124c565b50505050905090810190601f1680156112915780820380516001836020036101000a031916815260200191505b509250505060405180910390fdfe4f776e61626c653a206e6577206f776e657220697320746865207a65726f2061646472657373416464726573733a20696e73756666696369656e742062616c616e636520666f722063616c6c5361666545524332303a204552433230206f7065726174696f6e20646964206e6f742073756363656564a26469706673582212206391333951dcd6c93989b070e05e1eee0209db7ad21e6f79280a4bb823d48e5e64736f6c634300060c0033",
  "devdoc": {
    "kind": "dev",
    "methods": {
      "owner()": {
        "details": "Returns the address of the current owner."
      },
      "renounceOwnership()": {
        "details": "Leaves the contract without owner. It will not be possible to call `onlyOwner` functions anymore. Can only be called by the current owner. NOTE: Renouncing ownership will leave the contract without an owner, thereby removing any functionality that is only available to the owner."
      },
      "transferOwnership(address)": {
        "details": "Transfers ownership of the contract to a new account (`newOwner`). Can only be called by the current owner."
      }
    },
    "version": 1
  },
  "userdoc": {
    "kind": "user",
    "methods": {},
    "version": 1
  },
  "storageLayout": {
    "storage": [
      {
        "astId": 7,
        "contract": "contracts/WrapperRouter.sol:WrappedRouter",
        "label": "_owner",
        "offset": 0,
        "slot": "0",
        "type": "t_address"
      },
      {
        "astId": 13388,
        "contract": "contracts/WrapperRouter.sol:WrappedRouter",
        "label": "router",
        "offset": 0,
        "slot": "1",
        "type": "t_contract(IUniswapV2Router)14649"
      },
      {
        "astId": 13392,
        "contract": "contracts/WrapperRouter.sol:WrappedRouter",
        "label": "operator",
        "offset": 0,
        "slot": "2",
        "type": "t_mapping(t_address,t_bool)"
      }
    ],
    "types": {
      "t_address": {
        "encoding": "inplace",
        "label": "address",
        "numberOfBytes": "20"
      },
      "t_bool": {
        "encoding": "inplace",
        "label": "bool",
        "numberOfBytes": "1"
      },
      "t_contract(IUniswapV2Router)14649": {
        "encoding": "inplace",
        "label": "contract IUniswapV2Router",
        "numberOfBytes": "20"
      },
      "t_mapping(t_address,t_bool)": {
        "encoding": "mapping",
        "key": "t_address",
        "label": "mapping(address => bool)",
        "numberOfBytes": "32",
        "value": "t_bool"
      }
    }
  }
}