{
  "address": "0x1e86fCe4d102A5924A9EF503f772fCA162Af2067",
  "abi": [
    {
      "inputs": [
        {
          "internalType": "address",
          "name": "_WNATIVE",
          "type": "address"
        }
      ],
      "stateMutability": "nonpayable",
      "type": "constructor"
    },
    {
      "anonymous": false,
      "inputs": [
        {
          "indexed": true,
          "internalType": "address",
          "name": "previousOwner",
          "type": "address"
        },
        {
          "indexed": true,
          "internalType": "address",
          "name": "newOwner",
          "type": "address"
        }
      ],
      "name": "OwnershipTransferred",
      "type": "event"
    },
    {
      "inputs": [
        {
          "internalType": "address",
          "name": "_from",
          "type": "address"
        },
        {
          "internalType": "address",
          "name": "_to",
          "type": "address"
        },
        {
          "internalType": "address",
          "name": "_router",
          "type": "address"
        },
        {
          "internalType": "uint256",
          "name": "_amt",
          "type": "uint256"
        }
      ],
      "name": "estimateZapInToken",
      "outputs": [
        {
          "internalType": "uint256",
          "name": "",
          "type": "uint256"
        },
        {
          "internalType": "uint256",
          "name": "",
          "type": "uint256"
        }
      ],
      "stateMutability": "view",
      "type": "function"
    },
    {
      "inputs": [
        {
          "internalType": "address",
          "name": "",
          "type": "address"
        }
      ],
      "name": "isFeeOnTransfer",
      "outputs": [
        {
          "internalType": "bool",
          "name": "",
          "type": "bool"
        }
      ],
      "stateMutability": "view",
      "type": "function"
    },
    {
      "inputs": [],
      "name": "owner",
      "outputs": [
        {
          "internalType": "address",
          "name": "",
          "type": "address"
        }
      ],
      "stateMutability": "view",
      "type": "function"
    },
    {
      "inputs": [],
      "name": "renounceOwnership",
      "outputs": [],
      "stateMutability": "nonpayable",
      "type": "function"
    },
    {
      "inputs": [
        {
          "internalType": "address",
          "name": "token",
          "type": "address"
        }
      ],
      "name": "setIsFeeOnTransfer",
      "outputs": [],
      "stateMutability": "nonpayable",
      "type": "function"
    },
    {
      "inputs": [
        {
          "internalType": "address",
          "name": "token",
          "type": "address"
        },
        {
          "internalType": "address",
          "name": "router",
          "type": "address"
        },
        {
          "internalType": "address",
          "name": "bridgeToken",
          "type": "address"
        }
      ],
      "name": "setTokenBridgeForRouter",
      "outputs": [],
      "stateMutability": "nonpayable",
      "type": "function"
    },
    {
      "inputs": [
        {
          "internalType": "address",
          "name": "router",
          "type": "address"
        }
      ],
      "name": "setUseNativeRouter",
      "outputs": [],
      "stateMutability": "nonpayable",
      "type": "function"
    },
    {
      "inputs": [
        {
          "internalType": "address",
          "name": "_from",
          "type": "address"
        },
        {
          "internalType": "uint256",
          "name": "amount",
          "type": "uint256"
        },
        {
          "internalType": "address",
          "name": "routerAddr",
          "type": "address"
        },
        {
          "internalType": "address",
          "name": "_recipient",
          "type": "address"
        }
      ],
      "name": "swapToNative",
      "outputs": [],
      "stateMutability": "nonpayable",
      "type": "function"
    },
    {
      "inputs": [
        {
          "internalType": "address",
          "name": "_from",
          "type": "address"
        },
        {
          "internalType": "uint256",
          "name": "amount",
          "type": "uint256"
        },
        {
          "internalType": "address",
          "name": "_to",
          "type": "address"
        },
        {
          "internalType": "address",
          "name": "routerAddr",
          "type": "address"
        },
        {
          "internalType": "address",
          "name": "_recipient",
          "type": "address"
        }
      ],
      "name": "swapToken",
      "outputs": [],
      "stateMutability": "nonpayable",
      "type": "function"
    },
    {
      "inputs": [
        {
          "internalType": "address",
          "name": "newOwner",
          "type": "address"
        }
      ],
      "name": "transferOwnership",
      "outputs": [],
      "stateMutability": "nonpayable",
      "type": "function"
    },
    {
      "inputs": [
        {
          "internalType": "address",
          "name": "",
          "type": "address"
        }
      ],
      "name": "useNativeRouter",
      "outputs": [
        {
          "internalType": "bool",
          "name": "",
          "type": "bool"
        }
      ],
      "stateMutability": "view",
      "type": "function"
    },
    {
      "inputs": [
        {
          "internalType": "address",
          "name": "token",
          "type": "address"
        }
      ],
      "name": "withdraw",
      "outputs": [],
      "stateMutability": "nonpayable",
      "type": "function"
    },
    {
      "inputs": [
        {
          "internalType": "address",
          "name": "_from",
          "type": "address"
        },
        {
          "internalType": "uint256",
          "name": "amount",
          "type": "uint256"
        },
        {
          "internalType": "address",
          "name": "_toRouter",
          "type": "address"
        },
        {
          "internalType": "address",
          "name": "_recipient",
          "type": "address"
        }
      ],
      "name": "zapAcross",
      "outputs": [],
      "stateMutability": "nonpayable",
      "type": "function"
    },
    {
      "inputs": [
        {
          "internalType": "address",
          "name": "_to",
          "type": "address"
        },
        {
          "internalType": "address",
          "name": "routerAddr",
          "type": "address"
        },
        {
          "internalType": "address",
          "name": "_recipient",
          "type": "address"
        }
      ],
      "name": "zapIn",
      "outputs": [],
      "stateMutability": "payable",
      "type": "function"
    },
    {
      "inputs": [
        {
          "internalType": "address",
          "name": "_from",
          "type": "address"
        },
        {
          "internalType": "uint256",
          "name": "amount",
          "type": "uint256"
        },
        {
          "internalType": "address",
          "name": "_to",
          "type": "address"
        },
        {
          "internalType": "address",
          "name": "routerAddr",
          "type": "address"
        },
        {
          "internalType": "address",
          "name": "_recipient",
          "type": "address"
        }
      ],
      "name": "zapInToken",
      "outputs": [],
      "stateMutability": "nonpayable",
      "type": "function"
    },
    {
      "inputs": [
        {
          "internalType": "address",
          "name": "_from",
          "type": "address"
        },
        {
          "internalType": "uint256",
          "name": "amount",
          "type": "uint256"
        },
        {
          "internalType": "address",
          "name": "routerAddr",
          "type": "address"
        },
        {
          "internalType": "address",
          "name": "_recipient",
          "type": "address"
        }
      ],
      "name": "zapOut",
      "outputs": [],
      "stateMutability": "nonpayable",
      "type": "function"
    },
    {
      "inputs": [
        {
          "internalType": "address",
          "name": "_from",
          "type": "address"
        },
        {
          "internalType": "uint256",
          "name": "amount",
          "type": "uint256"
        },
        {
          "internalType": "address",
          "name": "_to",
          "type": "address"
        },
        {
          "internalType": "address",
          "name": "routerAddr",
          "type": "address"
        },
        {
          "internalType": "address",
          "name": "_recipient",
          "type": "address"
        }
      ],
      "name": "zapOutToken",
      "outputs": [],
      "stateMutability": "nonpayable",
      "type": "function"
    },
    {
      "stateMutability": "payable",
      "type": "receive"
    }
  ],
  "transactionHash": "0xe4b605cd9fee656f77c43c6b1eb97469632d67685d6323292b31da905fef9854",
  "args": [
    "0x6D02ABC5fa967B0b085083F5Cf36c24502447244"
  ],
  "numDeployments": 1,
  "solcInputHash": "f77d36897e3ec85e8f1aed5cd075e017",
  "bytecode": "0x60806040523480156200001157600080fd5b50604051620041183803806200411883398101604081905262000034916200009b565b600080546001600160a01b031916339081178255604051909182917f8be0079c531659141344cd1fd0a4f28419497f9722a3daafe3b4186f6b6457e0908290a350600180546001600160a01b0319166001600160a01b0392909216919091179055620000cd565b600060208284031215620000ae57600080fd5b81516001600160a01b0381168114620000c657600080fd5b9392505050565b61403b80620000dd6000396000f3fe6080604052600436106101125760003560e01c806388fbe419116100a55780639416cbc611610074578063caaae7f511610059578063caaae7f51461030a578063cee6202c1461033a578063f2fde38b1461035a57600080fd5b80639416cbc6146102aa578063ba2ebf96146102ea57600080fd5b806388fbe4191461020857806389fecbd5146102285780638da5cb5b146102485780638e8d81521461027557600080fd5b80635424888b116100e15780635424888b146101935780635cc7647c146101b3578063715018a6146101d357806388f61f9f146101e857600080fd5b8063104bfe551461011e5780631b71afbd1461014057806335e8b7d51461016057806351cff8d91461017357600080fd5b3661011957005b600080fd5b34801561012a57600080fd5b5061013e610139366004613b5e565b61037a565b005b34801561014c57600080fd5b5061013e61015b366004613b7b565b6103fd565b61013e61016e366004613be3565b610610565b34801561017f57600080fd5b5061013e61018e366004613b5e565b610632565b34801561019f57600080fd5b5061013e6101ae366004613be3565b6107d3565b3480156101bf57600080fd5b5061013e6101ce366004613c2e565b610877565b3480156101df57600080fd5b5061013e610b55565b3480156101f457600080fd5b5061013e610203366004613c2e565b610c06565b34801561021457600080fd5b5061013e610223366004613b5e565b610eeb565b34801561023457600080fd5b5061013e610243366004613c2e565b610f69565b34801561025457600080fd5b506000546040516001600160a01b0390911681526020015b60405180910390f35b34801561028157600080fd5b50610295610290366004613c81565b610f9b565b6040805192835260208301919091520161026c565b3480156102b657600080fd5b506102da6102c5366004613b5e565b60046020526000908152604090205460ff1681565b604051901515815260200161026c565b3480156102f657600080fd5b5061013e610305366004613b7b565b611500565b34801561031657600080fd5b506102da610325366004613b5e565b60036020526000908152604090205460ff1681565b34801561034657600080fd5b5061013e610355366004613b7b565b61152c565b34801561036657600080fd5b5061013e610375366004613b5e565b611677565b6000546001600160a01b031633146103d95760405162461bcd60e51b815260206004820181905260248201527f4f776e61626c653a2063616c6c6572206973206e6f7420746865206f776e657260448201526064015b60405180910390fd5b6001600160a01b03166000908152600360205260409020805460ff19166001179055565b6104126001600160a01b0386163330876117b5565b61041c858361183b565b6000856001600160a01b0316630dfe16816040518163ffffffff1660e01b8152600401602060405180830381865afa15801561045c573d6000803e3d6000fd5b505050506040513d601f19601f820116820180604052508101906104809190613cd2565b90506000866001600160a01b031663d21220a76040518163ffffffff1660e01b8152600401602060405180830381865afa1580156104c2573d6000803e3d6000fd5b505050506040513d601f19601f820116820180604052508101906104e69190613cd2565b90506104f2828561183b565b6104fc818561183b565b604051635d5155ef60e11b81526001600160a01b038381166004830152828116602483015260448201889052600060648301819052608483018190523060a48401524260c484015291829187169063baa2abde9060e40160408051808303816000875af1158015610571573d6000803e3d6000fd5b505050506040513d601f19601f820116820180604052508101906105959190613cef565b90925090506001600160a01b03848116908816146105bd576105ba848389308a6118c8565b91505b866001600160a01b0316836001600160a01b0316146105e6576105e3838289308a6118c8565b90505b610605856105f4848461214f565b6001600160a01b038a169190612164565b505050505050505050565b61061c833483856121ad565b50471561062d5761062d334761230a565b505050565b6000546001600160a01b0316331461068c5760405162461bcd60e51b815260206004820181905260248201527f4f776e61626c653a2063616c6c6572206973206e6f7420746865206f776e657260448201526064016103d0565b6001600160a01b0381166106d857600080546040516001600160a01b03909116914780156108fc02929091818181858888f193505050501580156106d4573d6000803e3d6000fd5b5050565b806001600160a01b031663a9059cbb6106f96000546001600160a01b031690565b6040516370a0823160e01b81523060048201526001600160a01b038516906370a0823190602401602060405180830381865afa15801561073d573d6000803e3d6000fd5b505050506040513d601f19601f820116820180604052508101906107619190613d13565b6040516001600160e01b031960e085901b1681526001600160a01b03909216600483015260248201526044016020604051808303816000875af11580156107ac573d6000803e3d6000fd5b505050506040513d601f19601f820116820180604052508101906106d49190613d2c565b50565b6000546001600160a01b0316331461082d5760405162461bcd60e51b815260206004820181905260248201527f4f776e61626c653a2063616c6c6572206973206e6f7420746865206f776e657260448201526064016103d0565b6001600160a01b039283166000908152600260209081526040808320948616835293905291909120805473ffffffffffffffffffffffffffffffffffffffff191691909216179055565b61088c6001600160a01b0385163330866117b5565b610896848361183b565b6000846001600160a01b0316630dfe16816040518163ffffffff1660e01b8152600401602060405180830381865afa1580156108d6573d6000803e3d6000fd5b505050506040513d601f19601f820116820180604052508101906108fa9190613cd2565b90506000856001600160a01b031663d21220a76040518163ffffffff1660e01b8152600401602060405180830381865afa15801561093c573d6000803e3d6000fd5b505050506040513d601f19601f820116820180604052508101906109609190613cd2565b905061096c828561183b565b610976818561183b565b6001546001600160a01b038381169116148061099f57506001546001600160a01b038281169116145b15610a96576001546000906001600160a01b03908116908416036109c357816109c5565b825b6040517f02751cec0000000000000000000000000000000000000000000000000000000081526001600160a01b03808316600483015260248201899052600060448301819052606483018190523060848401524260a48401529293508291908816906302751cec9060c40160408051808303816000875af1158015610a4e573d6000803e3d6000fd5b505050506040513d601f19601f82011682018060405250810190610a729190613cef565b9092509050610a838383888a6123ed565b50610a8e868261230a565b505050610b4d565b604051635d5155ef60e11b81526001600160a01b038381166004830152828116602483015260448201879052600060648301819052608483018190523060a48401524260c484015291829187169063baa2abde9060e40160408051808303816000875af1158015610b0b573d6000803e3d6000fd5b505050506040513d601f19601f82011682018060405250810190610b2f9190613cef565b9092509050610b40848387896123ed565b50610605838287896123ed565b505050505050565b6000546001600160a01b03163314610baf5760405162461bcd60e51b815260206004820181905260248201527f4f776e61626c653a2063616c6c6572206973206e6f7420746865206f776e657260448201526064016103d0565b600080546040516001600160a01b03909116907f8be0079c531659141344cd1fd0a4f28419497f9722a3daafe3b4186f6b6457e0908390a36000805473ffffffffffffffffffffffffffffffffffffffff19169055565b610c1b6001600160a01b0385163330866117b5565b6000849050610c8b816001600160a01b0316630dfe16816040518163ffffffff1660e01b8152600401602060405180830381865afa158015610c61573d6000803e3d6000fd5b505050506040513d601f19601f82011682018060405250810190610c859190613cd2565b8461183b565b610ccc816001600160a01b031663d21220a76040518163ffffffff1660e01b8152600401602060405180830381865afa158015610c61573d6000803e3d6000fd5b610ce06001600160a01b0386168686612164565b6040517f89afcb4400000000000000000000000000000000000000000000000000000000815230600482015260009081906001600160a01b038416906389afcb449060240160408051808303816000875af1158015610d43573d6000803e3d6000fd5b505050506040513d601f19601f82011682018060405250810190610d679190613cef565b8092508193505050846001600160a01b031663e8e33700846001600160a01b0316630dfe16816040518163ffffffff1660e01b8152600401602060405180830381865afa158015610dbc573d6000803e3d6000fd5b505050506040513d601f19601f82011682018060405250810190610de09190613cd2565b856001600160a01b031663d21220a76040518163ffffffff1660e01b8152600401602060405180830381865afa158015610e1e573d6000803e3d6000fd5b505050506040513d601f19601f82011682018060405250810190610e429190613cd2565b6040516001600160e01b031960e085901b1681526001600160a01b0392831660048201529082166024820152604481018690526064810185905260006084820181905260a482015290871660c48201524260e4820152610104016060604051808303816000875af1158015610ebb573d6000803e3d6000fd5b505050506040513d601f19601f82011682018060405250810190610edf9190613d4e565b50505050505050505050565b6000546001600160a01b03163314610f455760405162461bcd60e51b815260206004820181905260248201527f4f776e61626c653a2063616c6c6572206973206e6f7420746865206f776e657260448201526064016103d0565b6001600160a01b03166000908152600460205260409020805460ff19166001179055565b610f7e6001600160a01b0385163330866117b5565b610f88848361183b565b610f94848483856123ed565b5050505050565b600080846001600160a01b0316630dfe16816040518163ffffffff1660e01b8152600401602060405180830381865afa158015610fdc573d6000803e3d6000fd5b505050506040513d601f19601f820116820180604052508101906110009190613cd2565b6001600160a01b0316866001600160a01b031614806110915750846001600160a01b031663d21220a76040518163ffffffff1660e01b8152600401602060405180830381865afa158015611058573d6000803e3d6000fd5b505050506040513d601f19601f8201168201806040525081019061107c9190613cd2565b6001600160a01b0316866001600160a01b0316145b1561128d576000856001600160a01b0316630dfe16816040518163ffffffff1660e01b8152600401602060405180830381865afa1580156110d6573d6000803e3d6000fd5b505050506040513d601f19601f820116820180604052508101906110fa9190613cd2565b6001600160a01b0316876001600160a01b03161461117957856001600160a01b0316630dfe16816040518163ffffffff1660e01b8152600401602060405180830381865afa158015611150573d6000803e3d6000fd5b505050506040513d601f19601f820116820180604052508101906111749190613cd2565b6111db565b856001600160a01b031663d21220a76040518163ffffffff1660e01b8152600401602060405180830381865afa1580156111b7573d6000803e3d6000fd5b505050506040513d601f19601f820116820180604052508101906111db9190613cd2565b905060006111ea856002612823565b905060006111fa8983858a61282f565b9050876001600160a01b0316630dfe16816040518163ffffffff1660e01b8152600401602060405180830381865afa15801561123a573d6000803e3d6000fd5b505050506040513d601f19601f8201168201806040525081019061125e9190613cd2565b6001600160a01b0316896001600160a01b0316036112825790935091506114f79050565b935091506114f79050565b6001546000906001600160a01b038881169116146112c4576001546112bf90889086906001600160a01b03168861282f565b6112c6565b835b9050856001600160a01b0316630dfe16816040518163ffffffff1660e01b8152600401602060405180830381865afa158015611306573d6000803e3d6000fd5b505050506040513d601f19601f8201168201806040525081019061132a9190613cd2565b6001546001600160a01b039182169116036113d75761134a816002612823565b6001546113cd906001600160a01b0316611365846002612823565b896001600160a01b031663d21220a76040518163ffffffff1660e01b8152600401602060405180830381865afa1580156113a3573d6000803e3d6000fd5b505050506040513d601f19601f820116820180604052508101906113c79190613cd2565b8961282f565b92509250506114f7565b856001600160a01b031663d21220a76040518163ffffffff1660e01b8152600401602060405180830381865afa158015611415573d6000803e3d6000fd5b505050506040513d601f19601f820116820180604052508101906114399190613cd2565b6001546001600160a01b039182169116036114dc576001546114d1906001600160a01b0316611469836002612823565b886001600160a01b0316630dfe16816040518163ffffffff1660e01b8152600401602060405180830381865afa1580156114a7573d6000803e3d6000fd5b505050506040513d601f19601f820116820180604052508101906114cb9190613cd2565b8861282f565b6113cd826002612823565b60015461134a906001600160a01b0316611469836002612823565b94509492505050565b6115156001600160a01b0386163330876117b5565b61151f858361183b565b610b4d85858584866118c8565b611536858361183b565b6001600160a01b03851660009081526003602052604090205460ff161561164b576040516323b872dd60e01b8152336004820152306024820152604481018590526001600160a01b038616906323b872dd906064016020604051808303816000875af11580156115aa573d6000803e3d6000fd5b505050506040513d601f19601f820116820180604052508101906115ce9190613d2c565b506040516370a0823160e01b81523060048201526116459086906001600160a01b038216906370a0823190602401602060405180830381865afa158015611619573d6000803e3d6000fd5b505050506040513d601f19601f8201168201806040525081019061163d9190613d13565b858486612f96565b50610f94565b6116606001600160a01b0386163330876117b5565b61166a858361183b565b6116458585858486612f96565b6000546001600160a01b031633146116d15760405162461bcd60e51b815260206004820181905260248201527f4f776e61626c653a2063616c6c6572206973206e6f7420746865206f776e657260448201526064016103d0565b6001600160a01b03811661174d5760405162461bcd60e51b815260206004820152602660248201527f4f776e61626c653a206e6577206f776e657220697320746865207a65726f206160448201527f646472657373000000000000000000000000000000000000000000000000000060648201526084016103d0565b600080546040516001600160a01b03808516939216917f8be0079c531659141344cd1fd0a4f28419497f9722a3daafe3b4186f6b6457e091a36000805473ffffffffffffffffffffffffffffffffffffffff19166001600160a01b0392909216919091179055565b6040516001600160a01b03808516602483015283166044820152606481018290526118359085906323b872dd60e01b906084015b60408051601f198184030181529190526020810180517bffffffffffffffffffffffffffffffffffffffffffffffffffffffff166001600160e01b0319909316929092179091526132eb565b50505050565b604051636eb1769f60e11b81523060048201526001600160a01b03828116602483015283169063dd62ed3e90604401602060405180830381865afa158015611887573d6000803e3d6000fd5b505050506040513d601f19601f820116820180604052508101906118ab9190613d13565b6000036106d4576106d46001600160a01b038316826000196133d0565b6001600160a01b0380861660009081526002602081815260408084208587168086529083528185205489871686529383528185209085529091528220549192849291811691166060821580159061192757506001600160a01b03821615155b15611b0957816001600160a01b0316836001600160a01b031614611a6c5760408051600580825260c08201909252906020820160a080368337019050509050898160008151811061197a5761197a613d92565b60200260200101906001600160a01b031690816001600160a01b03168152505082816001815181106119ae576119ae613d92565b6001600160a01b0392831660209182029290920101526001548251911690829060029081106119df576119df613d92565b60200260200101906001600160a01b031690816001600160a01b0316815250508181600381518110611a1357611a13613d92565b60200260200101906001600160a01b031690816001600160a01b0316815250508781600481518110611a4757611a47613d92565b60200260200101906001600160a01b031690816001600160a01b031681525050611f68565b6040805160038082526080820190925290602082016060803683370190505090508981600081518110611aa157611aa1613d92565b60200260200101906001600160a01b031690816001600160a01b0316815250508281600181518110611ad557611ad5613d92565b60200260200101906001600160a01b031690816001600160a01b0316815250508781600281518110611a4757611a47613d92565b6001600160a01b03831615611d2657876001600160a01b0316836001600160a01b031603611ba85760025b604051908082528060200260200182016040528015611b5d578160200160208202803683370190505b5090508981600081518110611b7457611b74613d92565b60200260200101906001600160a01b031690816001600160a01b0316815250508781600181518110611a4757611a47613d92565b6001546001600160a01b0390811690891603611c58576040805160038082526080820190925290602082016060803683370190505090508981600081518110611bf357611bf3613d92565b60200260200101906001600160a01b031690816001600160a01b0316815250508281600181518110611c2757611c27613d92565b6001600160a01b039283166020918202929092010152600154825191169082906002908110611a4757611a47613d92565b60408051600480825260a0820190925290602082016080803683370190505090508981600081518110611c8d57611c8d613d92565b60200260200101906001600160a01b031690816001600160a01b0316815250508281600181518110611cc157611cc1613d92565b6001600160a01b039283166020918202929092010152600154825191169082906002908110611cf257611cf2613d92565b60200260200101906001600160a01b031690816001600160a01b0316815250508781600381518110611a4757611a47613d92565b6001600160a01b03821615611e7957816001600160a01b03168a6001600160a01b031603611d55576002611b34565b6001546001600160a01b03908116908b1603611de057604080516003808252608082019092529060208201606080368337505060015482519293506001600160a01b031691839150600090611dac57611dac613d92565b60200260200101906001600160a01b031690816001600160a01b0316815250508181600181518110611ad557611ad5613d92565b60408051600480825260a0820190925290602082016080803683370190505090508981600081518110611e1557611e15613d92565b6001600160a01b0392831660209182029290920101526001805483519216918391908110611e4557611e45613d92565b60200260200101906001600160a01b031690816001600160a01b0316815250508181600281518110611cf257611cf2613d92565b6001546001600160a01b038b811691161480611ea257506001546001600160a01b038981169116145b15611eae576002611b34565b6040805160038082526080820190925290602082016060803683370190505090508981600081518110611ee357611ee3613d92565b6001600160a01b0392831660209182029290920101526001805483519216918391908110611f1357611f13613d92565b60200260200101906001600160a01b031690816001600160a01b0316815250508781600281518110611f4757611f47613d92565b60200260200101906001600160a01b031690816001600160a01b0316815250505b6001600160a01b038a1660009081526003602052604090205460609060ff1615612080576040517f5c11d7950000000000000000000000000000000000000000000000000000000081526001600160a01b03861690635c11d79590611fda908d9060009087908e904290600401613dec565b600060405180830381600087803b158015611ff457600080fd5b505af1158015612008573d6000803e3d6000fd5b50506040516370a0823160e01b81523060048201526001600160a01b038c1692506370a082319150602401602060405180830381865afa158015612050573d6000803e3d6000fd5b505050506040513d601f19601f820116820180604052508101906120749190613d13565b95505050505050612146565b6040517f38ed17390000000000000000000000000000000000000000000000000000000081526001600160a01b038616906338ed1739906120ce908d9060009087908e904290600401613dec565b6000604051808303816000875af11580156120ed573d6000803e3d6000fd5b505050506040513d6000823e601f3d908101601f191682016040526121159190810190613e28565b905080600182516121269190613efc565b8151811061213657612136613d92565b6020026020010151955050505050505b95945050505050565b600061215b8284613f0f565b90505b92915050565b6040516001600160a01b03831660248201526044810182905261062d9084907fa9059cbb00000000000000000000000000000000000000000000000000000000906064016117e9565b6000808590506000816001600160a01b0316630dfe16816040518163ffffffff1660e01b8152600401602060405180830381865afa1580156121f3573d6000803e3d6000fd5b505050506040513d601f19601f820116820180604052508101906122179190613cd2565b90506000826001600160a01b031663d21220a76040518163ffffffff1660e01b8152600401602060405180830381865afa158015612259573d6000803e3d6000fd5b505050506040513d601f19601f8201168201806040525081019061227d9190613cd2565b6001549091506000906001600160a01b03848116911614806122ac57506001546001600160a01b038381169116145b156122ea576001546000906001600160a01b038581169116146122cf57836122d1565b825b90506122df818a898b613505565b93506122fc92505050565b6122f783838a898b61362a565b925050505b93505050505b949350505050565b604080516000808252602082019092526001600160a01b0384169083906040516123349190613f46565b60006040518083038185875af1925050503d8060008114612371576040519150601f19603f3d011682016040523d82523d6000602084013e612376565b606091505b505090508061062d5760405162461bcd60e51b815260206004820152602360248201527f5472616e7366657248656c7065723a204554485f5452414e534645525f46414960448201527f4c4544000000000000000000000000000000000000000000000000000000000060648201526084016103d0565b6001600160a01b038481166000908152600260209081526040808320848616845290915281205490916060918491161561255d57604080516003808252608082019092529060208201606080368337019050509150868260008151811061245657612456613d92565b6001600160a01b039283166020918202929092018101919091528882166000908152600282526040808220888516835290925220548351911690839060019081106124a3576124a3613d92565b60200260200101906001600160a01b031690816001600160a01b031681525050806001600160a01b031663ad5c46486040518163ffffffff1660e01b8152600401602060405180830381865afa158015612501573d6000803e3d6000fd5b505050506040513d601f19601f820116820180604052508101906125259190613cd2565b8260028151811061253857612538613d92565b60200260200101906001600160a01b031690816001600160a01b031681525050612647565b6040805160028082526060820183529091602083019080368337019050509150868260008151811061259157612591613d92565b60200260200101906001600160a01b031690816001600160a01b031681525050806001600160a01b031663ad5c46486040518163ffffffff1660e01b8152600401602060405180830381865afa1580156125ef573d6000803e3d6000fd5b505050506040513d601f19601f820116820180604052508101906126139190613cd2565b8260018151811061262657612626613d92565b60200260200101906001600160a01b031690816001600160a01b0316815250505b6001600160a01b03871660009081526003602052604090205460ff1615612759576040517f791ac9470000000000000000000000000000000000000000000000000000000081526001600160a01b0382169063791ac947906126b690899060009087908b904290600401613dec565b600060405180830381600087803b1580156126d057600080fd5b505af11580156126e4573d6000803e3d6000fd5b50506040516370a0823160e01b81523060048201526001600160a01b038a1692506370a082319150602401602060405180830381865afa15801561272c573d6000803e3d6000fd5b505050506040513d601f19601f820116820180604052508101906127509190613d13565b92505050612302565b6040517f18cbafe50000000000000000000000000000000000000000000000000000000081526000906001600160a01b038316906318cbafe5906127a9908a90859088908c904290600401613dec565b6000604051808303816000875af11580156127c8573d6000803e3d6000fd5b505050506040513d6000823e601f3d908101601f191682016040526127f09190810190613e28565b905080600182516128019190613efc565b8151811061281157612811613d92565b60200260200101519350505050612302565b600061215b8284613f62565b6001600160a01b0380851660009081526002602081815260408084208587168086529083528185205488871686529383528185209085529091528220549192849291811691166060821580159061288e57506001600160a01b03821615155b15612a7057816001600160a01b0316836001600160a01b0316146129d35760408051600580825260c08201909252906020820160a08036833701905050905088816000815181106128e1576128e1613d92565b60200260200101906001600160a01b031690816001600160a01b031681525050828160018151811061291557612915613d92565b6001600160a01b03928316602091820292909201015260015482519116908290600290811061294657612946613d92565b60200260200101906001600160a01b031690816001600160a01b031681525050818160038151811061297a5761297a613d92565b60200260200101906001600160a01b031690816001600160a01b03168152505086816004815181106129ae576129ae613d92565b60200260200101906001600160a01b031690816001600160a01b031681525050612ecf565b6040805160038082526080820190925290602082016060803683370190505090508881600081518110612a0857612a08613d92565b60200260200101906001600160a01b031690816001600160a01b0316815250508281600181518110612a3c57612a3c613d92565b60200260200101906001600160a01b031690816001600160a01b03168152505086816002815181106129ae576129ae613d92565b6001600160a01b03831615612c8d57866001600160a01b0316836001600160a01b031603612b0f5760025b604051908082528060200260200182016040528015612ac4578160200160208202803683370190505b5090508881600081518110612adb57612adb613d92565b60200260200101906001600160a01b031690816001600160a01b03168152505086816001815181106129ae576129ae613d92565b6001546001600160a01b0390811690881603612bbf576040805160038082526080820190925290602082016060803683370190505090508881600081518110612b5a57612b5a613d92565b60200260200101906001600160a01b031690816001600160a01b0316815250508281600181518110612b8e57612b8e613d92565b6001600160a01b0392831660209182029290920101526001548251911690829060029081106129ae576129ae613d92565b60408051600480825260a0820190925290602082016080803683370190505090508881600081518110612bf457612bf4613d92565b60200260200101906001600160a01b031690816001600160a01b0316815250508281600181518110612c2857612c28613d92565b6001600160a01b039283166020918202929092010152600154825191169082906002908110612c5957612c59613d92565b60200260200101906001600160a01b031690816001600160a01b03168152505086816003815181106129ae576129ae613d92565b6001600160a01b03821615612de057816001600160a01b0316896001600160a01b031603612cbc576002612a9b565b6001546001600160a01b03908116908a1603612d4757604080516003808252608082019092529060208201606080368337505060015482519293506001600160a01b031691839150600090612d1357612d13613d92565b60200260200101906001600160a01b031690816001600160a01b0316815250508181600181518110612a3c57612a3c613d92565b60408051600480825260a0820190925290602082016080803683370190505090508881600081518110612d7c57612d7c613d92565b6001600160a01b0392831660209182029290920101526001805483519216918391908110612dac57612dac613d92565b60200260200101906001600160a01b031690816001600160a01b0316815250508181600281518110612c5957612c59613d92565b6001546001600160a01b038a811691161480612e0957506001546001600160a01b038881169116145b15612e15576002612a9b565b6040805160038082526080820190925290602082016060803683370190505090508881600081518110612e4a57612e4a613d92565b6001600160a01b0392831660209182029290920101526001805483519216918391908110612e7a57612e7a613d92565b60200260200101906001600160a01b031690816001600160a01b0316815250508681600281518110612eae57612eae613d92565b60200260200101906001600160a01b031690816001600160a01b0316815250505b6040517fd06ca61f0000000000000000000000000000000000000000000000000000000081526000906001600160a01b0386169063d06ca61f90612f19908c908690600401613f84565b600060405180830381865afa158015612f36573d6000803e3d6000fd5b505050506040513d6000823e601f3d908101601f19168201604052612f5e9190810190613e28565b90508060018251612f6f9190613efc565b81518110612f7f57612f7f613d92565b602002602001015195505050505050949350505050565b6000836001600160a01b0316630dfe16816040518163ffffffff1660e01b8152600401602060405180830381865afa158015612fd6573d6000803e3d6000fd5b505050506040513d601f19601f82011682018060405250810190612ffa9190613cd2565b6001600160a01b0316866001600160a01b0316148061308b5750836001600160a01b031663d21220a76040518163ffffffff1660e01b8152600401602060405180830381865afa158015613052573d6000803e3d6000fd5b505050506040513d601f19601f820116820180604052508101906130769190613cd2565b6001600160a01b0316866001600160a01b0316145b156132c7576000846001600160a01b0316630dfe16816040518163ffffffff1660e01b8152600401602060405180830381865afa1580156130d0573d6000803e3d6000fd5b505050506040513d601f19601f820116820180604052508101906130f49190613cd2565b6001600160a01b0316876001600160a01b03161461317357846001600160a01b0316630dfe16816040518163ffffffff1660e01b8152600401602060405180830381865afa15801561314a573d6000803e3d6000fd5b505050506040513d601f19601f8201168201806040525081019061316e9190613cd2565b6131d5565b846001600160a01b031663d21220a76040518163ffffffff1660e01b8152600401602060405180830381865afa1580156131b1573d6000803e3d6000fd5b505050506040513d601f19601f820116820180604052508101906131d59190613cd2565b90506131e1818461183b565b60006131ee876002612823565b905060006131ff89838530896118c8565b905060006001600160a01b03861663e8e337008b8661321e8d88613749565b6040516001600160e01b031960e086901b1681526001600160a01b039384166004820152918316602483015260448201526064810186905260006084820181905260a4820152908a1660c48201524260e4820152610104016060604051808303816000875af1158015613295573d6000803e3d6000fd5b505050506040513d601f19601f820116820180604052508101906132b99190613d4e565b965061214695505050505050565b60006132d5878730866123ed565b90506132e3858286866121ad565b915050612146565b6000613340826040518060400160405280602081526020017f5361666545524332303a206c6f772d6c6576656c2063616c6c206661696c6564815250856001600160a01b03166137559092919063ffffffff16565b80519091501561062d578080602001905181019061335e9190613d2c565b61062d5760405162461bcd60e51b815260206004820152602a60248201527f5361666545524332303a204552433230206f7065726174696f6e20646964206e60448201527f6f7420737563636565640000000000000000000000000000000000000000000060648201526084016103d0565b80158061344a5750604051636eb1769f60e11b81523060048201526001600160a01b03838116602483015284169063dd62ed3e90604401602060405180830381865afa158015613424573d6000803e3d6000fd5b505050506040513d601f19601f820116820180604052508101906134489190613d13565b155b6134bc5760405162461bcd60e51b815260206004820152603660248201527f5361666545524332303a20617070726f76652066726f6d206e6f6e2d7a65726f60448201527f20746f206e6f6e2d7a65726f20616c6c6f77616e63650000000000000000000060648201526084016103d0565b6040516001600160a01b03831660248201526044810182905261062d9084907f095ea7b300000000000000000000000000000000000000000000000000000000906064016117e9565b6000808080613515876002612823565b905060006135258983308a61376e565b9050613531898861183b565b6001600160a01b03871660009081526004602052604090205460ff161561360657866001600160a01b03811663d427d12c61356c8b86613749565b6040516001600160e01b031960e084901b1681526001600160a01b03808f1660048301526024820187905260006044830181905260648301528b1660848201524260a482015260c40160606040518083038185885af11580156135d3573d6000803e3d6000fd5b50505050506040513d601f19601f820116820180604052508101906135f89190613d4e565b955095509550505050613620565b866001600160a01b03811663f305d71961356c8b86613749565b9450945094915050565b600080808061363a876002612823565b9050600061364a8a83308a61376e565b905060006136638a61365c8b86613749565b308b61376e565b905061366f8b8961183b565b6136798a8961183b565b6040517fe8e337000000000000000000000000000000000000000000000000000000000081526001600160a01b038c811660048301528b81166024830152604482018490526064820183905260006084830181905260a483015288811660c48301524260e483015289919082169063e8e3370090610104016060604051808303816000875af1158015613710573d6000803e3d6000fd5b505050506040513d601f19601f820116820180604052508101906137349190613d4e565b96509650965050505050955095509592505050565b600061215b8284613efc565b606061376484846000856139d1565b90505b9392505050565b6001600160a01b038481166000908152600260209081526040808320848616845290915281205490916060918491161561388957604080516003808252608082019092529060208201606080368337505060015482519294506001600160a01b0316918491506000906137e3576137e3613d92565b6001600160a01b0392831660209182029290920181019190915288821660009081526002825260408082208885168352909252205483519116908390600190811061383057613830613d92565b60200260200101906001600160a01b031690816001600160a01b031681525050868260028151811061386457613864613d92565b60200260200101906001600160a01b031690816001600160a01b03168152505061391e565b6040805160028082526060820183529091602083019080368337505060015482519294506001600160a01b0316918491506000906138c9576138c9613d92565b60200260200101906001600160a01b031690816001600160a01b03168152505086826001815181106138fd576138fd613d92565b60200260200101906001600160a01b031690816001600160a01b0316815250505b6000816001600160a01b0316637ff36ab5886000868a426040518663ffffffff1660e01b81526004016139549493929190613f9d565b60006040518083038185885af1158015613972573d6000803e3d6000fd5b50505050506040513d6000823e601f3d908101601f1916820160405261399b9190810190613e28565b905080600182516139ac9190613efc565b815181106139bc576139bc613d92565b60200260200101519350505050949350505050565b606082471015613a495760405162461bcd60e51b815260206004820152602660248201527f416464726573733a20696e73756666696369656e742062616c616e636520666f60448201527f722063616c6c000000000000000000000000000000000000000000000000000060648201526084016103d0565b843b613a975760405162461bcd60e51b815260206004820152601d60248201527f416464726573733a2063616c6c20746f206e6f6e2d636f6e747261637400000060448201526064016103d0565b600080866001600160a01b03168587604051613ab39190613f46565b60006040518083038185875af1925050503d8060008114613af0576040519150601f19603f3d011682016040523d82523d6000602084013e613af5565b606091505b5091509150613b05828286613b10565b979650505050505050565b60608315613b1f575081613767565b825115613b2f5782518084602001fd5b8160405162461bcd60e51b81526004016103d09190613fd2565b6001600160a01b03811681146107d057600080fd5b600060208284031215613b7057600080fd5b813561376781613b49565b600080600080600060a08688031215613b9357600080fd5b8535613b9e81613b49565b9450602086013593506040860135613bb581613b49565b92506060860135613bc581613b49565b91506080860135613bd581613b49565b809150509295509295909350565b600080600060608486031215613bf857600080fd5b8335613c0381613b49565b92506020840135613c1381613b49565b91506040840135613c2381613b49565b809150509250925092565b60008060008060808587031215613c4457600080fd5b8435613c4f81613b49565b9350602085013592506040850135613c6681613b49565b91506060850135613c7681613b49565b939692955090935050565b60008060008060808587031215613c9757600080fd5b8435613ca281613b49565b93506020850135613cb281613b49565b92506040850135613cc281613b49565b9396929550929360600135925050565b600060208284031215613ce457600080fd5b815161376781613b49565b60008060408385031215613d0257600080fd5b505080516020909101519092909150565b600060208284031215613d2557600080fd5b5051919050565b600060208284031215613d3e57600080fd5b8151801515811461376757600080fd5b600080600060608486031215613d6357600080fd5b8351925060208401519150604084015190509250925092565b634e487b7160e01b600052604160045260246000fd5b634e487b7160e01b600052603260045260246000fd5b600081518084526020808501945080840160005b83811015613de15781516001600160a01b031687529582019590820190600101613dbc565b509495945050505050565b85815284602082015260a060408201526000613e0b60a0830186613da8565b6001600160a01b0394909416606083015250608001529392505050565b60006020808385031215613e3b57600080fd5b825167ffffffffffffffff80821115613e5357600080fd5b818501915085601f830112613e6757600080fd5b815181811115613e7957613e79613d7c565b8060051b604051601f19603f83011681018181108582111715613e9e57613e9e613d7c565b604052918252848201925083810185019188831115613ebc57600080fd5b938501935b82851015613eda57845184529385019392850192613ec1565b98975050505050505050565b634e487b7160e01b600052601160045260246000fd5b8181038181111561215e5761215e613ee6565b8082018082111561215e5761215e613ee6565b60005b83811015613f3d578181015183820152602001613f25565b50506000910152565b60008251613f58818460208701613f22565b9190910192915050565b600082613f7f57634e487b7160e01b600052601260045260246000fd5b500490565b8281526040602082015260006137646040830184613da8565b848152608060208201526000613fb66080830186613da8565b6001600160a01b03949094166040830152506060015292915050565b6020815260008251806020840152613ff1816040850160208701613f22565b601f01601f1916919091016040019291505056fea2646970667358221220057a2040832e00ee6eb37268908a286f8c6f6995f96463fcf029312be36b551a64736f6c63430008110033",
  "devdoc": {
    "kind": "dev",
    "methods": {
      "owner()": {
        "details": "Returns the address of the current owner."
      },
      "renounceOwnership()": {
        "details": "Leaves the contract without owner. It will not be possible to call `onlyOwner` functions anymore. Can only be called by the current owner. NOTE: Renouncing ownership will leave the contract without an owner, thereby removing any functionality that is only available to the owner."
      },
      "transferOwnership(address)": {
        "details": "Transfers ownership of the contract to a new account (`newOwner`). Can only be called by the current owner."
      }
    },
    "version": 1
  },
  "userdoc": {
    "kind": "user",
    "methods": {},
    "version": 1
  },
  "storageLayout": {
    "storage": [
      {
        "astId": 5869,
        "contract": "contracts/Zap.sol:Zap",
        "label": "_owner",
        "offset": 0,
        "slot": "0",
        "type": "t_address"
      },
      {
        "astId": 6081,
        "contract": "contracts/Zap.sol:Zap",
        "label": "WNATIVE",
        "offset": 0,
        "slot": "1",
        "type": "t_address"
      },
      {
        "astId": 6087,
        "contract": "contracts/Zap.sol:Zap",
        "label": "tokenBridgeForRouter",
        "offset": 0,
        "slot": "2",
        "type": "t_mapping(t_address,t_mapping(t_address,t_address))"
      },
      {
        "astId": 6091,
        "contract": "contracts/Zap.sol:Zap",
        "label": "isFeeOnTransfer",
        "offset": 0,
        "slot": "3",
        "type": "t_mapping(t_address,t_bool)"
      },
      {
        "astId": 6095,
        "contract": "contracts/Zap.sol:Zap",
        "label": "useNativeRouter",
        "offset": 0,
        "slot": "4",
        "type": "t_mapping(t_address,t_bool)"
      }
    ],
    "types": {
      "t_address": {
        "encoding": "inplace",
        "label": "address",
        "numberOfBytes": "20"
      },
      "t_bool": {
        "encoding": "inplace",
        "label": "bool",
        "numberOfBytes": "1"
      },
      "t_mapping(t_address,t_address)": {
        "encoding": "mapping",
        "key": "t_address",
        "label": "mapping(address => address)",
        "numberOfBytes": "32",
        "value": "t_address"
      },
      "t_mapping(t_address,t_bool)": {
        "encoding": "mapping",
        "key": "t_address",
        "label": "mapping(address => bool)",
        "numberOfBytes": "32",
        "value": "t_bool"
      },
      "t_mapping(t_address,t_mapping(t_address,t_address))": {
        "encoding": "mapping",
        "key": "t_address",
        "label": "mapping(address => mapping(address => address))",
        "numberOfBytes": "32",
        "value": "t_mapping(t_address,t_address)"
      }
    }
  }
}