{
  "address": "0xF2BD9cd75dEeA1A29964f83FB7134c35c28a7ce6",
  "abi": [
    {
      "anonymous": false,
      "inputs": [
        {
          "indexed": true,
          "internalType": "address",
          "name": "executor",
          "type": "address"
        },
        {
          "indexed": false,
          "internalType": "uint256",
          "name": "at",
          "type": "uint256"
        }
      ],
      "name": "Initialized",
      "type": "event"
    },
    {
      "anonymous": false,
      "inputs": [
        {
          "indexed": true,
          "internalType": "address",
          "name": "user",
          "type": "address"
        },
        {
          "indexed": false,
          "internalType": "uint256",
          "name": "reward",
          "type": "uint256"
        }
      ],
      "name": "RewardAdded",
      "type": "event"
    },
    {
      "anonymous": false,
      "inputs": [
        {
          "indexed": true,
          "internalType": "address",
          "name": "user",
          "type": "address"
        },
        {
          "indexed": false,
          "internalType": "uint256",
          "name": "reward",
          "type": "uint256"
        }
      ],
      "name": "RewardPaid",
      "type": "event"
    },
    {
      "anonymous": false,
      "inputs": [
        {
          "indexed": true,
          "internalType": "address",
          "name": "token",
          "type": "address"
        },
        {
          "indexed": true,
          "internalType": "address",
          "name": "user",
          "type": "address"
        },
        {
          "indexed": false,
          "internalType": "uint256",
          "name": "reward",
          "type": "uint256"
        }
      ],
      "name": "RewardSacrificed",
      "type": "event"
    },
    {
      "anonymous": false,
      "inputs": [
        {
          "indexed": true,
          "internalType": "address",
          "name": "user",
          "type": "address"
        },
        {
          "indexed": false,
          "internalType": "uint256",
          "name": "amount",
          "type": "uint256"
        }
      ],
      "name": "Staked",
      "type": "event"
    },
    {
      "anonymous": false,
      "inputs": [
        {
          "indexed": true,
          "internalType": "address",
          "name": "user",
          "type": "address"
        },
        {
          "indexed": false,
          "internalType": "uint256",
          "name": "amount",
          "type": "uint256"
        }
      ],
      "name": "Withdrawn",
      "type": "event"
    },
    {
      "inputs": [
        {
          "internalType": "uint256",
          "name": "amount",
          "type": "uint256"
        }
      ],
      "name": "allocateSeigniorage",
      "outputs": [],
      "stateMutability": "nonpayable",
      "type": "function"
    },
    {
      "inputs": [
        {
          "internalType": "address",
          "name": "account",
          "type": "address"
        }
      ],
      "name": "balanceOf",
      "outputs": [
        {
          "internalType": "uint256",
          "name": "",
          "type": "uint256"
        }
      ],
      "stateMutability": "view",
      "type": "function"
    },
    {
      "inputs": [
        {
          "internalType": "uint256",
          "name": "",
          "type": "uint256"
        }
      ],
      "name": "boardroomHistory",
      "outputs": [
        {
          "internalType": "uint256",
          "name": "time",
          "type": "uint256"
        },
        {
          "internalType": "uint256",
          "name": "rewardReceived",
          "type": "uint256"
        },
        {
          "internalType": "uint256",
          "name": "rewardPerShare",
          "type": "uint256"
        }
      ],
      "stateMutability": "view",
      "type": "function"
    },
    {
      "inputs": [
        {
          "internalType": "address",
          "name": "member",
          "type": "address"
        }
      ],
      "name": "canClaimReward",
      "outputs": [
        {
          "internalType": "bool",
          "name": "",
          "type": "bool"
        }
      ],
      "stateMutability": "view",
      "type": "function"
    },
    {
      "inputs": [
        {
          "internalType": "address",
          "name": "member",
          "type": "address"
        }
      ],
      "name": "canWithdraw",
      "outputs": [
        {
          "internalType": "bool",
          "name": "",
          "type": "bool"
        }
      ],
      "stateMutability": "view",
      "type": "function"
    },
    {
      "inputs": [],
      "name": "claimReward",
      "outputs": [],
      "stateMutability": "nonpayable",
      "type": "function"
    },
    {
      "inputs": [
        {
          "internalType": "address",
          "name": "member",
          "type": "address"
        }
      ],
      "name": "earned",
      "outputs": [
        {
          "internalType": "uint256",
          "name": "",
          "type": "uint256"
        }
      ],
      "stateMutability": "view",
      "type": "function"
    },
    {
      "inputs": [],
      "name": "epoch",
      "outputs": [
        {
          "internalType": "uint256",
          "name": "",
          "type": "uint256"
        }
      ],
      "stateMutability": "view",
      "type": "function"
    },
    {
      "inputs": [],
      "name": "exit",
      "outputs": [],
      "stateMutability": "nonpayable",
      "type": "function"
    },
    {
      "inputs": [
        {
          "internalType": "address",
          "name": "member",
          "type": "address"
        }
      ],
      "name": "getLastSnapshotIndexOf",
      "outputs": [
        {
          "internalType": "uint256",
          "name": "",
          "type": "uint256"
        }
      ],
      "stateMutability": "view",
      "type": "function"
    },
    {
      "inputs": [],
      "name": "getSnowPrice",
      "outputs": [
        {
          "internalType": "uint256",
          "name": "",
          "type": "uint256"
        }
      ],
      "stateMutability": "view",
      "type": "function"
    },
    {
      "inputs": [
        {
          "internalType": "address",
          "name": "_token",
          "type": "address"
        },
        {
          "internalType": "uint256",
          "name": "_amount",
          "type": "uint256"
        },
        {
          "internalType": "address",
          "name": "_to",
          "type": "address"
        }
      ],
      "name": "governanceRecoverUnsupported",
      "outputs": [],
      "stateMutability": "nonpayable",
      "type": "function"
    },
    {
      "inputs": [
        {
          "internalType": "contract IERC20",
          "name": "_snow",
          "type": "address"
        },
        {
          "internalType": "contract IERC20",
          "name": "_share",
          "type": "address"
        },
        {
          "internalType": "contract ITreasury",
          "name": "_treasury",
          "type": "address"
        }
      ],
      "name": "initialize",
      "outputs": [],
      "stateMutability": "nonpayable",
      "type": "function"
    },
    {
      "inputs": [],
      "name": "initialized",
      "outputs": [
        {
          "internalType": "bool",
          "name": "",
          "type": "bool"
        }
      ],
      "stateMutability": "view",
      "type": "function"
    },
    {
      "inputs": [],
      "name": "latestSnapshotIndex",
      "outputs": [
        {
          "internalType": "uint256",
          "name": "",
          "type": "uint256"
        }
      ],
      "stateMutability": "view",
      "type": "function"
    },
    {
      "inputs": [
        {
          "internalType": "address",
          "name": "",
          "type": "address"
        }
      ],
      "name": "members",
      "outputs": [
        {
          "internalType": "uint256",
          "name": "lastSnapshotIndex",
          "type": "uint256"
        },
        {
          "internalType": "uint256",
          "name": "rewardEarned",
          "type": "uint256"
        },
        {
          "internalType": "uint256",
          "name": "epochTimerStart",
          "type": "uint256"
        }
      ],
      "stateMutability": "view",
      "type": "function"
    },
    {
      "inputs": [],
      "name": "nextEpochPoint",
      "outputs": [
        {
          "internalType": "uint256",
          "name": "",
          "type": "uint256"
        }
      ],
      "stateMutability": "view",
      "type": "function"
    },
    {
      "inputs": [],
      "name": "operator",
      "outputs": [
        {
          "internalType": "address",
          "name": "",
          "type": "address"
        }
      ],
      "stateMutability": "view",
      "type": "function"
    },
    {
      "inputs": [],
      "name": "rewardLockupEpochs",
      "outputs": [
        {
          "internalType": "uint256",
          "name": "",
          "type": "uint256"
        }
      ],
      "stateMutability": "view",
      "type": "function"
    },
    {
      "inputs": [],
      "name": "rewardPerShare",
      "outputs": [
        {
          "internalType": "uint256",
          "name": "",
          "type": "uint256"
        }
      ],
      "stateMutability": "view",
      "type": "function"
    },
    {
      "inputs": [
        {
          "internalType": "uint256",
          "name": "_withdrawLockupEpochs",
          "type": "uint256"
        },
        {
          "internalType": "uint256",
          "name": "_rewardLockupEpochs",
          "type": "uint256"
        }
      ],
      "name": "setLockUp",
      "outputs": [],
      "stateMutability": "nonpayable",
      "type": "function"
    },
    {
      "inputs": [
        {
          "internalType": "address",
          "name": "_operator",
          "type": "address"
        }
      ],
      "name": "setOperator",
      "outputs": [],
      "stateMutability": "nonpayable",
      "type": "function"
    },
    {
      "inputs": [],
      "name": "share",
      "outputs": [
        {
          "internalType": "contract IERC20",
          "name": "",
          "type": "address"
        }
      ],
      "stateMutability": "view",
      "type": "function"
    },
    {
      "inputs": [],
      "name": "snow",
      "outputs": [
        {
          "internalType": "contract IERC20",
          "name": "",
          "type": "address"
        }
      ],
      "stateMutability": "view",
      "type": "function"
    },
    {
      "inputs": [
        {
          "internalType": "uint256",
          "name": "amount",
          "type": "uint256"
        }
      ],
      "name": "stake",
      "outputs": [],
      "stateMutability": "nonpayable",
      "type": "function"
    },
    {
      "inputs": [],
      "name": "totalSupply",
      "outputs": [
        {
          "internalType": "uint256",
          "name": "",
          "type": "uint256"
        }
      ],
      "stateMutability": "view",
      "type": "function"
    },
    {
      "inputs": [],
      "name": "treasury",
      "outputs": [
        {
          "internalType": "contract ITreasury",
          "name": "",
          "type": "address"
        }
      ],
      "stateMutability": "view",
      "type": "function"
    },
    {
      "inputs": [
        {
          "internalType": "uint256",
          "name": "amount",
          "type": "uint256"
        }
      ],
      "name": "withdraw",
      "outputs": [],
      "stateMutability": "nonpayable",
      "type": "function"
    },
    {
      "inputs": [],
      "name": "withdrawLockupEpochs",
      "outputs": [
        {
          "internalType": "uint256",
          "name": "",
          "type": "uint256"
        }
      ],
      "stateMutability": "view",
      "type": "function"
    }
  ],
  "transactionHash": "0xcf384e9e4a0f258c72856edd3f2c2e34ea136e6bd766969f328bd46469b51b79",
  "args": [],
  "numDeployments": 1,
  "solcInputHash": "0c134c4ced569f62d588621175557db0",
  "bytecode": "0x60806040526005805460ff60a01b1916905534801561001d57600080fd5b506001600455612391806100326000396000f3fe608060405234801561001057600080fd5b50600436106101ce5760003560e01c806354575af411610104578063a694fc3a116100a2578063c0c53b8b11610071578063c0c53b8b14610457578063c58e38431461048f578063c5967c26146104ac578063e9fad8ee146104b4576101ce565b8063a694fc3a14610404578063a8d5fd6514610421578063b3ab15fb14610429578063b88a802f1461044f576101ce565b806370a08231116100de57806370a0823114610393578063714b4658146103b9578063900cf0cf146103df57806397ffe1d7146103e7576101ce565b806354575af41461034d578063570ca7351461038357806361d027b31461038b576101ce565b80631e85cd6511610171578063367384ef1161014b578063367384ef146103115780633a2b9626146103195780633f9e3f041461033d578063446a2ec814610345576101ce565b80631e85cd65146102c75780632e1a7d4d146102cf5780632ffaaa09146102ee576101ce565b806308ae4b0c116101ad57806308ae4b0c1461024d578063158ef93e1461029157806318160ddd1461029957806319262d30146102a1576101ce565b80628cc262146101d3578063022ba18d1461020b578063046335d014610213575b600080fd5b6101f9600480360360208110156101e957600080fd5b50356001600160a01b03166104bc565b60408051918252519081900360200190f35b6101f961053d565b6102396004803603602081101561022957600080fd5b50356001600160a01b0316610543565b604080519115158252519081900360200190f35b6102736004803603602081101561026357600080fd5b50356001600160a01b03166105e4565b60408051938452602084019290925282820152519081900360600190f35b610239610605565b6101f9610615565b610239600480360360208110156102b757600080fd5b50356001600160a01b031661061b565b6101f96106b4565b6102ec600480360360208110156102e557600080fd5b50356106ba565b005b6102ec6004803603604081101561030457600080fd5b5080359060200135610a51565b6101f9610af1565b610321610b80565b604080516001600160a01b039092168252519081900360200190f35b6101f9610b8f565b6101f9610ba5565b6102ec6004803603606081101561036357600080fd5b506001600160a01b03813581169160208101359160409091013516610bb8565b610321610ce2565b610321610cf1565b6101f9600480360360208110156103a957600080fd5b50356001600160a01b0316610d00565b6101f9600480360360208110156103cf57600080fd5b50356001600160a01b0316610d1b565b6101f9610d36565b6102ec600480360360208110156103fd57600080fd5b5035610d7b565b6102ec6004803603602081101561041a57600080fd5b50356110bf565b6103216113a4565b6102ec6004803603602081101561043f57600080fd5b50356001600160a01b03166113b3565b6102ec61142b565b6102ec6004803603606081101561046d57600080fd5b506001600160a01b0381358116916020810135821691604090910135166116a2565b610273600480360360208110156104a557600080fd5b503561189c565b6101f96118cc565b6102ec61192a565b6000806104c761193d565b60400151905060006104d884611995565b6040908101516001600160a01b0386166000908152600860205291909120600101549091506105359061052f670de0b6b3a764000061052961051a87876119f0565b6105238a610d00565b90611a52565b90611ab2565b90611b19565b949350505050565b600b5481565b6007546040805163900cf0cf60e01b815290516000926001600160a01b03169163900cf0cf916004808301926020929190829003018186803b15801561058857600080fd5b505afa15801561059c573d6000803e3d6000fd5b505050506040513d60208110156105b257600080fd5b5051600b546001600160a01b0384166000908152600860205260409020600201546105dc91611b19565b111592915050565b60086020526000908152604090208054600182015460029092015490919083565b600554600160a01b900460ff1681565b60015490565b6007546040805163900cf0cf60e01b815290516000926001600160a01b03169163900cf0cf916004808301926020929190829003018186803b15801561066057600080fd5b505afa158015610674573d6000803e3d6000fd5b505050506040513d602081101561068a57600080fd5b5051600a546001600160a01b0384166000908152600860205260409020600201546105dc91611b19565b600a5481565b6106c2611b73565b156106fe5760405162461bcd60e51b81526004018080602001828103825260268152602001806123006026913960400191505060405180910390fd5b610706611b94565b156107425760405162461bcd60e51b81526004018080602001828103825260268152602001806123006026913960400191505060405180910390fd5b6002600454141561079a576040805162461bcd60e51b815260206004820152601f60248201527f5265656e7472616e637947756172643a207265656e7472616e742063616c6c00604482015290519081900360640190fd5b600260045560006107aa33610d00565b116107e65760405162461bcd60e51b81526004018080602001828103825260248152602001806121d56024913960400191505060405180910390fd5b338015610880576107f56121b3565b506001600160a01b038116600090815260086020908152604091829020825160608101845281548152600182015492810192909252600201549181019190915261083e826104bc565b602082015261084b610b8f565b81526001600160a01b038216600090815260086020908152604091829020835181559083015160018201559101516002909101555b600082116108d5576040805162461bcd60e51b815260206004820152601c60248201527f426f617264726f6f6d3a2043616e6e6f74207769746864726177203000000000604482015290519081900360640190fd5b600760009054906101000a90046001600160a01b03166001600160a01b031663900cf0cf6040518163ffffffff1660e01b815260040160206040518083038186803b15801561092357600080fd5b505afa158015610937573d6000803e3d6000fd5b505050506040513d602081101561094d57600080fd5b5051600a543360009081526008602052604090206002015461096e91611b19565b11156109ab5760405162461bcd60e51b81526004018080602001828103825260238152602001806122b36023913960400191505060405180910390fd5b600c5460ff161515600114156109c8576109c3611bb5565b6109d0565b6109d061142b565b6109d982611d3b565b60408051838152905133917f7084f5476618d8e60b11ef0d7d3f06914655adb8793e28ff7f018d4c76d505d5919081900360200190a2505060016004819055436000908152600360209081526040808320328452909152808220805460ff199081168517909155338352912080549091169091179055565b6005546001600160a01b03163314610a9a5760405162461bcd60e51b815260040180806020018281038252602581526020018061228e6025913960400191505060405180910390fd5b808210158015610aab575060388211155b610ae65760405162461bcd60e51b815260040180806020018281038252602381526020018061226b6023913960400191505060405180910390fd5b600a91909155600b55565b600754604080517f367384ef00000000000000000000000000000000000000000000000000000000815290516000926001600160a01b03169163367384ef916004808301926020929190829003018186803b158015610b4f57600080fd5b505afa158015610b63573d6000803e3d6000fd5b505050506040513d6020811015610b7957600080fd5b5051905090565b6006546001600160a01b031681565b600954600090610ba09060016119f0565b905090565b6000610baf61193d565b60400151905090565b6005546001600160a01b03163314610c015760405162461bcd60e51b815260040180806020018281038252602581526020018061228e6025913960400191505060405180910390fd5b6006546001600160a01b0384811691161415610c66576040805162461bcd60e51b8152602060048083019190915260248201527f736e6f7700000000000000000000000000000000000000000000000000000000604482015290519081900360640190fd5b6000546001600160a01b0384811691161415610cc9576040805162461bcd60e51b815260206004820152600560248201527f7368617265000000000000000000000000000000000000000000000000000000604482015290519081900360640190fd5b610cdd6001600160a01b0384168284611dcb565b505050565b6005546001600160a01b031681565b6007546001600160a01b031681565b6001600160a01b031660009081526002602052604090205490565b6001600160a01b031660009081526008602052604090205490565b6007546040805163900cf0cf60e01b815290516000926001600160a01b03169163900cf0cf916004808301926020929190829003018186803b158015610b4f57600080fd5b610d83611b73565b15610dbf5760405162461bcd60e51b81526004018080602001828103825260268152602001806123006026913960400191505060405180910390fd5b610dc7611b94565b15610e035760405162461bcd60e51b81526004018080602001828103825260268152602001806123006026913960400191505060405180910390fd5b60026004541415610e5b576040805162461bcd60e51b815260206004820152601f60248201527f5265656e7472616e637947756172643a207265656e7472616e742063616c6c00604482015290519081900360640190fd5b60026004556005546001600160a01b03163314610ea95760405162461bcd60e51b815260040180806020018281038252602581526020018061228e6025913960400191505060405180910390fd5b60008111610efe576040805162461bcd60e51b815260206004820152601c60248201527f426f617264726f6f6d3a2043616e6e6f7420616c6c6f63617465203000000000604482015290519081900360640190fd5b6000610f08610615565b11610f445760405162461bcd60e51b81526004018080602001828103825260308152602001806121f96030913960400191505060405180910390fd5b6000610f4e61193d565b6040015190506000610f7d610f76610f64610615565b61052986670de0b6b3a7640000611a52565b8390611b19565b9050610f876121b3565b5060408051606081018252438152602081018581529181018381526009805460018101825560009190915282517f6e1540171b6c0c960b71a7020d9f60077f6af931a8bbf590da0223dacf75c7af60039092029182015592517f6e1540171b6c0c960b71a7020d9f60077f6af931a8bbf590da0223dacf75c7b0840155517f6e1540171b6c0c960b71a7020d9f60077f6af931a8bbf590da0223dacf75c7b190920191909155600654611045906001600160a01b0316333087611e4b565b60408051858152905133917fac24935fd910bc682b5ccb1a07b718cadf8cf2f6d1404c4f3ddc3662dae40e29919081900360200190a2505060016004819055436000908152600360209081526040808320328452909152808220805460ff1990811685179091553383529120805490911690911790555050565b6110c7611b73565b156111035760405162461bcd60e51b81526004018080602001828103825260268152602001806123006026913960400191505060405180910390fd5b61110b611b94565b156111475760405162461bcd60e51b81526004018080602001828103825260268152602001806123006026913960400191505060405180910390fd5b6002600454141561119f576040805162461bcd60e51b815260206004820152601f60248201527f5265656e7472616e637947756172643a207265656e7472616e742063616c6c00604482015290519081900360640190fd5b600260045533801561123e576111b36121b3565b506001600160a01b03811660009081526008602090815260409182902082516060810184528154815260018201549281019290925260020154918101919091526111fc826104bc565b6020820152611209610b8f565b81526001600160a01b038216600090815260086020908152604091829020835181559083015160018201559101516002909101555b60008211611293576040805162461bcd60e51b815260206004820152601960248201527f426f617264726f6f6d3a2043616e6e6f74207374616b65203000000000000000604482015290519081900360640190fd5b61129c82611ed9565b600760009054906101000a90046001600160a01b03166001600160a01b031663900cf0cf6040518163ffffffff1660e01b815260040160206040518083038186803b1580156112ea57600080fd5b505afa1580156112fe573d6000803e3d6000fd5b505050506040513d602081101561131457600080fd5b505133600081815260086020908152604091829020600201939093558051858152905191927f9e71bc8eea02a63969f509818f2dafb9254532904319f9dbda79b67bd34a5f3d92918290030190a2505060016004819055436000908152600360209081526040808320328452909152808220805460ff199081168517909155338352912080549091169091179055565b6000546001600160a01b031681565b6005546001600160a01b031633146113fc5760405162461bcd60e51b815260040180806020018281038252602581526020018061228e6025913960400191505060405180910390fd5b6005805473ffffffffffffffffffffffffffffffffffffffff19166001600160a01b0392909216919091179055565b3380156114c55761143a6121b3565b506001600160a01b0381166000908152600860209081526040918290208251606081018452815481526001820154928101929092526002015491810191909152611483826104bc565b6020820152611490610b8f565b81526001600160a01b038216600090815260086020908152604091829020835181559083015160018201559101516002909101555b33600090815260086020526040902060010154801561169e57600760009054906101000a90046001600160a01b03166001600160a01b031663900cf0cf6040518163ffffffff1660e01b815260040160206040518083038186803b15801561152c57600080fd5b505afa158015611540573d6000803e3d6000fd5b505050506040513d602081101561155657600080fd5b5051600b543360009081526008602052604090206002015461157791611b19565b11156115b45760405162461bcd60e51b815260040180806020018281038252602181526020018061224a6021913960400191505060405180910390fd5b600760009054906101000a90046001600160a01b03166001600160a01b031663900cf0cf6040518163ffffffff1660e01b815260040160206040518083038186803b15801561160257600080fd5b505afa158015611616573d6000803e3d6000fd5b505050506040513d602081101561162c57600080fd5b50513360008181526008602052604081206002810193909355600190920191909155600654611667916001600160a01b039091169083611dcb565b60408051828152905133917fe2403640ba68fed3a2f88b7557551d1993f84b99bb10ff833f0cf8db0c5e0486919081900360200190a25b5050565b600554600160a01b900460ff1615611701576040805162461bcd60e51b815260206004820152601e60248201527f426f617264726f6f6d3a20616c726561647920696e697469616c697a65640000604482015290519081900360640190fd5b600680546001600160a01b0380861673ffffffffffffffffffffffffffffffffffffffff19928316179092556000805485841690831617905560078054928416929091169190911790556117536121b3565b50604080516060810182524380825260006020808401828152848601838152600980546001818101835591909552865160039095027f6e1540171b6c0c960b71a7020d9f60077f6af931a8bbf590da0223dacf75c7af81019590955591517f6e1540171b6c0c960b71a7020d9f60077f6af931a8bbf590da0223dacf75c7b0850155517f6e1540171b6c0c960b71a7020d9f60077f6af931a8bbf590da0223dacf75c7b1909301929092556008600a556004600b55600c805460ff19169092179091556005805473ffffffffffffffffffffffffffffffffffffffff197fffffffffffffffffffffff00ffffffffffffffffffffffffffffffffffffffff909116600160a01b171633908117909155845192835293519293927f25ff68dd81b34665b5ba7e553ee5511bf6812e12adb4a7e2c0d9e26b3099ce799281900390910190a250505050565b600981815481106118a957fe5b600091825260209091206003909102018054600182015460029092015490925083565b600754604080517fc5967c2600000000000000000000000000000000000000000000000000000000815290516000926001600160a01b03169163c5967c26916004808301926020929190829003018186803b158015610b4f57600080fd5b61193b61193633610d00565b6106ba565b565b6119456121b3565b600961194f610b8f565b8154811061195957fe5b90600052602060002090600302016040518060600160405290816000820154815260200160018201548152602001600282015481525050905090565b61199d6121b3565b60096119a883610d1b565b815481106119b257fe5b906000526020600020906003020160405180606001604052908160008201548152602001600182015481526020016002820154815250509050919050565b600082821115611a47576040805162461bcd60e51b815260206004820152601e60248201527f536166654d6174683a207375627472616374696f6e206f766572666c6f770000604482015290519081900360640190fd5b508082035b92915050565b600082611a6157506000611a4c565b82820282848281611a6e57fe5b0414611aab5760405162461bcd60e51b81526004018080602001828103825260218152602001806122296021913960400191505060405180910390fd5b9392505050565b6000808211611b08576040805162461bcd60e51b815260206004820152601a60248201527f536166654d6174683a206469766973696f6e206279207a65726f000000000000604482015290519081900360640190fd5b818381611b1157fe5b049392505050565b600082820183811015611aab576040805162461bcd60e51b815260206004820152601b60248201527f536166654d6174683a206164646974696f6e206f766572666c6f770000000000604482015290519081900360640190fd5b43600090815260036020908152604080832032845290915290205460ff1690565b43600090815260036020908152604080832033845290915290205460ff1690565b338015611c4f57611bc46121b3565b506001600160a01b0381166000908152600860209081526040918290208251606081018452815481526001820154928101929092526002015491810191909152611c0d826104bc565b6020820152611c1a610b8f565b81526001600160a01b038216600090815260086020908152604091829020835181559083015160018201559101516002909101555b336000908152600860205260408082206001015460065482517f42966c6800000000000000000000000000000000000000000000000000000000815260048101839052925191936001600160a01b039091169283926342966c689260248084019391929182900301818387803b158015611cc857600080fd5b505af1158015611cdc573d6000803e3d6000fd5b505033600081815260086020908152604080832060010192909255815187815291519294506001600160a01b03861693507f9c283dd95e385befdece653d1614dd1436f12871baa12799d9b460a8e0729d7192918290030190a3505050565b3360009081526002602052604090205481811015611d8a5760405162461bcd60e51b81526004018080602001828103825260368152602001806123266036913960400191505060405180910390fd5b600154611d9790836119f0565b600155611da481836119f0565b33600081815260026020526040812092909255905461169e916001600160a01b0390911690845b604080516001600160a01b038416602482015260448082018490528251808303909101815260649091019091526020810180517bffffffffffffffffffffffffffffffffffffffffffffffffffffffff167fa9059cbb00000000000000000000000000000000000000000000000000000000179052610cdd908490611f32565b604080516001600160a01b0380861660248301528416604482015260648082018490528251808303909101815260849091019091526020810180517bffffffffffffffffffffffffffffffffffffffffffffffffffffffff167f23b872dd00000000000000000000000000000000000000000000000000000000179052611ed3908590611f32565b50505050565b600154611ee69082611b19565b60015533600090815260026020526040902054611f039082611b19565b336000818152600260205260408120929092559054611f2f916001600160a01b03909116903084611e4b565b50565b6060611f87826040518060400160405280602081526020017f5361666545524332303a206c6f772d6c6576656c2063616c6c206661696c6564815250856001600160a01b0316611fe39092919063ffffffff16565b805190915015610cdd57808060200190516020811015611fa657600080fd5b5051610cdd5760405162461bcd60e51b815260040180806020018281038252602a8152602001806122d6602a913960400191505060405180910390fd5b6060610535848460008585611ff785612109565b612048576040805162461bcd60e51b815260206004820152601d60248201527f416464726573733a2063616c6c20746f206e6f6e2d636f6e7472616374000000604482015290519081900360640190fd5b60006060866001600160a01b031685876040518082805190602001908083835b602083106120875780518252601f199092019160209182019101612068565b6001836020036101000a03801982511681845116808217855250505050505090500191505060006040518083038185875af1925050503d80600081146120e9576040519150601f19603f3d011682016040523d82523d6000602084013e6120ee565b606091505b50915091506120fe82828661210f565b979650505050505050565b3b151590565b6060831561211e575081611aab565b82511561212e5782518084602001fd5b8160405162461bcd60e51b81526004018080602001828103825283818151815260200191508051906020019080838360005b83811015612178578181015183820152602001612160565b50505050905090810190601f1680156121a55780820380516001836020036101000a031916815260200191505b509250505060405180910390fd5b6040518060600160405280600081526020016000815260200160008152509056fe426f617264726f6f6d3a20546865206d656d62657220646f6573206e6f74206578697374426f617264726f6f6d3a2043616e6e6f7420616c6c6f63617465207768656e20746f74616c537570706c792069732030536166654d6174683a206d756c7469706c69636174696f6e206f766572666c6f77426f617264726f6f6d3a207374696c6c20696e20726577617264206c6f636b75705f77697468647261774c6f636b757045706f6368733a206f7574206f662072616e6765426f617264726f6f6d3a2063616c6c6572206973206e6f7420746865206f70657261746f72426f617264726f6f6d3a207374696c6c20696e207769746864726177206c6f636b75705361666545524332303a204552433230206f7065726174696f6e20646964206e6f742073756363656564436f6e747261637447756172643a206f6e6520626c6f636b2c206f6e652066756e6374696f6e426f617264726f6f6d3a20776974686472617720726571756573742067726561746572207468616e207374616b656420616d6f756e74a2646970667358221220d08deeba559a556260cc7bc6deb2166b5b600f0a9e2b847e9f76d26569c39ea964736f6c634300060c0033",
  "devdoc": {
    "kind": "dev",
    "methods": {},
    "version": 1
  },
  "userdoc": {
    "kind": "user",
    "methods": {},
    "version": 1
  },
  "storageLayout": {
    "storage": [
      {
        "astId": 16061,
        "contract": "contracts/Boardroom.sol:Boardroom",
        "label": "share",
        "offset": 0,
        "slot": "0",
        "type": "t_contract(IERC20)1177"
      },
      {
        "astId": 16063,
        "contract": "contracts/Boardroom.sol:Boardroom",
        "label": "_totalSupply",
        "offset": 0,
        "slot": "1",
        "type": "t_uint256"
      },
      {
        "astId": 16067,
        "contract": "contracts/Boardroom.sol:Boardroom",
        "label": "_balances",
        "offset": 0,
        "slot": "2",
        "type": "t_mapping(t_address,t_uint256)"
      },
      {
        "astId": 15469,
        "contract": "contracts/Boardroom.sol:Boardroom",
        "label": "_status",
        "offset": 0,
        "slot": "3",
        "type": "t_mapping(t_uint256,t_mapping(t_address,t_bool))"
      },
      {
        "astId": 1720,
        "contract": "contracts/Boardroom.sol:Boardroom",
        "label": "_status",
        "offset": 0,
        "slot": "4",
        "type": "t_uint256"
      },
      {
        "astId": 1787,
        "contract": "contracts/Boardroom.sol:Boardroom",
        "label": "operator",
        "offset": 0,
        "slot": "5",
        "type": "t_address"
      },
      {
        "astId": 1790,
        "contract": "contracts/Boardroom.sol:Boardroom",
        "label": "initialized",
        "offset": 20,
        "slot": "5",
        "type": "t_bool"
      },
      {
        "astId": 1792,
        "contract": "contracts/Boardroom.sol:Boardroom",
        "label": "snow",
        "offset": 0,
        "slot": "6",
        "type": "t_contract(IERC20)1177"
      },
      {
        "astId": 1794,
        "contract": "contracts/Boardroom.sol:Boardroom",
        "label": "treasury",
        "offset": 0,
        "slot": "7",
        "type": "t_contract(ITreasury)14220"
      },
      {
        "astId": 1798,
        "contract": "contracts/Boardroom.sol:Boardroom",
        "label": "members",
        "offset": 0,
        "slot": "8",
        "type": "t_mapping(t_address,t_struct(Memberseat)1778_storage)"
      },
      {
        "astId": 1801,
        "contract": "contracts/Boardroom.sol:Boardroom",
        "label": "boardroomHistory",
        "offset": 0,
        "slot": "9",
        "type": "t_array(t_struct(BoardroomSnapshot)1785_storage)dyn_storage"
      },
      {
        "astId": 1803,
        "contract": "contracts/Boardroom.sol:Boardroom",
        "label": "withdrawLockupEpochs",
        "offset": 0,
        "slot": "10",
        "type": "t_uint256"
      },
      {
        "astId": 1805,
        "contract": "contracts/Boardroom.sol:Boardroom",
        "label": "rewardLockupEpochs",
        "offset": 0,
        "slot": "11",
        "type": "t_uint256"
      },
      {
        "astId": 1807,
        "contract": "contracts/Boardroom.sol:Boardroom",
        "label": "isSacrificeReward",
        "offset": 0,
        "slot": "12",
        "type": "t_bool"
      }
    ],
    "types": {
      "t_address": {
        "encoding": "inplace",
        "label": "address",
        "numberOfBytes": "20"
      },
      "t_array(t_struct(BoardroomSnapshot)1785_storage)dyn_storage": {
        "base": "t_struct(BoardroomSnapshot)1785_storage",
        "encoding": "dynamic_array",
        "label": "struct Boardroom.BoardroomSnapshot[]",
        "numberOfBytes": "32"
      },
      "t_bool": {
        "encoding": "inplace",
        "label": "bool",
        "numberOfBytes": "1"
      },
      "t_contract(IERC20)1177": {
        "encoding": "inplace",
        "label": "contract IERC20",
        "numberOfBytes": "20"
      },
      "t_contract(ITreasury)14220": {
        "encoding": "inplace",
        "label": "contract ITreasury",
        "numberOfBytes": "20"
      },
      "t_mapping(t_address,t_bool)": {
        "encoding": "mapping",
        "key": "t_address",
        "label": "mapping(address => bool)",
        "numberOfBytes": "32",
        "value": "t_bool"
      },
      "t_mapping(t_address,t_struct(Memberseat)1778_storage)": {
        "encoding": "mapping",
        "key": "t_address",
        "label": "mapping(address => struct Boardroom.Memberseat)",
        "numberOfBytes": "32",
        "value": "t_struct(Memberseat)1778_storage"
      },
      "t_mapping(t_address,t_uint256)": {
        "encoding": "mapping",
        "key": "t_address",
        "label": "mapping(address => uint256)",
        "numberOfBytes": "32",
        "value": "t_uint256"
      },
      "t_mapping(t_uint256,t_mapping(t_address,t_bool))": {
        "encoding": "mapping",
        "key": "t_uint256",
        "label": "mapping(uint256 => mapping(address => bool))",
        "numberOfBytes": "32",
        "value": "t_mapping(t_address,t_bool)"
      },
      "t_struct(BoardroomSnapshot)1785_storage": {
        "encoding": "inplace",
        "label": "struct Boardroom.BoardroomSnapshot",
        "members": [
          {
            "astId": 1780,
            "contract": "contracts/Boardroom.sol:Boardroom",
            "label": "time",
            "offset": 0,
            "slot": "0",
            "type": "t_uint256"
          },
          {
            "astId": 1782,
            "contract": "contracts/Boardroom.sol:Boardroom",
            "label": "rewardReceived",
            "offset": 0,
            "slot": "1",
            "type": "t_uint256"
          },
          {
            "astId": 1784,
            "contract": "contracts/Boardroom.sol:Boardroom",
            "label": "rewardPerShare",
            "offset": 0,
            "slot": "2",
            "type": "t_uint256"
          }
        ],
        "numberOfBytes": "96"
      },
      "t_struct(Memberseat)1778_storage": {
        "encoding": "inplace",
        "label": "struct Boardroom.Memberseat",
        "members": [
          {
            "astId": 1773,
            "contract": "contracts/Boardroom.sol:Boardroom",
            "label": "lastSnapshotIndex",
            "offset": 0,
            "slot": "0",
            "type": "t_uint256"
          },
          {
            "astId": 1775,
            "contract": "contracts/Boardroom.sol:Boardroom",
            "label": "rewardEarned",
            "offset": 0,
            "slot": "1",
            "type": "t_uint256"
          },
          {
            "astId": 1777,
            "contract": "contracts/Boardroom.sol:Boardroom",
            "label": "epochTimerStart",
            "offset": 0,
            "slot": "2",
            "type": "t_uint256"
          }
        ],
        "numberOfBytes": "96"
      },
      "t_uint256": {
        "encoding": "inplace",
        "label": "uint256",
        "numberOfBytes": "32"
      }
    }
  }
}