{
  "address": "0x1f29C402B3B9Ac0fe0aF60ee9eb74986a4A3e621",
  "abi": [
    {
      "inputs": [
        {
          "internalType": "uint256",
          "name": "_startTime",
          "type": "uint256"
        },
        {
          "internalType": "address",
          "name": "_token",
          "type": "address"
        }
      ],
      "stateMutability": "nonpayable",
      "type": "constructor"
    },
    {
      "anonymous": false,
      "inputs": [
        {
          "indexed": false,
          "internalType": "uint256",
          "name": "timestamp",
          "type": "uint256"
        },
        {
          "indexed": false,
          "internalType": "address",
          "name": "account",
          "type": "address"
        },
        {
          "indexed": false,
          "internalType": "uint256",
          "name": "num",
          "type": "uint256"
        }
      ],
      "name": "CreateNode",
      "type": "event"
    },
    {
      "inputs": [],
      "name": "MULTIPLIER",
      "outputs": [
        {
          "internalType": "uint256",
          "name": "",
          "type": "uint256"
        }
      ],
      "stateMutability": "view",
      "type": "function"
    },
    {
      "inputs": [],
      "name": "TOKEN",
      "outputs": [
        {
          "internalType": "contract IERC20",
          "name": "",
          "type": "address"
        }
      ],
      "stateMutability": "view",
      "type": "function"
    },
    {
      "inputs": [
        {
          "internalType": "address",
          "name": "account",
          "type": "address"
        }
      ],
      "name": "allocPoints",
      "outputs": [
        {
          "internalType": "uint256",
          "name": "",
          "type": "uint256"
        }
      ],
      "stateMutability": "view",
      "type": "function"
    },
    {
      "inputs": [
        {
          "internalType": "address payable",
          "name": "newDev",
          "type": "address"
        }
      ],
      "name": "changeDev",
      "outputs": [],
      "stateMutability": "nonpayable",
      "type": "function"
    },
    {
      "inputs": [],
      "name": "claim",
      "outputs": [],
      "stateMutability": "nonpayable",
      "type": "function"
    },
    {
      "inputs": [],
      "name": "claimTreasuryRewards",
      "outputs": [],
      "stateMutability": "nonpayable",
      "type": "function"
    },
    {
      "inputs": [],
      "name": "compound",
      "outputs": [],
      "stateMutability": "nonpayable",
      "type": "function"
    },
    {
      "inputs": [
        {
          "internalType": "uint256",
          "name": "nodeTier",
          "type": "uint256"
        },
        {
          "internalType": "uint256",
          "name": "numNodes",
          "type": "uint256"
        }
      ],
      "name": "create",
      "outputs": [],
      "stateMutability": "nonpayable",
      "type": "function"
    },
    {
      "inputs": [],
      "name": "dripRate",
      "outputs": [
        {
          "internalType": "uint256",
          "name": "",
          "type": "uint256"
        }
      ],
      "stateMutability": "view",
      "type": "function"
    },
    {
      "inputs": [],
      "name": "dripRewards",
      "outputs": [],
      "stateMutability": "nonpayable",
      "type": "function"
    },
    {
      "inputs": [
        {
          "internalType": "address",
          "name": "_token",
          "type": "address"
        },
        {
          "internalType": "uint256",
          "name": "_amount",
          "type": "uint256"
        },
        {
          "internalType": "address",
          "name": "_to",
          "type": "address"
        }
      ],
      "name": "emergencyWithdraw",
      "outputs": [],
      "stateMutability": "nonpayable",
      "type": "function"
    },
    {
      "inputs": [],
      "name": "enabled",
      "outputs": [
        {
          "internalType": "bool",
          "name": "",
          "type": "bool"
        }
      ],
      "stateMutability": "view",
      "type": "function"
    },
    {
      "inputs": [],
      "name": "getBalance",
      "outputs": [
        {
          "internalType": "uint256",
          "name": "",
          "type": "uint256"
        }
      ],
      "stateMutability": "view",
      "type": "function"
    },
    {
      "inputs": [],
      "name": "getBalancePool",
      "outputs": [
        {
          "internalType": "uint256",
          "name": "",
          "type": "uint256"
        }
      ],
      "stateMutability": "view",
      "type": "function"
    },
    {
      "inputs": [
        {
          "internalType": "address",
          "name": "_user",
          "type": "address"
        }
      ],
      "name": "getDayDripEstimate",
      "outputs": [
        {
          "internalType": "uint256",
          "name": "",
          "type": "uint256"
        }
      ],
      "stateMutability": "view",
      "type": "function"
    },
    {
      "inputs": [
        {
          "internalType": "address",
          "name": "account",
          "type": "address"
        }
      ],
      "name": "getDistributionRewards",
      "outputs": [
        {
          "internalType": "uint256",
          "name": "",
          "type": "uint256"
        }
      ],
      "stateMutability": "view",
      "type": "function"
    },
    {
      "inputs": [
        {
          "internalType": "address",
          "name": "_sender",
          "type": "address"
        }
      ],
      "name": "getNodes",
      "outputs": [
        {
          "internalType": "uint256[]",
          "name": "",
          "type": "uint256[]"
        }
      ],
      "stateMutability": "view",
      "type": "function"
    },
    {
      "inputs": [],
      "name": "getRewardDrip",
      "outputs": [
        {
          "internalType": "uint256",
          "name": "",
          "type": "uint256"
        }
      ],
      "stateMutability": "view",
      "type": "function"
    },
    {
      "inputs": [],
      "name": "getTotalNodes",
      "outputs": [
        {
          "internalType": "uint256[]",
          "name": "",
          "type": "uint256[]"
        }
      ],
      "stateMutability": "view",
      "type": "function"
    },
    {
      "inputs": [
        {
          "internalType": "address",
          "name": "_sender",
          "type": "address"
        }
      ],
      "name": "getTotalRewards",
      "outputs": [
        {
          "internalType": "uint256",
          "name": "",
          "type": "uint256"
        }
      ],
      "stateMutability": "view",
      "type": "function"
    },
    {
      "inputs": [
        {
          "internalType": "address",
          "name": "_sender",
          "type": "address"
        }
      ],
      "name": "isMaxPayout",
      "outputs": [
        {
          "internalType": "bool",
          "name": "",
          "type": "bool"
        }
      ],
      "stateMutability": "view",
      "type": "function"
    },
    {
      "inputs": [],
      "name": "lastDripTime",
      "outputs": [
        {
          "internalType": "uint256",
          "name": "",
          "type": "uint256"
        }
      ],
      "stateMutability": "view",
      "type": "function"
    },
    {
      "inputs": [
        {
          "internalType": "address",
          "name": "_sender",
          "type": "address"
        }
      ],
      "name": "maxPayout",
      "outputs": [
        {
          "internalType": "uint256",
          "name": "",
          "type": "uint256"
        }
      ],
      "stateMutability": "view",
      "type": "function"
    },
    {
      "inputs": [],
      "name": "maxReturnPercent",
      "outputs": [
        {
          "internalType": "uint256",
          "name": "",
          "type": "uint256"
        }
      ],
      "stateMutability": "view",
      "type": "function"
    },
    {
      "inputs": [
        {
          "internalType": "address",
          "name": "",
          "type": "address"
        },
        {
          "internalType": "uint256",
          "name": "",
          "type": "uint256"
        }
      ],
      "name": "nodes",
      "outputs": [
        {
          "internalType": "uint256",
          "name": "",
          "type": "uint256"
        }
      ],
      "stateMutability": "view",
      "type": "function"
    },
    {
      "inputs": [
        {
          "internalType": "address",
          "name": "_sender",
          "type": "address"
        },
        {
          "internalType": "uint256",
          "name": "_nodeId",
          "type": "uint256"
        }
      ],
      "name": "numNodes",
      "outputs": [
        {
          "internalType": "uint256",
          "name": "",
          "type": "uint256"
        }
      ],
      "stateMutability": "view",
      "type": "function"
    },
    {
      "inputs": [
        {
          "internalType": "uint256",
          "name": "rate",
          "type": "uint256"
        }
      ],
      "name": "setDripRate",
      "outputs": [],
      "stateMutability": "nonpayable",
      "type": "function"
    },
    {
      "inputs": [
        {
          "internalType": "bool",
          "name": "_enabled",
          "type": "bool"
        }
      ],
      "name": "setEnabled",
      "outputs": [],
      "stateMutability": "nonpayable",
      "type": "function"
    },
    {
      "inputs": [
        {
          "internalType": "uint256",
          "name": "timestamp",
          "type": "uint256"
        }
      ],
      "name": "setLastDripTime",
      "outputs": [],
      "stateMutability": "nonpayable",
      "type": "function"
    },
    {
      "inputs": [
        {
          "internalType": "uint256",
          "name": "percent",
          "type": "uint256"
        }
      ],
      "name": "setMaxReturnPercent",
      "outputs": [],
      "stateMutability": "nonpayable",
      "type": "function"
    },
    {
      "inputs": [
        {
          "internalType": "address",
          "name": "_user",
          "type": "address"
        },
        {
          "internalType": "uint256[]",
          "name": "_nodes",
          "type": "uint256[]"
        }
      ],
      "name": "setNodes",
      "outputs": [],
      "stateMutability": "nonpayable",
      "type": "function"
    },
    {
      "inputs": [
        {
          "internalType": "uint256",
          "name": "_startTime",
          "type": "uint256"
        }
      ],
      "name": "setStartTime",
      "outputs": [],
      "stateMutability": "nonpayable",
      "type": "function"
    },
    {
      "inputs": [
        {
          "internalType": "uint256[]",
          "name": "_tierAllocPoints",
          "type": "uint256[]"
        },
        {
          "internalType": "uint256[]",
          "name": "_tierAmounts",
          "type": "uint256[]"
        }
      ],
      "name": "setTierValues",
      "outputs": [],
      "stateMutability": "nonpayable",
      "type": "function"
    },
    {
      "inputs": [
        {
          "internalType": "uint256",
          "name": "percent",
          "type": "uint256"
        }
      ],
      "name": "setTreasuryFeePercent",
      "outputs": [],
      "stateMutability": "nonpayable",
      "type": "function"
    },
    {
      "inputs": [
        {
          "internalType": "address",
          "name": "_addr",
          "type": "address"
        },
        {
          "components": [
            {
              "internalType": "uint256",
              "name": "total_deposits",
              "type": "uint256"
            },
            {
              "internalType": "uint256",
              "name": "total_claims",
              "type": "uint256"
            },
            {
              "internalType": "uint256",
              "name": "last_distPoints",
              "type": "uint256"
            }
          ],
          "internalType": "struct GlcrNode.User",
          "name": "_user",
          "type": "tuple"
        }
      ],
      "name": "setUser",
      "outputs": [],
      "stateMutability": "nonpayable",
      "type": "function"
    },
    {
      "inputs": [],
      "name": "startTime",
      "outputs": [
        {
          "internalType": "uint256",
          "name": "",
          "type": "uint256"
        }
      ],
      "stateMutability": "view",
      "type": "function"
    },
    {
      "inputs": [
        {
          "internalType": "uint256",
          "name": "",
          "type": "uint256"
        }
      ],
      "name": "tierAllocPoints",
      "outputs": [
        {
          "internalType": "uint256",
          "name": "",
          "type": "uint256"
        }
      ],
      "stateMutability": "view",
      "type": "function"
    },
    {
      "inputs": [
        {
          "internalType": "uint256",
          "name": "",
          "type": "uint256"
        }
      ],
      "name": "tierAmounts",
      "outputs": [
        {
          "internalType": "uint256",
          "name": "",
          "type": "uint256"
        }
      ],
      "stateMutability": "view",
      "type": "function"
    },
    {
      "inputs": [],
      "name": "totalAllocPoints",
      "outputs": [
        {
          "internalType": "uint256",
          "name": "",
          "type": "uint256"
        }
      ],
      "stateMutability": "view",
      "type": "function"
    },
    {
      "inputs": [],
      "name": "totalDistributePoints",
      "outputs": [
        {
          "internalType": "uint256",
          "name": "",
          "type": "uint256"
        }
      ],
      "stateMutability": "view",
      "type": "function"
    },
    {
      "inputs": [],
      "name": "totalDistributeRewards",
      "outputs": [
        {
          "internalType": "uint256",
          "name": "",
          "type": "uint256"
        }
      ],
      "stateMutability": "view",
      "type": "function"
    },
    {
      "inputs": [
        {
          "internalType": "uint256",
          "name": "",
          "type": "uint256"
        }
      ],
      "name": "totalNodes",
      "outputs": [
        {
          "internalType": "uint256",
          "name": "",
          "type": "uint256"
        }
      ],
      "stateMutability": "view",
      "type": "function"
    },
    {
      "inputs": [],
      "name": "total_claimed",
      "outputs": [
        {
          "internalType": "uint256",
          "name": "",
          "type": "uint256"
        }
      ],
      "stateMutability": "view",
      "type": "function"
    },
    {
      "inputs": [],
      "name": "total_deposited",
      "outputs": [
        {
          "internalType": "uint256",
          "name": "",
          "type": "uint256"
        }
      ],
      "stateMutability": "view",
      "type": "function"
    },
    {
      "inputs": [],
      "name": "total_rewards",
      "outputs": [
        {
          "internalType": "uint256",
          "name": "",
          "type": "uint256"
        }
      ],
      "stateMutability": "view",
      "type": "function"
    },
    {
      "inputs": [],
      "name": "total_users",
      "outputs": [
        {
          "internalType": "uint256",
          "name": "",
          "type": "uint256"
        }
      ],
      "stateMutability": "view",
      "type": "function"
    },
    {
      "inputs": [],
      "name": "treasuryFeePercent",
      "outputs": [
        {
          "internalType": "uint256",
          "name": "",
          "type": "uint256"
        }
      ],
      "stateMutability": "view",
      "type": "function"
    },
    {
      "inputs": [],
      "name": "treasury_rewards",
      "outputs": [
        {
          "internalType": "uint256",
          "name": "",
          "type": "uint256"
        }
      ],
      "stateMutability": "view",
      "type": "function"
    },
    {
      "inputs": [
        {
          "internalType": "uint256",
          "name": "",
          "type": "uint256"
        }
      ],
      "name": "userIndices",
      "outputs": [
        {
          "internalType": "address",
          "name": "",
          "type": "address"
        }
      ],
      "stateMutability": "view",
      "type": "function"
    },
    {
      "inputs": [
        {
          "internalType": "address",
          "name": "",
          "type": "address"
        }
      ],
      "name": "users",
      "outputs": [
        {
          "internalType": "uint256",
          "name": "total_deposits",
          "type": "uint256"
        },
        {
          "internalType": "uint256",
          "name": "total_claims",
          "type": "uint256"
        },
        {
          "internalType": "uint256",
          "name": "last_distPoints",
          "type": "uint256"
        }
      ],
      "stateMutability": "view",
      "type": "function"
    },
    {
      "stateMutability": "payable",
      "type": "receive"
    }
  ],
  "transactionHash": "0xb2750582ec2b208ba8230f2ae089f0c2ad970c90b5b5b03fa460bb39f5d26a0b",
  "args": [
    1668038400,
    "0xB4586CAb2e3Aa47A3586854AfD35592a78D62cF3"
  ],
  "numDeployments": 1,
  "solcInputHash": "63674f7f37222e2e62c35a0995ff0fc0",
  "bytecode": "0x60e0604052670de0b6b3a7640000608081815260a082905260c0919091526200002d90600190600362000101565b50604080516060810182526512309ce540008152670de0b6b3a764000060208201819052918101919091526200006890600290600362000101565b503480156200007657600080fd5b50604051620027c7380380620027c7833981016040819052620000999162000173565b6101f4600f5562200b206010556019600c55428211620000ba5742620000bc565b815b6011556012919091556013805460ff19166001179055600080546001600160a01b039092166001600160a01b03199283161790556003805490911633179055620001b0565b8280548282559060005260206000209081019282156200014a579160200282015b828111156200014a57825182906001600160401b031690559160200191906001019062000122565b50620001589291506200015c565b5090565b5b808211156200015857600081556001016200015d565b6000806040838503121562000186578182fd5b825160208401519092506001600160a01b0381168114620001a5578182fd5b809150509250929050565b61260780620001c06000396000f3fe60806040526004361061032d5760003560e01c80635b2f3c8e116101a55780639f7b4579116100ec578063d326159211610095578063e7cc62bd1161006f578063e7cc62bd1461088a578063f65f4eaf1461089f578063f69e2046146108b4578063fba1f7b0146108c957610353565b8063d326159214610840578063de560cca14610855578063e300e98b1461086a57610353565b8063adf1b67e116100c6578063adf1b67e146107eb578063bcb116391461080b578063c7ce95601461082b57610353565b80639f7b457914610787578063a87430ba146107a7578063ab4e2785146107d657610353565b80636af904c61161014e57806382bfefc81161012857806382bfefc81461073257806388a8c95c1461074757806394ac42cc1461076757610353565b80636af904c6146106f3578063740c8af71461070857806378e979251461071d57610353565b80635fbb48dc1161017f5780635fbb48dc1461069e57806363584ecd146106be578063648acb09146106d357610353565b80635b2f3c8e146106545780635c75dcbc146106695780635fb11d7e1461067e57610353565b80632ae2707111610274578063486af96a1161021d5780635083f17b116101f75780635083f17b146105df578063551512de146105ff57806356e1221c1461061f5780635b0d2d8c1461063f57610353565b8063486af96a146105885780634b3dd5b5146105b55780634e71d92d146105ca57610353565b806335771fe01161024e57806335771fe0146105285780633e0a322d1461054857806344886d701461056857610353565b80632ae27071146104c85780632bcf161c146104e8578063328d8f721461050857610353565b80631fa36cbe116102d6578063238dafe0116102b0578063238dafe0146104665780632702dfe714610488578063277e5316146104a857610353565b80631fa36cbe14610404578063211aea02146104195780632365d7bc1461044657610353565b806312065fe01161030757806312065fe0146103af5780631d1c7b4e146103c45780631ed5c6c2146103e457610353565b8063059f8b161461035857806305c4744b1461038357806305d6bbf41461039a57610353565b366103535760405162461bcd60e51b815260040161034a90612285565b60405180910390fd5b600080fd5b34801561036457600080fd5b5061036d6108de565b60405161037a919061251d565b60405180910390f35b34801561038f57600080fd5b506103986108ea565b005b3480156103a657600080fd5b5061036d61091b565b3480156103bb57600080fd5b5061036d610921565b3480156103d057600080fd5b5061036d6103df366004611fe1565b6109a8565b3480156103f057600080fd5b506103986103ff366004611fe1565b6109ba565b34801561041057600080fd5b5061036d6109e9565b34801561042557600080fd5b50610439610434366004611fe1565b610a4f565b60405161037a919061204e565b34801561045257600080fd5b5061036d610461366004611fe1565b610a76565b34801561047257600080fd5b5061047b610a94565b60405161037a91906120fd565b34801561049457600080fd5b506103986104a3366004611e84565b610a9d565b3480156104b457600080fd5b5061036d6104c3366004611e1a565b610b60565b3480156104d457600080fd5b506103986104e3366004611f52565b610be8565b3480156104f457600080fd5b5061036d610503366004611e1a565b610c5f565b34801561051457600080fd5b50610398610523366004611fa9565b610d04565b34801561053457600080fd5b5061036d610543366004611fe1565b610d41565b34801561055457600080fd5b50610398610563366004611fe1565b610d4e565b34801561057457600080fd5b5061047b610583366004611e1a565b610d7d565b34801561059457600080fd5b506105a86105a3366004611e1a565b610dad565b60405161037a91906120b9565b3480156105c157600080fd5b5061036d610e78565b3480156105d657600080fd5b50610398610ee1565b3480156105eb57600080fd5b506103986105fa366004611e36565b610fe2565b34801561060b57600080fd5b5061039861061a366004611f11565b6110bc565b34801561062b57600080fd5b5061039861063a366004611fe1565b611185565b34801561064b57600080fd5b5061036d6111b4565b34801561066057600080fd5b506103986111d0565b34801561067557600080fd5b5061036d6111f3565b34801561068a57600080fd5b5061036d610699366004611e1a565b6111f9565b3480156106aa57600080fd5b506103986106b9366004611fe1565b61124e565b3480156106ca57600080fd5b506105a861127d565b3480156106df57600080fd5b506103986106ee366004611fe1565b611317565b3480156106ff57600080fd5b5061036d611346565b34801561071457600080fd5b5061036d61134c565b34801561072957600080fd5b5061036d611352565b34801561073e57600080fd5b50610439611358565b34801561075357600080fd5b50610398610762366004611e1a565b611367565b34801561077357600080fd5b5061036d610782366004611e1a565b6113e6565b34801561079357600080fd5b506103986107a2366004612011565b611442565b3480156107b357600080fd5b506107c76107c2366004611e1a565b611835565b60405161037a93929190612545565b3480156107e257600080fd5b5061036d611856565b3480156107f757600080fd5b5061036d610806366004611ee6565b61185c565b34801561081757600080fd5b5061036d610826366004611ee6565b611879565b34801561083757600080fd5b5061036d6118a1565b34801561084c57600080fd5b5061036d6118a7565b34801561086157600080fd5b5061036d6118ad565b34801561087657600080fd5b5061036d610885366004611e1a565b6118b3565b34801561089657600080fd5b5061036d6118e2565b3480156108ab57600080fd5b5061036d6118e8565b3480156108c057600080fd5b506103986118ee565b3480156108d557600080fd5b5061036d611975565b678ac7230489e8000081565b600b541561091957600354600b54600054610913926001600160a01b039182169291169061197b565b6000600b555b565b600a5481565b600080546040516370a0823160e01b81526001600160a01b03909116906370a082319061095290309060040161204e565b60206040518083038186803b15801561096a57600080fd5b505afa15801561097e573d6000803e3d6000fd5b505050506040513d601f19601f820116820180604052508101906109a29190611ff9565b90505b90565b60066020526000908152604090205481565b6003546001600160a01b031633146109e45760405162461bcd60e51b815260040161034a9061213b565b601155565b600080805b600154811015610a4957610a3f610a38600660008481526020019081526020016000205460018481548110610a1f57fe5b90600052602060002001546119fe90919063ffffffff16565b8390611a3f565b91506001016109ee565b50905090565b60078181548110610a5c57fe5b6000918252602090912001546001600160a01b0316905081565b60018181548110610a8357fe5b600091825260209091200154905081565b60135460ff1681565b6003546001600160a01b03163314610ac75760405162461bcd60e51b815260040161034a9061213b565b80516001600160a01b038316600090815260046020526040902054600854610afa9291610af49190611a64565b90611a3f565b6008556020808201516001600160a01b03841660009081526004909252604090912060010154600954610b329291610af49190611a64565b60095580516001600160a01b0390921660009081526004602090815260409091209283550151600190910155565b6000610b6b82610d7d565b15610b7857506000610be3565b6001600160a01b038216600090815260046020526040812060020154600e54610ba091611a64565b90506000610bc9678ac7230489e80000610bc384610bbd886111f9565b906119fe565b90611a8c565b9050600a548111610bda5780610bde565b600a545b925050505b919050565b6003546001600160a01b03163314610c125760405162461bcd60e51b815260040161034a9061213b565b8051825114610c335760405162461bcd60e51b815260040161034a9061241b565b8151610c46906001906020850190611d3a565b508051610c5a906002906020840190611d3a565b505050565b6001600160a01b038116600090815260046020526040812054610c8457506000610be3565b6000610cb1610ca8610c946109e9565b610bc3610ca0876111f9565b610bbd610e78565b610af485610b60565b6001600160a01b038416600090815260046020526040812060010154919250610cd9856118b3565b905080610ce68385611a3f565b11610cf15782610cfb565b610cfb8183611a64565b95945050505050565b6003546001600160a01b03163314610d2e5760405162461bcd60e51b815260040161034a9061213b565b6013805460ff1916911515919091179055565b60028181548110610a8357fe5b6003546001600160a01b03163314610d785760405162461bcd60e51b815260040161034a9061213b565b601255565b6000610d88826118b3565b6001600160a01b03831660009081526004602052604090206001015410159050919050565b600154606090819067ffffffffffffffff81118015610dcb57600080fd5b50604051908082528060200260200182016040528015610df5578160200160208202803683370190505b50905060005b600154811015610e71576001600160a01b03841660009081526005602090815260408083208484529091529020548251610e529190849084908110610e3c57fe5b6020026020010151611a3f90919063ffffffff16565b828281518110610e5e57fe5b6020908102919091010152600101610dfb565b5092915050565b6000426011541015610edb576000610e8e6111b4565b90506000610ea760115442611a6490919063ffffffff16565b90506000610ec4601054610bc385856119fe90919063ffffffff16565b905082811115610ed15750815b92506109a5915050565b50600090565b610ee96111d0565b336000610ef582610b60565b90508015610fde57600a54610f0a9082611a64565b600a556001600160a01b03821660009081526004602052604081206001015490610f33846118b3565b905080610f408385611a3f565b1115610f5357610f508183611a64565b92505b6001600160a01b038416600090815260046020526040902060010154610f799084611a3f565b6001600160a01b038516600090815260046020526040902060010155600954610fa29084611a3f565b600955600054610fbc906001600160a01b0316858561197b565b5050600e546001600160a01b0383166000908152600460205260409020600201555b5050565b6003546001600160a01b0316331461100c5760405162461bcd60e51b815260040161034a9061213b565b60005b8151811015610c5a5761106882828151811061102757fe5b6020908102919091018101516001600160a01b038616600090815260058352604080822086835284528082205460069094529020549091610af49190611a64565b600082815260066020526040902055815182908290811061108557fe5b6020908102919091018101516001600160a01b0385166000908152600583526040808220858352909352919091205560010161100f565b6003546001600160a01b031633146110e65760405162461bcd60e51b815260040161034a9061213b565b6040517fa9059cbb0000000000000000000000000000000000000000000000000000000081526001600160a01b0384169063a9059cbb9061112d90849086906004016120a0565b602060405180830381600087803b15801561114757600080fd5b505af115801561115b573d6000803e3d6000fd5b505050506040513d601f19601f8201168201806040525081019061117f9190611fc5565b50505050565b6003546001600160a01b031633146111af5760405162461bcd60e51b815260040161034a9061213b565b600c55565b60006109a2600b546111ca600a546111ca610921565b90611a64565b60006111da610e78565b905080156111f0576111eb81611abe565b426011555b50565b600c5481565b600080805b600154811015610e71576001600160a01b03841660009081526005602090815260408083208484529091529020546001805461124492610a3892909185908110610a1f57fe5b91506001016111fe565b6003546001600160a01b031633146112785760405162461bcd60e51b815260040161034a9061213b565b601055565b600154606090819067ffffffffffffffff8111801561129b57600080fd5b506040519080825280602002602001820160405280156112c5578160200160208202803683370190505b50905060005b600154811015610a49576112f86006600083815260200190815260200160002054838381518110610e3c57fe5b82828151811061130457fe5b60209081029190910101526001016112cb565b6003546001600160a01b031633146113415760405162461bcd60e51b815260040161034a9061213b565b600f55565b60095481565b600f5481565b60125481565b6000546001600160a01b031681565b6003546001600160a01b031633146113915760405162461bcd60e51b815260040161034a9061213b565b6001600160a01b0381166113b75760405162461bcd60e51b815260040161034a906122bc565b6003805473ffffffffffffffffffffffffffffffffffffffff19166001600160a01b0392909216919091179055565b6000806113f2836111f9565b118015611405575061140382610d7d565b155b61141057600061143c565b61143c601054610bc36114216109e9565b610bc361142d876111f9565b610bbd62015180610bbd6111b4565b92915050565b601354339060ff16801561145857506012544210155b6114745760405162461bcd60e51b815260040161034a90612489565b60015483108015611486575060025483105b6114a25760405162461bcd60e51b815260040161034a90612387565b6114aa610ee1565b6001600160a01b0381166000908152600460205260409020546115345760078054600181019091557fa66cc928b5edb82af9bd49922954155ab7b0942694bea4ce44661d9a8736c68801805473ffffffffffffffffffffffffffffffffffffffff19166001600160a01b038316908117909155600e54600091825260046020526040909120600201555b6001600160a01b0381166000908152600460205260409020541580159061155f575061155f81610d7d565b1561158457600e546001600160a01b0382166000908152600460205260409020600201555b60006115978360028681548110610a1f57fe5b6000546040516370a0823160e01b815291925082916001600160a01b03909116906370a08231906115cc90869060040161204e565b60206040518083038186803b1580156115e457600080fd5b505afa1580156115f8573d6000803e3d6000fd5b505050506040513d601f19601f8201168201806040525081019061161c9190611ff9565b101561163a5760405162461bcd60e51b815260040161034a90612217565b6000546040517fdd62ed3e00000000000000000000000000000000000000000000000000000000815282916001600160a01b03169063dd62ed3e906116859086903090600401612062565b60206040518083038186803b15801561169d57600080fd5b505afa1580156116b1573d6000803e3d6000fd5b505050506040513d601f19601f820116820180604052508101906116d59190611ff9565b10156116f35760405162461bcd60e51b815260040161034a906121e0565b60005461170b906001600160a01b0316833084611b13565b6001600160a01b03821660009081526004602052604090205461172e9082611a3f565b6001600160a01b0383166000908152600460205260409020556008546117549082611a3f565b600855600c546117799061177090606490610bc39085906119fe565b600b5490611a3f565b600b556001600160a01b03821660009081526005602090815260408083208784529091529020546117aa9084611a3f565b6001600160a01b03831660009081526005602090815260408083208884528252808320939093556006905220546117e19084611a3f565b6000858152600660205260409081902091909155517fddc82401ab579d868e816af720a563cdf9f9d0350abb3fa3266bcf33dd4f48ab9061182790429085908790612526565b60405180910390a150505050565b60046020526000908152604090208054600182015460029092015490919083565b600b5481565b600560209081526000928352604080842090915290825290205481565b6001600160a01b03919091166000908152600560209081526040808320938352929052205490565b600e5481565b60105481565b60085481565b600f546001600160a01b038216600090815260046020526040812054909161143c91606491610bc391906119fe565b60075490565b600d5481565b60006118f933610c5f565b9050600260008154811061190957fe5b90600052602060002001548110156119335760405162461bcd60e51b815260040161034a90612172565b6000611960600260008154811061194657fe5b906000526020600020015483611a8c90919063ffffffff16565b905061196a610ee1565b610fde600082611b34565b60115481565b610c5a8363a9059cbb60e01b848460405160240161199a9291906120a0565b60408051601f198184030181529190526020810180517bffffffffffffffffffffffffffffffffffffffffffffffffffffffff167fffffffff0000000000000000000000000000000000000000000000000000000090931692909217909152611b94565b600082611a0d5750600061143c565b82820282848281611a1a57fe5b0414611a385760405162461bcd60e51b815260040161034a906123be565b9392505050565b600082820183811015611a385760405162461bcd60e51b815260040161034a906121a9565b600082821115611a865760405162461bcd60e51b815260040161034a9061224e565b50900390565b6000808211611aad5760405162461bcd60e51b815260040161034a90612350565b818381611ab657fe5b049392505050565b80156111f057611aed611ae4611ad26109e9565b610bc384678ac7230489e800006119fe565b600e5490611a3f565b600e55600d54611afd9082611a3f565b600d55600a54611b0d9082611a3f565b600a5550565b61117f846323b872dd60e01b85858560405160240161199a9392919061207c565b601354339060ff168015611b4a57506012544210155b611b665760405162461bcd60e51b815260040161034a90612489565b60015483108015611b78575060025483105b6114aa5760405162461bcd60e51b815260040161034a90612387565b6060611be9826040518060400160405280602081526020017f5361666545524332303a206c6f772d6c6576656c2063616c6c206661696c6564815250856001600160a01b0316611c239092919063ffffffff16565b805190915015610c5a5780806020019051810190611c079190611fc5565b610c5a5760405162461bcd60e51b815260040161034a906124c0565b6060611c328484600085611c3a565b949350505050565b606082471015611c5c5760405162461bcd60e51b815260040161034a906122f3565b611c6585611cfb565b611c815760405162461bcd60e51b815260040161034a90612452565b60006060866001600160a01b03168587604051611c9e9190612032565b60006040518083038185875af1925050503d8060008114611cdb576040519150601f19603f3d011682016040523d82523d6000602084013e611ce0565b606091505b5091509150611cf0828286611d01565b979650505050505050565b3b151590565b60608315611d10575081611a38565b825115611d205782518084602001fd5b8160405162461bcd60e51b815260040161034a9190612108565b828054828255906000526020600020908101928215611d75579160200282015b82811115611d75578251825591602001919060010190611d5a565b50611d81929150611d85565b5090565b5b80821115611d815760008155600101611d86565b600082601f830112611daa578081fd5b813567ffffffffffffffff811115611dc0578182fd5b6020808202611dd082820161255b565b83815293508184018583018287018401881015611dec57600080fd5b600092505b84831015611e0f578035825260019290920191908301908301611df1565b505050505092915050565b600060208284031215611e2b578081fd5b8135611a38816125ae565b60008060408385031215611e48578081fd5b8235611e53816125ae565b9150602083013567ffffffffffffffff811115611e6e578182fd5b611e7a85828601611d9a565b9150509250929050565b6000808284036080811215611e97578283fd5b8335611ea2816125ae565b92506060601f1982011215611eb5578182fd5b50611ec0606061255b565b602084013581526040840135602082015260608401356040820152809150509250929050565b60008060408385031215611ef8578182fd5b8235611f03816125ae565b946020939093013593505050565b600080600060608486031215611f25578081fd5b8335611f30816125ae565b9250602084013591506040840135611f47816125ae565b809150509250925092565b60008060408385031215611f64578182fd5b823567ffffffffffffffff80821115611f7b578384fd5b611f8786838701611d9a565b93506020850135915080821115611f9c578283fd5b50611e7a85828601611d9a565b600060208284031215611fba578081fd5b8135611a38816125c3565b600060208284031215611fd6578081fd5b8151611a38816125c3565b600060208284031215611ff2578081fd5b5035919050565b60006020828403121561200a578081fd5b5051919050565b60008060408385031215612023578182fd5b50508035926020909101359150565b60008251612044818460208701612582565b9190910192915050565b6001600160a01b0391909116815260200190565b6001600160a01b0392831681529116602082015260400190565b6001600160a01b039384168152919092166020820152604081019190915260600190565b6001600160a01b03929092168252602082015260400190565b6020808252825182820181905260009190848201906040850190845b818110156120f1578351835292840192918401916001016120d5565b50909695505050505050565b901515815260200190565b6000602082528251806020840152612127816040850160208701612582565b601f01601f19169190910160400192915050565b60208082526016908201527f43616c6c6572206973206e6f7420746865206465762100000000000000000000604082015260600190565b60208082526016908201527f4e6f7420656e6f75676820746f20636f6d706f756e6400000000000000000000604082015260600190565b6020808252601b908201527f536166654d6174683a206164646974696f6e206f766572666c6f770000000000604082015260600190565b60208082526016908201527f496e73756666696369656e7420616c6c6f77616e636500000000000000000000604082015260600190565b60208082526014908201527f496e73756666696369656e742062616c616e6365000000000000000000000000604082015260600190565b6020808252601e908201527f536166654d6174683a207375627472616374696f6e206f766572666c6f770000604082015260600190565b60208082526010908201527f446f206e6f742073656e642043524f2e00000000000000000000000000000000604082015260600190565b6020808252600c908201527f5a65726f20616464726573730000000000000000000000000000000000000000604082015260600190565b60208082526026908201527f416464726573733a20696e73756666696369656e742062616c616e636520666f60408201527f722063616c6c0000000000000000000000000000000000000000000000000000606082015260800190565b6020808252601a908201527f536166654d6174683a206469766973696f6e206279207a65726f000000000000604082015260600190565b60208082526010908201527f496e76616c6964206e6f64655469657200000000000000000000000000000000604082015260600190565b60208082526021908201527f536166654d6174683a206d756c7469706c69636174696f6e206f766572666c6f60408201527f7700000000000000000000000000000000000000000000000000000000000000606082015260800190565b6020808252600f908201527f4c656e677468206d69736d617463680000000000000000000000000000000000604082015260600190565b6020808252601d908201527f416464726573733a2063616c6c20746f206e6f6e2d636f6e7472616374000000604082015260600190565b60208082526008908201527f44697361626c6564000000000000000000000000000000000000000000000000604082015260600190565b6020808252602a908201527f5361666545524332303a204552433230206f7065726174696f6e20646964206e60408201527f6f74207375636365656400000000000000000000000000000000000000000000606082015260800190565b90815260200190565b9283526001600160a01b03919091166020830152604082015260600190565b9283526020830191909152604082015260600190565b60405181810167ffffffffffffffff8111828210171561257a57600080fd5b604052919050565b60005b8381101561259d578181015183820152602001612585565b8381111561117f5750506000910152565b6001600160a01b03811681146111f057600080fd5b80151581146111f057600080fdfea26469706673582212208ce69bca0830912c5c7e40f0533532db2f9dc20620b88571929cd7875c4ca6d464736f6c634300060c0033",
  "devdoc": {
    "kind": "dev",
    "methods": {},
    "version": 1
  },
  "userdoc": {
    "kind": "user",
    "methods": {},
    "version": 1
  },
  "storageLayout": {
    "storage": [
      {
        "astId": 2961,
        "contract": "contracts/GlcrNode.sol:GlcrNode",
        "label": "TOKEN",
        "offset": 0,
        "slot": "0",
        "type": "t_contract(IERC20)1177"
      },
      {
        "astId": 2968,
        "contract": "contracts/GlcrNode.sol:GlcrNode",
        "label": "tierAllocPoints",
        "offset": 0,
        "slot": "1",
        "type": "t_array(t_uint256)dyn_storage"
      },
      {
        "astId": 2975,
        "contract": "contracts/GlcrNode.sol:GlcrNode",
        "label": "tierAmounts",
        "offset": 0,
        "slot": "2",
        "type": "t_array(t_uint256)dyn_storage"
      },
      {
        "astId": 2992,
        "contract": "contracts/GlcrNode.sol:GlcrNode",
        "label": "dev",
        "offset": 0,
        "slot": "3",
        "type": "t_address"
      },
      {
        "astId": 2996,
        "contract": "contracts/GlcrNode.sol:GlcrNode",
        "label": "users",
        "offset": 0,
        "slot": "4",
        "type": "t_mapping(t_address,t_struct(User)2982_storage)"
      },
      {
        "astId": 3002,
        "contract": "contracts/GlcrNode.sol:GlcrNode",
        "label": "nodes",
        "offset": 0,
        "slot": "5",
        "type": "t_mapping(t_address,t_mapping(t_uint256,t_uint256))"
      },
      {
        "astId": 3006,
        "contract": "contracts/GlcrNode.sol:GlcrNode",
        "label": "totalNodes",
        "offset": 0,
        "slot": "6",
        "type": "t_mapping(t_uint256,t_uint256)"
      },
      {
        "astId": 3009,
        "contract": "contracts/GlcrNode.sol:GlcrNode",
        "label": "userIndices",
        "offset": 0,
        "slot": "7",
        "type": "t_array(t_address)dyn_storage"
      },
      {
        "astId": 3011,
        "contract": "contracts/GlcrNode.sol:GlcrNode",
        "label": "total_deposited",
        "offset": 0,
        "slot": "8",
        "type": "t_uint256"
      },
      {
        "astId": 3013,
        "contract": "contracts/GlcrNode.sol:GlcrNode",
        "label": "total_claimed",
        "offset": 0,
        "slot": "9",
        "type": "t_uint256"
      },
      {
        "astId": 3015,
        "contract": "contracts/GlcrNode.sol:GlcrNode",
        "label": "total_rewards",
        "offset": 0,
        "slot": "10",
        "type": "t_uint256"
      },
      {
        "astId": 3017,
        "contract": "contracts/GlcrNode.sol:GlcrNode",
        "label": "treasury_rewards",
        "offset": 0,
        "slot": "11",
        "type": "t_uint256"
      },
      {
        "astId": 3019,
        "contract": "contracts/GlcrNode.sol:GlcrNode",
        "label": "treasuryFeePercent",
        "offset": 0,
        "slot": "12",
        "type": "t_uint256"
      },
      {
        "astId": 3021,
        "contract": "contracts/GlcrNode.sol:GlcrNode",
        "label": "totalDistributeRewards",
        "offset": 0,
        "slot": "13",
        "type": "t_uint256"
      },
      {
        "astId": 3023,
        "contract": "contracts/GlcrNode.sol:GlcrNode",
        "label": "totalDistributePoints",
        "offset": 0,
        "slot": "14",
        "type": "t_uint256"
      },
      {
        "astId": 3025,
        "contract": "contracts/GlcrNode.sol:GlcrNode",
        "label": "maxReturnPercent",
        "offset": 0,
        "slot": "15",
        "type": "t_uint256"
      },
      {
        "astId": 3027,
        "contract": "contracts/GlcrNode.sol:GlcrNode",
        "label": "dripRate",
        "offset": 0,
        "slot": "16",
        "type": "t_uint256"
      },
      {
        "astId": 3029,
        "contract": "contracts/GlcrNode.sol:GlcrNode",
        "label": "lastDripTime",
        "offset": 0,
        "slot": "17",
        "type": "t_uint256"
      },
      {
        "astId": 3031,
        "contract": "contracts/GlcrNode.sol:GlcrNode",
        "label": "startTime",
        "offset": 0,
        "slot": "18",
        "type": "t_uint256"
      },
      {
        "astId": 3033,
        "contract": "contracts/GlcrNode.sol:GlcrNode",
        "label": "enabled",
        "offset": 0,
        "slot": "19",
        "type": "t_bool"
      }
    ],
    "types": {
      "t_address": {
        "encoding": "inplace",
        "label": "address",
        "numberOfBytes": "20"
      },
      "t_array(t_address)dyn_storage": {
        "base": "t_address",
        "encoding": "dynamic_array",
        "label": "address[]",
        "numberOfBytes": "32"
      },
      "t_array(t_uint256)dyn_storage": {
        "base": "t_uint256",
        "encoding": "dynamic_array",
        "label": "uint256[]",
        "numberOfBytes": "32"
      },
      "t_bool": {
        "encoding": "inplace",
        "label": "bool",
        "numberOfBytes": "1"
      },
      "t_contract(IERC20)1177": {
        "encoding": "inplace",
        "label": "contract IERC20",
        "numberOfBytes": "20"
      },
      "t_mapping(t_address,t_mapping(t_uint256,t_uint256))": {
        "encoding": "mapping",
        "key": "t_address",
        "label": "mapping(address => mapping(uint256 => uint256))",
        "numberOfBytes": "32",
        "value": "t_mapping(t_uint256,t_uint256)"
      },
      "t_mapping(t_address,t_struct(User)2982_storage)": {
        "encoding": "mapping",
        "key": "t_address",
        "label": "mapping(address => struct GlcrNode.User)",
        "numberOfBytes": "32",
        "value": "t_struct(User)2982_storage"
      },
      "t_mapping(t_uint256,t_uint256)": {
        "encoding": "mapping",
        "key": "t_uint256",
        "label": "mapping(uint256 => uint256)",
        "numberOfBytes": "32",
        "value": "t_uint256"
      },
      "t_struct(User)2982_storage": {
        "encoding": "inplace",
        "label": "struct GlcrNode.User",
        "members": [
          {
            "astId": 2977,
            "contract": "contracts/GlcrNode.sol:GlcrNode",
            "label": "total_deposits",
            "offset": 0,
            "slot": "0",
            "type": "t_uint256"
          },
          {
            "astId": 2979,
            "contract": "contracts/GlcrNode.sol:GlcrNode",
            "label": "total_claims",
            "offset": 0,
            "slot": "1",
            "type": "t_uint256"
          },
          {
            "astId": 2981,
            "contract": "contracts/GlcrNode.sol:GlcrNode",
            "label": "last_distPoints",
            "offset": 0,
            "slot": "2",
            "type": "t_uint256"
          }
        ],
        "numberOfBytes": "96"
      },
      "t_uint256": {
        "encoding": "inplace",
        "label": "uint256",
        "numberOfBytes": "32"
      }
    }
  }
}