{
  "address": "0xF377e8DD281fc3F3b1E6F131509e92f574ca0cBA",
  "abi": [
    {
      "inputs": [
        {
          "internalType": "address",
          "name": "_glcr",
          "type": "address"
        },
        {
          "internalType": "address",
          "name": "_daoFund",
          "type": "address"
        },
        {
          "internalType": "uint256",
          "name": "_poolStartTime",
          "type": "uint256"
        }
      ],
      "stateMutability": "nonpayable",
      "type": "constructor"
    },
    {
      "anonymous": false,
      "inputs": [
        {
          "indexed": true,
          "internalType": "address",
          "name": "user",
          "type": "address"
        },
        {
          "indexed": true,
          "internalType": "uint256",
          "name": "pid",
          "type": "uint256"
        },
        {
          "indexed": false,
          "internalType": "uint256",
          "name": "amount",
          "type": "uint256"
        }
      ],
      "name": "Deposit",
      "type": "event"
    },
    {
      "anonymous": false,
      "inputs": [
        {
          "indexed": true,
          "internalType": "address",
          "name": "user",
          "type": "address"
        },
        {
          "indexed": true,
          "internalType": "uint256",
          "name": "pid",
          "type": "uint256"
        },
        {
          "indexed": false,
          "internalType": "uint256",
          "name": "amount",
          "type": "uint256"
        }
      ],
      "name": "EmergencyWithdraw",
      "type": "event"
    },
    {
      "anonymous": false,
      "inputs": [
        {
          "indexed": true,
          "internalType": "address",
          "name": "user",
          "type": "address"
        },
        {
          "indexed": false,
          "internalType": "uint256",
          "name": "amount",
          "type": "uint256"
        }
      ],
      "name": "RewardPaid",
      "type": "event"
    },
    {
      "anonymous": false,
      "inputs": [
        {
          "indexed": true,
          "internalType": "address",
          "name": "user",
          "type": "address"
        },
        {
          "indexed": true,
          "internalType": "uint256",
          "name": "pid",
          "type": "uint256"
        },
        {
          "indexed": false,
          "internalType": "uint256",
          "name": "amount",
          "type": "uint256"
        }
      ],
      "name": "Withdraw",
      "type": "event"
    },
    {
      "inputs": [],
      "name": "RUNNING_TIME",
      "outputs": [
        {
          "internalType": "uint256",
          "name": "",
          "type": "uint256"
        }
      ],
      "stateMutability": "view",
      "type": "function"
    },
    {
      "inputs": [],
      "name": "TOTAL_REWARDS",
      "outputs": [
        {
          "internalType": "uint256",
          "name": "",
          "type": "uint256"
        }
      ],
      "stateMutability": "view",
      "type": "function"
    },
    {
      "inputs": [
        {
          "internalType": "uint256",
          "name": "_allocPoint",
          "type": "uint256"
        },
        {
          "internalType": "contract IERC20",
          "name": "_token",
          "type": "address"
        },
        {
          "internalType": "bool",
          "name": "_withUpdate",
          "type": "bool"
        },
        {
          "internalType": "uint256",
          "name": "_lastRewardTime",
          "type": "uint256"
        }
      ],
      "name": "add",
      "outputs": [],
      "stateMutability": "nonpayable",
      "type": "function"
    },
    {
      "inputs": [],
      "name": "daoFund",
      "outputs": [
        {
          "internalType": "address",
          "name": "",
          "type": "address"
        }
      ],
      "stateMutability": "view",
      "type": "function"
    },
    {
      "inputs": [
        {
          "internalType": "uint256",
          "name": "_pid",
          "type": "uint256"
        },
        {
          "internalType": "uint256",
          "name": "_amount",
          "type": "uint256"
        }
      ],
      "name": "deposit",
      "outputs": [],
      "stateMutability": "nonpayable",
      "type": "function"
    },
    {
      "inputs": [
        {
          "internalType": "uint256",
          "name": "_pid",
          "type": "uint256"
        }
      ],
      "name": "emergencyWithdraw",
      "outputs": [],
      "stateMutability": "nonpayable",
      "type": "function"
    },
    {
      "inputs": [
        {
          "internalType": "uint256",
          "name": "_fromTime",
          "type": "uint256"
        },
        {
          "internalType": "uint256",
          "name": "_toTime",
          "type": "uint256"
        }
      ],
      "name": "getGeneratedReward",
      "outputs": [
        {
          "internalType": "uint256",
          "name": "",
          "type": "uint256"
        }
      ],
      "stateMutability": "view",
      "type": "function"
    },
    {
      "inputs": [],
      "name": "getWithdrawFeePercent",
      "outputs": [
        {
          "internalType": "uint256",
          "name": "",
          "type": "uint256"
        }
      ],
      "stateMutability": "view",
      "type": "function"
    },
    {
      "inputs": [],
      "name": "glcr",
      "outputs": [
        {
          "internalType": "contract IERC20",
          "name": "",
          "type": "address"
        }
      ],
      "stateMutability": "view",
      "type": "function"
    },
    {
      "inputs": [],
      "name": "glcrPerSecond",
      "outputs": [
        {
          "internalType": "uint256",
          "name": "",
          "type": "uint256"
        }
      ],
      "stateMutability": "view",
      "type": "function"
    },
    {
      "inputs": [
        {
          "internalType": "address",
          "name": "_token",
          "type": "address"
        },
        {
          "internalType": "uint256",
          "name": "amount",
          "type": "uint256"
        },
        {
          "internalType": "address",
          "name": "to",
          "type": "address"
        }
      ],
      "name": "governanceRecoverUnsupported",
      "outputs": [],
      "stateMutability": "nonpayable",
      "type": "function"
    },
    {
      "inputs": [],
      "name": "massUpdatePools",
      "outputs": [],
      "stateMutability": "nonpayable",
      "type": "function"
    },
    {
      "inputs": [],
      "name": "operator",
      "outputs": [
        {
          "internalType": "address",
          "name": "",
          "type": "address"
        }
      ],
      "stateMutability": "view",
      "type": "function"
    },
    {
      "inputs": [
        {
          "internalType": "uint256",
          "name": "_pid",
          "type": "uint256"
        },
        {
          "internalType": "address",
          "name": "_user",
          "type": "address"
        }
      ],
      "name": "pendingShare",
      "outputs": [
        {
          "internalType": "uint256",
          "name": "",
          "type": "uint256"
        }
      ],
      "stateMutability": "view",
      "type": "function"
    },
    {
      "inputs": [],
      "name": "poolEndTime",
      "outputs": [
        {
          "internalType": "uint256",
          "name": "",
          "type": "uint256"
        }
      ],
      "stateMutability": "view",
      "type": "function"
    },
    {
      "inputs": [
        {
          "internalType": "uint256",
          "name": "",
          "type": "uint256"
        }
      ],
      "name": "poolInfo",
      "outputs": [
        {
          "internalType": "contract IERC20",
          "name": "token",
          "type": "address"
        },
        {
          "internalType": "uint256",
          "name": "allocPoint",
          "type": "uint256"
        },
        {
          "internalType": "uint256",
          "name": "lastRewardTime",
          "type": "uint256"
        },
        {
          "internalType": "uint256",
          "name": "accglcrPerShare",
          "type": "uint256"
        },
        {
          "internalType": "bool",
          "name": "isStarted",
          "type": "bool"
        }
      ],
      "stateMutability": "view",
      "type": "function"
    },
    {
      "inputs": [],
      "name": "poolStartTime",
      "outputs": [
        {
          "internalType": "uint256",
          "name": "",
          "type": "uint256"
        }
      ],
      "stateMutability": "view",
      "type": "function"
    },
    {
      "inputs": [
        {
          "internalType": "uint256",
          "name": "_pid",
          "type": "uint256"
        },
        {
          "internalType": "uint256",
          "name": "_allocPoint",
          "type": "uint256"
        }
      ],
      "name": "set",
      "outputs": [],
      "stateMutability": "nonpayable",
      "type": "function"
    },
    {
      "inputs": [
        {
          "internalType": "address",
          "name": "_daoFund",
          "type": "address"
        }
      ],
      "name": "setDaoFund",
      "outputs": [],
      "stateMutability": "nonpayable",
      "type": "function"
    },
    {
      "inputs": [
        {
          "internalType": "address",
          "name": "_operator",
          "type": "address"
        }
      ],
      "name": "setOperator",
      "outputs": [],
      "stateMutability": "nonpayable",
      "type": "function"
    },
    {
      "inputs": [
        {
          "internalType": "uint8",
          "name": "_index",
          "type": "uint8"
        },
        {
          "internalType": "uint256",
          "name": "_value",
          "type": "uint256"
        }
      ],
      "name": "setStakingTiersEntry",
      "outputs": [],
      "stateMutability": "nonpayable",
      "type": "function"
    },
    {
      "inputs": [
        {
          "internalType": "uint8",
          "name": "_index",
          "type": "uint8"
        },
        {
          "internalType": "uint256",
          "name": "_value",
          "type": "uint256"
        }
      ],
      "name": "setTaxTiersEntry",
      "outputs": [],
      "stateMutability": "nonpayable",
      "type": "function"
    },
    {
      "inputs": [
        {
          "internalType": "bool",
          "name": "_enableTaxes",
          "type": "bool"
        }
      ],
      "name": "setTaxesStatus",
      "outputs": [],
      "stateMutability": "nonpayable",
      "type": "function"
    },
    {
      "inputs": [
        {
          "internalType": "uint256",
          "name": "",
          "type": "uint256"
        }
      ],
      "name": "stakingTires",
      "outputs": [
        {
          "internalType": "uint256",
          "name": "",
          "type": "uint256"
        }
      ],
      "stateMutability": "view",
      "type": "function"
    },
    {
      "inputs": [],
      "name": "totalAllocPoint",
      "outputs": [
        {
          "internalType": "uint256",
          "name": "",
          "type": "uint256"
        }
      ],
      "stateMutability": "view",
      "type": "function"
    },
    {
      "inputs": [
        {
          "internalType": "uint256",
          "name": "_pid",
          "type": "uint256"
        }
      ],
      "name": "updatePool",
      "outputs": [],
      "stateMutability": "nonpayable",
      "type": "function"
    },
    {
      "inputs": [
        {
          "internalType": "uint256",
          "name": "",
          "type": "uint256"
        },
        {
          "internalType": "address",
          "name": "",
          "type": "address"
        }
      ],
      "name": "userInfo",
      "outputs": [
        {
          "internalType": "uint256",
          "name": "amount",
          "type": "uint256"
        },
        {
          "internalType": "uint256",
          "name": "rewardDebt",
          "type": "uint256"
        }
      ],
      "stateMutability": "view",
      "type": "function"
    },
    {
      "inputs": [
        {
          "internalType": "uint256",
          "name": "_pid",
          "type": "uint256"
        },
        {
          "internalType": "uint256",
          "name": "_amount",
          "type": "uint256"
        }
      ],
      "name": "withdraw",
      "outputs": [],
      "stateMutability": "nonpayable",
      "type": "function"
    },
    {
      "inputs": [
        {
          "internalType": "uint256",
          "name": "",
          "type": "uint256"
        }
      ],
      "name": "withdrawTaxTires",
      "outputs": [
        {
          "internalType": "uint256",
          "name": "",
          "type": "uint256"
        }
      ],
      "stateMutability": "view",
      "type": "function"
    }
  ],
  "transactionHash": "0x38c9ebe219fbf7188b7f644f8db50d9a773e4add76e934a530c612a1178f3a85",
  "args": [
    "0xbe27f32D9F731CC9DddAfE3ddaA7CBBC0f58b414",
    "0xeDc5E564811b96Ec8ca2336895C66b3B88F9ef66",
    1667260800
  ],
  "numDeployments": 1,
  "solcInputHash": "63674f7f37222e2e62c35a0995ff0fc0",
  "bytecode": "0x600060059081556301dfe200600955600a805460ff1916600117905561012060405262093a8060809081526212750060a052621baf8060c0526224ea0060e052622e2480610100526200005691600b9190620002ab565b506040805160a0810182526101f48152610190602082015261012c9181019190915260c86060820152606460808201526200009690600c90600562000302565b50348015620000a457600080fd5b50604051620021dc380380620021dc83398181016040526060811015620000ca57600080fd5b508051602082015160409092015190919042811162000119576040805162461bcd60e51b815260206004808301919091526024820152636c61746560e01b604482015290519081900360640190fd5b6001600160a01b0383166200015d576040805162461bcd60e51b81526020600482015260056024820152642fb3b631b960d91b604482015290519081900360640190fd5b6001600160a01b038216620001a4576040805162461bcd60e51b815260206004820152600860248201526717d9185bd19d5b9960c21b604482015290519081900360640190fd5b600280546001600160a01b03199081166001600160a01b03868116919091179092556001805490911691841691909117905562000219603c62000205818160188169048d8470181e3270000061016d62000242602090811b620016cd17901c565b6200024260201b620016cd1790919060201c565b6008556006819055600954016007555050600080546001600160a01b031916331790556200035d565b600080821162000299576040805162461bcd60e51b815260206004820152601a60248201527f536166654d6174683a206469766973696f6e206279207a65726f000000000000604482015290519081900360640190fd5b818381620002a357fe5b049392505050565b828054828255906000526020600020908101928215620002f0579160200282015b82811115620002f0578251829062ffffff16905591602001919060010190620002cc565b50620002fe92915062000346565b5090565b828054828255906000526020600020908101928215620002f0579160200282015b82811115620002f0578251829061ffff1690559160200191906001019062000323565b5b80821115620002fe576000815560010162000347565b611e6f806200036d6000396000f3fe608060405234801561001057600080fd5b50600436106101cf5760003560e01c80635312ea8e116101045780638d934f74116100a2578063b334988011610071578063b3349880146104cb578063b3ab15fb146104d3578063cf4b55cb146104f9578063e2bbb15814610525576101cf565b80638d934f741461043c57806393f1a40b1461044457806396805e5414610489578063b0e2a014146104c3576101cf565b80635f96dc11116100de5780635f96dc1114610405578063630b5ba11461040d5780636e271dd5146104155780637a42481a1461041d576101cf565b80635312ea8e146103aa57806354575af4146103c7578063570ca735146103fd576101cf565b80631cc9092a116101715780633406037f1161014b5780633406037f1461033c578063441a3e7014610344578063497b21db1461036757806351eb05a61461038d576101cf565b80631cc9092a146102cf578063231f0c6a146102f35780632c559d2714610316576101cf565b80631526fe27116101ad5780631526fe271461023357806317caf6f1146102875780631ab06ee51461028f5780631c6e253f146102b2576101cf565b806304567280146101d4578063070889b21461020357806309cf60911461022b575b600080fd5b6101f1600480360360208110156101ea57600080fd5b5035610548565b60408051918252519081900360200190f35b6102296004803603604081101561021957600080fd5b5060ff8135169060200135610566565b005b6101f1610677565b6102506004803603602081101561024957600080fd5b5035610685565b604080516001600160a01b039096168652602086019490945284840192909252606084015215156080830152519081900360a00190f35b6101f16106d0565b610229600480360360408110156102a557600080fd5b50803590602001356106d6565b6101f1600480360360208110156102c857600080fd5b5035610784565b6102d7610791565b604080516001600160a01b039092168252519081900360200190f35b6101f16004803603604081101561030957600080fd5b50803590602001356107a0565b6102296004803603602081101561032c57600080fd5b50356001600160a01b0316610865565b6101f16108dd565b6102296004803603604081101561035a57600080fd5b50803590602001356108e3565b6102296004803603604081101561037d57600080fd5b5060ff8135169060200135610b21565b610229600480360360208110156103a357600080fd5b5035610c2a565b610229600480360360208110156103c057600080fd5b5035610d88565b610229600480360360608110156103dd57600080fd5b506001600160a01b03813581169160208101359160409091013516610e50565b6102d7611033565b6101f1611042565b610229611048565b6101f161106b565b6102296004803603602081101561043357600080fd5b50351515611071565b6102d76110cd565b6104706004803603604081101561045a57600080fd5b50803590602001356001600160a01b03166110dc565b6040805192835260208301919091528051918290030190f35b6102296004803603608081101561049f57600080fd5b508035906001600160a01b0360208201351690604081013515159060600135611100565b6101f1611309565b6101f161130f565b610229600480360360208110156104e957600080fd5b50356001600160a01b0316611384565b6101f16004803603604081101561050f57600080fd5b50803590602001356001600160a01b03166113fc565b6102296004803603604081101561053b57600080fd5b508035906020013561155d565b600b818154811061055557fe5b600091825260209091200154905081565b6000546001600160a01b031633146105af5760405162461bcd60e51b815260040180806020018281038252602a815260200180611d9c602a913960400191505060405180910390fd5b600c5460ff8316106105f25760405162461bcd60e51b8152600401808060200182810382526029815260200180611de76029913960400191505060405180910390fd5b600a811015801561060557506107d08111155b610656576040805162461bcd60e51b815260206004820152601460248201527f5f76616c75653a206f7574206f662072616e6765000000000000000000000000604482015290519081900360640190fd5b80600c8360ff168154811061066757fe5b6000918252602090912001555050565b69048d8470181e3270000081565b6003818154811061069257fe5b6000918252602090912060059091020180546001820154600283015460038401546004909401546001600160a01b0390931694509092909160ff1685565b60055481565b6000546001600160a01b0316331461071f5760405162461bcd60e51b815260040180806020018281038252602a815260200180611d9c602a913960400191505060405180910390fd5b610727611048565b60006003838154811061073657fe5b60009182526020909120600590910201600481015490915060ff161561077d5761077982610773836001015460055461173490919063ffffffff16565b90611791565b6005555b6001015550565b600c818154811061055557fe5b6002546001600160a01b031681565b60008183106107b15750600061085f565b60075482106108195760075483106107cb5750600061085f565b60065483116107fe576107f76008546107f160065460075461173490919063ffffffff16565b906117f2565b905061085f565b6107f76008546107f18560075461173490919063ffffffff16565b600654821161082a5750600061085f565b600654831161084e576107f76008546107f16006548561173490919063ffffffff16565b6008546107f7906107f18486611734565b92915050565b6000546001600160a01b031633146108ae5760405162461bcd60e51b815260040180806020018281038252602a815260200180611d9c602a913960400191505060405180910390fd5b6001805473ffffffffffffffffffffffffffffffffffffffff19166001600160a01b0392909216919091179055565b60095481565b60003390506000600384815481106108f757fe5b600091825260208083208784526004825260408085206001600160a01b0388168652909252922080546005909202909201925084111561097e576040805162461bcd60e51b815260206004820152601260248201527f77697468647261773a206e6f7420676f6f640000000000000000000000000000604482015290519081900360640190fd5b61098785610c2a565b60006109c482600101546109be670de0b6b3a76400006109b8876003015487600001546117f290919063ffffffff16565b906116cd565b90611734565b90508015610a16576109d6848261184b565b6040805182815290516001600160a01b038616917fe2403640ba68fed3a2f88b7557551d1993f84b99bb10ff833f0cf8db0c5e0486919081900360200190a25b8415610ab6578154610a289086611734565b82556000610a446127106109b8610a3d61130f565b89906117f2565b600a5490915060ff168015610a5857508015155b15610a9e576001548454610a79916001600160a01b0391821691168361190a565b610a9985610a878884611734565b86546001600160a01b0316919061190a565b610ab4565b8354610ab4906001600160a01b0316868861190a565b505b60038301548254610ad491670de0b6b3a7640000916109b8916117f2565b600183015560408051868152905187916001600160a01b038716917ff279e6a1f5e320cca91135676d9cb6e44ca8a08c0b88342bcdb1144f6511b5689181900360200190a3505050505050565b6000546001600160a01b03163314610b6a5760405162461bcd60e51b815260040180806020018281038252602a815260200180611d9c602a913960400191505060405180910390fd5b600b5460ff831610610bad5760405162461bcd60e51b8152600401808060200182810382526029815260200180611de76029913960400191505060405180910390fd5b60ff821615610bdf57600b6001830360ff1681548110610bc957fe5b90600052602060002001548110610bdf57600080fd5b600b546000190160ff83161015610c1957600b8260010160ff1681548110610c0357fe5b90600052602060002001548111610c1957600080fd5b80600b8360ff168154811061066757fe5b600060038281548110610c3957fe5b9060005260206000209060050201905080600201544211610c5a5750610d85565b8054604080516370a0823160e01b815230600482015290516000926001600160a01b0316916370a08231916024808301926020929190829003018186803b158015610ca457600080fd5b505afa158015610cb8573d6000803e3d6000fd5b505050506040513d6020811015610cce57600080fd5b5051905080610ce4575042600290910155610d85565b600482015460ff16610d155760048201805460ff19166001908117909155820154600554610d1191611791565b6005555b60055415610d7c576000610d2d8360020154426107a0565b90506000610d4e6005546109b88660010154856117f290919063ffffffff16565b9050610d74610d69846109b884670de0b6b3a76400006117f2565b600386015490611791565b600385015550505b50426002909101555b50565b600060038281548110610d9757fe5b600091825260208083208584526004825260408085203386529092529083208054848255600182018590556005909302909101935091610de56127106109b8610dde61130f565b85906117f2565b6001548554919250610e04916001600160a01b0390811691168361190a565b610e1233610a878484611734565b604080518381529051869133917fbb757047c2b5f3974fe26b7c10f732e7bce710b0952a71082702781e62ae05959181900360200190a35050505050565b6000546001600160a01b03163314610e995760405162461bcd60e51b815260040180806020018281038252602a815260200180611d9c602a913960400191505060405180910390fd5b6007546276a70001421015610fab576002546001600160a01b0384811691161415610f0d576040805162461bcd60e51b8152602060048083019190915260248201527f676c637200000000000000000000000000000000000000000000000000000000604482015290519081900360640190fd5b60035460005b81811015610fa857600060038281548110610f2a57fe5b6000918252602090912060059091020180549091506001600160a01b0387811691161415610f9f576040805162461bcd60e51b815260206004820152600a60248201527f706f6f6c2e746f6b656e00000000000000000000000000000000000000000000604482015290519081900360640190fd5b50600101610f13565b50505b826001600160a01b031663a9059cbb82846040518363ffffffff1660e01b815260040180836001600160a01b0316815260200182815260200192505050602060405180830381600087803b15801561100257600080fd5b505af1158015611016573d6000803e3d6000fd5b505050506040513d602081101561102c57600080fd5b5050505050565b6000546001600160a01b031681565b60065481565b60035460005b818110156110675761105f81610c2a565b60010161104e565b5050565b60075481565b6000546001600160a01b031633146110ba5760405162461bcd60e51b815260040180806020018281038252602a815260200180611d9c602a913960400191505060405180910390fd5b600a805460ff1916911515919091179055565b6001546001600160a01b031681565b60046020908152600092835260408084209091529082529020805460019091015482565b6000546001600160a01b031633146111495760405162461bcd60e51b815260040180806020018281038252602a815260200180611d9c602a913960400191505060405180910390fd5b6111528361198a565b811561116057611160611048565b60065442101561118c57806111785750600654611187565b60065481101561118757506006545b6111a0565b80158061119857504281105b156111a05750425b6000600654821115806111b35750428211155b6040805160a0810182526001600160a01b03878116825260208201898152928201868152600060608401818152861580156080870190815260038054600181018255945295517fc2575a0e9e593c00f959f8c92f12db2869c3395a3b0502d05e2516446f71f85b6005909402938401805473ffffffffffffffffffffffffffffffffffffffff1916919096161790945594517fc2575a0e9e593c00f959f8c92f12db2869c3395a3b0502d05e2516446f71f85c82015590517fc2575a0e9e593c00f959f8c92f12db2869c3395a3b0502d05e2516446f71f85d82015592517fc2575a0e9e593c00f959f8c92f12db2869c3395a3b0502d05e2516446f71f85e84015590517fc2575a0e9e593c00f959f8c92f12db2869c3395a3b0502d05e2516446f71f85f909201805460ff19169215159290921790915590915061102c576005546112ff9086611791565b6005555050505050565b60085481565b600042600654111561132357506000611381565b6006544203606460005b600b5481101561137c57600b818154811061134457fe5b9060005260206000200154831161137457600c818154811061136257fe5b9060005260206000200154915061137c565b60010161132d565b509150505b90565b6000546001600160a01b031633146113cd5760405162461bcd60e51b815260040180806020018281038252602a815260200180611d9c602a913960400191505060405180910390fd5b6000805473ffffffffffffffffffffffffffffffffffffffff19166001600160a01b0392909216919091179055565b6000806003848154811061140c57fe5b60009182526020808320878452600480835260408086206001600160a01b038a811688529085528187206005969096029093016003810154815483516370a0823160e01b81523095810195909552925191985095969491909316926370a08231926024808201939291829003018186803b15801561148957600080fd5b505afa15801561149d573d6000803e3d6000fd5b505050506040513d60208110156114b357600080fd5b50516002850154909150421180156114ca57508015155b156115275760006114df8560020154426107a0565b905060006115006005546109b88860010154856117f290919063ffffffff16565b905061152261151b846109b884670de0b6b3a76400006117f2565b8590611791565b935050505b61155283600101546109be670de0b6b3a76400006109b88688600001546117f290919063ffffffff16565b979650505050505050565b600033905060006003848154811061157157fe5b600091825260208083208784526004825260408085206001600160a01b03881686529092529220600590910290910191506115ab85610c2a565b8054156116375760006115e382600101546109be670de0b6b3a76400006109b8876003015487600001546117f290919063ffffffff16565b90508015611635576115f5848261184b565b6040805182815290516001600160a01b038616917fe2403640ba68fed3a2f88b7557551d1993f84b99bb10ff833f0cf8db0c5e0486919081900360200190a25b505b8315611663578154611654906001600160a01b0316843087611a24565b80546116609085611791565b81555b6003820154815461168191670de0b6b3a7640000916109b8916117f2565b600182015560408051858152905186916001600160a01b038616917f90890809c654f11d6e72a28fa60149770a0d11ec6c92319d6ceb2bb0a4ea1a159181900360200190a35050505050565b6000808211611723576040805162461bcd60e51b815260206004820152601a60248201527f536166654d6174683a206469766973696f6e206279207a65726f000000000000604482015290519081900360640190fd5b81838161172c57fe5b049392505050565b60008282111561178b576040805162461bcd60e51b815260206004820152601e60248201527f536166654d6174683a207375627472616374696f6e206f766572666c6f770000604482015290519081900360640190fd5b50900390565b6000828201838110156117eb576040805162461bcd60e51b815260206004820152601b60248201527f536166654d6174683a206164646974696f6e206f766572666c6f770000000000604482015290519081900360640190fd5b9392505050565b6000826118015750600061085f565b8282028284828161180e57fe5b04146117eb5760405162461bcd60e51b8152600401808060200182810382526021815260200180611dc66021913960400191505060405180910390fd5b600254604080516370a0823160e01b815230600482015290516000926001600160a01b0316916370a08231916024808301926020929190829003018186803b15801561189657600080fd5b505afa1580156118aa573d6000803e3d6000fd5b505050506040513d60208110156118c057600080fd5b50519050801561190557808211156118ee576002546118e9906001600160a01b0316848361190a565b611905565b600254611905906001600160a01b0316848461190a565b505050565b604080516001600160a01b038416602482015260448082018490528251808303909101815260649091019091526020810180517bffffffffffffffffffffffffffffffffffffffffffffffffffffffff167fa9059cbb00000000000000000000000000000000000000000000000000000000179052611905908490611ab2565b60035460005b8181101561190557826001600160a01b0316600382815481106119af57fe5b60009182526020909120600590910201546001600160a01b03161415611a1c576040805162461bcd60e51b815260206004820152601e60248201527f676c6372526577617264506f6f6c3a206578697374696e6720706f6f6c3f0000604482015290519081900360640190fd5b600101611990565b604080516001600160a01b0380861660248301528416604482015260648082018490528251808303909101815260849091019091526020810180517bffffffffffffffffffffffffffffffffffffffffffffffffffffffff167f23b872dd00000000000000000000000000000000000000000000000000000000179052611aac908590611ab2565b50505050565b6060611b07826040518060400160405280602081526020017f5361666545524332303a206c6f772d6c6576656c2063616c6c206661696c6564815250856001600160a01b0316611b639092919063ffffffff16565b80519091501561190557808060200190516020811015611b2657600080fd5b50516119055760405162461bcd60e51b815260040180806020018281038252602a815260200180611e10602a913960400191505060405180910390fd5b6060611b728484600085611b7a565b949350505050565b606082471015611bbb5760405162461bcd60e51b8152600401808060200182810382526026815260200180611d766026913960400191505060405180910390fd5b611bc485611ccb565b611c15576040805162461bcd60e51b815260206004820152601d60248201527f416464726573733a2063616c6c20746f206e6f6e2d636f6e7472616374000000604482015290519081900360640190fd5b60006060866001600160a01b031685876040518082805190602001908083835b60208310611c545780518252601f199092019160209182019101611c35565b6001836020036101000a03801982511681845116808217855250505050505090500191505060006040518083038185875af1925050503d8060008114611cb6576040519150601f19603f3d011682016040523d82523d6000602084013e611cbb565b606091505b5091509150611552828286611cd1565b3b151590565b60608315611ce05750816117eb565b825115611cf05782518084602001fd5b8160405162461bcd60e51b81526004018080602001828103825283818151815260200191508051906020019080838360005b83811015611d3a578181015183820152602001611d22565b50505050905090810190601f168015611d675780820380516001836020036101000a031916815260200191505b509250505060405180910390fdfe416464726573733a20696e73756666696369656e742062616c616e636520666f722063616c6c676c6372526577617264506f6f6c3a2063616c6c6572206973206e6f7420746865206f70657261746f72536166654d6174683a206d756c7469706c69636174696f6e206f766572666c6f77496e6465782068617320746f206265206c6f776572207468616e20636f756e74206f662074696572735361666545524332303a204552433230206f7065726174696f6e20646964206e6f742073756363656564a2646970667358221220349568150848f89d5cf5207f603dad3b8a38ae9931c02aa8f60d91cf4a60d15264736f6c634300060c0033",
  "devdoc": {
    "kind": "dev",
    "methods": {},
    "version": 1
  },
  "userdoc": {
    "kind": "user",
    "methods": {},
    "version": 1
  },
  "storageLayout": {
    "storage": [
      {
        "astId": 4777,
        "contract": "contracts/GlcrRewardPool.sol:GlcrRewardPool",
        "label": "operator",
        "offset": 0,
        "slot": "0",
        "type": "t_address"
      },
      {
        "astId": 4779,
        "contract": "contracts/GlcrRewardPool.sol:GlcrRewardPool",
        "label": "daoFund",
        "offset": 0,
        "slot": "1",
        "type": "t_address"
      },
      {
        "astId": 4797,
        "contract": "contracts/GlcrRewardPool.sol:GlcrRewardPool",
        "label": "glcr",
        "offset": 0,
        "slot": "2",
        "type": "t_contract(IERC20)1177"
      },
      {
        "astId": 4800,
        "contract": "contracts/GlcrRewardPool.sol:GlcrRewardPool",
        "label": "poolInfo",
        "offset": 0,
        "slot": "3",
        "type": "t_array(t_struct(PoolInfo)4795_storage)dyn_storage"
      },
      {
        "astId": 4806,
        "contract": "contracts/GlcrRewardPool.sol:GlcrRewardPool",
        "label": "userInfo",
        "offset": 0,
        "slot": "4",
        "type": "t_mapping(t_uint256,t_mapping(t_address,t_struct(UserInfo)4784_storage))"
      },
      {
        "astId": 4809,
        "contract": "contracts/GlcrRewardPool.sol:GlcrRewardPool",
        "label": "totalAllocPoint",
        "offset": 0,
        "slot": "5",
        "type": "t_uint256"
      },
      {
        "astId": 4811,
        "contract": "contracts/GlcrRewardPool.sol:GlcrRewardPool",
        "label": "poolStartTime",
        "offset": 0,
        "slot": "6",
        "type": "t_uint256"
      },
      {
        "astId": 4813,
        "contract": "contracts/GlcrRewardPool.sol:GlcrRewardPool",
        "label": "poolEndTime",
        "offset": 0,
        "slot": "7",
        "type": "t_uint256"
      },
      {
        "astId": 4815,
        "contract": "contracts/GlcrRewardPool.sol:GlcrRewardPool",
        "label": "glcrPerSecond",
        "offset": 0,
        "slot": "8",
        "type": "t_uint256"
      },
      {
        "astId": 4818,
        "contract": "contracts/GlcrRewardPool.sol:GlcrRewardPool",
        "label": "RUNNING_TIME",
        "offset": 0,
        "slot": "9",
        "type": "t_uint256"
      },
      {
        "astId": 4824,
        "contract": "contracts/GlcrRewardPool.sol:GlcrRewardPool",
        "label": "enableTaxes",
        "offset": 0,
        "slot": "10",
        "type": "t_bool"
      },
      {
        "astId": 4833,
        "contract": "contracts/GlcrRewardPool.sol:GlcrRewardPool",
        "label": "stakingTires",
        "offset": 0,
        "slot": "11",
        "type": "t_array(t_uint256)dyn_storage"
      },
      {
        "astId": 4842,
        "contract": "contracts/GlcrRewardPool.sol:GlcrRewardPool",
        "label": "withdrawTaxTires",
        "offset": 0,
        "slot": "12",
        "type": "t_array(t_uint256)dyn_storage"
      }
    ],
    "types": {
      "t_address": {
        "encoding": "inplace",
        "label": "address",
        "numberOfBytes": "20"
      },
      "t_array(t_struct(PoolInfo)4795_storage)dyn_storage": {
        "base": "t_struct(PoolInfo)4795_storage",
        "encoding": "dynamic_array",
        "label": "struct GlcrRewardPool.PoolInfo[]",
        "numberOfBytes": "32"
      },
      "t_array(t_uint256)dyn_storage": {
        "base": "t_uint256",
        "encoding": "dynamic_array",
        "label": "uint256[]",
        "numberOfBytes": "32"
      },
      "t_bool": {
        "encoding": "inplace",
        "label": "bool",
        "numberOfBytes": "1"
      },
      "t_contract(IERC20)1177": {
        "encoding": "inplace",
        "label": "contract IERC20",
        "numberOfBytes": "20"
      },
      "t_mapping(t_address,t_struct(UserInfo)4784_storage)": {
        "encoding": "mapping",
        "key": "t_address",
        "label": "mapping(address => struct GlcrRewardPool.UserInfo)",
        "numberOfBytes": "32",
        "value": "t_struct(UserInfo)4784_storage"
      },
      "t_mapping(t_uint256,t_mapping(t_address,t_struct(UserInfo)4784_storage))": {
        "encoding": "mapping",
        "key": "t_uint256",
        "label": "mapping(uint256 => mapping(address => struct GlcrRewardPool.UserInfo))",
        "numberOfBytes": "32",
        "value": "t_mapping(t_address,t_struct(UserInfo)4784_storage)"
      },
      "t_struct(PoolInfo)4795_storage": {
        "encoding": "inplace",
        "label": "struct GlcrRewardPool.PoolInfo",
        "members": [
          {
            "astId": 4786,
            "contract": "contracts/GlcrRewardPool.sol:GlcrRewardPool",
            "label": "token",
            "offset": 0,
            "slot": "0",
            "type": "t_contract(IERC20)1177"
          },
          {
            "astId": 4788,
            "contract": "contracts/GlcrRewardPool.sol:GlcrRewardPool",
            "label": "allocPoint",
            "offset": 0,
            "slot": "1",
            "type": "t_uint256"
          },
          {
            "astId": 4790,
            "contract": "contracts/GlcrRewardPool.sol:GlcrRewardPool",
            "label": "lastRewardTime",
            "offset": 0,
            "slot": "2",
            "type": "t_uint256"
          },
          {
            "astId": 4792,
            "contract": "contracts/GlcrRewardPool.sol:GlcrRewardPool",
            "label": "accglcrPerShare",
            "offset": 0,
            "slot": "3",
            "type": "t_uint256"
          },
          {
            "astId": 4794,
            "contract": "contracts/GlcrRewardPool.sol:GlcrRewardPool",
            "label": "isStarted",
            "offset": 0,
            "slot": "4",
            "type": "t_bool"
          }
        ],
        "numberOfBytes": "160"
      },
      "t_struct(UserInfo)4784_storage": {
        "encoding": "inplace",
        "label": "struct GlcrRewardPool.UserInfo",
        "members": [
          {
            "astId": 4781,
            "contract": "contracts/GlcrRewardPool.sol:GlcrRewardPool",
            "label": "amount",
            "offset": 0,
            "slot": "0",
            "type": "t_uint256"
          },
          {
            "astId": 4783,
            "contract": "contracts/GlcrRewardPool.sol:GlcrRewardPool",
            "label": "rewardDebt",
            "offset": 0,
            "slot": "1",
            "type": "t_uint256"
          }
        ],
        "numberOfBytes": "64"
      },
      "t_uint256": {
        "encoding": "inplace",
        "label": "uint256",
        "numberOfBytes": "32"
      }
    }
  }
}