{
  "address": "0xbe27f32D9F731CC9DddAfE3ddaA7CBBC0f58b414",
  "abi": [
    {
      "inputs": [
        {
          "internalType": "string",
          "name": "name_",
          "type": "string"
        },
        {
          "internalType": "string",
          "name": "symbol_",
          "type": "string"
        },
        {
          "internalType": "uint256",
          "name": "_startTime",
          "type": "uint256"
        },
        {
          "internalType": "address",
          "name": "_daoFund",
          "type": "address"
        },
        {
          "internalType": "address",
          "name": "_devFund",
          "type": "address"
        }
      ],
      "stateMutability": "nonpayable",
      "type": "constructor"
    },
    {
      "anonymous": false,
      "inputs": [
        {
          "indexed": true,
          "internalType": "address",
          "name": "owner",
          "type": "address"
        },
        {
          "indexed": true,
          "internalType": "address",
          "name": "spender",
          "type": "address"
        },
        {
          "indexed": false,
          "internalType": "uint256",
          "name": "value",
          "type": "uint256"
        }
      ],
      "name": "Approval",
      "type": "event"
    },
    {
      "anonymous": false,
      "inputs": [
        {
          "indexed": true,
          "internalType": "address",
          "name": "previousOperator",
          "type": "address"
        },
        {
          "indexed": true,
          "internalType": "address",
          "name": "newOperator",
          "type": "address"
        }
      ],
      "name": "OperatorTransferred",
      "type": "event"
    },
    {
      "anonymous": false,
      "inputs": [
        {
          "indexed": true,
          "internalType": "address",
          "name": "previousOwner",
          "type": "address"
        },
        {
          "indexed": true,
          "internalType": "address",
          "name": "newOwner",
          "type": "address"
        }
      ],
      "name": "OwnershipTransferred",
      "type": "event"
    },
    {
      "anonymous": false,
      "inputs": [
        {
          "indexed": true,
          "internalType": "address",
          "name": "from",
          "type": "address"
        },
        {
          "indexed": true,
          "internalType": "address",
          "name": "to",
          "type": "address"
        },
        {
          "indexed": false,
          "internalType": "uint256",
          "name": "value",
          "type": "uint256"
        }
      ],
      "name": "Transfer",
      "type": "event"
    },
    {
      "inputs": [],
      "name": "BASIS_POINTS_DENOM",
      "outputs": [
        {
          "internalType": "uint256",
          "name": "",
          "type": "uint256"
        }
      ],
      "stateMutability": "view",
      "type": "function"
    },
    {
      "inputs": [],
      "name": "COMMUNITY_FUND_POOL_ALLOCATION",
      "outputs": [
        {
          "internalType": "uint256",
          "name": "",
          "type": "uint256"
        }
      ],
      "stateMutability": "view",
      "type": "function"
    },
    {
      "inputs": [],
      "name": "DEV_FUND_POOL_ALLOCATION",
      "outputs": [
        {
          "internalType": "uint256",
          "name": "",
          "type": "uint256"
        }
      ],
      "stateMutability": "view",
      "type": "function"
    },
    {
      "inputs": [],
      "name": "FARMING_POOL_REWARD_ALLOCATION",
      "outputs": [
        {
          "internalType": "uint256",
          "name": "",
          "type": "uint256"
        }
      ],
      "stateMutability": "view",
      "type": "function"
    },
    {
      "inputs": [],
      "name": "MAX_TAX_RATE",
      "outputs": [
        {
          "internalType": "uint256",
          "name": "",
          "type": "uint256"
        }
      ],
      "stateMutability": "view",
      "type": "function"
    },
    {
      "inputs": [],
      "name": "VESTING_DURATION",
      "outputs": [
        {
          "internalType": "uint256",
          "name": "",
          "type": "uint256"
        }
      ],
      "stateMutability": "view",
      "type": "function"
    },
    {
      "inputs": [
        {
          "internalType": "address",
          "name": "owner",
          "type": "address"
        },
        {
          "internalType": "address",
          "name": "spender",
          "type": "address"
        }
      ],
      "name": "allowance",
      "outputs": [
        {
          "internalType": "uint256",
          "name": "",
          "type": "uint256"
        }
      ],
      "stateMutability": "view",
      "type": "function"
    },
    {
      "inputs": [
        {
          "internalType": "address",
          "name": "spender",
          "type": "address"
        },
        {
          "internalType": "uint256",
          "name": "amount",
          "type": "uint256"
        }
      ],
      "name": "approve",
      "outputs": [
        {
          "internalType": "bool",
          "name": "",
          "type": "bool"
        }
      ],
      "stateMutability": "nonpayable",
      "type": "function"
    },
    {
      "inputs": [
        {
          "internalType": "address",
          "name": "account",
          "type": "address"
        }
      ],
      "name": "balanceOf",
      "outputs": [
        {
          "internalType": "uint256",
          "name": "",
          "type": "uint256"
        }
      ],
      "stateMutability": "view",
      "type": "function"
    },
    {
      "inputs": [
        {
          "internalType": "uint256",
          "name": "amount",
          "type": "uint256"
        }
      ],
      "name": "burn",
      "outputs": [],
      "stateMutability": "nonpayable",
      "type": "function"
    },
    {
      "inputs": [
        {
          "internalType": "address",
          "name": "account",
          "type": "address"
        },
        {
          "internalType": "uint256",
          "name": "amount",
          "type": "uint256"
        }
      ],
      "name": "burnFrom",
      "outputs": [],
      "stateMutability": "nonpayable",
      "type": "function"
    },
    {
      "inputs": [],
      "name": "claimRewards",
      "outputs": [],
      "stateMutability": "nonpayable",
      "type": "function"
    },
    {
      "inputs": [],
      "name": "communityFund",
      "outputs": [
        {
          "internalType": "address",
          "name": "",
          "type": "address"
        }
      ],
      "stateMutability": "view",
      "type": "function"
    },
    {
      "inputs": [],
      "name": "communityFundLastClaimed",
      "outputs": [
        {
          "internalType": "uint256",
          "name": "",
          "type": "uint256"
        }
      ],
      "stateMutability": "view",
      "type": "function"
    },
    {
      "inputs": [],
      "name": "communityFundRewardRate",
      "outputs": [
        {
          "internalType": "uint256",
          "name": "",
          "type": "uint256"
        }
      ],
      "stateMutability": "view",
      "type": "function"
    },
    {
      "inputs": [],
      "name": "decimals",
      "outputs": [
        {
          "internalType": "uint8",
          "name": "",
          "type": "uint8"
        }
      ],
      "stateMutability": "view",
      "type": "function"
    },
    {
      "inputs": [
        {
          "internalType": "address",
          "name": "spender",
          "type": "address"
        },
        {
          "internalType": "uint256",
          "name": "subtractedValue",
          "type": "uint256"
        }
      ],
      "name": "decreaseAllowance",
      "outputs": [
        {
          "internalType": "bool",
          "name": "",
          "type": "bool"
        }
      ],
      "stateMutability": "nonpayable",
      "type": "function"
    },
    {
      "inputs": [],
      "name": "devFund",
      "outputs": [
        {
          "internalType": "address",
          "name": "",
          "type": "address"
        }
      ],
      "stateMutability": "view",
      "type": "function"
    },
    {
      "inputs": [],
      "name": "devFundLastClaimed",
      "outputs": [
        {
          "internalType": "uint256",
          "name": "",
          "type": "uint256"
        }
      ],
      "stateMutability": "view",
      "type": "function"
    },
    {
      "inputs": [],
      "name": "devFundRewardRate",
      "outputs": [
        {
          "internalType": "uint256",
          "name": "",
          "type": "uint256"
        }
      ],
      "stateMutability": "view",
      "type": "function"
    },
    {
      "inputs": [
        {
          "internalType": "address",
          "name": "_farmingIncentiveFund",
          "type": "address"
        }
      ],
      "name": "distributeReward",
      "outputs": [],
      "stateMutability": "nonpayable",
      "type": "function"
    },
    {
      "inputs": [],
      "name": "dynamicTaxRate",
      "outputs": [
        {
          "internalType": "uint256",
          "name": "",
          "type": "uint256"
        }
      ],
      "stateMutability": "view",
      "type": "function"
    },
    {
      "inputs": [],
      "name": "enableDynamicTax",
      "outputs": [
        {
          "internalType": "bool",
          "name": "",
          "type": "bool"
        }
      ],
      "stateMutability": "view",
      "type": "function"
    },
    {
      "inputs": [],
      "name": "endTime",
      "outputs": [
        {
          "internalType": "uint256",
          "name": "",
          "type": "uint256"
        }
      ],
      "stateMutability": "view",
      "type": "function"
    },
    {
      "inputs": [],
      "name": "getCurrentTaxRate",
      "outputs": [
        {
          "internalType": "uint256",
          "name": "",
          "type": "uint256"
        }
      ],
      "stateMutability": "nonpayable",
      "type": "function"
    },
    {
      "inputs": [
        {
          "internalType": "contract IERC20",
          "name": "_token",
          "type": "address"
        },
        {
          "internalType": "uint256",
          "name": "_amount",
          "type": "uint256"
        },
        {
          "internalType": "address",
          "name": "_to",
          "type": "address"
        }
      ],
      "name": "governanceRecoverUnsupported",
      "outputs": [],
      "stateMutability": "nonpayable",
      "type": "function"
    },
    {
      "inputs": [
        {
          "internalType": "address",
          "name": "spender",
          "type": "address"
        },
        {
          "internalType": "uint256",
          "name": "addedValue",
          "type": "uint256"
        }
      ],
      "name": "increaseAllowance",
      "outputs": [
        {
          "internalType": "bool",
          "name": "",
          "type": "bool"
        }
      ],
      "stateMutability": "nonpayable",
      "type": "function"
    },
    {
      "inputs": [],
      "name": "isOperator",
      "outputs": [
        {
          "internalType": "bool",
          "name": "",
          "type": "bool"
        }
      ],
      "stateMutability": "view",
      "type": "function"
    },
    {
      "inputs": [
        {
          "internalType": "address",
          "name": "_account",
          "type": "address"
        }
      ],
      "name": "isWhitelistedRecipient",
      "outputs": [
        {
          "internalType": "bool",
          "name": "isWhitelisted",
          "type": "bool"
        }
      ],
      "stateMutability": "view",
      "type": "function"
    },
    {
      "inputs": [
        {
          "internalType": "address",
          "name": "_account",
          "type": "address"
        }
      ],
      "name": "isWhitelistedSender",
      "outputs": [
        {
          "internalType": "bool",
          "name": "isWhitelisted",
          "type": "bool"
        }
      ],
      "stateMutability": "view",
      "type": "function"
    },
    {
      "inputs": [],
      "name": "name",
      "outputs": [
        {
          "internalType": "string",
          "name": "",
          "type": "string"
        }
      ],
      "stateMutability": "view",
      "type": "function"
    },
    {
      "inputs": [],
      "name": "operator",
      "outputs": [
        {
          "internalType": "address",
          "name": "",
          "type": "address"
        }
      ],
      "stateMutability": "view",
      "type": "function"
    },
    {
      "inputs": [],
      "name": "owner",
      "outputs": [
        {
          "internalType": "address",
          "name": "",
          "type": "address"
        }
      ],
      "stateMutability": "view",
      "type": "function"
    },
    {
      "inputs": [],
      "name": "renounceOwnership",
      "outputs": [],
      "stateMutability": "nonpayable",
      "type": "function"
    },
    {
      "inputs": [],
      "name": "rewardPoolDistributed",
      "outputs": [
        {
          "internalType": "bool",
          "name": "",
          "type": "bool"
        }
      ],
      "stateMutability": "view",
      "type": "function"
    },
    {
      "inputs": [
        {
          "internalType": "address",
          "name": "_devFund",
          "type": "address"
        }
      ],
      "name": "setDevFund",
      "outputs": [],
      "stateMutability": "nonpayable",
      "type": "function"
    },
    {
      "inputs": [
        {
          "internalType": "bool",
          "name": "_enableDynamicTax",
          "type": "bool"
        }
      ],
      "name": "setEnableDynamicTax",
      "outputs": [],
      "stateMutability": "nonpayable",
      "type": "function"
    },
    {
      "inputs": [
        {
          "internalType": "uint256",
          "name": "_taxRate",
          "type": "uint256"
        }
      ],
      "name": "setStaticTaxRate",
      "outputs": [],
      "stateMutability": "nonpayable",
      "type": "function"
    },
    {
      "inputs": [
        {
          "internalType": "address",
          "name": "_taxOffice",
          "type": "address"
        }
      ],
      "name": "setTaxOffice",
      "outputs": [],
      "stateMutability": "nonpayable",
      "type": "function"
    },
    {
      "inputs": [
        {
          "internalType": "address",
          "name": "_daoFund",
          "type": "address"
        }
      ],
      "name": "setTreasuryFund",
      "outputs": [],
      "stateMutability": "nonpayable",
      "type": "function"
    },
    {
      "inputs": [
        {
          "internalType": "address",
          "name": "_account",
          "type": "address"
        },
        {
          "internalType": "uint8",
          "name": "_type",
          "type": "uint8"
        }
      ],
      "name": "setWhitelistType",
      "outputs": [],
      "stateMutability": "nonpayable",
      "type": "function"
    },
    {
      "inputs": [],
      "name": "startTime",
      "outputs": [
        {
          "internalType": "uint256",
          "name": "",
          "type": "uint256"
        }
      ],
      "stateMutability": "view",
      "type": "function"
    },
    {
      "inputs": [],
      "name": "staticTaxRate",
      "outputs": [
        {
          "internalType": "uint256",
          "name": "",
          "type": "uint256"
        }
      ],
      "stateMutability": "view",
      "type": "function"
    },
    {
      "inputs": [],
      "name": "symbol",
      "outputs": [
        {
          "internalType": "string",
          "name": "",
          "type": "string"
        }
      ],
      "stateMutability": "view",
      "type": "function"
    },
    {
      "inputs": [],
      "name": "taxOffice",
      "outputs": [
        {
          "internalType": "address",
          "name": "",
          "type": "address"
        }
      ],
      "stateMutability": "view",
      "type": "function"
    },
    {
      "inputs": [],
      "name": "taxRate",
      "outputs": [
        {
          "internalType": "uint256",
          "name": "",
          "type": "uint256"
        }
      ],
      "stateMutability": "view",
      "type": "function"
    },
    {
      "inputs": [],
      "name": "totalSupply",
      "outputs": [
        {
          "internalType": "uint256",
          "name": "",
          "type": "uint256"
        }
      ],
      "stateMutability": "view",
      "type": "function"
    },
    {
      "inputs": [
        {
          "internalType": "address",
          "name": "recipient",
          "type": "address"
        },
        {
          "internalType": "uint256",
          "name": "amount",
          "type": "uint256"
        }
      ],
      "name": "transfer",
      "outputs": [
        {
          "internalType": "bool",
          "name": "",
          "type": "bool"
        }
      ],
      "stateMutability": "nonpayable",
      "type": "function"
    },
    {
      "inputs": [
        {
          "internalType": "address",
          "name": "_sender",
          "type": "address"
        },
        {
          "internalType": "address",
          "name": "_recipient",
          "type": "address"
        },
        {
          "internalType": "uint256",
          "name": "_amount",
          "type": "uint256"
        }
      ],
      "name": "transferFrom",
      "outputs": [
        {
          "internalType": "bool",
          "name": "successFlag",
          "type": "bool"
        }
      ],
      "stateMutability": "nonpayable",
      "type": "function"
    },
    {
      "inputs": [
        {
          "internalType": "address",
          "name": "newOperator_",
          "type": "address"
        }
      ],
      "name": "transferOperator",
      "outputs": [],
      "stateMutability": "nonpayable",
      "type": "function"
    },
    {
      "inputs": [
        {
          "internalType": "address",
          "name": "newOwner",
          "type": "address"
        }
      ],
      "name": "transferOwnership",
      "outputs": [],
      "stateMutability": "nonpayable",
      "type": "function"
    },
    {
      "inputs": [],
      "name": "unclaimedDevFund",
      "outputs": [
        {
          "internalType": "uint256",
          "name": "_pending",
          "type": "uint256"
        }
      ],
      "stateMutability": "view",
      "type": "function"
    },
    {
      "inputs": [],
      "name": "unclaimedTreasuryFund",
      "outputs": [
        {
          "internalType": "uint256",
          "name": "_pending",
          "type": "uint256"
        }
      ],
      "stateMutability": "view",
      "type": "function"
    },
    {
      "inputs": [
        {
          "internalType": "address",
          "name": "",
          "type": "address"
        }
      ],
      "name": "whitelistType",
      "outputs": [
        {
          "internalType": "enum ERC20Taxable.WhitelistType",
          "name": "",
          "type": "uint8"
        }
      ],
      "stateMutability": "view",
      "type": "function"
    }
  ],
  "transactionHash": "0x16a4a2a772e21b8289b51b185519bfbebffb16af698c282508ba8876ce03d523",
  "args": [
    "snowcrystals.finance SHARE",
    "GLCR",
    1667260800,
    "0xeDc5E564811b96Ec8ca2336895C66b3B88F9ef66",
    "0x8680492A2587F3Eb03ca0468F9695A6D21742CfC"
  ],
  "numDeployments": 1,
  "solcInputHash": "ea4a4f065b4f12baabbec98dde06a8e0",
  "bytecode": "0x60806040526015805460ff191690553480156200001b57600080fd5b506040516200292038038062002920833981810160405260a08110156200004157600080fd5b81019080805160405193929190846401000000008211156200006257600080fd5b9083019060208201858111156200007857600080fd5b82516401000000008111828201881017156200009357600080fd5b82525081516020918201929091019080838360005b83811015620000c2578181015183820152602001620000a8565b50505050905090810190601f168015620000f05780820380516001836020036101000a031916815260200191505b50604052602001805160405193929190846401000000008211156200011457600080fd5b9083019060208201858111156200012a57600080fd5b82516401000000008111828201881017156200014557600080fd5b82525081516020918201929091019080838360005b83811015620001745781810151838201526020016200015a565b50505050905090810190601f168015620001a25780820380516001836020036101000a031916815260200191505b5060409081526020828101519183015160609093015187519295509293508691869183918391620001d99160039185019062000615565b508051620001ef90600490602084019062000615565b50506005805460ff191660121790555060006200020b62000432565b60058054610100600160a81b0319166101006001600160a01b03841690810291909117909155604051919250906000907f8be0079c531659141344cd1fd0a4f28419497f9722a3daafe3b4186f6b6457e0908290a3506200026b62000432565b600680546001600160a01b0319166001600160a01b0392831617908190556040519116906000907f74da04524d50c64947f5dd5381ef1a4dca5cba8ed1d816243f9e48aa0b5617ed908290a350620002ce905033678ac7230489e8000062000436565b620002e38268015af1d78b58c4000062000436565b600d8390556301dfe200808401600e5560138490556014849055620003209069017a1d91e8ddbd9c00009062000545602090811b6200175c17901c565b600f556200034868bd317abd30014800006301dfe20062000545602090811b6200175c17901c565b6010556001600160a01b0381166200039d576040805162461bcd60e51b81526020600482015260136024820152720416464726573732063616e6e6f74206265203606c1b604482015290519081900360640190fd5b601280546001600160a01b0319166001600160a01b0383811691909117909155821662000407576040805162461bcd60e51b81526020600482015260136024820152720416464726573732063616e6e6f74206265203606c1b604482015290519081900360640190fd5b50601180546001600160a01b0319166001600160a01b039290921691909117905550620006b1915050565b3390565b6001600160a01b03821662000492576040805162461bcd60e51b815260206004820152601f60248201527f45524332303a206d696e7420746f20746865207a65726f206164647265737300604482015290519081900360640190fd5b620004a060008383620005ae565b620004bc81600254620005b360201b620017c31790919060201c565b6002556001600160a01b03821660009081526020818152604090912054620004ef918390620017c3620005b3821b17901c565b6001600160a01b0383166000818152602081815260408083209490945583518581529351929391927fddf252ad1be2c89b69c2b068fc378daa952ba7f163c4a11628f55a4df523b3ef9281900390910190a35050565b60008082116200059c576040805162461bcd60e51b815260206004820152601a60248201527f536166654d6174683a206469766973696f6e206279207a65726f000000000000604482015290519081900360640190fd5b818381620005a657fe5b049392505050565b505050565b6000828201838110156200060e576040805162461bcd60e51b815260206004820152601b60248201527f536166654d6174683a206164646974696f6e206f766572666c6f770000000000604482015290519081900360640190fd5b9392505050565b828054600181600116156101000203166002900490600052602060002090601f016020900481019282601f106200065857805160ff191683800117855562000688565b8280016001018555821562000688579182015b82811115620006885782518255916020019190600101906200066b565b50620006969291506200069a565b5090565b5b808211156200069657600081556001016200069b565b61225f80620006c16000396000f3fe608060405234801561001057600080fd5b50600436106103615760003560e01c80634f337dd5116101c85780638fa8173211610104578063ae4db919116100a2578063f1b15c941161007c578063f1b15c9414610835578063f2fde38b1461083d578063f746b71814610863578063fe46be441461088957610361565b8063ae4db919146107c4578063dd62ed3e146107ea578063e1ea1fa31461081857610361565b8063a06160fd116100de578063a06160fd1461075c578063a457c2d714610764578063a9059cbb14610790578063abb4b1be146107bc57610361565b80638fa817321461074457806395d89b411461074c5780639662676c1461075457610361565b8063678014b011610171578063771a3a1d1161014b578063771a3a1d1461070057806378e979251461070857806379cc6790146107105780638da5cb5b1461073c57610361565b8063678014b0146106ca57806370a08231146106d2578063715018a6146106f857610361565b8063570ca735116101a2578063570ca735146106b257806361482bed146106ba57806364f53f2e146106c257610361565b80634f337dd51461066c5780635024ec1f1461067457806354575af41461067c57610361565b8063313ce567116102a25780633f07d76a116102405780634456eda21161021a5780634456eda21461062e57806344cdc45414610636578063483846401461063e5780634cfc4d301461066457610361565b80633f07d76a146105e357806342966c68146106095780634390d2a81461062657610361565b806338d2776e1161027c57806338d2776e1461058857806339509351146105a75780633bba8eed146105d35780633e5f13d4146105db57610361565b8063313ce5671461055a5780633197cbb614610578578063372500ab1461058057610361565b806318160ddd1161030f57806323b872dd116102e957806323b872dd146104ee57806329605e77146105245780632c07a6241461054a5780632e3367ce1461055257610361565b806318160ddd146104915780631b9e2fad14610499578063232798df146104bf57610361565b8063092193ab11610340578063092193ab14610421578063095ea7b314610449578063177647821461048957610361565b8062f380f414610366578063040173151461038a57806306fdde03146103a4575b600080fd5b61036e6108d0565b604080516001600160a01b039092168252519081900360200190f35b6103926108df565b60408051918252519081900360200190f35b6103ac6108e5565b6040805160208082528351818301528351919283929083019185019080838360005b838110156103e65781810151838201526020016103ce565b50505050905090810190601f1680156104135780820380516001836020036101000a031916815260200191505b509250505060405180910390f35b6104476004803603602081101561043757600080fd5b50356001600160a01b031661097c565b005b6104756004803603604081101561045f57600080fd5b506001600160a01b038135169060200135610ab3565b604080519115158252519081900360200190f35b610392610ad1565b610392610b1f565b610475600480360360208110156104af57600080fd5b50356001600160a01b0316610b25565b610447600480360360408110156104d557600080fd5b5080356001600160a01b0316906020013560ff16610b88565b6104756004803603606081101561050457600080fd5b506001600160a01b03813581169160208101359091169060400135610c15565b6104476004803603602081101561053a57600080fd5b50356001600160a01b0316610d4e565b610392610dcb565b610392610e0d565b610562610e13565b6040805160ff9092168252519081900360200190f35b610392610e1c565b610447610e22565b6104476004803603602081101561059e57600080fd5b50351515610eae565b610475600480360360408110156105bd57600080fd5b506001600160a01b038135169060200135610f0a565b610392610f5d565b61036e610f6b565b610447600480360360208110156105f957600080fd5b50356001600160a01b0316610f7a565b6104476004803603602081101561061f57600080fd5b5035610ff2565b61036e611003565b610475611012565b610392611038565b6104756004803603602081101561065457600080fd5b50356001600160a01b031661103e565b610392611047565b61039261104f565b61039261105c565b6104476004803603606081101561069257600080fd5b506001600160a01b03813581169160208101359160409091013516611062565b61036e611133565b610392611142565b610392611148565b61039261118a565b610392600480360360208110156106e857600080fd5b50356001600160a01b0316611190565b6104476111ab565b61039261127c565b610392611282565b6104476004803603604081101561072657600080fd5b506001600160a01b038135169060200135611288565b61036e6112e2565b6103926112f6565b6103ac6112fc565b61047561135d565b610392611366565b6104756004803603604081101561077a57600080fd5b506001600160a01b038135169060200135611374565b610475600480360360408110156107a657600080fd5b506001600160a01b0381351690602001356113dc565b6103926113f0565b610447600480360360208110156107da57600080fd5b50356001600160a01b03166113f6565b6103926004803603604081101561080057600080fd5b506001600160a01b03813581169160200135166114ca565b6104476004803603602081101561082e57600080fd5b50356114f5565b61047561159a565b6104476004803603602081101561085357600080fd5b50356001600160a01b03166115a3565b6104476004803603602081101561087957600080fd5b50356001600160a01b03166116d0565b6108af6004803603602081101561089f57600080fd5b50356001600160a01b0316611747565b604051808260038111156108bf57fe5b815260200191505060405180910390f35b6011546001600160a01b031681565b60145481565b60038054604080516020601f60026000196101006001881615020190951694909404938401819004810282018101909252828152606093909290918301828280156109715780601f1061094657610100808354040283529160200191610971565b820191906000526020600020905b81548152906001019060200180831161095457829003601f168201915b505050505090505b90565b6006546001600160a01b031633146109c55760405162461bcd60e51b81526004018080602001828103825260248152602001806121776024913960400191505060405180910390fd5b60155460ff1615610a1d576040805162461bcd60e51b815260206004820152601860248201527f6f6e6c792063616e2064697374726962757465206f6e63650000000000000000604482015290519081900360640190fd5b6001600160a01b03811615801590610a3e57506001600160a01b0381163014155b610a8f576040805162461bcd60e51b815260206004820152601660248201527f215f6661726d696e67496e63656e7469766546756e6400000000000000000000604482015290519081900360640190fd5b6015805460ff19166001179055610ab08169048d8470181e32700000611824565b50565b6000610ac7610ac0611914565b8484611918565b5060015b92915050565b600e546000904290811115610ae55750600e545b8060135410610af8576000915050610979565b610b19600f54610b1360135484611a0490919063ffffffff16565b90611a61565b91505090565b60025490565b600060015b6001600160a01b03831660009081526007602052604090205460ff166003811115610b5157fe5b1480610acb575060036001600160a01b03831660009081526007602052604090205460ff166003811115610b8157fe5b1492915050565b600b546001600160a01b03163314610bd15760405162461bcd60e51b81526004018080602001828103825260238152602001806120ba6023913960400191505060405180910390fd5b8060ff166003811115610be057fe5b6001600160a01b0383166000908152600760205260409020805460ff19166001836003811115610c0c57fe5b02179055505050565b6000610c2084610b25565b158015610c335750610c318361103e565b155b15610d3b576000610c42611148565b90508015610d3957600b54604080517f5803abaa0000000000000000000000000000000000000000000000000000000081526001600160a01b03888116600483015287811660248301529151600093610cf2931691635803abaa91604480830192602092919082900301818887803b158015610cbd57600080fd5b505af1158015610cd1573d6000803e3d6000fd5b505050506040513d6020811015610ce757600080fd5b505161271090611a04565b9050610d0a612710610d048484611a61565b9061175c565b91506000610d1e612710610d048786611a61565b9050610d2a8582611a04565b9450610d368782611aba565b50505b505b610d46848484611b6d565b949350505050565b610d56611914565b6001600160a01b0316610d676112e2565b6001600160a01b031614610dc2576040805162461bcd60e51b815260206004820181905260248201527f4f776e61626c653a2063616c6c6572206973206e6f7420746865206f776e6572604482015290519081900360640190fd5b610ab081611bef565b600e546000904290811115610ddf5750600e545b8060145410610df2576000915050610979565b610b19601054610b1360145484611a0490919063ffffffff16565b60105481565b60055460ff1690565b600e5481565b6000610e2c610ad1565b9050600081118015610e4857506011546001600160a01b031615155b15610e6857601154610e63906001600160a01b031682611824565b426013555b610e70610dcb565b9050600081118015610e8c57506012546001600160a01b031615155b15610ab057601254610ea7906001600160a01b031682611824565b4260145550565b600b546001600160a01b03163314610ef75760405162461bcd60e51b81526004018080602001828103825260238152602001806120ba6023913960400191505060405180910390fd5b6008805460ff1916911515919091179055565b6000610ac7610f17611914565b84610f588560016000610f28611914565b6001600160a01b03908116825260208083019390935260409182016000908120918c1681529252902054906117c3565b611918565b69017a1d91e8ddbd9c000081565b600b546001600160a01b031681565b6006546001600160a01b03163314610fc35760405162461bcd60e51b81526004018080602001828103825260248152602001806121776024913960400191505060405180910390fd5b600b805473ffffffffffffffffffffffffffffffffffffffff19166001600160a01b0392909216919091179055565b610ab0610ffd611914565b82611c99565b6012546001600160a01b031681565b6006546000906001600160a01b0316611029611914565b6001600160a01b031614905090565b600f5481565b60006002610b2a565b6301dfe20081565b68bd317abd300148000081565b60095481565b6006546001600160a01b031633146110ab5760405162461bcd60e51b81526004018080602001828103825260248152602001806121776024913960400191505060405180910390fd5b826001600160a01b031663a9059cbb82846040518363ffffffff1660e01b815260040180836001600160a01b0316815260200182815260200192505050602060405180830381600087803b15801561110257600080fd5b505af1158015611116573d6000803e3d6000fd5b505050506040513d602081101561112c57600080fd5b5050505050565b6006546001600160a01b031690565b600a5481565b600954600c5560085460009060ff1615156001141561118357611169611d95565b610dac600a54111561117c57610dac600a555b600a54600c555b50600c5490565b61271081565b6001600160a01b031660009081526020819052604090205490565b6111b3611914565b6001600160a01b03166111c46112e2565b6001600160a01b03161461121f576040805162461bcd60e51b815260206004820181905260248201527f4f776e61626c653a2063616c6c6572206973206e6f7420746865206f776e6572604482015290519081900360640190fd5b60055460405160009161010090046001600160a01b0316907f8be0079c531659141344cd1fd0a4f28419497f9722a3daafe3b4186f6b6457e0908390a36005805474ffffffffffffffffffffffffffffffffffffffff0019169055565b600c5481565b600d5481565b60006112bf82604051806060016040528060248152602001612153602491396112b8866112b3611914565b6114ca565b9190611e14565b90506112d3836112cd611914565b83611918565b6112dd8383611c99565b505050565b60055461010090046001600160a01b031690565b610dac81565b60048054604080516020601f60026000196101006001881615020190951694909404938401819004810282018101909252828152606093909290918301828280156109715780601f1061094657610100808354040283529160200191610971565b60155460ff1681565b69048d8470181e3270000081565b6000610ac7611381611914565b84610f588560405180606001604052806025815260200161220560259139600160006113ab611914565b6001600160a01b03908116825260208083019390935260409182016000908120918d16815292529020549190611e14565b6000610ac76113e9611914565b8484611eab565b60135481565b6012546001600160a01b0316331461143e576040805162461bcd60e51b8152602060048083019190915260248201526310b232bb60e11b604482015290519081900360640190fd5b6001600160a01b03811661149b576040805162461bcd60e51b8152602060048083019190915260248201527f7a65726f00000000000000000000000000000000000000000000000000000000604482015290519081900360640190fd5b6012805473ffffffffffffffffffffffffffffffffffffffff19166001600160a01b0392909216919091179055565b6001600160a01b03918216600090815260016020908152604080832093909416825291909152205490565b600b546001600160a01b0316331461153e5760405162461bcd60e51b81526004018080602001828103825260238152602001806120ba6023913960400191505060405180910390fd5b610dac811115611595576040805162461bcd60e51b815260206004820152601d60248201527f4572726f723a204d61782074617820726174652065786365656465642e000000604482015290519081900360640190fd5b600955565b60085460ff1681565b6115ab611914565b6001600160a01b03166115bc6112e2565b6001600160a01b031614611617576040805162461bcd60e51b815260206004820181905260248201527f4f776e61626c653a2063616c6c6572206973206e6f7420746865206f776e6572604482015290519081900360640190fd5b6001600160a01b03811661165c5760405162461bcd60e51b815260040180806020018281038252602681526020018061204c6026913960400191505060405180910390fd5b6005546040516001600160a01b0380841692610100900416907f8be0079c531659141344cd1fd0a4f28419497f9722a3daafe3b4186f6b6457e090600090a3600580546001600160a01b039092166101000274ffffffffffffffffffffffffffffffffffffffff0019909216919091179055565b6012546001600160a01b03163314611718576040805162461bcd60e51b8152602060048083019190915260248201526310b232bb60e11b604482015290519081900360640190fd5b6011805473ffffffffffffffffffffffffffffffffffffffff19166001600160a01b0392909216919091179055565b60076020526000908152604090205460ff1681565b60008082116117b2576040805162461bcd60e51b815260206004820152601a60248201527f536166654d6174683a206469766973696f6e206279207a65726f000000000000604482015290519081900360640190fd5b8183816117bb57fe5b049392505050565b60008282018381101561181d576040805162461bcd60e51b815260206004820152601b60248201527f536166654d6174683a206164646974696f6e206f766572666c6f770000000000604482015290519081900360640190fd5b9392505050565b6001600160a01b03821661187f576040805162461bcd60e51b815260206004820152601f60248201527f45524332303a206d696e7420746f20746865207a65726f206164647265737300604482015290519081900360640190fd5b61188b600083836112dd565b60025461189890826117c3565b6002556001600160a01b0382166000908152602081905260409020546118be90826117c3565b6001600160a01b0383166000818152602081815260408083209490945583518581529351929391927fddf252ad1be2c89b69c2b068fc378daa952ba7f163c4a11628f55a4df523b3ef9281900390910190a35050565b3390565b6001600160a01b03831661195d5760405162461bcd60e51b81526004018080602001828103825260248152602001806121e16024913960400191505060405180910390fd5b6001600160a01b0382166119a25760405162461bcd60e51b81526004018080602001828103825260228152602001806120726022913960400191505060405180910390fd5b6001600160a01b03808416600081815260016020908152604080832094871680845294825291829020859055815185815291517f8c5be1e5ebec7d5bd14f71427d1e84f3dd0314c0f7b2291e5b200ac8c7c3b9259281900390910190a3505050565b600082821115611a5b576040805162461bcd60e51b815260206004820152601e60248201527f536166654d6174683a207375627472616374696f6e206f766572666c6f770000604482015290519081900360640190fd5b50900390565b600082611a7057506000610acb565b82820282848281611a7d57fe5b041461181d5760405162461bcd60e51b815260040180806020018281038252602181526020018061210a6021913960400191505060405180910390fd5b600b54611ad29083906001600160a01b031683611918565b600b54611aea9083906001600160a01b031683611b6d565b50600b54604080517febaf41560000000000000000000000000000000000000000000000000000000081526004810184905290516001600160a01b039092169163ebaf41569160248082019260009290919082900301818387803b158015611b5157600080fd5b505af1158015611b65573d6000803e3d6000fd5b505050505050565b6000611b7a848484611eab565b611be584611b86611914565b610f588560405180606001604052806028815260200161212b602891396001600160a01b038a16600090815260016020526040812090611bc4611914565b6001600160a01b031681526020810191909152604001600020549190611e14565b5060019392505050565b6001600160a01b038116611c345760405162461bcd60e51b815260040180806020018281038252602d8152602001806120dd602d913960400191505060405180910390fd5b6040516001600160a01b038216906000907f74da04524d50c64947f5dd5381ef1a4dca5cba8ed1d816243f9e48aa0b5617ed908290a36006805473ffffffffffffffffffffffffffffffffffffffff19166001600160a01b0392909216919091179055565b6001600160a01b038216611cde5760405162461bcd60e51b815260040180806020018281038252602181526020018061219b6021913960400191505060405180910390fd5b611cea826000836112dd565b611d278160405180606001604052806022815260200161202a602291396001600160a01b0385166000908152602081905260409020549190611e14565b6001600160a01b038316600090815260208190526040902055600254611d4d9082611a04565b6002556040805182815290516000916001600160a01b038516917fddf252ad1be2c89b69c2b068fc378daa952ba7f163c4a11628f55a4df523b3ef9181900360200190a35050565b600b60009054906101000a90046001600160a01b03166001600160a01b031663d27428136040518163ffffffff1660e01b815260040160206040518083038186803b158015611de357600080fd5b505afa158015611df7573d6000803e3d6000fd5b505050506040513d6020811015611e0d57600080fd5b5051600a55565b60008184841115611ea35760405162461bcd60e51b81526004018080602001828103825283818151815260200191508051906020019080838360005b83811015611e68578181015183820152602001611e50565b50505050905090810190601f168015611e955780820380516001836020036101000a031916815260200191505b509250505060405180910390fd5b505050900390565b6001600160a01b038316611ef05760405162461bcd60e51b81526004018080602001828103825260258152602001806121bc6025913960400191505060405180910390fd5b6001600160a01b038216611f355760405162461bcd60e51b81526004018080602001828103825260238152602001806120076023913960400191505060405180910390fd5b611f408383836112dd565b611f7d81604051806060016040528060268152602001612094602691396001600160a01b0386166000908152602081905260409020549190611e14565b6001600160a01b038085166000908152602081905260408082209390935590841681522054611fac90826117c3565b6001600160a01b038084166000818152602081815260409182902094909455805185815290519193928716927fddf252ad1be2c89b69c2b068fc378daa952ba7f163c4a11628f55a4df523b3ef92918290030190a350505056fe45524332303a207472616e7366657220746f20746865207a65726f206164647265737345524332303a206275726e20616d6f756e7420657863656564732062616c616e63654f776e61626c653a206e6577206f776e657220697320746865207a65726f206164647265737345524332303a20617070726f766520746f20746865207a65726f206164647265737345524332303a207472616e7366657220616d6f756e7420657863656564732062616c616e63654572726f723a2043616c6c6572206973206e6f742074686520746178206f66666963656f70657261746f723a207a65726f206164647265737320676976656e20666f72206e6577206f70657261746f72536166654d6174683a206d756c7469706c69636174696f6e206f766572666c6f7745524332303a207472616e7366657220616d6f756e74206578636565647320616c6c6f77616e636545524332303a206275726e20616d6f756e74206578636565647320616c6c6f77616e63656f70657261746f723a2063616c6c6572206973206e6f7420746865206f70657261746f7245524332303a206275726e2066726f6d20746865207a65726f206164647265737345524332303a207472616e736665722066726f6d20746865207a65726f206164647265737345524332303a20617070726f76652066726f6d20746865207a65726f206164647265737345524332303a2064656372656173656420616c6c6f77616e63652062656c6f77207a65726fa26469706673582212206d73801d79f0ee117c84473ce2771b49a2756573d182ad43e2a8401facc6991d64736f6c634300060c0033",
  "devdoc": {
    "kind": "dev",
    "methods": {
      "allowance(address,address)": {
        "details": "See {IERC20-allowance}."
      },
      "approve(address,uint256)": {
        "details": "See {IERC20-approve}. Requirements: - `spender` cannot be the zero address."
      },
      "balanceOf(address)": {
        "details": "See {IERC20-balanceOf}."
      },
      "burn(uint256)": {
        "details": "Destroys `amount` tokens from the caller. See {ERC20-_burn}."
      },
      "burnFrom(address,uint256)": {
        "details": "Destroys `amount` tokens from `account`, deducting from the caller's allowance. See {ERC20-_burn} and {ERC20-allowance}. Requirements: - the caller must have allowance for ``accounts``'s tokens of at least `amount`."
      },
      "claimRewards()": {
        "details": "Claim pending rewards to community and dev fund"
      },
      "decimals()": {
        "details": "Returns the number of decimals used to get its user representation. For example, if `decimals` equals `2`, a balance of `505` tokens should be displayed to a user as `5,05` (`505 / 10 ** 2`). Tokens usually opt for a value of 18, imitating the relationship between Ether and Wei. This is the value {ERC20} uses, unless {_setupDecimals} is called. NOTE: This information is only used for _display_ purposes: it in no way affects any of the arithmetic of the contract, including {IERC20-balanceOf} and {IERC20-transfer}."
      },
      "decreaseAllowance(address,uint256)": {
        "details": "Atomically decreases the allowance granted to `spender` by the caller. This is an alternative to {approve} that can be used as a mitigation for problems described in {IERC20-approve}. Emits an {Approval} event indicating the updated allowance. Requirements: - `spender` cannot be the zero address. - `spender` must have allowance for the caller of at least `subtractedValue`."
      },
      "increaseAllowance(address,uint256)": {
        "details": "Atomically increases the allowance granted to `spender` by the caller. This is an alternative to {approve} that can be used as a mitigation for problems described in {IERC20-approve}. Emits an {Approval} event indicating the updated allowance. Requirements: - `spender` cannot be the zero address."
      },
      "name()": {
        "details": "Returns the name of the token."
      },
      "owner()": {
        "details": "Returns the address of the current owner."
      },
      "renounceOwnership()": {
        "details": "Leaves the contract without owner. It will not be possible to call `onlyOwner` functions anymore. Can only be called by the current owner. NOTE: Renouncing ownership will leave the contract without an owner, thereby removing any functionality that is only available to the owner."
      },
      "symbol()": {
        "details": "Returns the symbol of the token, usually a shorter version of the name."
      },
      "totalSupply()": {
        "details": "See {IERC20-totalSupply}."
      },
      "transfer(address,uint256)": {
        "details": "See {IERC20-transfer}. Requirements: - `recipient` cannot be the zero address. - the caller must have a balance of at least `amount`."
      },
      "transferOwnership(address)": {
        "details": "Transfers ownership of the contract to a new account (`newOwner`). Can only be called by the current owner."
      }
    },
    "version": 1
  },
  "userdoc": {
    "kind": "user",
    "methods": {
      "distributeReward(address)": {
        "notice": "distribute to reward pool (only once)"
      }
    },
    "version": 1
  },
  "storageLayout": {
    "storage": [
      {
        "astId": 554,
        "contract": "contracts/Glcr.sol:Glcr",
        "label": "_balances",
        "offset": 0,
        "slot": "0",
        "type": "t_mapping(t_address,t_uint256)"
      },
      {
        "astId": 560,
        "contract": "contracts/Glcr.sol:Glcr",
        "label": "_allowances",
        "offset": 0,
        "slot": "1",
        "type": "t_mapping(t_address,t_mapping(t_address,t_uint256))"
      },
      {
        "astId": 562,
        "contract": "contracts/Glcr.sol:Glcr",
        "label": "_totalSupply",
        "offset": 0,
        "slot": "2",
        "type": "t_uint256"
      },
      {
        "astId": 564,
        "contract": "contracts/Glcr.sol:Glcr",
        "label": "_name",
        "offset": 0,
        "slot": "3",
        "type": "t_string_storage"
      },
      {
        "astId": 566,
        "contract": "contracts/Glcr.sol:Glcr",
        "label": "_symbol",
        "offset": 0,
        "slot": "4",
        "type": "t_string_storage"
      },
      {
        "astId": 568,
        "contract": "contracts/Glcr.sol:Glcr",
        "label": "_decimals",
        "offset": 0,
        "slot": "5",
        "type": "t_uint8"
      },
      {
        "astId": 7,
        "contract": "contracts/Glcr.sol:Glcr",
        "label": "_owner",
        "offset": 1,
        "slot": "5",
        "type": "t_address"
      },
      {
        "astId": 13711,
        "contract": "contracts/Glcr.sol:Glcr",
        "label": "_operator",
        "offset": 0,
        "slot": "6",
        "type": "t_address"
      },
      {
        "astId": 15567,
        "contract": "contracts/Glcr.sol:Glcr",
        "label": "whitelistType",
        "offset": 0,
        "slot": "7",
        "type": "t_mapping(t_address,t_enum(WhitelistType)15563)"
      },
      {
        "astId": 15569,
        "contract": "contracts/Glcr.sol:Glcr",
        "label": "enableDynamicTax",
        "offset": 0,
        "slot": "8",
        "type": "t_bool"
      },
      {
        "astId": 15577,
        "contract": "contracts/Glcr.sol:Glcr",
        "label": "staticTaxRate",
        "offset": 0,
        "slot": "9",
        "type": "t_uint256"
      },
      {
        "astId": 15579,
        "contract": "contracts/Glcr.sol:Glcr",
        "label": "dynamicTaxRate",
        "offset": 0,
        "slot": "10",
        "type": "t_uint256"
      },
      {
        "astId": 15581,
        "contract": "contracts/Glcr.sol:Glcr",
        "label": "taxOffice",
        "offset": 0,
        "slot": "11",
        "type": "t_address"
      },
      {
        "astId": 15583,
        "contract": "contracts/Glcr.sol:Glcr",
        "label": "taxRate",
        "offset": 0,
        "slot": "12",
        "type": "t_uint256"
      },
      {
        "astId": 2580,
        "contract": "contracts/Glcr.sol:Glcr",
        "label": "startTime",
        "offset": 0,
        "slot": "13",
        "type": "t_uint256"
      },
      {
        "astId": 2582,
        "contract": "contracts/Glcr.sol:Glcr",
        "label": "endTime",
        "offset": 0,
        "slot": "14",
        "type": "t_uint256"
      },
      {
        "astId": 2584,
        "contract": "contracts/Glcr.sol:Glcr",
        "label": "communityFundRewardRate",
        "offset": 0,
        "slot": "15",
        "type": "t_uint256"
      },
      {
        "astId": 2586,
        "contract": "contracts/Glcr.sol:Glcr",
        "label": "devFundRewardRate",
        "offset": 0,
        "slot": "16",
        "type": "t_uint256"
      },
      {
        "astId": 2588,
        "contract": "contracts/Glcr.sol:Glcr",
        "label": "communityFund",
        "offset": 0,
        "slot": "17",
        "type": "t_address"
      },
      {
        "astId": 2590,
        "contract": "contracts/Glcr.sol:Glcr",
        "label": "devFund",
        "offset": 0,
        "slot": "18",
        "type": "t_address"
      },
      {
        "astId": 2592,
        "contract": "contracts/Glcr.sol:Glcr",
        "label": "communityFundLastClaimed",
        "offset": 0,
        "slot": "19",
        "type": "t_uint256"
      },
      {
        "astId": 2594,
        "contract": "contracts/Glcr.sol:Glcr",
        "label": "devFundLastClaimed",
        "offset": 0,
        "slot": "20",
        "type": "t_uint256"
      },
      {
        "astId": 2597,
        "contract": "contracts/Glcr.sol:Glcr",
        "label": "rewardPoolDistributed",
        "offset": 0,
        "slot": "21",
        "type": "t_bool"
      }
    ],
    "types": {
      "t_address": {
        "encoding": "inplace",
        "label": "address",
        "numberOfBytes": "20"
      },
      "t_bool": {
        "encoding": "inplace",
        "label": "bool",
        "numberOfBytes": "1"
      },
      "t_enum(WhitelistType)15563": {
        "encoding": "inplace",
        "label": "enum ERC20Taxable.WhitelistType",
        "numberOfBytes": "1"
      },
      "t_mapping(t_address,t_enum(WhitelistType)15563)": {
        "encoding": "mapping",
        "key": "t_address",
        "label": "mapping(address => enum ERC20Taxable.WhitelistType)",
        "numberOfBytes": "32",
        "value": "t_enum(WhitelistType)15563"
      },
      "t_mapping(t_address,t_mapping(t_address,t_uint256))": {
        "encoding": "mapping",
        "key": "t_address",
        "label": "mapping(address => mapping(address => uint256))",
        "numberOfBytes": "32",
        "value": "t_mapping(t_address,t_uint256)"
      },
      "t_mapping(t_address,t_uint256)": {
        "encoding": "mapping",
        "key": "t_address",
        "label": "mapping(address => uint256)",
        "numberOfBytes": "32",
        "value": "t_uint256"
      },
      "t_string_storage": {
        "encoding": "bytes",
        "label": "string",
        "numberOfBytes": "32"
      },
      "t_uint256": {
        "encoding": "inplace",
        "label": "uint256",
        "numberOfBytes": "32"
      },
      "t_uint8": {
        "encoding": "inplace",
        "label": "uint8",
        "numberOfBytes": "1"
      }
    }
  }
}