{
  "address": "0x12043742F8C5cF20bB7f1969357be99EC66fCFEa",
  "abi": [
    {
      "inputs": [
        {
          "internalType": "address",
          "name": "_glcr",
          "type": "address"
        },
        {
          "internalType": "address",
          "name": "_daoFund",
          "type": "address"
        },
        {
          "internalType": "uint256",
          "name": "_poolStartTime",
          "type": "uint256"
        }
      ],
      "stateMutability": "nonpayable",
      "type": "constructor"
    },
    {
      "anonymous": false,
      "inputs": [
        {
          "indexed": true,
          "internalType": "address",
          "name": "user",
          "type": "address"
        },
        {
          "indexed": true,
          "internalType": "uint256",
          "name": "pid",
          "type": "uint256"
        },
        {
          "indexed": false,
          "internalType": "uint256",
          "name": "amount",
          "type": "uint256"
        }
      ],
      "name": "Deposit",
      "type": "event"
    },
    {
      "anonymous": false,
      "inputs": [
        {
          "indexed": true,
          "internalType": "address",
          "name": "user",
          "type": "address"
        },
        {
          "indexed": true,
          "internalType": "uint256",
          "name": "pid",
          "type": "uint256"
        },
        {
          "indexed": false,
          "internalType": "uint256",
          "name": "amount",
          "type": "uint256"
        }
      ],
      "name": "EmergencyWithdraw",
      "type": "event"
    },
    {
      "anonymous": false,
      "inputs": [
        {
          "indexed": true,
          "internalType": "address",
          "name": "user",
          "type": "address"
        },
        {
          "indexed": false,
          "internalType": "uint256",
          "name": "amount",
          "type": "uint256"
        }
      ],
      "name": "RewardPaid",
      "type": "event"
    },
    {
      "anonymous": false,
      "inputs": [
        {
          "indexed": true,
          "internalType": "address",
          "name": "user",
          "type": "address"
        },
        {
          "indexed": true,
          "internalType": "uint256",
          "name": "pid",
          "type": "uint256"
        },
        {
          "indexed": false,
          "internalType": "uint256",
          "name": "amount",
          "type": "uint256"
        }
      ],
      "name": "Withdraw",
      "type": "event"
    },
    {
      "inputs": [],
      "name": "RUNNING_TIME",
      "outputs": [
        {
          "internalType": "uint256",
          "name": "",
          "type": "uint256"
        }
      ],
      "stateMutability": "view",
      "type": "function"
    },
    {
      "inputs": [],
      "name": "TOTAL_REWARDS",
      "outputs": [
        {
          "internalType": "uint256",
          "name": "",
          "type": "uint256"
        }
      ],
      "stateMutability": "view",
      "type": "function"
    },
    {
      "inputs": [
        {
          "internalType": "uint256",
          "name": "_allocPoint",
          "type": "uint256"
        },
        {
          "internalType": "contract IERC20",
          "name": "_token",
          "type": "address"
        },
        {
          "internalType": "bool",
          "name": "_withUpdate",
          "type": "bool"
        },
        {
          "internalType": "uint256",
          "name": "_lastRewardTime",
          "type": "uint256"
        }
      ],
      "name": "add",
      "outputs": [],
      "stateMutability": "nonpayable",
      "type": "function"
    },
    {
      "inputs": [],
      "name": "daoFund",
      "outputs": [
        {
          "internalType": "address",
          "name": "",
          "type": "address"
        }
      ],
      "stateMutability": "view",
      "type": "function"
    },
    {
      "inputs": [
        {
          "internalType": "uint256",
          "name": "_pid",
          "type": "uint256"
        },
        {
          "internalType": "uint256",
          "name": "_amount",
          "type": "uint256"
        }
      ],
      "name": "deposit",
      "outputs": [],
      "stateMutability": "nonpayable",
      "type": "function"
    },
    {
      "inputs": [
        {
          "internalType": "uint256",
          "name": "_pid",
          "type": "uint256"
        }
      ],
      "name": "emergencyWithdraw",
      "outputs": [],
      "stateMutability": "nonpayable",
      "type": "function"
    },
    {
      "inputs": [
        {
          "internalType": "uint256",
          "name": "_fromTime",
          "type": "uint256"
        },
        {
          "internalType": "uint256",
          "name": "_toTime",
          "type": "uint256"
        }
      ],
      "name": "getGeneratedReward",
      "outputs": [
        {
          "internalType": "uint256",
          "name": "",
          "type": "uint256"
        }
      ],
      "stateMutability": "view",
      "type": "function"
    },
    {
      "inputs": [],
      "name": "getWithdrawFeePercent",
      "outputs": [
        {
          "internalType": "uint256",
          "name": "",
          "type": "uint256"
        }
      ],
      "stateMutability": "view",
      "type": "function"
    },
    {
      "inputs": [],
      "name": "glcr",
      "outputs": [
        {
          "internalType": "contract IERC20",
          "name": "",
          "type": "address"
        }
      ],
      "stateMutability": "view",
      "type": "function"
    },
    {
      "inputs": [],
      "name": "glcrPerSecond",
      "outputs": [
        {
          "internalType": "uint256",
          "name": "",
          "type": "uint256"
        }
      ],
      "stateMutability": "view",
      "type": "function"
    },
    {
      "inputs": [
        {
          "internalType": "address",
          "name": "_token",
          "type": "address"
        },
        {
          "internalType": "uint256",
          "name": "amount",
          "type": "uint256"
        },
        {
          "internalType": "address",
          "name": "to",
          "type": "address"
        }
      ],
      "name": "governanceRecoverUnsupported",
      "outputs": [],
      "stateMutability": "nonpayable",
      "type": "function"
    },
    {
      "inputs": [],
      "name": "massUpdatePools",
      "outputs": [],
      "stateMutability": "nonpayable",
      "type": "function"
    },
    {
      "inputs": [],
      "name": "operator",
      "outputs": [
        {
          "internalType": "address",
          "name": "",
          "type": "address"
        }
      ],
      "stateMutability": "view",
      "type": "function"
    },
    {
      "inputs": [
        {
          "internalType": "uint256",
          "name": "_pid",
          "type": "uint256"
        },
        {
          "internalType": "address",
          "name": "_user",
          "type": "address"
        }
      ],
      "name": "pendingShare",
      "outputs": [
        {
          "internalType": "uint256",
          "name": "",
          "type": "uint256"
        }
      ],
      "stateMutability": "view",
      "type": "function"
    },
    {
      "inputs": [],
      "name": "poolEndTime",
      "outputs": [
        {
          "internalType": "uint256",
          "name": "",
          "type": "uint256"
        }
      ],
      "stateMutability": "view",
      "type": "function"
    },
    {
      "inputs": [
        {
          "internalType": "uint256",
          "name": "",
          "type": "uint256"
        }
      ],
      "name": "poolInfo",
      "outputs": [
        {
          "internalType": "contract IERC20",
          "name": "token",
          "type": "address"
        },
        {
          "internalType": "uint256",
          "name": "allocPoint",
          "type": "uint256"
        },
        {
          "internalType": "uint256",
          "name": "lastRewardTime",
          "type": "uint256"
        },
        {
          "internalType": "uint256",
          "name": "accglcrPerShare",
          "type": "uint256"
        },
        {
          "internalType": "bool",
          "name": "isStarted",
          "type": "bool"
        }
      ],
      "stateMutability": "view",
      "type": "function"
    },
    {
      "inputs": [],
      "name": "poolStartTime",
      "outputs": [
        {
          "internalType": "uint256",
          "name": "",
          "type": "uint256"
        }
      ],
      "stateMutability": "view",
      "type": "function"
    },
    {
      "inputs": [
        {
          "internalType": "uint256",
          "name": "_pid",
          "type": "uint256"
        },
        {
          "internalType": "uint256",
          "name": "_allocPoint",
          "type": "uint256"
        }
      ],
      "name": "set",
      "outputs": [],
      "stateMutability": "nonpayable",
      "type": "function"
    },
    {
      "inputs": [
        {
          "internalType": "address",
          "name": "_daoFund",
          "type": "address"
        }
      ],
      "name": "setDaoFund",
      "outputs": [],
      "stateMutability": "nonpayable",
      "type": "function"
    },
    {
      "inputs": [
        {
          "internalType": "address",
          "name": "_operator",
          "type": "address"
        }
      ],
      "name": "setOperator",
      "outputs": [],
      "stateMutability": "nonpayable",
      "type": "function"
    },
    {
      "inputs": [
        {
          "internalType": "uint8",
          "name": "_index",
          "type": "uint8"
        },
        {
          "internalType": "uint256",
          "name": "_value",
          "type": "uint256"
        }
      ],
      "name": "setStakingTiersEntry",
      "outputs": [],
      "stateMutability": "nonpayable",
      "type": "function"
    },
    {
      "inputs": [
        {
          "internalType": "uint8",
          "name": "_index",
          "type": "uint8"
        },
        {
          "internalType": "uint256",
          "name": "_value",
          "type": "uint256"
        }
      ],
      "name": "setTaxTiersEntry",
      "outputs": [],
      "stateMutability": "nonpayable",
      "type": "function"
    },
    {
      "inputs": [
        {
          "internalType": "bool",
          "name": "_enableTaxes",
          "type": "bool"
        }
      ],
      "name": "setTaxesStatus",
      "outputs": [],
      "stateMutability": "nonpayable",
      "type": "function"
    },
    {
      "inputs": [
        {
          "internalType": "uint256",
          "name": "",
          "type": "uint256"
        }
      ],
      "name": "stakingTires",
      "outputs": [
        {
          "internalType": "uint256",
          "name": "",
          "type": "uint256"
        }
      ],
      "stateMutability": "view",
      "type": "function"
    },
    {
      "inputs": [],
      "name": "totalAllocPoint",
      "outputs": [
        {
          "internalType": "uint256",
          "name": "",
          "type": "uint256"
        }
      ],
      "stateMutability": "view",
      "type": "function"
    },
    {
      "inputs": [
        {
          "internalType": "uint256",
          "name": "_pid",
          "type": "uint256"
        }
      ],
      "name": "updatePool",
      "outputs": [],
      "stateMutability": "nonpayable",
      "type": "function"
    },
    {
      "inputs": [
        {
          "internalType": "uint256",
          "name": "",
          "type": "uint256"
        },
        {
          "internalType": "address",
          "name": "",
          "type": "address"
        }
      ],
      "name": "userInfo",
      "outputs": [
        {
          "internalType": "uint256",
          "name": "amount",
          "type": "uint256"
        },
        {
          "internalType": "uint256",
          "name": "rewardDebt",
          "type": "uint256"
        }
      ],
      "stateMutability": "view",
      "type": "function"
    },
    {
      "inputs": [
        {
          "internalType": "uint256",
          "name": "_pid",
          "type": "uint256"
        },
        {
          "internalType": "uint256",
          "name": "_amount",
          "type": "uint256"
        }
      ],
      "name": "withdraw",
      "outputs": [],
      "stateMutability": "nonpayable",
      "type": "function"
    },
    {
      "inputs": [
        {
          "internalType": "uint256",
          "name": "",
          "type": "uint256"
        }
      ],
      "name": "withdrawTaxTires",
      "outputs": [
        {
          "internalType": "uint256",
          "name": "",
          "type": "uint256"
        }
      ],
      "stateMutability": "view",
      "type": "function"
    }
  ],
  "transactionHash": "0x253a3052bfc1b2b5b19b71f3257ae3c0060dd4f08b5f51032c42245ee595c32b",
  "args": [
    "0x6C8afC3EEe9bc98bAa8327Fac1073bE1c8B23729",
    "0xeDc5E564811b96Ec8ca2336895C66b3B88F9ef66",
    1667088000
  ],
  "numDeployments": 1,
  "solcInputHash": "58f94548748d66a94013e493b84ea0e7",
  "bytecode": "0x60006004556005805460ff191660011781556101a060405262093a806101009081526212750061012052621baf80610140526224ea0061016052622e248061018052620000509160069190620002a2565b506040805160a0810182526101f48152610190602082015261012c9181019190915260c860608201526064608082015262000090906007906005620002f9565b503480156200009e57600080fd5b50604051620025c1380380620025c183398181016040526060811015620000c457600080fd5b508051602082015160409092015190919042811162000113576040805162461bcd60e51b815260206004808301919091526024820152636c61746560e01b604482015290519081900360640190fd5b6001600160a01b03831662000157576040805162461bcd60e51b81526020600482015260056024820152642fb3b631b960d91b604482015290519081900360640190fd5b6001600160a01b0382166200019e576040805162461bcd60e51b815260206004820152600860248201526717d9185bd19d5b9960c21b604482015290519081900360640190fd5b606083901b6001600160601b031916608052600180546001600160a01b0319166001600160a01b0384161790556200020e603c620001fa818160188169048d8470181e3270000061016d62000239602090811b620019b717901c565b6200023960201b620019b71790919060201c565b60e05260a08190526301dfe2000160c0525050600080546001600160a01b0319163317905562000354565b600080821162000290576040805162461bcd60e51b815260206004820152601a60248201527f536166654d6174683a206469766973696f6e206279207a65726f000000000000604482015290519081900360640190fd5b8183816200029a57fe5b049392505050565b828054828255906000526020600020908101928215620002e7579160200282015b82811115620002e7578251829062ffffff16905591602001919060010190620002c3565b50620002f59291506200033d565b5090565b828054828255906000526020600020908101928215620002e7579160200282015b82811115620002e7578251829061ffff169055916020019190600101906200031a565b5b80821115620002f557600081556001016200033e565b60805160601c60a05160c05160e0516121b76200040a6000398061084852806108c3528061096752806109b552806115a05250806107c852806107ef528061086c52806108e7528061101c528061124e52508061081e528061088d528061090e528061093d528061098c52806112075280611361528061138f52806113b552806113de528061141b52806115c752806115f652508061079352806110495280611b395280611bed5280611c2652506121b76000f3fe608060405234801561001057600080fd5b50600436106101cf5760003560e01c80635312ea8e116101045780638d934f74116100a2578063b334988011610071578063b3349880146104cb578063b3ab15fb146104d3578063cf4b55cb146104f9578063e2bbb15814610525576101cf565b80638d934f741461043c57806393f1a40b1461044457806396805e5414610489578063b0e2a014146104c3576101cf565b80635f96dc11116100de5780635f96dc1114610405578063630b5ba11461040d5780636e271dd5146104155780637a42481a1461041d576101cf565b80635312ea8e146103aa57806354575af4146103c7578063570ca735146103fd576101cf565b80631cc9092a116101715780633406037f1161014b5780633406037f1461033c578063441a3e7014610344578063497b21db1461036757806351eb05a61461038d576101cf565b80631cc9092a146102cf578063231f0c6a146102f35780632c559d2714610316576101cf565b80631526fe27116101ad5780631526fe271461023357806317caf6f1146102875780631ab06ee51461028f5780631c6e253f146102b2576101cf565b806304567280146101d4578063070889b21461020357806309cf60911461022b575b600080fd5b6101f1600480360360208110156101ea57600080fd5b5035610548565b60408051918252519081900360200190f35b6102296004803603604081101561021957600080fd5b5060ff8135169060200135610566565b005b6101f1610677565b6102506004803603602081101561024957600080fd5b5035610685565b604080516001600160a01b039096168652602086019490945284840192909252606084015215156080830152519081900360a00190f35b6101f16106d0565b610229600480360360408110156102a557600080fd5b50803590602001356106d6565b6101f1600480360360208110156102c857600080fd5b5035610784565b6102d7610791565b604080516001600160a01b039092168252519081900360200190f35b6101f16004803603604081101561030957600080fd5b50803590602001356107b5565b6102296004803603602081101561032c57600080fd5b50356001600160a01b03166109e4565b6101f1610a5c565b6102296004803603604081101561035a57600080fd5b5080359060200135610a64565b6102296004803603604081101561037d57600080fd5b5060ff8135169060200135610ca2565b610229600480360360208110156103a357600080fd5b5035610dab565b610229600480360360208110156103c057600080fd5b5035610f09565b610229600480360360608110156103dd57600080fd5b506001600160a01b03813581169160208101359160409091013516610fd1565b6102d76111f6565b6101f1611205565b610229611229565b6101f161124c565b6102296004803603602081101561043357600080fd5b50351515611270565b6102d76112cc565b6104706004803603604081101561045a57600080fd5b50803590602001356001600160a01b03166112db565b6040805192835260208301919091528051918290030190f35b6102296004803603608081101561049f57600080fd5b508035906001600160a01b03602082013516906040810135151590606001356112ff565b6101f161159e565b6101f16115c2565b610229600480360360208110156104e957600080fd5b50356001600160a01b0316611673565b6101f16004803603604081101561050f57600080fd5b50803590602001356001600160a01b03166116eb565b6102296004803603604081101561053b57600080fd5b5080359060200135611847565b6006818154811061055557fe5b600091825260209091200154905081565b6000546001600160a01b031633146105af5760405162461bcd60e51b815260040180806020018281038252602a8152602001806120e4602a913960400191505060405180910390fd5b60075460ff8316106105f25760405162461bcd60e51b815260040180806020018281038252602981526020018061212f6029913960400191505060405180910390fd5b600a811015801561060557506107d08111155b610656576040805162461bcd60e51b815260206004820152601460248201527f5f76616c75653a206f7574206f662072616e6765000000000000000000000000604482015290519081900360640190fd5b8060078360ff168154811061066757fe5b6000918252602090912001555050565b69048d8470181e3270000081565b6002818154811061069257fe5b6000918252602090912060059091020180546001820154600283015460038401546004909401546001600160a01b0390931694509092909160ff1685565b60045481565b6000546001600160a01b0316331461071f5760405162461bcd60e51b815260040180806020018281038252602a8152602001806120e4602a913960400191505060405180910390fd5b610727611229565b60006002838154811061073657fe5b60009182526020909120600590910201600481015490915060ff161561077d57610779826107738360010154600454611a1e90919063ffffffff16565b90611a7b565b6004555b6001015550565b6007818154811061055557fe5b7f000000000000000000000000000000000000000000000000000000000000000081565b60008183106107c6575060006109de565b7f0000000000000000000000000000000000000000000000000000000000000000821061090c577f0000000000000000000000000000000000000000000000000000000000000000831061081c575060006109de565b7f000000000000000000000000000000000000000000000000000000000000000083116108be576108b77f00000000000000000000000000000000000000000000000000000000000000006108b17f00000000000000000000000000000000000000000000000000000000000000007f0000000000000000000000000000000000000000000000000000000000000000611a1e565b90611adc565b90506109de565b6108b77f00000000000000000000000000000000000000000000000000000000000000006108b17f000000000000000000000000000000000000000000000000000000000000000086611a1e565b7f0000000000000000000000000000000000000000000000000000000000000000821161093b575060006109de565b7f000000000000000000000000000000000000000000000000000000000000000083116109b0576108b77f00000000000000000000000000000000000000000000000000000000000000006108b1847f0000000000000000000000000000000000000000000000000000000000000000611a1e565b6108b77f00000000000000000000000000000000000000000000000000000000000000006108b18486611a1e565b92915050565b6000546001600160a01b03163314610a2d5760405162461bcd60e51b815260040180806020018281038252602a8152602001806120e4602a913960400191505060405180910390fd5b6001805473ffffffffffffffffffffffffffffffffffffffff19166001600160a01b0392909216919091179055565b6301dfe20081565b6000339050600060028481548110610a7857fe5b600091825260208083208784526003825260408085206001600160a01b03881686529092529220805460059092029092019250841115610aff576040805162461bcd60e51b815260206004820152601260248201527f77697468647261773a206e6f7420676f6f640000000000000000000000000000604482015290519081900360640190fd5b610b0885610dab565b6000610b458260010154610b3f670de0b6b3a7640000610b3987600301548760000154611adc90919063ffffffff16565b906119b7565b90611a1e565b90508015610b9757610b578482611b35565b6040805182815290516001600160a01b038616917fe2403640ba68fed3a2f88b7557551d1993f84b99bb10ff833f0cf8db0c5e0486919081900360200190a25b8415610c37578154610ba99086611a1e565b82556000610bc5612710610b39610bbe6115c2565b8990611adc565b60055490915060ff168015610bd957508015155b15610c1f576001548454610bfa916001600160a01b03918216911683611c52565b610c1a85610c088884611a1e565b86546001600160a01b03169190611c52565b610c35565b8354610c35906001600160a01b03168688611c52565b505b60038301548254610c5591670de0b6b3a764000091610b3991611adc565b600183015560408051868152905187916001600160a01b038716917ff279e6a1f5e320cca91135676d9cb6e44ca8a08c0b88342bcdb1144f6511b5689181900360200190a3505050505050565b6000546001600160a01b03163314610ceb5760405162461bcd60e51b815260040180806020018281038252602a8152602001806120e4602a913960400191505060405180910390fd5b60065460ff831610610d2e5760405162461bcd60e51b815260040180806020018281038252602981526020018061212f6029913960400191505060405180910390fd5b60ff821615610d605760066001830360ff1681548110610d4a57fe5b90600052602060002001548110610d6057600080fd5b6006546000190160ff83161015610d9a5760068260010160ff1681548110610d8457fe5b90600052602060002001548111610d9a57600080fd5b8060068360ff168154811061066757fe5b600060028281548110610dba57fe5b9060005260206000209060050201905080600201544211610ddb5750610f06565b8054604080516370a0823160e01b815230600482015290516000926001600160a01b0316916370a08231916024808301926020929190829003018186803b158015610e2557600080fd5b505afa158015610e39573d6000803e3d6000fd5b505050506040513d6020811015610e4f57600080fd5b5051905080610e65575042600290910155610f06565b600482015460ff16610e96576004808301805460ff191660019081179091558301549054610e9291611a7b565b6004555b60045415610efd576000610eae8360020154426107b5565b90506000610ecf600454610b39866001015485611adc90919063ffffffff16565b9050610ef5610eea84610b3984670de0b6b3a7640000611adc565b600386015490611a7b565b600385015550505b50426002909101555b50565b600060028281548110610f1857fe5b600091825260208083208584526003825260408085203386529092529083208054848255600182018590556005909302909101935091610f66612710610b39610f5f6115c2565b8590611adc565b6001548554919250610f85916001600160a01b03908116911683611c52565b610f9333610c088484611a1e565b604080518381529051869133917fbb757047c2b5f3974fe26b7c10f732e7bce710b0952a71082702781e62ae05959181900360200190a35050505050565b6000546001600160a01b0316331461101a5760405162461bcd60e51b815260040180806020018281038252602a8152602001806120e4602a913960400191505060405180910390fd5b7f00000000000000000000000000000000000000000000000000000000000000006276a7000142101561116e577f00000000000000000000000000000000000000000000000000000000000000006001600160a01b0316836001600160a01b031614156110d0576040805162461bcd60e51b8152602060048083019190915260248201527f676c637200000000000000000000000000000000000000000000000000000000604482015290519081900360640190fd5b60025460005b8181101561116b576000600282815481106110ed57fe5b6000918252602090912060059091020180549091506001600160a01b0387811691161415611162576040805162461bcd60e51b815260206004820152600a60248201527f706f6f6c2e746f6b656e00000000000000000000000000000000000000000000604482015290519081900360640190fd5b506001016110d6565b50505b826001600160a01b031663a9059cbb82846040518363ffffffff1660e01b815260040180836001600160a01b0316815260200182815260200192505050602060405180830381600087803b1580156111c557600080fd5b505af11580156111d9573d6000803e3d6000fd5b505050506040513d60208110156111ef57600080fd5b5050505050565b6000546001600160a01b031681565b7f000000000000000000000000000000000000000000000000000000000000000081565b60025460005b818110156112485761124081610dab565b60010161122f565b5050565b7f000000000000000000000000000000000000000000000000000000000000000081565b6000546001600160a01b031633146112b95760405162461bcd60e51b815260040180806020018281038252602a8152602001806120e4602a913960400191505060405180910390fd5b6005805460ff1916911515919091179055565b6001546001600160a01b031681565b60036020908152600092835260408084209091529082529020805460019091015482565b6000546001600160a01b031633146113485760405162461bcd60e51b815260040180806020018281038252602a8152602001806120e4602a913960400191505060405180910390fd5b61135183611cd2565b811561135f5761135f611229565b7f000000000000000000000000000000000000000000000000000000000000000042101561140357806113b357507f00000000000000000000000000000000000000000000000000000000000000006113fe565b7f00000000000000000000000000000000000000000000000000000000000000008110156113fe57507f00000000000000000000000000000000000000000000000000000000000000005b611417565b80158061140f57504281105b156114175750425b60007f0000000000000000000000000000000000000000000000000000000000000000821115806114485750428211155b6040805160a0810182526001600160a01b03878116825260208201898152928201868152600060608401818152861580156080870190815260028054600181018255945295517f405787fa12a823e0f2b7631cc41b3ba8828b3321ca811111fa75cd3aa3bb5ace6005909402938401805473ffffffffffffffffffffffffffffffffffffffff1916919096161790945594517f405787fa12a823e0f2b7631cc41b3ba8828b3321ca811111fa75cd3aa3bb5acf82015590517f405787fa12a823e0f2b7631cc41b3ba8828b3321ca811111fa75cd3aa3bb5ad082015592517f405787fa12a823e0f2b7631cc41b3ba8828b3321ca811111fa75cd3aa3bb5ad184015590517f405787fa12a823e0f2b7631cc41b3ba8828b3321ca811111fa75cd3aa3bb5ad2909201805460ff1916921515929092179091559091506111ef576004546115949086611a7b565b6004555050505050565b7f000000000000000000000000000000000000000000000000000000000000000081565b6000427f000000000000000000000000000000000000000000000000000000000000000011156115f457506000611670565b7f00000000000000000000000000000000000000000000000000000000000000004203606460005b60065481101561166b576006818154811061163357fe5b90600052602060002001548311611663576007818154811061165157fe5b9060005260206000200154915061166b565b60010161161c565b509150505b90565b6000546001600160a01b031633146116bc5760405162461bcd60e51b815260040180806020018281038252602a8152602001806120e4602a913960400191505060405180910390fd5b6000805473ffffffffffffffffffffffffffffffffffffffff19166001600160a01b0392909216919091179055565b600080600284815481106116fb57fe5b60009182526020808320878452600380835260408086206001600160a01b03808b168852908552818720600590960290930191820154825482516370a0823160e01b815230600482015292519398509596909590949316926370a0823192602480840193829003018186803b15801561177357600080fd5b505afa158015611787573d6000803e3d6000fd5b505050506040513d602081101561179d57600080fd5b50516002850154909150421180156117b457508015155b156118115760006117c98560020154426107b5565b905060006117ea600454610b39886001015485611adc90919063ffffffff16565b905061180c61180584610b3984670de0b6b3a7640000611adc565b8590611a7b565b935050505b61183c8360010154610b3f670de0b6b3a7640000610b39868860000154611adc90919063ffffffff16565b979650505050505050565b600033905060006002848154811061185b57fe5b600091825260208083208784526003825260408085206001600160a01b038816865290925292206005909102909101915061189585610dab565b8054156119215760006118cd8260010154610b3f670de0b6b3a7640000610b3987600301548760000154611adc90919063ffffffff16565b9050801561191f576118df8482611b35565b6040805182815290516001600160a01b038616917fe2403640ba68fed3a2f88b7557551d1993f84b99bb10ff833f0cf8db0c5e0486919081900360200190a25b505b831561194d57815461193e906001600160a01b0316843087611d6c565b805461194a9085611a7b565b81555b6003820154815461196b91670de0b6b3a764000091610b3991611adc565b600182015560408051858152905186916001600160a01b038616917f90890809c654f11d6e72a28fa60149770a0d11ec6c92319d6ceb2bb0a4ea1a159181900360200190a35050505050565b6000808211611a0d576040805162461bcd60e51b815260206004820152601a60248201527f536166654d6174683a206469766973696f6e206279207a65726f000000000000604482015290519081900360640190fd5b818381611a1657fe5b049392505050565b600082821115611a75576040805162461bcd60e51b815260206004820152601e60248201527f536166654d6174683a207375627472616374696f6e206f766572666c6f770000604482015290519081900360640190fd5b50900390565b600082820183811015611ad5576040805162461bcd60e51b815260206004820152601b60248201527f536166654d6174683a206164646974696f6e206f766572666c6f770000000000604482015290519081900360640190fd5b9392505050565b600082611aeb575060006109de565b82820282848281611af857fe5b0414611ad55760405162461bcd60e51b815260040180806020018281038252602181526020018061210e6021913960400191505060405180910390fd5b60007f00000000000000000000000000000000000000000000000000000000000000006001600160a01b03166370a08231306040518263ffffffff1660e01b815260040180826001600160a01b0316815260200191505060206040518083038186803b158015611ba457600080fd5b505afa158015611bb8573d6000803e3d6000fd5b505050506040513d6020811015611bce57600080fd5b505190508015611c4d5780821115611c1957611c146001600160a01b037f0000000000000000000000000000000000000000000000000000000000000000168483611c52565b611c4d565b611c4d6001600160a01b037f0000000000000000000000000000000000000000000000000000000000000000168484611c52565b505050565b604080516001600160a01b038416602482015260448082018490528251808303909101815260649091019091526020810180517bffffffffffffffffffffffffffffffffffffffffffffffffffffffff167fa9059cbb00000000000000000000000000000000000000000000000000000000179052611c4d908490611dfa565b60025460005b81811015611c4d57826001600160a01b031660028281548110611cf757fe5b60009182526020909120600590910201546001600160a01b03161415611d64576040805162461bcd60e51b815260206004820152601e60248201527f676c6372526577617264506f6f6c3a206578697374696e6720706f6f6c3f0000604482015290519081900360640190fd5b600101611cd8565b604080516001600160a01b0380861660248301528416604482015260648082018490528251808303909101815260849091019091526020810180517bffffffffffffffffffffffffffffffffffffffffffffffffffffffff167f23b872dd00000000000000000000000000000000000000000000000000000000179052611df4908590611dfa565b50505050565b6060611e4f826040518060400160405280602081526020017f5361666545524332303a206c6f772d6c6576656c2063616c6c206661696c6564815250856001600160a01b0316611eab9092919063ffffffff16565b805190915015611c4d57808060200190516020811015611e6e57600080fd5b5051611c4d5760405162461bcd60e51b815260040180806020018281038252602a815260200180612158602a913960400191505060405180910390fd5b6060611eba8484600085611ec2565b949350505050565b606082471015611f035760405162461bcd60e51b81526004018080602001828103825260268152602001806120be6026913960400191505060405180910390fd5b611f0c85612013565b611f5d576040805162461bcd60e51b815260206004820152601d60248201527f416464726573733a2063616c6c20746f206e6f6e2d636f6e7472616374000000604482015290519081900360640190fd5b60006060866001600160a01b031685876040518082805190602001908083835b60208310611f9c5780518252601f199092019160209182019101611f7d565b6001836020036101000a03801982511681845116808217855250505050505090500191505060006040518083038185875af1925050503d8060008114611ffe576040519150601f19603f3d011682016040523d82523d6000602084013e612003565b606091505b509150915061183c828286612019565b3b151590565b60608315612028575081611ad5565b8251156120385782518084602001fd5b8160405162461bcd60e51b81526004018080602001828103825283818151815260200191508051906020019080838360005b8381101561208257818101518382015260200161206a565b50505050905090810190601f1680156120af5780820380516001836020036101000a031916815260200191505b509250505060405180910390fdfe416464726573733a20696e73756666696369656e742062616c616e636520666f722063616c6c676c6372526577617264506f6f6c3a2063616c6c6572206973206e6f7420746865206f70657261746f72536166654d6174683a206d756c7469706c69636174696f6e206f766572666c6f77496e6465782068617320746f206265206c6f776572207468616e20636f756e74206f662074696572735361666545524332303a204552433230206f7065726174696f6e20646964206e6f742073756363656564a26469706673582212201ba97de6f31c755e42e8a2bbf35ac0b8b40d1f5f186804c98326e9f9d81f102e64736f6c634300060c0033",
  "devdoc": {
    "kind": "dev",
    "methods": {},
    "version": 1
  },
  "userdoc": {
    "kind": "user",
    "methods": {},
    "version": 1
  },
  "storageLayout": {
    "storage": [
      {
        "astId": 4777,
        "contract": "contracts/GlcrRewardPool.sol:GlcrRewardPool",
        "label": "operator",
        "offset": 0,
        "slot": "0",
        "type": "t_address"
      },
      {
        "astId": 4779,
        "contract": "contracts/GlcrRewardPool.sol:GlcrRewardPool",
        "label": "daoFund",
        "offset": 0,
        "slot": "1",
        "type": "t_address"
      },
      {
        "astId": 4800,
        "contract": "contracts/GlcrRewardPool.sol:GlcrRewardPool",
        "label": "poolInfo",
        "offset": 0,
        "slot": "2",
        "type": "t_array(t_struct(PoolInfo)4795_storage)dyn_storage"
      },
      {
        "astId": 4806,
        "contract": "contracts/GlcrRewardPool.sol:GlcrRewardPool",
        "label": "userInfo",
        "offset": 0,
        "slot": "3",
        "type": "t_mapping(t_uint256,t_mapping(t_address,t_struct(UserInfo)4784_storage))"
      },
      {
        "astId": 4809,
        "contract": "contracts/GlcrRewardPool.sol:GlcrRewardPool",
        "label": "totalAllocPoint",
        "offset": 0,
        "slot": "4",
        "type": "t_uint256"
      },
      {
        "astId": 4824,
        "contract": "contracts/GlcrRewardPool.sol:GlcrRewardPool",
        "label": "enableTaxes",
        "offset": 0,
        "slot": "5",
        "type": "t_bool"
      },
      {
        "astId": 4833,
        "contract": "contracts/GlcrRewardPool.sol:GlcrRewardPool",
        "label": "stakingTires",
        "offset": 0,
        "slot": "6",
        "type": "t_array(t_uint256)dyn_storage"
      },
      {
        "astId": 4842,
        "contract": "contracts/GlcrRewardPool.sol:GlcrRewardPool",
        "label": "withdrawTaxTires",
        "offset": 0,
        "slot": "7",
        "type": "t_array(t_uint256)dyn_storage"
      }
    ],
    "types": {
      "t_address": {
        "encoding": "inplace",
        "label": "address",
        "numberOfBytes": "20"
      },
      "t_array(t_struct(PoolInfo)4795_storage)dyn_storage": {
        "base": "t_struct(PoolInfo)4795_storage",
        "encoding": "dynamic_array",
        "label": "struct GlcrRewardPool.PoolInfo[]",
        "numberOfBytes": "32"
      },
      "t_array(t_uint256)dyn_storage": {
        "base": "t_uint256",
        "encoding": "dynamic_array",
        "label": "uint256[]",
        "numberOfBytes": "32"
      },
      "t_bool": {
        "encoding": "inplace",
        "label": "bool",
        "numberOfBytes": "1"
      },
      "t_contract(IERC20)1177": {
        "encoding": "inplace",
        "label": "contract IERC20",
        "numberOfBytes": "20"
      },
      "t_mapping(t_address,t_struct(UserInfo)4784_storage)": {
        "encoding": "mapping",
        "key": "t_address",
        "label": "mapping(address => struct GlcrRewardPool.UserInfo)",
        "numberOfBytes": "32",
        "value": "t_struct(UserInfo)4784_storage"
      },
      "t_mapping(t_uint256,t_mapping(t_address,t_struct(UserInfo)4784_storage))": {
        "encoding": "mapping",
        "key": "t_uint256",
        "label": "mapping(uint256 => mapping(address => struct GlcrRewardPool.UserInfo))",
        "numberOfBytes": "32",
        "value": "t_mapping(t_address,t_struct(UserInfo)4784_storage)"
      },
      "t_struct(PoolInfo)4795_storage": {
        "encoding": "inplace",
        "label": "struct GlcrRewardPool.PoolInfo",
        "members": [
          {
            "astId": 4786,
            "contract": "contracts/GlcrRewardPool.sol:GlcrRewardPool",
            "label": "token",
            "offset": 0,
            "slot": "0",
            "type": "t_contract(IERC20)1177"
          },
          {
            "astId": 4788,
            "contract": "contracts/GlcrRewardPool.sol:GlcrRewardPool",
            "label": "allocPoint",
            "offset": 0,
            "slot": "1",
            "type": "t_uint256"
          },
          {
            "astId": 4790,
            "contract": "contracts/GlcrRewardPool.sol:GlcrRewardPool",
            "label": "lastRewardTime",
            "offset": 0,
            "slot": "2",
            "type": "t_uint256"
          },
          {
            "astId": 4792,
            "contract": "contracts/GlcrRewardPool.sol:GlcrRewardPool",
            "label": "accglcrPerShare",
            "offset": 0,
            "slot": "3",
            "type": "t_uint256"
          },
          {
            "astId": 4794,
            "contract": "contracts/GlcrRewardPool.sol:GlcrRewardPool",
            "label": "isStarted",
            "offset": 0,
            "slot": "4",
            "type": "t_bool"
          }
        ],
        "numberOfBytes": "160"
      },
      "t_struct(UserInfo)4784_storage": {
        "encoding": "inplace",
        "label": "struct GlcrRewardPool.UserInfo",
        "members": [
          {
            "astId": 4781,
            "contract": "contracts/GlcrRewardPool.sol:GlcrRewardPool",
            "label": "amount",
            "offset": 0,
            "slot": "0",
            "type": "t_uint256"
          },
          {
            "astId": 4783,
            "contract": "contracts/GlcrRewardPool.sol:GlcrRewardPool",
            "label": "rewardDebt",
            "offset": 0,
            "slot": "1",
            "type": "t_uint256"
          }
        ],
        "numberOfBytes": "64"
      },
      "t_uint256": {
        "encoding": "inplace",
        "label": "uint256",
        "numberOfBytes": "32"
      }
    }
  }
}