{
  "address": "0xF7C92f8c9E7D130FBb9269f4DBa30A44d6842cF6",
  "abi": [
    {
      "inputs": [
        {
          "internalType": "contract IUniswapV2Pair",
          "name": "_pair",
          "type": "address"
        },
        {
          "internalType": "uint256",
          "name": "_period",
          "type": "uint256"
        },
        {
          "internalType": "uint256",
          "name": "_startTime",
          "type": "uint256"
        },
        {
          "internalType": "address",
          "name": "_snow",
          "type": "address"
        }
      ],
      "stateMutability": "nonpayable",
      "type": "constructor"
    },
    {
      "anonymous": false,
      "inputs": [
        {
          "indexed": true,
          "internalType": "address",
          "name": "previousOperator",
          "type": "address"
        },
        {
          "indexed": true,
          "internalType": "address",
          "name": "newOperator",
          "type": "address"
        }
      ],
      "name": "OperatorTransferred",
      "type": "event"
    },
    {
      "anonymous": false,
      "inputs": [
        {
          "indexed": true,
          "internalType": "address",
          "name": "previousOwner",
          "type": "address"
        },
        {
          "indexed": true,
          "internalType": "address",
          "name": "newOwner",
          "type": "address"
        }
      ],
      "name": "OwnershipTransferred",
      "type": "event"
    },
    {
      "anonymous": false,
      "inputs": [
        {
          "indexed": false,
          "internalType": "uint256",
          "name": "price0CumulativeLast",
          "type": "uint256"
        },
        {
          "indexed": false,
          "internalType": "uint256",
          "name": "price1CumulativeLast",
          "type": "uint256"
        }
      ],
      "name": "Updated",
      "type": "event"
    },
    {
      "inputs": [],
      "name": "DECIMALS_MULTIPLER",
      "outputs": [
        {
          "internalType": "uint144",
          "name": "",
          "type": "uint144"
        }
      ],
      "stateMutability": "view",
      "type": "function"
    },
    {
      "inputs": [],
      "name": "blockTimestampLast",
      "outputs": [
        {
          "internalType": "uint32",
          "name": "",
          "type": "uint32"
        }
      ],
      "stateMutability": "view",
      "type": "function"
    },
    {
      "inputs": [
        {
          "internalType": "address",
          "name": "_token",
          "type": "address"
        },
        {
          "internalType": "uint256",
          "name": "_amountIn",
          "type": "uint256"
        }
      ],
      "name": "consult",
      "outputs": [
        {
          "internalType": "uint144",
          "name": "amountOut",
          "type": "uint144"
        }
      ],
      "stateMutability": "view",
      "type": "function"
    },
    {
      "inputs": [],
      "name": "getCurrentEpoch",
      "outputs": [
        {
          "internalType": "uint256",
          "name": "",
          "type": "uint256"
        }
      ],
      "stateMutability": "view",
      "type": "function"
    },
    {
      "inputs": [],
      "name": "getLastEpochTime",
      "outputs": [
        {
          "internalType": "uint256",
          "name": "",
          "type": "uint256"
        }
      ],
      "stateMutability": "view",
      "type": "function"
    },
    {
      "inputs": [],
      "name": "getPeriod",
      "outputs": [
        {
          "internalType": "uint256",
          "name": "",
          "type": "uint256"
        }
      ],
      "stateMutability": "view",
      "type": "function"
    },
    {
      "inputs": [],
      "name": "getStartTime",
      "outputs": [
        {
          "internalType": "uint256",
          "name": "",
          "type": "uint256"
        }
      ],
      "stateMutability": "view",
      "type": "function"
    },
    {
      "inputs": [],
      "name": "isOperator",
      "outputs": [
        {
          "internalType": "bool",
          "name": "",
          "type": "bool"
        }
      ],
      "stateMutability": "view",
      "type": "function"
    },
    {
      "inputs": [],
      "name": "nextEpochPoint",
      "outputs": [
        {
          "internalType": "uint256",
          "name": "",
          "type": "uint256"
        }
      ],
      "stateMutability": "view",
      "type": "function"
    },
    {
      "inputs": [],
      "name": "operator",
      "outputs": [
        {
          "internalType": "address",
          "name": "",
          "type": "address"
        }
      ],
      "stateMutability": "view",
      "type": "function"
    },
    {
      "inputs": [],
      "name": "owner",
      "outputs": [
        {
          "internalType": "address",
          "name": "",
          "type": "address"
        }
      ],
      "stateMutability": "view",
      "type": "function"
    },
    {
      "inputs": [],
      "name": "pair",
      "outputs": [
        {
          "internalType": "contract IUniswapV2Pair",
          "name": "",
          "type": "address"
        }
      ],
      "stateMutability": "view",
      "type": "function"
    },
    {
      "inputs": [],
      "name": "price0Average",
      "outputs": [
        {
          "internalType": "uint224",
          "name": "_x",
          "type": "uint224"
        }
      ],
      "stateMutability": "view",
      "type": "function"
    },
    {
      "inputs": [],
      "name": "price0CumulativeLast",
      "outputs": [
        {
          "internalType": "uint256",
          "name": "",
          "type": "uint256"
        }
      ],
      "stateMutability": "view",
      "type": "function"
    },
    {
      "inputs": [],
      "name": "price1Average",
      "outputs": [
        {
          "internalType": "uint224",
          "name": "_x",
          "type": "uint224"
        }
      ],
      "stateMutability": "view",
      "type": "function"
    },
    {
      "inputs": [],
      "name": "price1CumulativeLast",
      "outputs": [
        {
          "internalType": "uint256",
          "name": "",
          "type": "uint256"
        }
      ],
      "stateMutability": "view",
      "type": "function"
    },
    {
      "inputs": [],
      "name": "renounceOwnership",
      "outputs": [],
      "stateMutability": "nonpayable",
      "type": "function"
    },
    {
      "inputs": [
        {
          "internalType": "uint256",
          "name": "_epoch",
          "type": "uint256"
        }
      ],
      "name": "setEpoch",
      "outputs": [],
      "stateMutability": "nonpayable",
      "type": "function"
    },
    {
      "inputs": [
        {
          "internalType": "uint256",
          "name": "_period",
          "type": "uint256"
        }
      ],
      "name": "setPeriod",
      "outputs": [],
      "stateMutability": "nonpayable",
      "type": "function"
    },
    {
      "inputs": [],
      "name": "snow",
      "outputs": [
        {
          "internalType": "address",
          "name": "",
          "type": "address"
        }
      ],
      "stateMutability": "view",
      "type": "function"
    },
    {
      "inputs": [],
      "name": "token0",
      "outputs": [
        {
          "internalType": "address",
          "name": "",
          "type": "address"
        }
      ],
      "stateMutability": "view",
      "type": "function"
    },
    {
      "inputs": [],
      "name": "token1",
      "outputs": [
        {
          "internalType": "address",
          "name": "",
          "type": "address"
        }
      ],
      "stateMutability": "view",
      "type": "function"
    },
    {
      "inputs": [
        {
          "internalType": "address",
          "name": "newOperator_",
          "type": "address"
        }
      ],
      "name": "transferOperator",
      "outputs": [],
      "stateMutability": "nonpayable",
      "type": "function"
    },
    {
      "inputs": [
        {
          "internalType": "address",
          "name": "newOwner",
          "type": "address"
        }
      ],
      "name": "transferOwnership",
      "outputs": [],
      "stateMutability": "nonpayable",
      "type": "function"
    },
    {
      "inputs": [
        {
          "internalType": "address",
          "name": "_token",
          "type": "address"
        },
        {
          "internalType": "uint256",
          "name": "_amountIn",
          "type": "uint256"
        }
      ],
      "name": "twap",
      "outputs": [
        {
          "internalType": "uint144",
          "name": "_amountOut",
          "type": "uint144"
        }
      ],
      "stateMutability": "view",
      "type": "function"
    },
    {
      "inputs": [],
      "name": "update",
      "outputs": [],
      "stateMutability": "nonpayable",
      "type": "function"
    }
  ],
  "transactionHash": "0xc16281aed589e1a06d5a363363f66bfd5db65aa23138db33361dd42e594c714a",
  "args": [
    "0xbFCF9D86CFb0E1E58F63F7e0b9861A4Db204D3a7",
    21600,
    1667174400,
    "0x05a3F4E0ad6580D9d977F5eE12F168620f4F71e9"
  ],
  "numDeployments": 1,
  "solcInputHash": "63674f7f37222e2e62c35a0995ff0fc0",
  "bytecode": "0x60806040523480156200001157600080fd5b50604051620018e5380380620018e5833981810160405260808110156200003757600080fd5b508051602082015160408301516060909301519192909182826000806200005d62000479565b600080546001600160a01b0319166001600160a01b0383169081178255604051929350917f8be0079c531659141344cd1fd0a4f28419497f9722a3daafe3b4186f6b6457e0908290a350620000b162000479565b600180546001600160a01b0319166001600160a01b0392831617908190556040519116906000907f74da04524d50c64947f5dd5381ef1a4dca5cba8ed1d816243f9e48aa0b5617ed908290a36002839055600382905560058190556200012482846200047d602090811b62000d9a17901c565b6004908155600680546001600160a01b038088166001600160a01b031992831617909255600980548b84169216919091179081905560408051630dfe168160e01b81529051919092169550630dfe1681945081830193506020929091829003018186803b1580156200019557600080fd5b505afa158015620001aa573d6000803e3d6000fd5b505050506040513d6020811015620001c157600080fd5b5051600780546001600160a01b0319166001600160a01b039283161790556009546040805163d21220a760e01b81529051919092169163d21220a7916004808301926020929190829003018186803b1580156200021d57600080fd5b505afa15801562000232573d6000803e3d6000fd5b505050506040513d60208110156200024957600080fd5b5051600880546001600160a01b0319166001600160a01b0392831617905560095460408051635909c0d560e01b815290519190921691635909c0d5916004808301926020929190829003018186803b158015620002a557600080fd5b505afa158015620002ba573d6000803e3d6000fd5b505050506040513d6020811015620002d157600080fd5b5051600a5560095460408051635a3d549360e01b815290516001600160a01b0390921691635a3d549391600480820192602092909190829003018186803b1580156200031c57600080fd5b505afa15801562000331573d6000803e3d6000fd5b505050506040513d60208110156200034857600080fd5b5051600b5560095460408051630240bc6b60e21b8152905160009283926001600160a01b0390911691630902f1ac91600480820192606092909190829003018186803b1580156200039857600080fd5b505afa158015620003ad573d6000803e3d6000fd5b505050506040513d6060811015620003c457600080fd5b50805160208201516040909201516009805463ffffffff909216600160a01b0263ffffffff60a01b19909216919091179055925090506001600160701b038216158015906200041b57506001600160701b03811615155b6200046d576040805162461bcd60e51b815260206004820152601360248201527f4f7261636c653a204e4f5f524553455256455300000000000000000000000000604482015290519081900360640190fd5b505050505050620004db565b3390565b600082821115620004d5576040805162461bcd60e51b815260206004820152601e60248201527f536166654d6174683a207375627472616374696f6e206f766572666c6f770000604482015290519081900360640190fd5b50900390565b6113fa80620004eb6000396000f3fe608060405234801561001057600080fd5b50600436106101ae5760003560e01c80636808a128116100ee578063b97dd9e211610097578063c5967c2611610071578063c5967c2614610393578063c828371e1461039b578063d21220a7146103a3578063f2fde38b146103ab576101ae565b8063b97dd9e214610362578063ba5224581461036a578063c5700a0214610372576101ae565b8063a2e62045116100c8578063a2e620451461034a578063a6bb453914610352578063a8aa1b311461035a576101ae565b80636808a1281461030e578063715018a61461033a5780638da5cb5b14610342576101ae565b80633ddac9531161015b5780635909c0d5116101355780635909c0d5146102d25780635a3d5493146102da5780635bde1a87146102e25780635e6aaf2c146102ea576101ae565b80633ddac9531461025b5780634456eda2146102ae578063570ca735146102ca576101ae565b80631ed241951161018c5780631ed241951461021357806329605e771461022d5780633a2b962614610253576101ae565b80630ceb2cef146101b35780630dfe1681146101d25780630f3a9f65146101f6575b600080fd5b6101d0600480360360208110156101c957600080fd5b50356103d1565b005b6101da61041f565b604080516001600160a01b039092168252519081900360200190f35b6101d06004803603602081101561020c57600080fd5b503561042e565b61021b6104e2565b60408051918252519081900360200190f35b6101d06004803603602081101561024357600080fd5b50356001600160a01b03166104e8565b6101da610568565b6102876004803603604081101561027157600080fd5b506001600160a01b038135169060200135610577565b6040805171ffffffffffffffffffffffffffffffffffff9092168252519081900360200190f35b6102b6610691565b604080519115158252519081900360200190f35b6101da6106b7565b61021b6106c6565b61021b6106cc565b6102876106d2565b6102f26106db565b604080516001600160e01b039092168252519081900360200190f35b6102876004803603604081101561032457600080fd5b506001600160a01b0381351690602001356106ea565b6101d06107fc565b6101da6108c7565b6101d06108d6565b6102f2610c09565b6101da610c18565b61021b610c27565b61021b610c2d565b61037a610c33565b6040805163ffffffff9092168252519081900360200190f35b61021b610c46565b61021b610c64565b6101da610c6a565b6101d0600480360360208110156103c157600080fd5b50356001600160a01b0316610c79565b6001546001600160a01b0316331461041a5760405162461bcd60e51b815260040180806020018281038252602481526020018061137e6024913960400191505060405180910390fd5b600555565b6007546001600160a01b031681565b6001546001600160a01b031633146104775760405162461bcd60e51b815260040180806020018281038252602481526020018061137e6024913960400191505060405180910390fd5b610e10811015801561048c57506202a3008111155b6104dd576040805162461bcd60e51b815260206004820152601560248201527f5f706572696f643a206f7574206f662072616e67650000000000000000000000604482015290519081900360640190fd5b600255565b60025490565b6104f0610df7565b6001600160a01b03166105016108c7565b6001600160a01b03161461055c576040805162461bcd60e51b815260206004820181905260248201527f4f776e61626c653a2063616c6c6572206973206e6f7420746865206f776e6572604482015290519081900360640190fd5b61056581610dfb565b50565b6006546001600160a01b031681565b6007546000906001600160a01b03848116911614156105c3576040805160208101909152600c546001600160e01b031681526105bc906105b79084610ea5565b610f23565b905061064f565b6008546001600160a01b03848116911614610625576040805162461bcd60e51b815260206004820152601560248201527f4f7261636c653a20494e56414c49445f544f4b454e0000000000000000000000604482015290519081900360640190fd5b6040805160208101909152600d546001600160e01b0316815261064c906105b79084610ea5565b90505b6006546001600160a01b038481169116141561068b5761068871ffffffffffffffffffffffffffffffffffff821664e8d4a51000610f2a565b90505b92915050565b6001546000906001600160a01b03166106a8610df7565b6001600160a01b031614905090565b6001546001600160a01b031690565b600a5481565b600b5481565b64e8d4a5100081565b600d546001600160e01b031681565b600954600090819081908190610708906001600160a01b0316610f83565b600954600754939650919450925063ffffffff600160a01b909104168203906001600160a01b0388811691161415610778576107716105b78760405180602001604052808563ffffffff16600a548a038161075f57fe5b046001600160e01b0316905290610ea5565b94506107b6565b6008546001600160a01b03888116911614156107b6576107b36105b78760405180602001604052808563ffffffff16600b5489038161075f57fe5b94505b6006546001600160a01b03888116911614156107f2576107ef71ffffffffffffffffffffffffffffffffffff861664e8d4a51000610f2a565b94505b5050505092915050565b610804610df7565b6001600160a01b03166108156108c7565b6001600160a01b031614610870576040805162461bcd60e51b815260206004820181905260248201527f4f776e61626c653a2063616c6c6572206973206e6f7420746865206f776e6572604482015290519081900360640190fd5b600080546040516001600160a01b03909116907f8be0079c531659141344cd1fd0a4f28419497f9722a3daafe3b4186f6b6457e0908390a36000805473ffffffffffffffffffffffffffffffffffffffff19169055565b6000546001600160a01b031690565b60006108e0610c46565b905080421015610aa4576108f26106b7565b6001600160a01b0316336001600160a01b0316148061092957506109146108c7565b6001600160a01b0316336001600160a01b0316145b6109645760405162461bcd60e51b81526004018080602001828103825260338152602001806112d76033913960400191505060405180910390fd5b60095460009081908190610980906001600160a01b0316610f83565b600954929550909350915063ffffffff600160a01b909104811682039081166109ac5750505050610a9f565b60405180602001604052808263ffffffff16600a548703816109ca57fe5b046001600160e01b039081169091529051600c80546001600160e01b031916919092161790556040805160208101909152600b54819063ffffffff841690860381610a1157fe5b046001600160e01b039081169091529051600d80546001600160e01b03191691909216179055600a849055600b8390556009805463ffffffff60a01b1916600160a01b63ffffffff851602179055604080518581526020810185905281517fd78a0cb8bb633d06981248b816e7bd33c2a35a6089241d099fa519e361cab902929181900390910190a1505050505b610565565b60095460009081908190610ac0906001600160a01b0316610f83565b600954929550909350915063ffffffff600160a01b90910481168203908116610aec5750505050610bdf565b60405180602001604052808263ffffffff16600a54870381610b0a57fe5b046001600160e01b039081169091529051600c80546001600160e01b031916919092161790556040805160208101909152600b54819063ffffffff841690860381610b5157fe5b046001600160e01b039081169091529051600d80546001600160e01b03191691909216179055600a849055600b8390556009805463ffffffff60a01b1916600160a01b63ffffffff851602179055604080518581526020810185905281517fd78a0cb8bb633d06981248b816e7bd33c2a35a6089241d099fa519e361cab902929181900390910190a1505050505b6004819055600580546001019055610bf5610c46565b905080421015610c0457610565565b610bdf565b600c546001600160e01b031681565b6009546001600160a01b031681565b60055490565b60045490565b600954600160a01b900463ffffffff1681565b6000610c5f60025460045461118490919063ffffffff16565b905090565b60035490565b6008546001600160a01b031681565b610c81610df7565b6001600160a01b0316610c926108c7565b6001600160a01b031614610ced576040805162461bcd60e51b815260206004820181905260248201527f4f776e61626c653a2063616c6c6572206973206e6f7420746865206f776e6572604482015290519081900360640190fd5b6001600160a01b038116610d325760405162461bcd60e51b815260040180806020018281038252602681526020018061130a6026913960400191505060405180910390fd5b600080546040516001600160a01b03808516939216917f8be0079c531659141344cd1fd0a4f28419497f9722a3daafe3b4186f6b6457e091a36000805473ffffffffffffffffffffffffffffffffffffffff19166001600160a01b0392909216919091179055565b600082821115610df1576040805162461bcd60e51b815260206004820152601e60248201527f536166654d6174683a207375627472616374696f6e206f766572666c6f770000604482015290519081900360640190fd5b50900390565b3390565b6001600160a01b038116610e405760405162461bcd60e51b815260040180806020018281038252602d815260200180611330602d913960400191505060405180910390fd5b6040516001600160a01b038216906000907f74da04524d50c64947f5dd5381ef1a4dca5cba8ed1d816243f9e48aa0b5617ed908290a36001805473ffffffffffffffffffffffffffffffffffffffff19166001600160a01b0392909216919091179055565b610ead6112b1565b6000821580610ed357505082516001600160e01b031682810290838281610ed057fe5b04145b610f0e5760405162461bcd60e51b81526004018080602001828103825260238152602001806113a26023913960400191505060405180910390fd5b60408051602081019091529081529392505050565b5160701c90565b600082610f395750600061068b565b82820282848281610f4657fe5b04146106885760405162461bcd60e51b815260040180806020018281038252602181526020018061135d6021913960400191505060405180910390fd5b6000806000610f906111de565b9050836001600160a01b0316635909c0d56040518163ffffffff1660e01b815260040160206040518083038186803b158015610fcb57600080fd5b505afa158015610fdf573d6000803e3d6000fd5b505050506040513d6020811015610ff557600080fd5b5051604080517f5a3d549300000000000000000000000000000000000000000000000000000000815290519194506001600160a01b03861691635a3d549391600480820192602092909190829003018186803b15801561105457600080fd5b505afa158015611068573d6000803e3d6000fd5b505050506040513d602081101561107e57600080fd5b5051604080517f0902f1ac0000000000000000000000000000000000000000000000000000000081529051919350600091829182916001600160a01b03891691630902f1ac916004808301926060929190829003018186803b1580156110e357600080fd5b505afa1580156110f7573d6000803e3d6000fd5b505050506040513d606081101561110d57600080fd5b5080516020820151604090920151909450909250905063ffffffff8082169085161461117a5780840363ffffffff811661114784866111e8565b516001600160e01b031602969096019563ffffffff811661116885856111e8565b516001600160e01b0316029590950194505b5050509193909250565b600082820183811015610688576040805162461bcd60e51b815260206004820152601b60248201527f536166654d6174683a206164646974696f6e206f766572666c6f770000000000604482015290519081900360640190fd5b63ffffffff421690565b6111f06112c4565b6000826dffffffffffffffffffffffffffff1611611255576040805162461bcd60e51b815260206004820152601760248201527f4669786564506f696e743a204449565f42595f5a45524f000000000000000000604482015290519081900360640190fd5b6040805160208101909152806dffffffffffffffffffffffffffff84167bffffffffffffffffffffffffffff0000000000000000000000000000607087901b168161129c57fe5b046001600160e01b0316815250905092915050565b6040518060200160405280600081525090565b6040805160208101909152600081529056fe45706f63683a206f6e6c79206f70657261746f72206f72206f776e657220616c6c6f77656420666f72207072652d65706f63684f776e61626c653a206e6577206f776e657220697320746865207a65726f20616464726573736f70657261746f723a207a65726f206164647265737320676976656e20666f72206e6577206f70657261746f72536166654d6174683a206d756c7469706c69636174696f6e206f766572666c6f776f70657261746f723a2063616c6c6572206973206e6f7420746865206f70657261746f724669786564506f696e743a204d554c5449504c49434154494f4e5f4f564552464c4f57a2646970667358221220040097f9919e6fbac942a13c7b7c6a221e5df94b065aea06b8e0136159a870f464736f6c634300060c0033",
  "devdoc": {
    "kind": "dev",
    "methods": {
      "owner()": {
        "details": "Returns the address of the current owner."
      },
      "renounceOwnership()": {
        "details": "Leaves the contract without owner. It will not be possible to call `onlyOwner` functions anymore. Can only be called by the current owner. NOTE: Renouncing ownership will leave the contract without an owner, thereby removing any functionality that is only available to the owner."
      },
      "transferOwnership(address)": {
        "details": "Transfers ownership of the contract to a new account (`newOwner`). Can only be called by the current owner."
      },
      "update()": {
        "details": "Updates 1-day EMA price from Uniswap.  "
      }
    },
    "version": 1
  },
  "userdoc": {
    "kind": "user",
    "methods": {},
    "version": 1
  },
  "storageLayout": {
    "storage": [
      {
        "astId": 7,
        "contract": "contracts/SeigniorageOracle.sol:SeigniorageOracle",
        "label": "_owner",
        "offset": 0,
        "slot": "0",
        "type": "t_address"
      },
      {
        "astId": 13711,
        "contract": "contracts/SeigniorageOracle.sol:SeigniorageOracle",
        "label": "_operator",
        "offset": 0,
        "slot": "1",
        "type": "t_address"
      },
      {
        "astId": 15880,
        "contract": "contracts/SeigniorageOracle.sol:SeigniorageOracle",
        "label": "period",
        "offset": 0,
        "slot": "2",
        "type": "t_uint256"
      },
      {
        "astId": 15882,
        "contract": "contracts/SeigniorageOracle.sol:SeigniorageOracle",
        "label": "startTime",
        "offset": 0,
        "slot": "3",
        "type": "t_uint256"
      },
      {
        "astId": 15884,
        "contract": "contracts/SeigniorageOracle.sol:SeigniorageOracle",
        "label": "lastEpochTime",
        "offset": 0,
        "slot": "4",
        "type": "t_uint256"
      },
      {
        "astId": 15886,
        "contract": "contracts/SeigniorageOracle.sol:SeigniorageOracle",
        "label": "epoch",
        "offset": 0,
        "slot": "5",
        "type": "t_uint256"
      },
      {
        "astId": 6267,
        "contract": "contracts/SeigniorageOracle.sol:SeigniorageOracle",
        "label": "snow",
        "offset": 0,
        "slot": "6",
        "type": "t_address"
      },
      {
        "astId": 6274,
        "contract": "contracts/SeigniorageOracle.sol:SeigniorageOracle",
        "label": "token0",
        "offset": 0,
        "slot": "7",
        "type": "t_address"
      },
      {
        "astId": 6276,
        "contract": "contracts/SeigniorageOracle.sol:SeigniorageOracle",
        "label": "token1",
        "offset": 0,
        "slot": "8",
        "type": "t_address"
      },
      {
        "astId": 6278,
        "contract": "contracts/SeigniorageOracle.sol:SeigniorageOracle",
        "label": "pair",
        "offset": 0,
        "slot": "9",
        "type": "t_contract(IUniswapV2Pair)14858"
      },
      {
        "astId": 6280,
        "contract": "contracts/SeigniorageOracle.sol:SeigniorageOracle",
        "label": "blockTimestampLast",
        "offset": 20,
        "slot": "9",
        "type": "t_uint32"
      },
      {
        "astId": 6282,
        "contract": "contracts/SeigniorageOracle.sol:SeigniorageOracle",
        "label": "price0CumulativeLast",
        "offset": 0,
        "slot": "10",
        "type": "t_uint256"
      },
      {
        "astId": 6284,
        "contract": "contracts/SeigniorageOracle.sol:SeigniorageOracle",
        "label": "price1CumulativeLast",
        "offset": 0,
        "slot": "11",
        "type": "t_uint256"
      },
      {
        "astId": 6286,
        "contract": "contracts/SeigniorageOracle.sol:SeigniorageOracle",
        "label": "price0Average",
        "offset": 0,
        "slot": "12",
        "type": "t_struct(uq112x112)14921_storage"
      },
      {
        "astId": 6288,
        "contract": "contracts/SeigniorageOracle.sol:SeigniorageOracle",
        "label": "price1Average",
        "offset": 0,
        "slot": "13",
        "type": "t_struct(uq112x112)14921_storage"
      }
    ],
    "types": {
      "t_address": {
        "encoding": "inplace",
        "label": "address",
        "numberOfBytes": "20"
      },
      "t_contract(IUniswapV2Pair)14858": {
        "encoding": "inplace",
        "label": "contract IUniswapV2Pair",
        "numberOfBytes": "20"
      },
      "t_struct(uq112x112)14921_storage": {
        "encoding": "inplace",
        "label": "struct FixedPoint.uq112x112",
        "members": [
          {
            "astId": 14920,
            "contract": "contracts/SeigniorageOracle.sol:SeigniorageOracle",
            "label": "_x",
            "offset": 0,
            "slot": "0",
            "type": "t_uint224"
          }
        ],
        "numberOfBytes": "32"
      },
      "t_uint224": {
        "encoding": "inplace",
        "label": "uint224",
        "numberOfBytes": "28"
      },
      "t_uint256": {
        "encoding": "inplace",
        "label": "uint256",
        "numberOfBytes": "32"
      },
      "t_uint32": {
        "encoding": "inplace",
        "label": "uint32",
        "numberOfBytes": "4"
      }
    }
  }
}