{
  "address": "0x5b5ed957E6466CB57F0959693cfd9e5f3A12dFBb",
  "abi": [
    {
      "inputs": [
        {
          "internalType": "address",
          "name": "_snow",
          "type": "address"
        },
        {
          "internalType": "address",
          "name": "_snowOracle",
          "type": "address"
        },
        {
          "internalType": "address",
          "name": "_treasury",
          "type": "address"
        },
        {
          "internalType": "address",
          "name": "_usdc",
          "type": "address"
        }
      ],
      "stateMutability": "nonpayable",
      "type": "constructor"
    },
    {
      "anonymous": false,
      "inputs": [
        {
          "indexed": true,
          "internalType": "address",
          "name": "previousOwner",
          "type": "address"
        },
        {
          "indexed": true,
          "internalType": "address",
          "name": "newOwner",
          "type": "address"
        }
      ],
      "name": "OwnershipTransferred",
      "type": "event"
    },
    {
      "inputs": [],
      "name": "DENOMINATOR",
      "outputs": [
        {
          "internalType": "uint256",
          "name": "",
          "type": "uint256"
        }
      ],
      "stateMutability": "view",
      "type": "function"
    },
    {
      "inputs": [],
      "name": "Snow",
      "outputs": [
        {
          "internalType": "contract IERC20",
          "name": "",
          "type": "address"
        }
      ],
      "stateMutability": "view",
      "type": "function"
    },
    {
      "inputs": [],
      "name": "SnowOracle",
      "outputs": [
        {
          "internalType": "contract IOracle",
          "name": "",
          "type": "address"
        }
      ],
      "stateMutability": "view",
      "type": "function"
    },
    {
      "inputs": [],
      "name": "Treasury",
      "outputs": [
        {
          "internalType": "contract ITreasury",
          "name": "",
          "type": "address"
        }
      ],
      "stateMutability": "view",
      "type": "function"
    },
    {
      "inputs": [],
      "name": "USDC",
      "outputs": [
        {
          "internalType": "address",
          "name": "",
          "type": "address"
        }
      ],
      "stateMutability": "view",
      "type": "function"
    },
    {
      "inputs": [
        {
          "internalType": "address",
          "name": "",
          "type": "address"
        }
      ],
      "name": "assets",
      "outputs": [
        {
          "internalType": "bool",
          "name": "isAdded",
          "type": "bool"
        },
        {
          "internalType": "uint256",
          "name": "multiplier",
          "type": "uint256"
        },
        {
          "internalType": "address",
          "name": "oracle",
          "type": "address"
        },
        {
          "internalType": "bool",
          "name": "isLP",
          "type": "bool"
        },
        {
          "internalType": "address",
          "name": "pair",
          "type": "address"
        }
      ],
      "stateMutability": "view",
      "type": "function"
    },
    {
      "inputs": [
        {
          "internalType": "address",
          "name": "_token",
          "type": "address"
        },
        {
          "internalType": "uint256",
          "name": "_amount",
          "type": "uint256"
        }
      ],
      "name": "bond",
      "outputs": [],
      "stateMutability": "nonpayable",
      "type": "function"
    },
    {
      "inputs": [],
      "name": "bondFactor",
      "outputs": [
        {
          "internalType": "uint256",
          "name": "",
          "type": "uint256"
        }
      ],
      "stateMutability": "view",
      "type": "function"
    },
    {
      "inputs": [],
      "name": "bondThreshold",
      "outputs": [
        {
          "internalType": "uint256",
          "name": "",
          "type": "uint256"
        }
      ],
      "stateMutability": "view",
      "type": "function"
    },
    {
      "inputs": [],
      "name": "bondVesting",
      "outputs": [
        {
          "internalType": "uint256",
          "name": "",
          "type": "uint256"
        }
      ],
      "stateMutability": "view",
      "type": "function"
    },
    {
      "inputs": [],
      "name": "buybackAmount",
      "outputs": [
        {
          "internalType": "uint256",
          "name": "",
          "type": "uint256"
        }
      ],
      "stateMutability": "view",
      "type": "function"
    },
    {
      "inputs": [],
      "name": "claimRewards",
      "outputs": [],
      "stateMutability": "nonpayable",
      "type": "function"
    },
    {
      "inputs": [
        {
          "internalType": "address",
          "name": "_account",
          "type": "address"
        }
      ],
      "name": "claimableSnow",
      "outputs": [
        {
          "internalType": "uint256",
          "name": "",
          "type": "uint256"
        }
      ],
      "stateMutability": "view",
      "type": "function"
    },
    {
      "inputs": [],
      "name": "daoFund",
      "outputs": [
        {
          "internalType": "address",
          "name": "",
          "type": "address"
        }
      ],
      "stateMutability": "view",
      "type": "function"
    },
    {
      "inputs": [],
      "name": "daoOperator",
      "outputs": [
        {
          "internalType": "address",
          "name": "",
          "type": "address"
        }
      ],
      "stateMutability": "view",
      "type": "function"
    },
    {
      "inputs": [],
      "name": "discount",
      "outputs": [
        {
          "internalType": "uint256",
          "name": "",
          "type": "uint256"
        }
      ],
      "stateMutability": "view",
      "type": "function"
    },
    {
      "inputs": [
        {
          "internalType": "address",
          "name": "_token",
          "type": "address"
        }
      ],
      "name": "getBondPremium",
      "outputs": [
        {
          "internalType": "uint256",
          "name": "",
          "type": "uint256"
        }
      ],
      "stateMutability": "view",
      "type": "function"
    },
    {
      "inputs": [],
      "name": "getSnowPrice",
      "outputs": [
        {
          "internalType": "uint256",
          "name": "",
          "type": "uint256"
        }
      ],
      "stateMutability": "view",
      "type": "function"
    },
    {
      "inputs": [
        {
          "internalType": "address",
          "name": "_token",
          "type": "address"
        },
        {
          "internalType": "uint256",
          "name": "_amount",
          "type": "uint256"
        }
      ],
      "name": "getSnowReturn",
      "outputs": [
        {
          "internalType": "uint256",
          "name": "",
          "type": "uint256"
        }
      ],
      "stateMutability": "view",
      "type": "function"
    },
    {
      "inputs": [
        {
          "internalType": "address",
          "name": "_token",
          "type": "address"
        }
      ],
      "name": "getTokenPrice",
      "outputs": [
        {
          "internalType": "uint256",
          "name": "",
          "type": "uint256"
        }
      ],
      "stateMutability": "view",
      "type": "function"
    },
    {
      "inputs": [],
      "name": "lastBuyback",
      "outputs": [
        {
          "internalType": "uint256",
          "name": "",
          "type": "uint256"
        }
      ],
      "stateMutability": "view",
      "type": "function"
    },
    {
      "inputs": [],
      "name": "owner",
      "outputs": [
        {
          "internalType": "address",
          "name": "",
          "type": "address"
        }
      ],
      "stateMutability": "view",
      "type": "function"
    },
    {
      "inputs": [
        {
          "internalType": "address[]",
          "name": "_tokens",
          "type": "address[]"
        }
      ],
      "name": "redeemAssetsForBuyback",
      "outputs": [],
      "stateMutability": "nonpayable",
      "type": "function"
    },
    {
      "inputs": [],
      "name": "renounceOwnership",
      "outputs": [],
      "stateMutability": "nonpayable",
      "type": "function"
    },
    {
      "inputs": [],
      "name": "secondaryFactor",
      "outputs": [
        {
          "internalType": "uint256",
          "name": "",
          "type": "uint256"
        }
      ],
      "stateMutability": "view",
      "type": "function"
    },
    {
      "inputs": [],
      "name": "secondaryThreshold",
      "outputs": [
        {
          "internalType": "uint256",
          "name": "",
          "type": "uint256"
        }
      ],
      "stateMutability": "view",
      "type": "function"
    },
    {
      "inputs": [
        {
          "internalType": "address",
          "name": "_token",
          "type": "address"
        },
        {
          "internalType": "bool",
          "name": "_isAdded",
          "type": "bool"
        },
        {
          "internalType": "uint256",
          "name": "_multiplier",
          "type": "uint256"
        },
        {
          "internalType": "address",
          "name": "_oracle",
          "type": "address"
        },
        {
          "internalType": "bool",
          "name": "_isLP",
          "type": "bool"
        },
        {
          "internalType": "address",
          "name": "_pair",
          "type": "address"
        }
      ],
      "name": "setAsset",
      "outputs": [],
      "stateMutability": "nonpayable",
      "type": "function"
    },
    {
      "inputs": [
        {
          "internalType": "uint256",
          "name": "_primaryThreshold",
          "type": "uint256"
        },
        {
          "internalType": "uint256",
          "name": "_primaryFactor",
          "type": "uint256"
        },
        {
          "internalType": "uint256",
          "name": "_secondThreshold",
          "type": "uint256"
        },
        {
          "internalType": "uint256",
          "name": "_secondFactor",
          "type": "uint256"
        },
        {
          "internalType": "uint256",
          "name": "_vestingPeriod",
          "type": "uint256"
        },
        {
          "internalType": "uint256",
          "name": "_discount",
          "type": "uint256"
        },
        {
          "internalType": "bool",
          "name": "_staticPremiumEnabled",
          "type": "bool"
        }
      ],
      "name": "setBondParameters",
      "outputs": [],
      "stateMutability": "nonpayable",
      "type": "function"
    },
    {
      "inputs": [
        {
          "internalType": "address",
          "name": "_operator",
          "type": "address"
        }
      ],
      "name": "setDaoOperator",
      "outputs": [],
      "stateMutability": "nonpayable",
      "type": "function"
    },
    {
      "inputs": [
        {
          "internalType": "address",
          "name": "_snow",
          "type": "address"
        }
      ],
      "name": "setSnow",
      "outputs": [],
      "stateMutability": "nonpayable",
      "type": "function"
    },
    {
      "inputs": [
        {
          "internalType": "address",
          "name": "_oracle",
          "type": "address"
        }
      ],
      "name": "setSnowOracle",
      "outputs": [],
      "stateMutability": "nonpayable",
      "type": "function"
    },
    {
      "inputs": [
        {
          "internalType": "address",
          "name": "_treasury",
          "type": "address"
        }
      ],
      "name": "setTreasury",
      "outputs": [],
      "stateMutability": "nonpayable",
      "type": "function"
    },
    {
      "inputs": [],
      "name": "staticPremiumEnabled",
      "outputs": [
        {
          "internalType": "bool",
          "name": "",
          "type": "bool"
        }
      ],
      "stateMutability": "view",
      "type": "function"
    },
    {
      "inputs": [],
      "name": "totalVested",
      "outputs": [
        {
          "internalType": "uint256",
          "name": "",
          "type": "uint256"
        }
      ],
      "stateMutability": "view",
      "type": "function"
    },
    {
      "inputs": [
        {
          "internalType": "address",
          "name": "newOwner",
          "type": "address"
        }
      ],
      "name": "transferOwnership",
      "outputs": [],
      "stateMutability": "nonpayable",
      "type": "function"
    },
    {
      "inputs": [
        {
          "internalType": "address",
          "name": "",
          "type": "address"
        }
      ],
      "name": "vesting",
      "outputs": [
        {
          "internalType": "uint256",
          "name": "amount",
          "type": "uint256"
        },
        {
          "internalType": "uint256",
          "name": "period",
          "type": "uint256"
        },
        {
          "internalType": "uint256",
          "name": "end",
          "type": "uint256"
        },
        {
          "internalType": "uint256",
          "name": "claimed",
          "type": "uint256"
        },
        {
          "internalType": "uint256",
          "name": "lastClaimed",
          "type": "uint256"
        }
      ],
      "stateMutability": "view",
      "type": "function"
    }
  ],
  "transactionHash": "0x7921adc01b7c65aa613f83225457af1c8028ca92a0ef0433ca6ee49f835cdbe1",
  "args": [
    "0xDd5a54be18BC4a9D181D70Ab5728E42031Be836b",
    "0x52538ec86617eA8b1bcEFa4D8B4474812942abcE",
    "0x743aEC491a0ed048B371DbcF2bd9E77B4370B81b",
    "0xc3F95DeDacFEA28a3d657FfbCc74e9BaB6FB949B"
  ],
  "numDeployments": 3,
  "solcInputHash": "f77d36897e3ec85e8f1aed5cd075e017",
  "bytecode": "0x60a06040526007805460ff1916600117905562030d40600855620c3500600955620aae60600a55620249f0600b5562015180600c556000600d55620186a0600f553480156200004d57600080fd5b50604051620021fe380380620021fe833981016040819052620000709162000140565b6200007b33620000d3565b600180546001600160a01b039586166001600160a01b0319918216179091556002805494861694821694909417909355600380549285169284169290921790915590911660805260108054909116331790556200019d565b600080546001600160a01b038381166001600160a01b0319831681178455604051919092169283917f8be0079c531659141344cd1fd0a4f28419497f9722a3daafe3b4186f6b6457e09190a35050565b80516001600160a01b03811681146200013b57600080fd5b919050565b600080600080608085870312156200015757600080fd5b620001628562000123565b9350620001726020860162000123565b9250620001826040860162000123565b9150620001926060860162000123565b905092959194509250565b60805161203e620001c060003960008181610396015261167f015261203e6000f3fe608060405234801561001057600080fd5b506004361061025c5760003560e01c806389a3027111610145578063d02641a0116100bd578063e388c4231161008c578063f0f4426011610071578063f0f44260146104e0578063f11b8188146104f3578063f2fde38b1461057c57600080fd5b8063e388c42314610468578063e3a7f783146104cd57600080fd5b8063d02641a014610430578063d411401d14610443578063d5ae728e1461044c578063db0a9c3d1461045f57600080fd5b8063918f8674116101145780639f882bd5116100f95780639f882bd5146103f7578063a515366a1461040a578063aa7de5091461041d57600080fd5b8063918f8674146103e45780639235f197146103ee57600080fd5b806389a30271146103915780638c9bc208146103b85780638d934f74146103cb5780638da5cb5b146103d357600080fd5b8063562e49fe116101d857806364354d65116101a75780636b6f4a9d1161018c5780636b6f4a9d1461036d578063715018a6146103765780638969ce391461037e57600080fd5b806364354d651461035157806367f77e9b1461036457600080fd5b8063562e49fe1461030f578063563df32f146103225780635f390ec01461033557806363fd7f491461034857600080fd5b806333920e291161022f578063372500ab11610214578063372500ab146102e157806338546e4c146102e95780633dd788a11461030657600080fd5b806333920e29146102d0578063367384ef146102d957600080fd5b80630e6fd74c14610261578063199cbc54146102765780631c73e44b146102925780632959fc0a146102a5575b600080fd5b61027461026f366004611b82565b61058f565b005b61027f600d5481565b6040519081526020015b60405180910390f35b61027f6102a0366004611bf7565b6105c5565b6002546102b8906001600160a01b031681565b6040516001600160a01b039091168152602001610289565b61027f600c5481565b61027f61073a565b6102746107d6565b6007546102f69060ff1681565b6040519015158152602001610289565b61027f600e5481565b61027461031d366004611c23565b6107e1565b6003546102b8906001600160a01b031681565b610274610343366004611c47565b61080b565b61027f60085481565b61027461035f366004611c23565b610bea565b61027f600b5481565b61027f60065481565b610274610c14565b61027f61038c366004611c23565b610c26565b6102b87f000000000000000000000000000000000000000000000000000000000000000081565b6010546102b8906001600160a01b031681565b6102b8610cef565b6000546001600160a01b03166102b8565b61027f620f424081565b61027f600a5481565b610274610405366004611cbc565b610d7b565b610274610418366004611bf7565b610e1d565b61027f61042b366004611c23565b61111f565b61027f61043e366004611c23565b611333565b61027f60095481565b6001546102b8906001600160a01b031681565b61027f600f5481565b6104a5610476366004611c23565b600560205260009081526040902080546001820154600283015460038401546004909401549293919290919085565b604080519586526020860194909452928401919091526060830152608082015260a001610289565b6102746104db366004611c23565b61184e565b6102746104ee366004611c23565b611878565b610544610501366004611c23565b600460205260009081526040902080546001820154600283015460039093015460ff9283169391926001600160a01b0380841693600160a01b9004909116911685565b60408051951515865260208601949094526001600160a01b03928316938501939093521515606084015216608082015260a001610289565b61027461058a366004611c23565b6118a2565b610597611932565b600896909655600994909455600a92909255600b55600c556006556007805460ff1916911515919091179055565b6001600160a01b038216600090815260046020526040812054839060ff1661064a5760405162461bcd60e51b815260206004820152602d60248201527f52656261746554726561737572793a20746f6b656e206973206e6f742061206260448201526c1bdb9918589b1948185cdcd95d609a1b60648201526084015b60405180910390fd5b600061065461073a565b9050600061066186611333565b9050600061066e8761111f565b90506000876001600160a01b031663313ce5676040518163ffffffff1660e01b8152600401602060405180830381865afa1580156106b0573d6000803e3d6000fd5b505050506040513d601f19601f820116820180604052508101906106d49190611d35565b6106df906012611d6e565b6106ea90600a611e71565b9050836106fa620f424080611e80565b8385610706858c611e80565b6107109190611e80565b61071a9190611e80565b6107249190611e97565b61072e9190611e97565b98975050505050505050565b600254600154604051633ddac95360e01b81526001600160a01b039182166004820152670de0b6b3a764000060248201526000929190911690633ddac95390604401602060405180830381865afa158015610799573d6000803e3d6000fd5b505050506040513d601f19601f820116820180604052508101906107bd9190611eb9565b71ffffffffffffffffffffffffffffffffffff16905090565b6107df3361198c565b565b6107e9611932565b600280546001600160a01b0319166001600160a01b0392909216919091179055565b6010546001600160a01b0316331461088b5760405162461bcd60e51b815260206004820152602a60248201527f52656261746554726561737572793a2063616c6c6572206973206e6f7420746860448201527f65206f70657261746f72000000000000000000000000000000000000000000006064820152608401610641565b600354604080517f900cf0cf00000000000000000000000000000000000000000000000000000000815290516000926001600160a01b03169163900cf0cf9160048083019260209291908290030181865afa1580156108ee573d6000803e3d6000fd5b505050506040513d601f19601f820116820180604052508101906109129190611eed565b905080600e540361098b5760405162461bcd60e51b815260206004820152602360248201527f52656261746554726561737572793a20616c726561647920626f75676874206260448201527f61636b00000000000000000000000000000000000000000000000000000000006064820152608401610641565b600e81905560005b82811015610be457600460008585848181106109b1576109b1611f06565b90506020020160208101906109c69190611c23565b6001600160a01b0316815260208101919091526040016000205460ff16610a2f5760405162461bcd60e51b815260206004820152601d60248201527f52656261746554726561737572793a20696e76616c696420746f6b656e0000006044820152606401610641565b6000848483818110610a4357610a43611f06565b9050602002016020810190610a589190611c23565b9050806001600160a01b031663a9059cbb600360009054906101000a90046001600160a01b03166001600160a01b0316638d934f746040518163ffffffff1660e01b8152600401602060405180830381865afa158015610abc573d6000803e3d6000fd5b505050506040513d601f19601f82011682018060405250810190610ae09190611f1c565b6040516370a0823160e01b81523060048201526001600160a01b038516906370a0823190602401602060405180830381865afa158015610b24573d6000803e3d6000fd5b505050506040513d601f19601f82011682018060405250810190610b489190611eed565b6040517fffffffff0000000000000000000000000000000000000000000000000000000060e085901b1681526001600160a01b03909216600483015260248201526044016020604051808303816000875af1158015610bab573d6000803e3d6000fd5b505050506040513d601f19601f82011682018060405250810190610bcf9190611f39565b50508080610bdc90611f56565b915050610993565b50505050565b610bf2611932565b601080546001600160a01b0319166001600160a01b0392909216919091179055565b610c1c611932565b6107df6000611b24565b6001600160a01b0381166000908152600560209081526040808320815160a0810183528154815260018201549381019390935260028101549183019190915260038101546060830152600401546080820181905242111580610c9057508060400151816080015110155b15610c9e5750600092915050565b6000816080015182604001514211610cb65742610cbc565b82604001515b610cc69190611f6f565b90508160200151818360000151610cdd9190611e80565b610ce79190611e97565b949350505050565b600354604080517f8d934f7400000000000000000000000000000000000000000000000000000000815290516000926001600160a01b031691638d934f749160048083019260209291908290030181865afa158015610d52573d6000803e3d6000fd5b505050506040513d601f19601f82011682018060405250810190610d769190611f1c565b905090565b610d83611932565b620f4240841015610d9357600080fd5b6001600160a01b039586166000908152600460205260409020805460ff191695151595909517855560018501939093556002840180549286167fffffffffffffffffffffff00000000000000000000000000000000000000000090931692909217600160a01b91151591909102179055600390910180546001600160a01b03191691909216179055565b6001600160a01b038216600090815260046020526040902054829060ff16610e9d5760405162461bcd60e51b815260206004820152602d60248201527f52656261746554726561737572793a20746f6b656e206973206e6f742061206260448201526c1bdb9918589b1948185cdcd95d609a1b6064820152608401610641565b60008211610f135760405162461bcd60e51b815260206004820152602360248201527f52656261746554726561737572793a20696e76616c696420626f6e6420616d6f60448201527f756e7400000000000000000000000000000000000000000000000000000000006064820152608401610641565b6000610f1f84846105c5565b600d546001546040516370a0823160e01b815230600482015292935090916001600160a01b03909116906370a0823190602401602060405180830381865afa158015610f6f573d6000803e3d6000fd5b505050506040513d601f19601f82011682018060405250810190610f939190611eed565b610f9d9190611f6f565b8111156110125760405162461bcd60e51b815260206004820152602960248201527f52656261746554726561737572793a20696e73756666696369656e7420736e6f60448201527f772062616c616e636500000000000000000000000000000000000000000000006064820152608401610641565b6040517f23b872dd000000000000000000000000000000000000000000000000000000008152336004820152306024820152604481018490526001600160a01b038516906323b872dd906064016020604051808303816000875af115801561107e573d6000803e3d6000fd5b505050506040513d601f19601f820116820180604052508101906110a29190611f39565b506110ac3361198c565b3360009081526005602052604090206003810154815483916110cd91611f6f565b6110d79190611f82565b8155600c54600182018190556110ed9042611f82565b6002820155600060038201819055426004830155600d8054849290611113908490611f82565b90915550505050505050565b6001600160a01b038116600090815260046020526040812054829060ff1661119f5760405162461bcd60e51b815260206004820152602d60248201527f52656261746554726561737572793a20746f6b656e206973206e6f742061206260448201526c1bdb9918589b1948185cdcd95d609a1b6064820152608401610641565b60075460ff16156111e8576001600160a01b0383166000908152600460205260409020600101546006546111d790620f424090611f82565b6111e19190611e80565b915061132d565b6000806111f361073a565b905067016345785d8a00008110156112105760009350505061132d565b6000620f4240670de0b6b3a76400006112298285611e80565b6112339190611e97565b61123d9190611f6f565b9050600854811015611255576000945050505061132d565b600a54811161128e57620f4240600954600854836112739190611f6f565b61127d9190611e80565b6112879190611e97565b92506112f4565b6000620f4240600954600854600a546112a79190611f6f565b6112b19190611e80565b6112bb9190611e97565b9050620f4240600b54600a54846112d29190611f6f565b6112dc9190611e80565b6112e69190611e97565b6112f09082611f82565b9350505b6001600160a01b03861660009081526004602052604090206001015461131d620f424085611f82565b6113279190611e80565b94505050505b50919050565b6001600160a01b038116600090815260046020526040812054829060ff166113b35760405162461bcd60e51b815260206004820152602d60248201527f52656261746554726561737572793a20746f6b656e206973206e6f742061206260448201526c1bdb9918589b1948185cdcd95d609a1b6064820152608401610641565b6001600160a01b03808416600090815260046020908152604091829020825160a081018452815460ff908116151582526001830154938201939093526002820154808616948201859052600160a01b90049092161515606083018190526003909101549093166080820152916114b857604051633ddac95360e01b81526001600160a01b038681166004830152670de0b6b3a76400006024830152821690633ddac95390604401602060405180830381865afa158015611477573d6000803e3d6000fd5b505050506040513d601f19601f8201168201806040525081019061149b9190611eb9565b71ffffffffffffffffffffffffffffffffffff169350505061132d565b6000826080015190506000816001600160a01b03166318160ddd6040518163ffffffff1660e01b8152600401602060405180830381865afa158015611501573d6000803e3d6000fd5b505050506040513d601f19601f820116820180604052508101906115259190611eed565b90506000826001600160a01b0316630dfe16816040518163ffffffff1660e01b8152600401602060405180830381865afa158015611567573d6000803e3d6000fd5b505050506040513d601f19601f8201168201806040525081019061158b9190611f1c565b90506000836001600160a01b031663d21220a76040518163ffffffff1660e01b8152600401602060405180830381865afa1580156115cd573d6000803e3d6000fd5b505050506040513d601f19601f820116820180604052508101906115f19190611f1c565b9050600080856001600160a01b0316630902f1ac6040518163ffffffff1660e01b8152600401606060405180830381865afa158015611634573d6000803e3d6000fd5b505050506040513d601f19601f820116820180604052508101906116589190611fb8565b506dffffffffffffffffffffffffffff1691506dffffffffffffffffffffffffffff1691507f00000000000000000000000000000000000000000000000000000000000000006001600160a01b0316836001600160a01b03160361179457604051633ddac95360e01b81526001600160a01b038581166004830152670de0b6b3a7640000602483015260009190891690633ddac95390604401602060405180830381865afa15801561170e573d6000803e3d6000fd5b505050506040513d601f19601f820116820180604052508101906117329190611eb9565b71ffffffffffffffffffffffffffffffffffff1690508561175b83670de0b6b3a7640000611e80565b6117659190611e97565b866117708584611e80565b61177a9190611e97565b6117849190611f82565b9a5050505050505050505061132d565b604051633ddac95360e01b81526001600160a01b038481166004830152670de0b6b3a7640000602483015260009190891690633ddac95390604401602060405180830381865afa1580156117ec573d6000803e3d6000fd5b505050506040513d601f19601f820116820180604052508101906118109190611eb9565b71ffffffffffffffffffffffffffffffffffff1690508561183984670de0b6b3a7640000611e80565b6118439190611e97565b866117708484611e80565b611856611932565b600180546001600160a01b0319166001600160a01b0392909216919091179055565b611880611932565b600380546001600160a01b0319166001600160a01b0392909216919091179055565b6118aa611932565b6001600160a01b0381166119265760405162461bcd60e51b815260206004820152602660248201527f4f776e61626c653a206e6577206f776e657220697320746865207a65726f206160448201527f64647265737300000000000000000000000000000000000000000000000000006064820152608401610641565b61192f81611b24565b50565b6000546001600160a01b031633146107df5760405162461bcd60e51b815260206004820181905260248201527f4f776e61626c653a2063616c6c6572206973206e6f7420746865206f776e65726044820152606401610641565b6001600160a01b0381166000908152600560205260409020805415806119b6575060038101548154145b156119bf575050565b8060040154421115806119da57508060020154816004015410155b156119e3575050565b60008160040154826002015442116119fb5742611a01565b82600201545b611a0b9190611f6f565b905060008260010154828460000154611a249190611e80565b611a2e9190611e97565b905080600003611a3e5750505050565b80836003016000828254611a529190611f82565b909155505060028301544211611a685742611a6e565b82600201545b836004018190555080600d6000828254611a889190611f6f565b90915550506001546040517fa9059cbb0000000000000000000000000000000000000000000000000000000081526001600160a01b038681166004830152602482018490529091169063a9059cbb906044016020604051808303816000875af1158015611af9573d6000803e3d6000fd5b505050506040513d601f19601f82011682018060405250810190611b1d9190611f39565b5050505050565b600080546001600160a01b038381166001600160a01b0319831681178455604051919092169283917f8be0079c531659141344cd1fd0a4f28419497f9722a3daafe3b4186f6b6457e09190a35050565b801515811461192f57600080fd5b600080600080600080600060e0888a031215611b9d57600080fd5b873596506020880135955060408801359450606088013593506080880135925060a0880135915060c0880135611bd281611b74565b8091505092959891949750929550565b6001600160a01b038116811461192f57600080fd5b60008060408385031215611c0a57600080fd5b8235611c1581611be2565b946020939093013593505050565b600060208284031215611c3557600080fd5b8135611c4081611be2565b9392505050565b60008060208385031215611c5a57600080fd5b823567ffffffffffffffff80821115611c7257600080fd5b818501915085601f830112611c8657600080fd5b813581811115611c9557600080fd5b8660208260051b8501011115611caa57600080fd5b60209290920196919550909350505050565b60008060008060008060c08789031215611cd557600080fd5b8635611ce081611be2565b95506020870135611cf081611b74565b9450604087013593506060870135611d0781611be2565b92506080870135611d1781611b74565b915060a0870135611d2781611be2565b809150509295509295509295565b600060208284031215611d4757600080fd5b815160ff81168114611c4057600080fd5b634e487b7160e01b600052601160045260246000fd5b60ff8281168282160390811115611d8757611d87611d58565b92915050565b600181815b80851115611dc8578160001904821115611dae57611dae611d58565b80851615611dbb57918102915b93841c9390800290611d92565b509250929050565b600082611ddf57506001611d87565b81611dec57506000611d87565b8160018114611e025760028114611e0c57611e28565b6001915050611d87565b60ff841115611e1d57611e1d611d58565b50506001821b611d87565b5060208310610133831016604e8410600b8410161715611e4b575081810a611d87565b611e558383611d8d565b8060001904821115611e6957611e69611d58565b029392505050565b6000611c4060ff841683611dd0565b8082028115828204841417611d8757611d87611d58565b600082611eb457634e487b7160e01b600052601260045260246000fd5b500490565b600060208284031215611ecb57600080fd5b815171ffffffffffffffffffffffffffffffffffff81168114611c4057600080fd5b600060208284031215611eff57600080fd5b5051919050565b634e487b7160e01b600052603260045260246000fd5b600060208284031215611f2e57600080fd5b8151611c4081611be2565b600060208284031215611f4b57600080fd5b8151611c4081611b74565b600060018201611f6857611f68611d58565b5060010190565b81810381811115611d8757611d87611d58565b80820180821115611d8757611d87611d58565b80516dffffffffffffffffffffffffffff81168114611fb357600080fd5b919050565b600080600060608486031215611fcd57600080fd5b611fd684611f95565b9250611fe460208501611f95565b9150604084015163ffffffff81168114611ffd57600080fd5b80915050925092509256fea2646970667358221220a491ee94a7c53c60396b67f0fe8900d48ec65fdcc331b0eae552eace9c0e0b1464736f6c63430008110033",
  "devdoc": {
    "kind": "dev",
    "methods": {
      "owner()": {
        "details": "Returns the address of the current owner."
      },
      "renounceOwnership()": {
        "details": "Leaves the contract without owner. It will not be possible to call `onlyOwner` functions anymore. Can only be called by the current owner. NOTE: Renouncing ownership will leave the contract without an owner, thereby removing any functionality that is only available to the owner."
      },
      "transferOwnership(address)": {
        "details": "Transfers ownership of the contract to a new account (`newOwner`). Can only be called by the current owner."
      }
    },
    "version": 1
  },
  "userdoc": {
    "kind": "user",
    "methods": {},
    "version": 1
  },
  "storageLayout": {
    "storage": [
      {
        "astId": 7,
        "contract": "contracts/SnowRebateTreasury.sol:SnowRebateTreasury",
        "label": "_owner",
        "offset": 0,
        "slot": "0",
        "type": "t_address"
      },
      {
        "astId": 2929,
        "contract": "contracts/SnowRebateTreasury.sol:SnowRebateTreasury",
        "label": "Snow",
        "offset": 0,
        "slot": "1",
        "type": "t_contract(IERC20)190"
      },
      {
        "astId": 2932,
        "contract": "contracts/SnowRebateTreasury.sol:SnowRebateTreasury",
        "label": "SnowOracle",
        "offset": 0,
        "slot": "2",
        "type": "t_contract(IOracle)8512"
      },
      {
        "astId": 2935,
        "contract": "contracts/SnowRebateTreasury.sol:SnowRebateTreasury",
        "label": "Treasury",
        "offset": 0,
        "slot": "3",
        "type": "t_contract(ITreasury)8549"
      },
      {
        "astId": 2940,
        "contract": "contracts/SnowRebateTreasury.sol:SnowRebateTreasury",
        "label": "assets",
        "offset": 0,
        "slot": "4",
        "type": "t_mapping(t_address,t_struct(Asset)2915_storage)"
      },
      {
        "astId": 2945,
        "contract": "contracts/SnowRebateTreasury.sol:SnowRebateTreasury",
        "label": "vesting",
        "offset": 0,
        "slot": "5",
        "type": "t_mapping(t_address,t_struct(VestingSchedule)2926_storage)"
      },
      {
        "astId": 2947,
        "contract": "contracts/SnowRebateTreasury.sol:SnowRebateTreasury",
        "label": "discount",
        "offset": 0,
        "slot": "6",
        "type": "t_uint256"
      },
      {
        "astId": 2950,
        "contract": "contracts/SnowRebateTreasury.sol:SnowRebateTreasury",
        "label": "staticPremiumEnabled",
        "offset": 0,
        "slot": "7",
        "type": "t_bool"
      },
      {
        "astId": 2955,
        "contract": "contracts/SnowRebateTreasury.sol:SnowRebateTreasury",
        "label": "bondThreshold",
        "offset": 0,
        "slot": "8",
        "type": "t_uint256"
      },
      {
        "astId": 2960,
        "contract": "contracts/SnowRebateTreasury.sol:SnowRebateTreasury",
        "label": "bondFactor",
        "offset": 0,
        "slot": "9",
        "type": "t_uint256"
      },
      {
        "astId": 2965,
        "contract": "contracts/SnowRebateTreasury.sol:SnowRebateTreasury",
        "label": "secondaryThreshold",
        "offset": 0,
        "slot": "10",
        "type": "t_uint256"
      },
      {
        "astId": 2970,
        "contract": "contracts/SnowRebateTreasury.sol:SnowRebateTreasury",
        "label": "secondaryFactor",
        "offset": 0,
        "slot": "11",
        "type": "t_uint256"
      },
      {
        "astId": 2973,
        "contract": "contracts/SnowRebateTreasury.sol:SnowRebateTreasury",
        "label": "bondVesting",
        "offset": 0,
        "slot": "12",
        "type": "t_uint256"
      },
      {
        "astId": 2976,
        "contract": "contracts/SnowRebateTreasury.sol:SnowRebateTreasury",
        "label": "totalVested",
        "offset": 0,
        "slot": "13",
        "type": "t_uint256"
      },
      {
        "astId": 2978,
        "contract": "contracts/SnowRebateTreasury.sol:SnowRebateTreasury",
        "label": "lastBuyback",
        "offset": 0,
        "slot": "14",
        "type": "t_uint256"
      },
      {
        "astId": 2983,
        "contract": "contracts/SnowRebateTreasury.sol:SnowRebateTreasury",
        "label": "buybackAmount",
        "offset": 0,
        "slot": "15",
        "type": "t_uint256"
      },
      {
        "astId": 2990,
        "contract": "contracts/SnowRebateTreasury.sol:SnowRebateTreasury",
        "label": "daoOperator",
        "offset": 0,
        "slot": "16",
        "type": "t_address"
      }
    ],
    "types": {
      "t_address": {
        "encoding": "inplace",
        "label": "address",
        "numberOfBytes": "20"
      },
      "t_bool": {
        "encoding": "inplace",
        "label": "bool",
        "numberOfBytes": "1"
      },
      "t_contract(IERC20)190": {
        "encoding": "inplace",
        "label": "contract IERC20",
        "numberOfBytes": "20"
      },
      "t_contract(IOracle)8512": {
        "encoding": "inplace",
        "label": "contract IOracle",
        "numberOfBytes": "20"
      },
      "t_contract(ITreasury)8549": {
        "encoding": "inplace",
        "label": "contract ITreasury",
        "numberOfBytes": "20"
      },
      "t_mapping(t_address,t_struct(Asset)2915_storage)": {
        "encoding": "mapping",
        "key": "t_address",
        "label": "mapping(address => struct SnowRebateTreasury.Asset)",
        "numberOfBytes": "32",
        "value": "t_struct(Asset)2915_storage"
      },
      "t_mapping(t_address,t_struct(VestingSchedule)2926_storage)": {
        "encoding": "mapping",
        "key": "t_address",
        "label": "mapping(address => struct SnowRebateTreasury.VestingSchedule)",
        "numberOfBytes": "32",
        "value": "t_struct(VestingSchedule)2926_storage"
      },
      "t_struct(Asset)2915_storage": {
        "encoding": "inplace",
        "label": "struct SnowRebateTreasury.Asset",
        "members": [
          {
            "astId": 2906,
            "contract": "contracts/SnowRebateTreasury.sol:SnowRebateTreasury",
            "label": "isAdded",
            "offset": 0,
            "slot": "0",
            "type": "t_bool"
          },
          {
            "astId": 2908,
            "contract": "contracts/SnowRebateTreasury.sol:SnowRebateTreasury",
            "label": "multiplier",
            "offset": 0,
            "slot": "1",
            "type": "t_uint256"
          },
          {
            "astId": 2910,
            "contract": "contracts/SnowRebateTreasury.sol:SnowRebateTreasury",
            "label": "oracle",
            "offset": 0,
            "slot": "2",
            "type": "t_address"
          },
          {
            "astId": 2912,
            "contract": "contracts/SnowRebateTreasury.sol:SnowRebateTreasury",
            "label": "isLP",
            "offset": 20,
            "slot": "2",
            "type": "t_bool"
          },
          {
            "astId": 2914,
            "contract": "contracts/SnowRebateTreasury.sol:SnowRebateTreasury",
            "label": "pair",
            "offset": 0,
            "slot": "3",
            "type": "t_address"
          }
        ],
        "numberOfBytes": "128"
      },
      "t_struct(VestingSchedule)2926_storage": {
        "encoding": "inplace",
        "label": "struct SnowRebateTreasury.VestingSchedule",
        "members": [
          {
            "astId": 2917,
            "contract": "contracts/SnowRebateTreasury.sol:SnowRebateTreasury",
            "label": "amount",
            "offset": 0,
            "slot": "0",
            "type": "t_uint256"
          },
          {
            "astId": 2919,
            "contract": "contracts/SnowRebateTreasury.sol:SnowRebateTreasury",
            "label": "period",
            "offset": 0,
            "slot": "1",
            "type": "t_uint256"
          },
          {
            "astId": 2921,
            "contract": "contracts/SnowRebateTreasury.sol:SnowRebateTreasury",
            "label": "end",
            "offset": 0,
            "slot": "2",
            "type": "t_uint256"
          },
          {
            "astId": 2923,
            "contract": "contracts/SnowRebateTreasury.sol:SnowRebateTreasury",
            "label": "claimed",
            "offset": 0,
            "slot": "3",
            "type": "t_uint256"
          },
          {
            "astId": 2925,
            "contract": "contracts/SnowRebateTreasury.sol:SnowRebateTreasury",
            "label": "lastClaimed",
            "offset": 0,
            "slot": "4",
            "type": "t_uint256"
          }
        ],
        "numberOfBytes": "160"
      },
      "t_uint256": {
        "encoding": "inplace",
        "label": "uint256",
        "numberOfBytes": "32"
      }
    }
  }
}