{
  "address": "0xcf02a7d02dE8131c7938e3DF3a6Cb50B0802E0D5",
  "abi": [
    {
      "inputs": [
        {
          "internalType": "address",
          "name": "_snow",
          "type": "address"
        },
        {
          "internalType": "uint256",
          "name": "_poolStartTime",
          "type": "uint256"
        },
        {
          "internalType": "address",
          "name": "_daoFund",
          "type": "address"
        },
        {
          "internalType": "uint256",
          "name": "_depositFee",
          "type": "uint256"
        },
        {
          "internalType": "address",
          "name": "_depositToken",
          "type": "address"
        }
      ],
      "stateMutability": "nonpayable",
      "type": "constructor"
    },
    {
      "anonymous": false,
      "inputs": [
        {
          "indexed": true,
          "internalType": "address",
          "name": "user",
          "type": "address"
        },
        {
          "indexed": true,
          "internalType": "uint256",
          "name": "pid",
          "type": "uint256"
        },
        {
          "indexed": false,
          "internalType": "uint256",
          "name": "amount",
          "type": "uint256"
        }
      ],
      "name": "Deposit",
      "type": "event"
    },
    {
      "anonymous": false,
      "inputs": [
        {
          "indexed": true,
          "internalType": "address",
          "name": "user",
          "type": "address"
        },
        {
          "indexed": true,
          "internalType": "uint256",
          "name": "pid",
          "type": "uint256"
        },
        {
          "indexed": false,
          "internalType": "uint256",
          "name": "amount",
          "type": "uint256"
        }
      ],
      "name": "EmergencyWithdraw",
      "type": "event"
    },
    {
      "anonymous": false,
      "inputs": [
        {
          "indexed": true,
          "internalType": "address",
          "name": "previousOwner",
          "type": "address"
        },
        {
          "indexed": true,
          "internalType": "address",
          "name": "newOwner",
          "type": "address"
        }
      ],
      "name": "OwnershipTransferred",
      "type": "event"
    },
    {
      "anonymous": false,
      "inputs": [
        {
          "indexed": true,
          "internalType": "address",
          "name": "user",
          "type": "address"
        },
        {
          "indexed": false,
          "internalType": "uint256",
          "name": "amount",
          "type": "uint256"
        }
      ],
      "name": "RewardPaid",
      "type": "event"
    },
    {
      "anonymous": false,
      "inputs": [
        {
          "indexed": true,
          "internalType": "address",
          "name": "user",
          "type": "address"
        },
        {
          "indexed": true,
          "internalType": "uint256",
          "name": "pid",
          "type": "uint256"
        },
        {
          "indexed": false,
          "internalType": "uint256",
          "name": "amount",
          "type": "uint256"
        }
      ],
      "name": "Withdraw",
      "type": "event"
    },
    {
      "inputs": [],
      "name": "RUNNING_TIME",
      "outputs": [
        {
          "internalType": "uint256",
          "name": "",
          "type": "uint256"
        }
      ],
      "stateMutability": "view",
      "type": "function"
    },
    {
      "inputs": [],
      "name": "TOTAL_REWARDS",
      "outputs": [
        {
          "internalType": "uint256",
          "name": "",
          "type": "uint256"
        }
      ],
      "stateMutability": "view",
      "type": "function"
    },
    {
      "inputs": [
        {
          "internalType": "uint256",
          "name": "_allocPoint",
          "type": "uint256"
        },
        {
          "internalType": "contract IERC20",
          "name": "_token",
          "type": "address"
        },
        {
          "internalType": "bool",
          "name": "_withUpdate",
          "type": "bool"
        },
        {
          "internalType": "uint256",
          "name": "_lastRewardTime",
          "type": "uint256"
        }
      ],
      "name": "add",
      "outputs": [],
      "stateMutability": "nonpayable",
      "type": "function"
    },
    {
      "inputs": [],
      "name": "daoFund",
      "outputs": [
        {
          "internalType": "address",
          "name": "",
          "type": "address"
        }
      ],
      "stateMutability": "view",
      "type": "function"
    },
    {
      "inputs": [
        {
          "internalType": "uint256",
          "name": "_pid",
          "type": "uint256"
        },
        {
          "internalType": "uint256",
          "name": "_amount",
          "type": "uint256"
        }
      ],
      "name": "deposit",
      "outputs": [],
      "stateMutability": "nonpayable",
      "type": "function"
    },
    {
      "inputs": [],
      "name": "depositFee",
      "outputs": [
        {
          "internalType": "uint256",
          "name": "",
          "type": "uint256"
        }
      ],
      "stateMutability": "view",
      "type": "function"
    },
    {
      "inputs": [],
      "name": "depositToken",
      "outputs": [
        {
          "internalType": "contract IERC20",
          "name": "",
          "type": "address"
        }
      ],
      "stateMutability": "view",
      "type": "function"
    },
    {
      "inputs": [
        {
          "internalType": "uint256",
          "name": "_pid",
          "type": "uint256"
        }
      ],
      "name": "emergencyWithdraw",
      "outputs": [],
      "stateMutability": "nonpayable",
      "type": "function"
    },
    {
      "inputs": [
        {
          "internalType": "uint256",
          "name": "_fromTime",
          "type": "uint256"
        },
        {
          "internalType": "uint256",
          "name": "_toTime",
          "type": "uint256"
        }
      ],
      "name": "getGeneratedReward",
      "outputs": [
        {
          "internalType": "uint256",
          "name": "",
          "type": "uint256"
        }
      ],
      "stateMutability": "view",
      "type": "function"
    },
    {
      "inputs": [
        {
          "internalType": "address",
          "name": "_token",
          "type": "address"
        },
        {
          "internalType": "uint256",
          "name": "amount",
          "type": "uint256"
        },
        {
          "internalType": "address",
          "name": "to",
          "type": "address"
        }
      ],
      "name": "governanceRecoverUnsupported",
      "outputs": [],
      "stateMutability": "nonpayable",
      "type": "function"
    },
    {
      "inputs": [],
      "name": "massUpdatePools",
      "outputs": [],
      "stateMutability": "nonpayable",
      "type": "function"
    },
    {
      "inputs": [],
      "name": "operator",
      "outputs": [
        {
          "internalType": "address",
          "name": "",
          "type": "address"
        }
      ],
      "stateMutability": "view",
      "type": "function"
    },
    {
      "inputs": [],
      "name": "owner",
      "outputs": [
        {
          "internalType": "address",
          "name": "",
          "type": "address"
        }
      ],
      "stateMutability": "view",
      "type": "function"
    },
    {
      "inputs": [
        {
          "internalType": "uint256",
          "name": "_pid",
          "type": "uint256"
        },
        {
          "internalType": "address",
          "name": "_user",
          "type": "address"
        }
      ],
      "name": "pendingSNOW",
      "outputs": [
        {
          "internalType": "uint256",
          "name": "",
          "type": "uint256"
        }
      ],
      "stateMutability": "view",
      "type": "function"
    },
    {
      "inputs": [],
      "name": "poolEndTime",
      "outputs": [
        {
          "internalType": "uint256",
          "name": "",
          "type": "uint256"
        }
      ],
      "stateMutability": "view",
      "type": "function"
    },
    {
      "inputs": [
        {
          "internalType": "uint256",
          "name": "",
          "type": "uint256"
        }
      ],
      "name": "poolInfo",
      "outputs": [
        {
          "internalType": "contract IERC20",
          "name": "token",
          "type": "address"
        },
        {
          "internalType": "uint256",
          "name": "allocPoint",
          "type": "uint256"
        },
        {
          "internalType": "uint256",
          "name": "lastRewardTime",
          "type": "uint256"
        },
        {
          "internalType": "uint256",
          "name": "accSnowPerShare",
          "type": "uint256"
        },
        {
          "internalType": "bool",
          "name": "isStarted",
          "type": "bool"
        }
      ],
      "stateMutability": "view",
      "type": "function"
    },
    {
      "inputs": [],
      "name": "poolStartTime",
      "outputs": [
        {
          "internalType": "uint256",
          "name": "",
          "type": "uint256"
        }
      ],
      "stateMutability": "view",
      "type": "function"
    },
    {
      "inputs": [],
      "name": "renounceOwnership",
      "outputs": [],
      "stateMutability": "nonpayable",
      "type": "function"
    },
    {
      "inputs": [
        {
          "internalType": "uint256",
          "name": "_pid",
          "type": "uint256"
        },
        {
          "internalType": "uint256",
          "name": "_allocPoint",
          "type": "uint256"
        }
      ],
      "name": "set",
      "outputs": [],
      "stateMutability": "nonpayable",
      "type": "function"
    },
    {
      "inputs": [
        {
          "internalType": "address",
          "name": "_operator",
          "type": "address"
        }
      ],
      "name": "setOperator",
      "outputs": [],
      "stateMutability": "nonpayable",
      "type": "function"
    },
    {
      "inputs": [],
      "name": "snow",
      "outputs": [
        {
          "internalType": "contract IERC20",
          "name": "",
          "type": "address"
        }
      ],
      "stateMutability": "view",
      "type": "function"
    },
    {
      "inputs": [],
      "name": "snowPerSecond",
      "outputs": [
        {
          "internalType": "uint256",
          "name": "",
          "type": "uint256"
        }
      ],
      "stateMutability": "view",
      "type": "function"
    },
    {
      "inputs": [],
      "name": "totalAllocPoint",
      "outputs": [
        {
          "internalType": "uint256",
          "name": "",
          "type": "uint256"
        }
      ],
      "stateMutability": "view",
      "type": "function"
    },
    {
      "inputs": [
        {
          "internalType": "address",
          "name": "newOwner",
          "type": "address"
        }
      ],
      "name": "transferOwnership",
      "outputs": [],
      "stateMutability": "nonpayable",
      "type": "function"
    },
    {
      "inputs": [
        {
          "internalType": "uint256",
          "name": "_pid",
          "type": "uint256"
        }
      ],
      "name": "updatePool",
      "outputs": [],
      "stateMutability": "nonpayable",
      "type": "function"
    },
    {
      "inputs": [
        {
          "internalType": "uint256",
          "name": "",
          "type": "uint256"
        },
        {
          "internalType": "address",
          "name": "",
          "type": "address"
        }
      ],
      "name": "userInfo",
      "outputs": [
        {
          "internalType": "uint256",
          "name": "amount",
          "type": "uint256"
        },
        {
          "internalType": "uint256",
          "name": "rewardDebt",
          "type": "uint256"
        }
      ],
      "stateMutability": "view",
      "type": "function"
    },
    {
      "inputs": [
        {
          "internalType": "uint256",
          "name": "_pid",
          "type": "uint256"
        },
        {
          "internalType": "uint256",
          "name": "_amount",
          "type": "uint256"
        }
      ],
      "name": "withdraw",
      "outputs": [],
      "stateMutability": "nonpayable",
      "type": "function"
    }
  ],
  "transactionHash": "0xa6906679fba0fbe1cfa7432e1a934eab9c286d855bd0187ed7a86890326de105",
  "args": [
    "0x4F79bb07123d133C4eB82174014DC58585Cb7f68",
    1667606400,
    "0xeDc5E564811b96Ec8ca2336895C66b3B88F9ef66",
    120,
    "0xc3F95DeDacFEA28a3d657FfbCc74e9BaB6FB949B"
  ],
  "numDeployments": 1,
  "solcInputHash": "67ac06147645ed6882113c15d4a11556",
  "bytecode": "0x60c060405260006006553480156200001657600080fd5b50604051620025b9380380620025b9833981810160405260a08110156200003c57600080fd5b5080516020820151604083015160608401516080909401519293919290919060006200006762000198565b600080546001600160a01b0319166001600160a01b0383169081178255604051929350917f8be0079c531659141344cd1fd0a4f28419497f9722a3daafe3b4186f6b6457e0908290a350834210620000ef576040805162461bcd60e51b815260206004808301919091526024820152636c61746560e01b604482015290519081900360640190fd5b6001600160a01b038516156200011b57600280546001600160a01b0319166001600160a01b0387161790555b620001426202a3006905150ae84a8cdf0000006200019c60201b620014d21790919060201c565b60095560078490556202a30084016008556001600160601b0319606084901b1660805260a0829052600180546001600160a01b031916331790556200018d612ee08260008062000207565b5050505050620008c5565b3390565b6000808211620001f3576040805162461bcd60e51b815260206004820152601a60248201527f536166654d6174683a206469766973696f6e206279207a65726f000000000000604482015290519081900360640190fd5b818381620001fd57fe5b0490505b92915050565b6001546001600160a01b03163314620002525760405162461bcd60e51b815260040180806020018281038252602b8152602001806200258e602b913960400191505060405180910390fd5b6200025d8362000423565b81156200026e576200026e620004c6565b6007544210156200029f578062000289575060075462000299565b6007548110156200029957506007545b620002b5565b801580620002ac57504281105b15620002b55750425b600060075482111580620002c95750428211155b6040805160a0810182526001600160a01b03878116825260208201898152928201868152600060608401818152861580156080870190815260048054600181018255945295517f8a35acfbc15ff81a39ae7d344fd709f28e8600b4aa8c65c6b64bfe7fe36bd19b600590940293840180546001600160a01b031916919096161790945594517f8a35acfbc15ff81a39ae7d344fd709f28e8600b4aa8c65c6b64bfe7fe36bd19c82015590517f8a35acfbc15ff81a39ae7d344fd709f28e8600b4aa8c65c6b64bfe7fe36bd19d82015592517f8a35acfbc15ff81a39ae7d344fd709f28e8600b4aa8c65c6b64bfe7fe36bd19e84015590517f8a35acfbc15ff81a39ae7d344fd709f28e8600b4aa8c65c6b64bfe7fe36bd19f909201805460ff1916921515929092179091559091506200041c576200041885600654620004ed60201b620015391790919060201c565b6006555b5050505050565b60045460005b81811015620004c157826001600160a01b0316600482815481106200044a57fe5b60009182526020909120600590910201546001600160a01b03161415620004b8576040805162461bcd60e51b815260206004820152601f60248201527f536e6f775573646347656e657369733a206578697374696e6720706f6f6c3f00604482015290519081900360640190fd5b60010162000429565b505050565b60045460005b81811015620004e957620004e0816200054f565b600101620004cc565b5050565b60008282018381101562000548576040805162461bcd60e51b815260206004820152601b60248201527f536166654d6174683a206164646974696f6e206f766572666c6f770000000000604482015290519081900360640190fd5b9392505050565b6000600482815481106200055f57fe5b906000526020600020906005020190508060020154421162000582575062000707565b8054604080516370a0823160e01b815230600482015290516000926001600160a01b0316916370a08231916024808301926020929190829003018186803b158015620005cd57600080fd5b505afa158015620005e2573d6000803e3d6000fd5b505050506040513d6020811015620005f957600080fd5b50519050806200061157504260029091015562000707565b600482015460ff166200065257600482018054600160ff1990911681179091558201546006546200064e91620004ed602090811b6200153917901c565b6006555b60065415620006fe576000620006738360020154426200070a60201b60201c565b90506000620006b06006546200069c8660010154856200080960201b6200159a1790919060201c565b6200019c60201b620014d21790919060201c565b9050620006f6620006dd846200069c670de0b6b3a7640000856200080960201b6200159a1790919060201c565b8560030154620004ed60201b620015391790919060201c565b600385015550505b50426002909101555b50565b60008183106200071d5750600062000201565b6008548210620007a85760085483106200073a5750600062000201565b600754831162000785576200077d600954620007696007546008546200086760201b620015f31790919060201c565b6200080960201b6200159a1790919060201c565b905062000201565b6200077d60095462000769856008546200086760201b620015f31790919060201c565b6007548211620007bb5750600062000201565b6007548311620007e8576200077d60095462000769600754856200086760201b620015f31790919060201c565b6200077d6009546200076985856200086760201b620015f31790919060201c565b6000826200081a5750600062000201565b828202828482816200082857fe5b0414620005485760405162461bcd60e51b81526004018080602001828103825260218152602001806200256d6021913960400191505060405180910390fd5b600082821115620008bf576040805162461bcd60e51b815260206004820152601e60248201527f536166654d6174683a207375627472616374696f6e206f766572666c6f770000604482015290519081900360640190fd5b50900390565b60805160601c60a051611c6d6200090060003980610bfc5280611249528061127e525080610cf1528061121652806112b75250611c6d6000f3fe608060405234801561001057600080fd5b50600436106101b95760003560e01c8063630b5ba1116100f957806396805e5411610097578063dd62ab3011610071578063dd62ab3014610428578063e2bbb15814610454578063e4affbc814610477578063f2fde38b1461047f576101b9565b806396805e54146103c0578063b3ab15fb146103fa578063c89039c514610420576101b9565b8063715018a6116100d3578063715018a6146103635780638d934f741461036b5780638da5cb5b1461037357806393f1a40b1461037b576101b9565b8063630b5ba11461034b57806367a52793146103535780636e271dd51461035b576101b9565b80633a2b9626116101665780635312ea8e116101405780635312ea8e146102e857806354575af414610305578063570ca7351461033b5780635f96dc1114610343576101b9565b80633a2b962614610284578063441a3e70146102a857806351eb05a6146102cb576101b9565b80631ab06ee5116101975780631ab06ee514610234578063231f0c6a146102595780633406037f1461027c576101b9565b806309cf6091146101be5780631526fe27146101d857806317caf6f11461022c575b600080fd5b6101c66104a5565b60408051918252519081900360200190f35b6101f5600480360360208110156101ee57600080fd5b50356104b3565b604080516001600160a01b039096168652602086019490945284840192909252606084015215156080830152519081900360a00190f35b6101c66104fe565b6102576004803603604081101561024a57600080fd5b5080359060200135610504565b005b6101c66004803603604081101561026f57600080fd5b50803590602001356105b2565b6101c6610677565b61028c61067e565b604080516001600160a01b039092168252519081900360200190f35b610257600480360360408110156102be57600080fd5b508035906020013561068d565b610257600480360360208110156102e157600080fd5b5035610857565b610257600480360360208110156102fe57600080fd5b50356109b5565b6102576004803603606081101561031b57600080fd5b506001600160a01b03813581169160208101359160409091013516610a4e565b61028c610bc2565b6101c6610bd1565b610257610bd7565b6101c6610bfa565b6101c6610c1e565b610257610c24565b61028c610cef565b61028c610d13565b6103a76004803603604081101561039157600080fd5b50803590602001356001600160a01b0316610d22565b6040805192835260208301919091528051918290030190f35b610257600480360360808110156103d657600080fd5b508035906001600160a01b0360208201351690604081013515159060600135610d46565b6102576004803603602081101561041057600080fd5b50356001600160a01b0316610f50565b61028c610fc8565b6101c66004803603604081101561043e57600080fd5b50803590602001356001600160a01b0316610fd7565b6102576004803603604081101561046a57600080fd5b5080359060200135611134565b6101c66113ab565b6102576004803603602081101561049557600080fd5b50356001600160a01b03166113b1565b6905150ae84a8cdf00000081565b600481815481106104c057fe5b6000918252602090912060059091020180546001820154600283015460038401546004909401546001600160a01b0390931694509092909160ff1685565b60065481565b6001546001600160a01b0316331461054d5760405162461bcd60e51b815260040180806020018281038252602b815260200180611be3602b913960400191505060405180910390fd5b610555610bd7565b60006004838154811061056457fe5b60009182526020909120600590910201600481015490915060ff16156105ab576105a7826105a183600101546006546115f390919063ffffffff16565b90611539565b6006555b6001015550565b60008183106105c357506000610671565b600854821061062b5760085483106105dd57506000610671565b6007548311610610576106096009546106036007546008546115f390919063ffffffff16565b9061159a565b9050610671565b610609600954610603856008546115f390919063ffffffff16565b600754821161063c57506000610671565b600754831161066057610609600954610603600754856115f390919063ffffffff16565b6009546106099061060384866115f3565b92915050565b6202a30081565b6002546001600160a01b031681565b60003390506000600484815481106106a157fe5b60009182526020808320878452600580835260408086206001600160a01b038916875290935291909320805492909102909201925084111561072a576040805162461bcd60e51b815260206004820152601260248201527f77697468647261773a206e6f7420676f6f640000000000000000000000000000604482015290519081900360640190fd5b61073385610857565b6000610770826001015461076a670de0b6b3a76400006107648760030154876000015461159a90919063ffffffff16565b906114d2565b906115f3565b905080156107c2576107828482611650565b6040805182815290516001600160a01b038616917fe2403640ba68fed3a2f88b7557551d1993f84b99bb10ff833f0cf8db0c5e0486919081900360200190a25b84156107ec5781546107d490866115f3565b825582546107ec906001600160a01b03168587611706565b6003830154825461080a91670de0b6b3a7640000916107649161159a565b600183015560408051868152905187916001600160a01b038716917ff279e6a1f5e320cca91135676d9cb6e44ca8a08c0b88342bcdb1144f6511b5689181900360200190a3505050505050565b60006004828154811061086657fe5b906000526020600020906005020190508060020154421161088757506109b2565b8054604080516370a0823160e01b815230600482015290516000926001600160a01b0316916370a08231916024808301926020929190829003018186803b1580156108d157600080fd5b505afa1580156108e5573d6000803e3d6000fd5b505050506040513d60208110156108fb57600080fd5b50519050806109115750426002909101556109b2565b600482015460ff166109425760048201805460ff1916600190811790915582015460065461093e91611539565b6006555b600654156109a957600061095a8360020154426105b2565b9050600061097b60065461076486600101548561159a90919063ffffffff16565b90506109a16109968461076484670de0b6b3a764000061159a565b600386015490611539565b600385015550505b50426002909101555b50565b6000600482815481106109c457fe5b60009182526020808320858452600580835260408086203380885294528520805486825560018201969096559302018054909450919291610a11916001600160a01b039091169083611706565b604080518281529051859133917fbb757047c2b5f3974fe26b7c10f732e7bce710b0952a71082702781e62ae05959181900360200190a350505050565b6001546001600160a01b03163314610a975760405162461bcd60e51b815260040180806020018281038252602b815260200180611be3602b913960400191505060405180910390fd5b6008546276a70001421015610ba9576002546001600160a01b0384811691161415610b0b576040805162461bcd60e51b8152602060048083019190915260248201527f736e6f7700000000000000000000000000000000000000000000000000000000604482015290519081900360640190fd5b60045460005b81811015610ba657600060048281548110610b2857fe5b6000918252602090912060059091020180549091506001600160a01b0387811691161415610b9d576040805162461bcd60e51b815260206004820152600a60248201527f706f6f6c2e746f6b656e00000000000000000000000000000000000000000000604482015290519081900360640190fd5b50600101610b11565b50505b610bbd6001600160a01b0384168284611706565b505050565b6001546001600160a01b031681565b60075481565b60045460005b81811015610bf657610bee81610857565b600101610bdd565b5050565b7f000000000000000000000000000000000000000000000000000000000000000081565b60085481565b610c2c611786565b6001600160a01b0316610c3d610d13565b6001600160a01b031614610c98576040805162461bcd60e51b815260206004820181905260248201527f4f776e61626c653a2063616c6c6572206973206e6f7420746865206f776e6572604482015290519081900360640190fd5b600080546040516001600160a01b03909116907f8be0079c531659141344cd1fd0a4f28419497f9722a3daafe3b4186f6b6457e0908390a36000805473ffffffffffffffffffffffffffffffffffffffff19169055565b7f000000000000000000000000000000000000000000000000000000000000000081565b6000546001600160a01b031690565b60056020908152600092835260408084209091529082529020805460019091015482565b6001546001600160a01b03163314610d8f5760405162461bcd60e51b815260040180806020018281038252602b815260200180611be3602b913960400191505060405180910390fd5b610d988361178a565b8115610da657610da6610bd7565b600754421015610dd25780610dbe5750600754610dcd565b600754811015610dcd57506007545b610de6565b801580610dde57504281105b15610de65750425b600060075482111580610df95750428211155b6040805160a0810182526001600160a01b03878116825260208201898152928201868152600060608401818152861580156080870190815260048054600181018255945295517f8a35acfbc15ff81a39ae7d344fd709f28e8600b4aa8c65c6b64bfe7fe36bd19b6005909402938401805473ffffffffffffffffffffffffffffffffffffffff1916919096161790945594517f8a35acfbc15ff81a39ae7d344fd709f28e8600b4aa8c65c6b64bfe7fe36bd19c82015590517f8a35acfbc15ff81a39ae7d344fd709f28e8600b4aa8c65c6b64bfe7fe36bd19d82015592517f8a35acfbc15ff81a39ae7d344fd709f28e8600b4aa8c65c6b64bfe7fe36bd19e84015590517f8a35acfbc15ff81a39ae7d344fd709f28e8600b4aa8c65c6b64bfe7fe36bd19f909201805460ff191692151592909217909155909150610f4957600654610f459086611539565b6006555b5050505050565b6001546001600160a01b03163314610f995760405162461bcd60e51b815260040180806020018281038252602b815260200180611be3602b913960400191505060405180910390fd5b6001805473ffffffffffffffffffffffffffffffffffffffff19166001600160a01b0392909216919091179055565b6003546001600160a01b031681565b60008060048481548110610fe757fe5b60009182526020808320878452600580835260408086206001600160a01b03808b16885290855281872060039390960290930191820154825482516370a0823160e01b815230600482015292519398509596909590949316926370a0823192602480840193829003018186803b15801561106057600080fd5b505afa158015611074573d6000803e3d6000fd5b505050506040513d602081101561108a57600080fd5b50516002850154909150421180156110a157508015155b156110fe5760006110b68560020154426105b2565b905060006110d760065461076488600101548561159a90919063ffffffff16565b90506110f96110f28461076484670de0b6b3a764000061159a565b8590611539565b935050505b611129836001015461076a670de0b6b3a764000061076486886000015461159a90919063ffffffff16565b979650505050505050565b600033905060006004848154811061114857fe5b60009182526020808320878452600580835260408086206001600160a01b0389168752909352919093209102909101915061118285610857565b80541561120e5760006111ba826001015461076a670de0b6b3a76400006107648760030154876000015461159a90919063ffffffff16565b9050801561120c576111cc8482611650565b6040805182815290516001600160a01b038616917fe2403640ba68fed3a2f88b7557551d1993f84b99bb10ff833f0cf8db0c5e0486919081900360200190a25b505b8315611341577f00000000000000000000000000000000000000000000000000000000000000006001600160a01b03161580159061126b57507f000000000000000000000000000000000000000000000000000000000000000015155b1561131b5760006112a2612710610764877f000000000000000000000000000000000000000000000000000000000000000061159a565b83549091506112dc906001600160a01b0316857f000000000000000000000000000000000000000000000000000000000000000084611824565b6112fe84306112eb88856115f3565b86546001600160a01b0316929190611824565b61131361130b86836115f3565b835490611539565b825550611341565b8154611332906001600160a01b0316843087611824565b805461133e9085611539565b81555b6003820154815461135f91670de0b6b3a7640000916107649161159a565b600182015560408051858152905186916001600160a01b038616917f90890809c654f11d6e72a28fa60149770a0d11ec6c92319d6ceb2bb0a4ea1a159181900360200190a35050505050565b60095481565b6113b9611786565b6001600160a01b03166113ca610d13565b6001600160a01b031614611425576040805162461bcd60e51b815260206004820181905260248201527f4f776e61626c653a2063616c6c6572206973206e6f7420746865206f776e6572604482015290519081900360640190fd5b6001600160a01b03811661146a5760405162461bcd60e51b8152600401808060200182810382526026815260200180611b766026913960400191505060405180910390fd5b600080546040516001600160a01b03808516939216917f8be0079c531659141344cd1fd0a4f28419497f9722a3daafe3b4186f6b6457e091a36000805473ffffffffffffffffffffffffffffffffffffffff19166001600160a01b0392909216919091179055565b6000808211611528576040805162461bcd60e51b815260206004820152601a60248201527f536166654d6174683a206469766973696f6e206279207a65726f000000000000604482015290519081900360640190fd5b81838161153157fe5b049392505050565b600082820183811015611593576040805162461bcd60e51b815260206004820152601b60248201527f536166654d6174683a206164646974696f6e206f766572666c6f770000000000604482015290519081900360640190fd5b9392505050565b6000826115a957506000610671565b828202828482816115b657fe5b04146115935760405162461bcd60e51b8152600401808060200182810382526021815260200180611bc26021913960400191505060405180910390fd5b60008282111561164a576040805162461bcd60e51b815260206004820152601e60248201527f536166654d6174683a207375627472616374696f6e206f766572666c6f770000604482015290519081900360640190fd5b50900390565b600254604080516370a0823160e01b815230600482015290516000926001600160a01b0316916370a08231916024808301926020929190829003018186803b15801561169b57600080fd5b505afa1580156116af573d6000803e3d6000fd5b505050506040513d60208110156116c557600080fd5b505190508015610bbd57808211156116f3576002546116ee906001600160a01b03168483611706565b610bbd565b600254610bbd906001600160a01b031684845b604080516001600160a01b038416602482015260448082018490528251808303909101815260649091019091526020810180517bffffffffffffffffffffffffffffffffffffffffffffffffffffffff167fa9059cbb00000000000000000000000000000000000000000000000000000000179052610bbd9084906118b2565b3390565b60045460005b81811015610bbd57826001600160a01b0316600482815481106117af57fe5b60009182526020909120600590910201546001600160a01b0316141561181c576040805162461bcd60e51b815260206004820152601f60248201527f536e6f775573646347656e657369733a206578697374696e6720706f6f6c3f00604482015290519081900360640190fd5b600101611790565b604080516001600160a01b0380861660248301528416604482015260648082018490528251808303909101815260849091019091526020810180517bffffffffffffffffffffffffffffffffffffffffffffffffffffffff167f23b872dd000000000000000000000000000000000000000000000000000000001790526118ac9085906118b2565b50505050565b6060611907826040518060400160405280602081526020017f5361666545524332303a206c6f772d6c6576656c2063616c6c206661696c6564815250856001600160a01b03166119639092919063ffffffff16565b805190915015610bbd5780806020019051602081101561192657600080fd5b5051610bbd5760405162461bcd60e51b815260040180806020018281038252602a815260200180611c0e602a913960400191505060405180910390fd5b6060611972848460008561197a565b949350505050565b6060824710156119bb5760405162461bcd60e51b8152600401808060200182810382526026815260200180611b9c6026913960400191505060405180910390fd5b6119c485611acb565b611a15576040805162461bcd60e51b815260206004820152601d60248201527f416464726573733a2063616c6c20746f206e6f6e2d636f6e7472616374000000604482015290519081900360640190fd5b60006060866001600160a01b031685876040518082805190602001908083835b60208310611a545780518252601f199092019160209182019101611a35565b6001836020036101000a03801982511681845116808217855250505050505090500191505060006040518083038185875af1925050503d8060008114611ab6576040519150601f19603f3d011682016040523d82523d6000602084013e611abb565b606091505b5091509150611129828286611ad1565b3b151590565b60608315611ae0575081611593565b825115611af05782518084602001fd5b8160405162461bcd60e51b81526004018080602001828103825283818151815260200191508051906020019080838360005b83811015611b3a578181015183820152602001611b22565b50505050905090810190601f168015611b675780820380516001836020036101000a031916815260200191505b509250505060405180910390fdfe4f776e61626c653a206e6577206f776e657220697320746865207a65726f2061646472657373416464726573733a20696e73756666696369656e742062616c616e636520666f722063616c6c536166654d6174683a206d756c7469706c69636174696f6e206f766572666c6f77536e6f775573646347656e657369733a2063616c6c6572206973206e6f7420746865206f70657261746f725361666545524332303a204552433230206f7065726174696f6e20646964206e6f742073756363656564a2646970667358221220f37e9938cbe40c5004e7b604a8de8ac0a091a719911322158560b51f80de7e3764736f6c634300060c0033536166654d6174683a206d756c7469706c69636174696f6e206f766572666c6f77536e6f775573646347656e657369733a2063616c6c6572206973206e6f7420746865206f70657261746f72",
  "devdoc": {
    "kind": "dev",
    "methods": {
      "owner()": {
        "details": "Returns the address of the current owner."
      },
      "renounceOwnership()": {
        "details": "Leaves the contract without owner. It will not be possible to call `onlyOwner` functions anymore. Can only be called by the current owner. NOTE: Renouncing ownership will leave the contract without an owner, thereby removing any functionality that is only available to the owner."
      },
      "transferOwnership(address)": {
        "details": "Transfers ownership of the contract to a new account (`newOwner`). Can only be called by the current owner."
      }
    },
    "version": 1
  },
  "userdoc": {
    "kind": "user",
    "methods": {},
    "version": 1
  },
  "storageLayout": {
    "storage": [
      {
        "astId": 7,
        "contract": "contracts/SnowGenesisRewardPool.sol:SnowGenesisRewardPool",
        "label": "_owner",
        "offset": 0,
        "slot": "0",
        "type": "t_address"
      },
      {
        "astId": 6849,
        "contract": "contracts/SnowGenesisRewardPool.sol:SnowGenesisRewardPool",
        "label": "operator",
        "offset": 0,
        "slot": "1",
        "type": "t_address"
      },
      {
        "astId": 6871,
        "contract": "contracts/SnowGenesisRewardPool.sol:SnowGenesisRewardPool",
        "label": "snow",
        "offset": 0,
        "slot": "2",
        "type": "t_contract(IERC20)1177"
      },
      {
        "astId": 6873,
        "contract": "contracts/SnowGenesisRewardPool.sol:SnowGenesisRewardPool",
        "label": "depositToken",
        "offset": 0,
        "slot": "3",
        "type": "t_contract(IERC20)1177"
      },
      {
        "astId": 6876,
        "contract": "contracts/SnowGenesisRewardPool.sol:SnowGenesisRewardPool",
        "label": "poolInfo",
        "offset": 0,
        "slot": "4",
        "type": "t_array(t_struct(PoolInfo)6869_storage)dyn_storage"
      },
      {
        "astId": 6882,
        "contract": "contracts/SnowGenesisRewardPool.sol:SnowGenesisRewardPool",
        "label": "userInfo",
        "offset": 0,
        "slot": "5",
        "type": "t_mapping(t_uint256,t_mapping(t_address,t_struct(UserInfo)6858_storage))"
      },
      {
        "astId": 6885,
        "contract": "contracts/SnowGenesisRewardPool.sol:SnowGenesisRewardPool",
        "label": "totalAllocPoint",
        "offset": 0,
        "slot": "6",
        "type": "t_uint256"
      },
      {
        "astId": 6887,
        "contract": "contracts/SnowGenesisRewardPool.sol:SnowGenesisRewardPool",
        "label": "poolStartTime",
        "offset": 0,
        "slot": "7",
        "type": "t_uint256"
      },
      {
        "astId": 6889,
        "contract": "contracts/SnowGenesisRewardPool.sol:SnowGenesisRewardPool",
        "label": "poolEndTime",
        "offset": 0,
        "slot": "8",
        "type": "t_uint256"
      },
      {
        "astId": 6891,
        "contract": "contracts/SnowGenesisRewardPool.sol:SnowGenesisRewardPool",
        "label": "snowPerSecond",
        "offset": 0,
        "slot": "9",
        "type": "t_uint256"
      }
    ],
    "types": {
      "t_address": {
        "encoding": "inplace",
        "label": "address",
        "numberOfBytes": "20"
      },
      "t_array(t_struct(PoolInfo)6869_storage)dyn_storage": {
        "base": "t_struct(PoolInfo)6869_storage",
        "encoding": "dynamic_array",
        "label": "struct SnowGenesisRewardPool.PoolInfo[]",
        "numberOfBytes": "32"
      },
      "t_bool": {
        "encoding": "inplace",
        "label": "bool",
        "numberOfBytes": "1"
      },
      "t_contract(IERC20)1177": {
        "encoding": "inplace",
        "label": "contract IERC20",
        "numberOfBytes": "20"
      },
      "t_mapping(t_address,t_struct(UserInfo)6858_storage)": {
        "encoding": "mapping",
        "key": "t_address",
        "label": "mapping(address => struct SnowGenesisRewardPool.UserInfo)",
        "numberOfBytes": "32",
        "value": "t_struct(UserInfo)6858_storage"
      },
      "t_mapping(t_uint256,t_mapping(t_address,t_struct(UserInfo)6858_storage))": {
        "encoding": "mapping",
        "key": "t_uint256",
        "label": "mapping(uint256 => mapping(address => struct SnowGenesisRewardPool.UserInfo))",
        "numberOfBytes": "32",
        "value": "t_mapping(t_address,t_struct(UserInfo)6858_storage)"
      },
      "t_struct(PoolInfo)6869_storage": {
        "encoding": "inplace",
        "label": "struct SnowGenesisRewardPool.PoolInfo",
        "members": [
          {
            "astId": 6860,
            "contract": "contracts/SnowGenesisRewardPool.sol:SnowGenesisRewardPool",
            "label": "token",
            "offset": 0,
            "slot": "0",
            "type": "t_contract(IERC20)1177"
          },
          {
            "astId": 6862,
            "contract": "contracts/SnowGenesisRewardPool.sol:SnowGenesisRewardPool",
            "label": "allocPoint",
            "offset": 0,
            "slot": "1",
            "type": "t_uint256"
          },
          {
            "astId": 6864,
            "contract": "contracts/SnowGenesisRewardPool.sol:SnowGenesisRewardPool",
            "label": "lastRewardTime",
            "offset": 0,
            "slot": "2",
            "type": "t_uint256"
          },
          {
            "astId": 6866,
            "contract": "contracts/SnowGenesisRewardPool.sol:SnowGenesisRewardPool",
            "label": "accSnowPerShare",
            "offset": 0,
            "slot": "3",
            "type": "t_uint256"
          },
          {
            "astId": 6868,
            "contract": "contracts/SnowGenesisRewardPool.sol:SnowGenesisRewardPool",
            "label": "isStarted",
            "offset": 0,
            "slot": "4",
            "type": "t_bool"
          }
        ],
        "numberOfBytes": "160"
      },
      "t_struct(UserInfo)6858_storage": {
        "encoding": "inplace",
        "label": "struct SnowGenesisRewardPool.UserInfo",
        "members": [
          {
            "astId": 6855,
            "contract": "contracts/SnowGenesisRewardPool.sol:SnowGenesisRewardPool",
            "label": "amount",
            "offset": 0,
            "slot": "0",
            "type": "t_uint256"
          },
          {
            "astId": 6857,
            "contract": "contracts/SnowGenesisRewardPool.sol:SnowGenesisRewardPool",
            "label": "rewardDebt",
            "offset": 0,
            "slot": "1",
            "type": "t_uint256"
          }
        ],
        "numberOfBytes": "64"
      },
      "t_uint256": {
        "encoding": "inplace",
        "label": "uint256",
        "numberOfBytes": "32"
      }
    }
  }
}