{
  "address": "0xFd175D81B9f559aa55Dae17bDCb6C1e3860edF9e",
  "abi": [
    {
      "inputs": [
        {
          "internalType": "address",
          "name": "_mainToken",
          "type": "address"
        },
        {
          "internalType": "address",
          "name": "_shareToken",
          "type": "address"
        },
        {
          "internalType": "address",
          "name": "_mainTokenOracle",
          "type": "address"
        },
        {
          "internalType": "address",
          "name": "_pegToken",
          "type": "address"
        },
        {
          "internalType": "address",
          "name": "_router",
          "type": "address"
        }
      ],
      "stateMutability": "nonpayable",
      "type": "constructor"
    },
    {
      "anonymous": false,
      "inputs": [
        {
          "indexed": false,
          "internalType": "uint256",
          "name": "_amount",
          "type": "uint256"
        }
      ],
      "name": "HandledMainTokenTax",
      "type": "event"
    },
    {
      "anonymous": false,
      "inputs": [
        {
          "indexed": false,
          "internalType": "uint256",
          "name": "_amount",
          "type": "uint256"
        }
      ],
      "name": "HandledShareTokenTax",
      "type": "event"
    },
    {
      "anonymous": false,
      "inputs": [
        {
          "indexed": true,
          "internalType": "address",
          "name": "previousOperator",
          "type": "address"
        },
        {
          "indexed": true,
          "internalType": "address",
          "name": "newOperator",
          "type": "address"
        }
      ],
      "name": "OperatorTransferred",
      "type": "event"
    },
    {
      "anonymous": false,
      "inputs": [
        {
          "indexed": true,
          "internalType": "address",
          "name": "previousOwner",
          "type": "address"
        },
        {
          "indexed": true,
          "internalType": "address",
          "name": "newOwner",
          "type": "address"
        }
      ],
      "name": "OwnershipTransferred",
      "type": "event"
    },
    {
      "inputs": [],
      "name": "BASIS_POINTS_DENOM",
      "outputs": [
        {
          "internalType": "uint256",
          "name": "",
          "type": "uint256"
        }
      ],
      "stateMutability": "view",
      "type": "function"
    },
    {
      "inputs": [],
      "name": "calculateMainTokenTax",
      "outputs": [
        {
          "internalType": "uint256",
          "name": "taxRate",
          "type": "uint256"
        }
      ],
      "stateMutability": "view",
      "type": "function"
    },
    {
      "inputs": [],
      "name": "calculateShareTokenTax",
      "outputs": [
        {
          "internalType": "uint256",
          "name": "taxRate",
          "type": "uint256"
        }
      ],
      "stateMutability": "view",
      "type": "function"
    },
    {
      "inputs": [],
      "name": "getMainTokenPrice",
      "outputs": [
        {
          "internalType": "uint256",
          "name": "",
          "type": "uint256"
        }
      ],
      "stateMutability": "view",
      "type": "function"
    },
    {
      "inputs": [],
      "name": "getMainTokenUpdatedPrice",
      "outputs": [
        {
          "internalType": "uint256",
          "name": "",
          "type": "uint256"
        }
      ],
      "stateMutability": "view",
      "type": "function"
    },
    {
      "inputs": [
        {
          "internalType": "uint256",
          "name": "_amount",
          "type": "uint256"
        }
      ],
      "name": "handleMainTokenTax",
      "outputs": [],
      "stateMutability": "nonpayable",
      "type": "function"
    },
    {
      "inputs": [
        {
          "internalType": "uint256",
          "name": "_amount",
          "type": "uint256"
        }
      ],
      "name": "handleShareTokenTax",
      "outputs": [],
      "stateMutability": "nonpayable",
      "type": "function"
    },
    {
      "inputs": [],
      "name": "isOperator",
      "outputs": [
        {
          "internalType": "bool",
          "name": "",
          "type": "bool"
        }
      ],
      "stateMutability": "view",
      "type": "function"
    },
    {
      "inputs": [],
      "name": "mainToken",
      "outputs": [
        {
          "internalType": "contract IERC20Taxable",
          "name": "",
          "type": "address"
        }
      ],
      "stateMutability": "view",
      "type": "function"
    },
    {
      "inputs": [],
      "name": "mainTokenOracle",
      "outputs": [
        {
          "internalType": "contract IOracle",
          "name": "",
          "type": "address"
        }
      ],
      "stateMutability": "view",
      "type": "function"
    },
    {
      "inputs": [
        {
          "internalType": "uint256",
          "name": "",
          "type": "uint256"
        }
      ],
      "name": "mainTokenTaxRateTiers",
      "outputs": [
        {
          "internalType": "uint256",
          "name": "",
          "type": "uint256"
        }
      ],
      "stateMutability": "view",
      "type": "function"
    },
    {
      "inputs": [
        {
          "internalType": "uint256",
          "name": "",
          "type": "uint256"
        }
      ],
      "name": "mainTokenTaxTwapTiers",
      "outputs": [
        {
          "internalType": "uint256",
          "name": "",
          "type": "uint256"
        }
      ],
      "stateMutability": "view",
      "type": "function"
    },
    {
      "inputs": [],
      "name": "operator",
      "outputs": [
        {
          "internalType": "address",
          "name": "",
          "type": "address"
        }
      ],
      "stateMutability": "view",
      "type": "function"
    },
    {
      "inputs": [],
      "name": "owner",
      "outputs": [
        {
          "internalType": "address",
          "name": "",
          "type": "address"
        }
      ],
      "stateMutability": "view",
      "type": "function"
    },
    {
      "inputs": [],
      "name": "pegToken",
      "outputs": [
        {
          "internalType": "contract IERC20",
          "name": "",
          "type": "address"
        }
      ],
      "stateMutability": "view",
      "type": "function"
    },
    {
      "inputs": [],
      "name": "renounceOwnership",
      "outputs": [],
      "stateMutability": "nonpayable",
      "type": "function"
    },
    {
      "inputs": [],
      "name": "router",
      "outputs": [
        {
          "internalType": "address",
          "name": "",
          "type": "address"
        }
      ],
      "stateMutability": "view",
      "type": "function"
    },
    {
      "inputs": [
        {
          "internalType": "bool",
          "name": "_enableDynamicTax",
          "type": "bool"
        }
      ],
      "name": "setMainTokenEnableDynamicTax",
      "outputs": [],
      "stateMutability": "nonpayable",
      "type": "function"
    },
    {
      "inputs": [
        {
          "internalType": "address",
          "name": "_mainTokenOracle",
          "type": "address"
        }
      ],
      "name": "setMainTokenOracle",
      "outputs": [],
      "stateMutability": "nonpayable",
      "type": "function"
    },
    {
      "inputs": [
        {
          "internalType": "uint256",
          "name": "_taxRate",
          "type": "uint256"
        }
      ],
      "name": "setMainTokenStaticTaxRate",
      "outputs": [],
      "stateMutability": "nonpayable",
      "type": "function"
    },
    {
      "inputs": [
        {
          "internalType": "uint256[]",
          "name": "_mainTokenTaxTwapTiers",
          "type": "uint256[]"
        },
        {
          "internalType": "uint256[]",
          "name": "_mainTokenTaxRateTiers",
          "type": "uint256[]"
        }
      ],
      "name": "setMainTokenTaxTiers",
      "outputs": [],
      "stateMutability": "nonpayable",
      "type": "function"
    },
    {
      "inputs": [
        {
          "internalType": "address",
          "name": "_account",
          "type": "address"
        },
        {
          "internalType": "uint8",
          "name": "_type",
          "type": "uint8"
        }
      ],
      "name": "setMainTokenWhitelistType",
      "outputs": [],
      "stateMutability": "nonpayable",
      "type": "function"
    },
    {
      "inputs": [
        {
          "internalType": "address",
          "name": "_router",
          "type": "address"
        }
      ],
      "name": "setRouterAddress",
      "outputs": [],
      "stateMutability": "nonpayable",
      "type": "function"
    },
    {
      "inputs": [
        {
          "internalType": "bool",
          "name": "_enableDynamicTax",
          "type": "bool"
        }
      ],
      "name": "setShareTokenEnableDynamicTax",
      "outputs": [],
      "stateMutability": "nonpayable",
      "type": "function"
    },
    {
      "inputs": [
        {
          "internalType": "uint256",
          "name": "_taxRate",
          "type": "uint256"
        }
      ],
      "name": "setShareTokenStaticTaxRate",
      "outputs": [],
      "stateMutability": "nonpayable",
      "type": "function"
    },
    {
      "inputs": [
        {
          "internalType": "uint256[]",
          "name": "_shareTokenTaxTwapTiers",
          "type": "uint256[]"
        },
        {
          "internalType": "uint256[]",
          "name": "_shareTokenTaxRateTiers",
          "type": "uint256[]"
        }
      ],
      "name": "setShareTokenTaxTiers",
      "outputs": [],
      "stateMutability": "nonpayable",
      "type": "function"
    },
    {
      "inputs": [
        {
          "internalType": "address",
          "name": "_account",
          "type": "address"
        },
        {
          "internalType": "uint8",
          "name": "_type",
          "type": "uint8"
        }
      ],
      "name": "setShareTokenWhitelistType",
      "outputs": [],
      "stateMutability": "nonpayable",
      "type": "function"
    },
    {
      "inputs": [
        {
          "internalType": "address",
          "name": "_sender",
          "type": "address"
        },
        {
          "internalType": "address",
          "name": "_recipient",
          "type": "address"
        },
        {
          "internalType": "uint256",
          "name": "_amount",
          "type": "uint256"
        }
      ],
      "name": "setTaxDiscount",
      "outputs": [],
      "stateMutability": "nonpayable",
      "type": "function"
    },
    {
      "inputs": [],
      "name": "shareToken",
      "outputs": [
        {
          "internalType": "contract IERC20Taxable",
          "name": "",
          "type": "address"
        }
      ],
      "stateMutability": "view",
      "type": "function"
    },
    {
      "inputs": [
        {
          "internalType": "uint256",
          "name": "",
          "type": "uint256"
        }
      ],
      "name": "shareTokenTaxRateTiers",
      "outputs": [
        {
          "internalType": "uint256",
          "name": "",
          "type": "uint256"
        }
      ],
      "stateMutability": "view",
      "type": "function"
    },
    {
      "inputs": [
        {
          "internalType": "uint256",
          "name": "",
          "type": "uint256"
        }
      ],
      "name": "shareTokenTaxTwapTiers",
      "outputs": [
        {
          "internalType": "uint256",
          "name": "",
          "type": "uint256"
        }
      ],
      "stateMutability": "view",
      "type": "function"
    },
    {
      "inputs": [
        {
          "internalType": "address",
          "name": "",
          "type": "address"
        },
        {
          "internalType": "address",
          "name": "",
          "type": "address"
        }
      ],
      "name": "taxDiscount",
      "outputs": [
        {
          "internalType": "uint256",
          "name": "",
          "type": "uint256"
        }
      ],
      "stateMutability": "view",
      "type": "function"
    },
    {
      "inputs": [
        {
          "internalType": "address",
          "name": "newOperator_",
          "type": "address"
        }
      ],
      "name": "transferOperator",
      "outputs": [],
      "stateMutability": "nonpayable",
      "type": "function"
    },
    {
      "inputs": [
        {
          "internalType": "address",
          "name": "newOwner",
          "type": "address"
        }
      ],
      "name": "transferOwnership",
      "outputs": [],
      "stateMutability": "nonpayable",
      "type": "function"
    },
    {
      "inputs": [],
      "name": "updateMainTokenPrice",
      "outputs": [],
      "stateMutability": "nonpayable",
      "type": "function"
    },
    {
      "inputs": [
        {
          "internalType": "address",
          "name": "_token",
          "type": "address"
        },
        {
          "internalType": "address",
          "name": "_recipient",
          "type": "address"
        },
        {
          "internalType": "uint256",
          "name": "_amount",
          "type": "uint256"
        }
      ],
      "name": "withdraw",
      "outputs": [],
      "stateMutability": "nonpayable",
      "type": "function"
    }
  ],
  "transactionHash": "0xdf529e9c1fb36b14cda3f910b3021ca28a262b5722a93951eb035d94426503fe",
  "args": [
    "0x05a3F4E0ad6580D9d977F5eE12F168620f4F71e9",
    "0xbe27f32D9F731CC9DddAfE3ddaA7CBBC0f58b414",
    "0x64762A454988676Db26fD46ced66Fa66883EEA8A",
    "0xc3F95DeDacFEA28a3d657FfbCc74e9BaB6FB949B",
    "0xc4e4DdB7a71fCF9Bb7356461Ca75124aA9910653"
  ],
  "numDeployments": 1,
  "solcInputHash": "63674f7f37222e2e62c35a0995ff0fc0",
  "bytecode": "0x6102406040526000608090815266b1a2bc2ec5000060a05266d529ae9e86000060c05266f8b0a10e47000060e05267011c37937e0800006101005267013fbe85edc900006101205267015181ff25a980006101405267016345785d8a00006101605267017508f1956a800061018052670186cc6acd4b00006101a0526701aa535d3d0c00006101c0526701cdda4faccd00006101e0526701f161421c8e000061020052670214e8348c4f000061022052620000bf90600590600e6200041e565b50604080516101c0810182526108ca80825260208201819052918101919091526107d060608201819052608082015261064060a0820181905260c0820181905260e08201526103206101008201819052610120820152610258610140820181905261016082018190526101808201526101906101a08201526200014790600690600e62000479565b50604080516101c0810182526000815266b1a2bc2ec50000602082015266d529ae9e8600009181019190915266f8b0a10e470000606082015267011c37937e080000608082015267013fbe85edc9000060a082015267015181ff25a9800060c082015267016345785d8a000060e082015267017508f1956a8000610100820152670186cc6acd4b00006101208201526701aa535d3d0c00006101408201526701cdda4faccd00006101608201526701f161421c8e0000610180820152670214e8348c4f00006101a08201526200022290600790600e6200041e565b50604080516101c0810182526108ca80825260208201819052918101919091526107d060608201819052608082015261064060a0820181905260c0820181905260e08201526103206101008201819052610120820152610258610140820181905261016082018190526101808201526101906101a0820152620002aa90600890600e62000479565b50348015620002b857600080fd5b5060405162002d5638038062002d56833981810160405260a0811015620002de57600080fd5b5080516020820151604083015160608401516080909401519293919290919084848484848484846000620003116200041a565b600080546001600160a01b0319166001600160a01b0383169081178255604051929350917f8be0079c531659141344cd1fd0a4f28419497f9722a3daafe3b4186f6b6457e0908290a350620003656200041a565b600180546001600160a01b0319166001600160a01b0392831617908190556040519116906000907f74da04524d50c64947f5dd5381ef1a4dca5cba8ed1d816243f9e48aa0b5617ed908290a3600280546001600160a01b03199081166001600160a01b039586161790915560038054821693851693909317909255600480548316918416919091179055600b8054821694831694909417909355600a8054909316911617905550620004d49650505050505050565b3390565b82805482825590600052602060002090810192821562000467579160200282015b828111156200046757825182906001600160401b03169055916020019190600101906200043f565b5062000475929150620004bd565b5090565b82805482825590600052602060002090810192821562000467579160200282015b8281111562000467578251829061ffff169055916020019190600101906200049a565b5b80821115620004755760008155600101620004be565b61287280620004e46000396000f3fe608060405234801561001057600080fd5b506004361061025c5760003560e01c806373d8700b11610145578063d2742813116100bd578063d9caed121161008c578063ebaf415611610071578063ebaf41561461070c578063f2fde38b14610729578063f887ea401461074f5761025c565b8063d9caed12146106a0578063e6ff187a146106d65761025c565b8063d274281314610669578063d39abead14610671578063d3bca4ce14610679578063d419ae53146106985761025c565b8063a6f58b1511610114578063b1d5ca1d116100f9578063b1d5ca1d1461061e578063bcf0c9f914610644578063bfc770a81461064c5761025c565b8063a6f58b15146105f9578063adda69f5146106165761025c565b806373d8700b146104e35780638da5cb5b146105a55780639b358076146105ad578063a179de2c146105dc5761025c565b806341cb87fc116101d85780635803abaa116101a75780636c9fa59e1161018c5780636c9fa59e146104cb57806370ff8322146104d3578063715018a6146104db5761025c565b80635803abaa14610495578063678014b0146104c35761025c565b806341cb87fc1461042e5780634456eda21461045457806356ee5f4c14610470578063570ca7351461048d5761025c565b806329605e771161022f5780633b16c9c4116102145780633b16c9c41461032b5780633b42f67b146103ed5780633fc15f151461040a5761025c565b806329605e77146102e85780632df5a70a1461030e5761025c565b80630d565702146102615780630dbce9751461026b5780631daf0dca1461029a5780632041c24c146102c9575b600080fd5b610269610757565b005b6102696004803603604081101561028157600080fd5b5080356001600160a01b0316906020013560ff166107d9565b6102b7600480360360208110156102b057600080fd5b5035610895565b60408051918252519081900360200190f35b610269600480360360208110156102df57600080fd5b503515156108b3565b610269600480360360208110156102fe57600080fd5b50356001600160a01b0316610965565b6102b76004803603602081101561032457600080fd5b50356109e2565b6102696004803603604081101561034157600080fd5b81019060208101813564010000000081111561035c57600080fd5b82018360208201111561036e57600080fd5b8035906020019184602083028401116401000000008311171561039057600080fd5b9193909290916020810190356401000000008111156103ae57600080fd5b8201836020820111156103c057600080fd5b803590602001918460208302840111640100000000831117156103e257600080fd5b5090925090506109ef565b6102696004803603602081101561040357600080fd5b5035610acb565b610412610b61565b604080516001600160a01b039092168252519081900360200190f35b6102696004803603602081101561044457600080fd5b50356001600160a01b0316610b70565b61045c610bdb565b604080519115158252519081900360200190f35b6102696004803603602081101561048657600080fd5b5035610c02565b610412610c98565b6102b7600480360360408110156104ab57600080fd5b506001600160a01b0381358116916020013516610ca7565b6102b7610cc4565b610412610cca565b6102b7610cd9565b610269610dd1565b610269600480360360408110156104f957600080fd5b81019060208101813564010000000081111561051457600080fd5b82018360208201111561052657600080fd5b8035906020019184602083028401116401000000008311171561054857600080fd5b91939092909160208101903564010000000081111561056657600080fd5b82018360208201111561057857600080fd5b8035906020019184602083028401116401000000008311171561059a57600080fd5b509092509050610e8f565b610412610f6b565b610269600480360360408110156105c357600080fd5b5080356001600160a01b0316906020013560ff16610f7a565b6102b7600480360360208110156105f257600080fd5b503561101a565b6102b76004803603602081101561060f57600080fd5b5035611027565b610412611034565b6102696004803603602081101561063457600080fd5b50356001600160a01b0316611043565b6104126110f3565b6102696004803603602081101561066257600080fd5b5035611102565b6102b761124a565b6102b76112d7565b6102696004803603602081101561068f57600080fd5b50351515611350565b6102b76113e7565b610269600480360360608110156106b657600080fd5b506001600160a01b03813581169160208101359091169060400135611464565b610269600480360360608110156106ec57600080fd5b506001600160a01b0381358116916020810135909116906040013561152e565b6102696004803603602081101561072257600080fd5b5035611625565b6102696004803603602081101561073f57600080fd5b50356001600160a01b0316611738565b61041261184c565b6004546001600160a01b0316156107d75760048054604080517fa2e6204500000000000000000000000000000000000000000000000000000000815290516001600160a01b039092169263a2e6204592828201926000929082900301818387803b1580156107c457600080fd5b505af19250505080156107d5575060015b505b565b6001546001600160a01b031633146108225760405162461bcd60e51b81526004018080602001828103825260248152602001806127646024913960400191505060405180910390fd5b6002546040805163232798df60e01b81526001600160a01b03858116600483015260ff851660248301529151919092169163232798df91604480830192600092919082900301818387803b15801561087957600080fd5b505af115801561088d573d6000803e3d6000fd5b505050505050565b600581815481106108a257fe5b600091825260209091200154905081565b6001546001600160a01b031633146108fc5760405162461bcd60e51b81526004018080602001828103825260248152602001806127646024913960400191505060405180910390fd5b60035460408051631c693bb760e11b8152831515600482015290516001600160a01b03909216916338d2776e9160248082019260009290919082900301818387803b15801561094a57600080fd5b505af115801561095e573d6000803e3d6000fd5b5050505050565b61096d61185b565b6001600160a01b031661097e610f6b565b6001600160a01b0316146109d9576040805162461bcd60e51b815260206004820181905260248201527f4f776e61626c653a2063616c6c6572206973206e6f7420746865206f776e6572604482015290519081900360640190fd5b6107d58161185f565b600781815481106108a257fe5b6001546001600160a01b03163314610a385760405162461bcd60e51b81526004018080602001828103825260248152602001806127646024913960400191505060405180910390fd5b828114610a765760405162461bcd60e51b81526004018080602001828103825260278152602001806126486027913960400191505060405180910390fd5b610ab28484808060200260200160405190810160405280939291908181526020018383602002808284376000920191909152506118fc92505050565b610abe600585856125e7565b5061095e600683836125e7565b6001546001600160a01b03163314610b145760405162461bcd60e51b81526004018080602001828103825260248152602001806127646024913960400191505060405180910390fd5b6003546040805163e1ea1fa360e01b81526004810184905290516001600160a01b039092169163e1ea1fa39160248082019260009290919082900301818387803b15801561094a57600080fd5b6002546001600160a01b031681565b6001546001600160a01b03163314610bb95760405162461bcd60e51b81526004018080602001828103825260248152602001806127646024913960400191505060405180910390fd5b600a80546001600160a01b0319166001600160a01b0392909216919091179055565b6001546000906001600160a01b0316610bf261185b565b6001600160a01b03161490505b90565b6001546001600160a01b03163314610c4b5760405162461bcd60e51b81526004018080602001828103825260248152602001806127646024913960400191505060405180910390fd5b6002546040805163e1ea1fa360e01b81526004810184905290516001600160a01b039092169163e1ea1fa39160248082019260009290919082900301818387803b15801561094a57600080fd5b6001546001600160a01b031690565b600960209081526000928352604080842090915290825290205481565b61271081565b6003546001600160a01b031681565b60048054600254604080517f6808a1280000000000000000000000000000000000000000000000000000000081526001600160a01b0392831694810194909452670de0b6b3a76400006024850152516000939190921691636808a12891604480820192602092909190829003018186803b158015610d5657600080fd5b505afa925050508015610d7b57506040513d6020811015610d7657600080fd5b505160015b610db65760405162461bcd60e51b81526004018080602001828103825260328152602001806127116032913960400191505060405180910390fd5b71ffffffffffffffffffffffffffffffffffff169050610bff565b610dd961185b565b6001600160a01b0316610dea610f6b565b6001600160a01b031614610e45576040805162461bcd60e51b815260206004820181905260248201527f4f776e61626c653a2063616c6c6572206973206e6f7420746865206f776e6572604482015290519081900360640190fd5b600080546040516001600160a01b03909116907f8be0079c531659141344cd1fd0a4f28419497f9722a3daafe3b4186f6b6457e0908390a3600080546001600160a01b0319169055565b6001546001600160a01b03163314610ed85760405162461bcd60e51b81526004018080602001828103825260248152602001806127646024913960400191505060405180910390fd5b828114610f165760405162461bcd60e51b81526004018080602001828103825260278152602001806126486027913960400191505060405180910390fd5b610f528484808060200260200160405190810160405280939291908181526020018383602002808284376000920191909152506118fc92505050565b610f5e600785856125e7565b5061095e600883836125e7565b6000546001600160a01b031690565b6001546001600160a01b03163314610fc35760405162461bcd60e51b81526004018080602001828103825260248152602001806127646024913960400191505060405180910390fd5b6003546040805163232798df60e01b81526001600160a01b03858116600483015260ff851660248301529151919092169163232798df91604480830192600092919082900301818387803b15801561087957600080fd5b600681815481106108a257fe5b600881815481106108a257fe5b600b546001600160a01b031681565b6001546001600160a01b0316331461108c5760405162461bcd60e51b81526004018080602001828103825260248152602001806127646024913960400191505060405180910390fd5b6001600160a01b0381166110d15760405162461bcd60e51b815260040180806020018281038252602981526020018061266f6029913960400191505060405180910390fd5b600480546001600160a01b0319166001600160a01b0392909216919091179055565b6004546001600160a01b031681565b6002546001600160a01b0316331480611133575061111e610c98565b6001600160a01b0316336001600160a01b0316145b61116e5760405162461bcd60e51b81526004018080602001828103825260298152602001806127886029913960400191505060405180910390fd5b60006111866064611180846050611a17565b90611a79565b600254604080517f42966c680000000000000000000000000000000000000000000000000000000081526004810184905290519293506001600160a01b03909116916342966c689160248082019260009290919082900301818387803b1580156111ef57600080fd5b505af1158015611203573d6000803e3d6000fd5b50505050600061121c8284611ae090919063ffffffff16565b600254600b5491925061123d9183916001600160a01b039081169116611b3d565b611245610757565b505050565b600080611255610cd9565b905060006112b360078054806020026020016040519081016040528092919081815260200182805480156112a857602002820191906000526020600020905b815481526020019060010190808311611294575b505050505083611dfc565b905060088160ff16815481106112c557fe5b90600052602060002001549250505090565b6000806112e2610cd9565b9050600061133e60058054806020026020016040519081016040528092919081815260200182805480156112a8576020028201919060005260206000209081548152602001906001019080831161129457505050505083611dfc565b905060068160ff16815481106112c557fe5b6001546001600160a01b031633146113995760405162461bcd60e51b81526004018080602001828103825260248152602001806127646024913960400191505060405180910390fd5b60025460408051631c693bb760e11b8152831515600482015290516001600160a01b03909216916338d2776e9160248082019260009290919082900301818387803b15801561094a57600080fd5b60048054600254604080517f3ddac9530000000000000000000000000000000000000000000000000000000081526001600160a01b0392831694810194909452670de0b6b3a76400006024850152516000939190921691633ddac95391604480820192602092909190829003018186803b158015610d5657600080fd5b6001546001600160a01b031633146114ad5760405162461bcd60e51b81526004018080602001828103825260248152602001806127646024913960400191505060405180910390fd5b826001600160a01b031663a9059cbb83836040518363ffffffff1660e01b815260040180836001600160a01b0316815260200182815260200192505050602060405180830381600087803b15801561150457600080fd5b505af1158015611518573d6000803e3d6000fd5b505050506040513d602081101561095e57600080fd5b61153661185b565b6001600160a01b0316611547610f6b565b6001600160a01b0316146115a2576040805162461bcd60e51b815260206004820181905260248201527f4f776e61626c653a2063616c6c6572206973206e6f7420746865206f776e6572604482015290519081900360640190fd5b6127108111156115f9576040805162461bcd60e51b815260206004820152601e60248201527f4572726f723a20446973636f756e74207261746520746f6f20686967682e0000604482015290519081900360640190fd5b6001600160a01b0392831660009081526009602090815260408083209490951682529290925291902055565b6003546001600160a01b03163314806116565750611641610c98565b6001600160a01b0316336001600160a01b0316145b6116915760405162461bcd60e51b81526004018080602001828103825260298152602001806127886029913960400191505060405180910390fd5b60006116a56103e861118084610320611a17565b905060006116b38383611ae0565b600354600b546002549293506116da9285926001600160a01b039081169281169116611e47565b600354600b546116f89183916001600160a01b039182169116611b3d565b611700610757565b6040805184815290517f254b3311b04550bb196e4bb4037b828129988892e707804f06d72089a6ecf69a9181900360200190a1505050565b61174061185b565b6001600160a01b0316611751610f6b565b6001600160a01b0316146117ac576040805162461bcd60e51b815260206004820181905260248201527f4f776e61626c653a2063616c6c6572206973206e6f7420746865206f776e6572604482015290519081900360640190fd5b6001600160a01b0381166117f15760405162461bcd60e51b81526004018080602001828103825260268152602001806126986026913960400191505060405180910390fd5b600080546040516001600160a01b03808516939216917f8be0079c531659141344cd1fd0a4f28419497f9722a3daafe3b4186f6b6457e091a3600080546001600160a01b0319166001600160a01b0392909216919091179055565b600a546001600160a01b031681565b3390565b6001600160a01b0381166118a45760405162461bcd60e51b815260040180806020018281038252602d8152602001806126e4602d913960400191505060405180910390fd5b6040516001600160a01b038216906000907f74da04524d50c64947f5dd5381ef1a4dca5cba8ed1d816243f9e48aa0b5617ed908290a3600180546001600160a01b0319166001600160a01b0392909216919091179055565b805160009061190c906001611ae0565b905060005b8160ff168160ff16116112455760ff81161561199457826001820360ff168151811061193957fe5b6020026020010151838260ff168151811061195057fe5b6020026020010151116119945760405162461bcd60e51b815260040180806020018281038252602c8152602001806127b1602c913960400191505060405180910390fd5b8160ff168160ff161015611a0f57828160010160ff16815181106119b457fe5b6020026020010151838260ff16815181106119cb57fe5b602002602001015110611a0f5760405162461bcd60e51b815260040180806020018281038252602c8152602001806127b1602c913960400191505060405180910390fd5b600101611911565b600082611a2657506000611a73565b82820282848281611a3357fe5b0414611a705760405162461bcd60e51b81526004018080602001828103825260218152602001806127436021913960400191505060405180910390fd5b90505b92915050565b6000808211611acf576040805162461bcd60e51b815260206004820152601a60248201527f536166654d6174683a206469766973696f6e206279207a65726f000000000000604482015290519081900360640190fd5b818381611ad857fe5b049392505050565b600082821115611b37576040805162461bcd60e51b815260206004820152601e60248201527f536166654d6174683a207375627472616374696f6e206f766572666c6f770000604482015290519081900360640190fd5b50900390565b6000826001600160a01b03166370a08231306040518263ffffffff1660e01b815260040180826001600160a01b0316815260200191505060206040518083038186803b158015611b8c57600080fd5b505afa158015611ba0573d6000803e3d6000fd5b505050506040513d6020811015611bb657600080fd5b5051905080841115611bc6578093505b60408051600280825260608083018452926020830190803683370190505090508381600081518110611bf457fe5b60200260200101906001600160a01b031690816001600160a01b0316815250508281600181518110611c2257fe5b6001600160a01b039283166020918202929092010152600a54611c489186911687612151565b600a54611c609084906001600160a01b031687612151565b600a546040517f38ed1739000000000000000000000000000000000000000000000000000000008152600481018781526000602483018190523060648401819052602842016084850181905260a060448601908152875160a487015287516001600160a01b03909716966338ed1739968d968a9594939092909160c40190602080880191028083838b5b83811015611d02578181015183820152602001611cea565b505050509050019650505050505050600060405180830381600087803b158015611d2b57600080fd5b505af1158015611d3f573d6000803e3d6000fd5b505050506040513d6000823e601f3d908101601f191682016040526020811015611d6857600080fd5b8101908080516040519392919084640100000000821115611d8857600080fd5b908301906020820185811115611d9d57600080fd5b8251866020820283011164010000000082111715611dba57600080fd5b82525081516020918201928201910280838360005b83811015611de7578181015183820152602001611dcf565b50505050905001604052505050505050505050565b600080611e1460018551611ae090919063ffffffff16565b9050805b848160ff1681518110611e2757fe5b60200260200101518410611e3e579150611a739050565b60001901611e18565b604080516003808252608082019092526060916020820183803683370190505090508381600081518110611e7757fe5b60200260200101906001600160a01b031690816001600160a01b0316815250508281600181518110611ea557fe5b60200260200101906001600160a01b031690816001600160a01b0316815250508181600281518110611ed357fe5b6001600160a01b039283166020918202929092010152600a54611ef99186911687612151565b600a54611f119084906001600160a01b031687612151565b600a54611f299083906001600160a01b031687612151565b6060600a60009054906101000a90046001600160a01b03166001600160a01b03166338ed17398760008530426028016040518663ffffffff1660e01b81526004018086815260200185815260200180602001846001600160a01b03168152602001838152602001828103825285818151815260200191508051906020019060200280838360005b83811015611fc8578181015183820152602001611fb0565b505050509050019650505050505050600060405180830381600087803b158015611ff157600080fd5b505af1158015612005573d6000803e3d6000fd5b505050506040513d6000823e601f3d908101601f19168201604052602081101561202e57600080fd5b810190808051604051939291908464010000000082111561204e57600080fd5b90830190602082018581111561206357600080fd5b825186602082028301116401000000008211171561208057600080fd5b82525081516020918201928201910280838360005b838110156120ad578181015183820152602001612095565b5050505090500160405250505090506000816002815181106120cb57fe5b60200260200101519050600260009054906101000a90046001600160a01b03166001600160a01b03166342966c68826040518263ffffffff1660e01b815260040180828152602001915050600060405180830381600087803b15801561213057600080fd5b505af1158015612144573d6000803e3d6000fd5b5050505050505050505050565b60408051636eb1769f60e11b81523060048201526001600160a01b0384811660248301529151839286169163dd62ed3e916044808301926020929190829003018186803b1580156121a157600080fd5b505afa1580156121b5573d6000803e3d6000fd5b505050506040513d60208110156121cb57600080fd5b50511015611245576112456001600160a01b0384168360001960408051636eb1769f60e11b81523060048201526001600160a01b03848116602483015291519185169163dd62ed3e91604480820192602092909190829003018186803b15801561223457600080fd5b505afa158015612248573d6000803e3d6000fd5b505050506040513d602081101561225e57600080fd5b50511561229c5760405162461bcd60e51b81526004018080602001828103825260368152602001806128076036913960400191505060405180910390fd5b604080516001600160a01b038416602482015260448082018490528251808303909101815260649091019091526020810180517bffffffffffffffffffffffffffffffffffffffffffffffffffffffff167f095ea7b300000000000000000000000000000000000000000000000000000000179052611245908490606061236c826040518060400160405280602081526020017f5361666545524332303a206c6f772d6c6576656c2063616c6c206661696c6564815250856001600160a01b03166123c89092919063ffffffff16565b8051909150156112455780806020019051602081101561238b57600080fd5b50516112455760405162461bcd60e51b815260040180806020018281038252602a8152602001806127dd602a913960400191505060405180910390fd5b60606123d784846000856123e1565b90505b9392505050565b6060824710156124225760405162461bcd60e51b81526004018080602001828103825260268152602001806126be6026913960400191505060405180910390fd5b61242b8561253d565b61247c576040805162461bcd60e51b815260206004820152601d60248201527f416464726573733a2063616c6c20746f206e6f6e2d636f6e7472616374000000604482015290519081900360640190fd5b60006060866001600160a01b031685876040518082805190602001908083835b602083106124bb5780518252601f19909201916020918201910161249c565b6001836020036101000a03801982511681845116808217855250505050505090500191505060006040518083038185875af1925050503d806000811461251d576040519150601f19603f3d011682016040523d82523d6000602084013e612522565b606091505b5091509150612532828286612543565b979650505050505050565b3b151590565b606083156125525750816123da565b8251156125625782518084602001fd5b8160405162461bcd60e51b81526004018080602001828103825283818151815260200191508051906020019080838360005b838110156125ac578181015183820152602001612594565b50505050905090810190601f1680156125d95780820380516001836020036101000a031916815260200191505b509250505060405180910390fd5b828054828255906000526020600020908101928215612622579160200282015b82811115612622578235825591602001919060010190612607565b5061262e929150612632565b5090565b5b8082111561262e576000815560010161263356fe4572726f723a20766563746f72206c656e6774687320617265206e6f74207468652073616d652e4572726f723a204f7261636c6520616464726573732063616e6e6f74206265203020616464726573734f776e61626c653a206e6577206f776e657220697320746865207a65726f2061646472657373416464726573733a20696e73756666696369656e742062616c616e636520666f722063616c6c6f70657261746f723a207a65726f206164647265737320676976656e20666f72206e6577206f70657261746f724572726f3a206661696c656420746f206665746368204d61696e20546f6b656e2070726963652066726f6d204f7261636c65536166654d6174683a206d756c7469706c69636174696f6e206f766572666c6f776f70657261746f723a2063616c6c6572206973206e6f7420746865206f70657261746f724572726f723a205769746864726177207065726d697373696f6e7320696e73756666696369656e742e4572726f723a20545741502074696572732073657175656e636520617265206e6f74206d6f6e6f746f6e69635361666545524332303a204552433230206f7065726174696f6e20646964206e6f7420737563636565645361666545524332303a20617070726f76652066726f6d206e6f6e2d7a65726f20746f206e6f6e2d7a65726f20616c6c6f77616e6365a26469706673582212208b2898cee6f45852948c2812e664730f37fd798c4e3907c7ffa362be4c2c241464736f6c634300060c0033",
  "devdoc": {
    "kind": "dev",
    "methods": {
      "owner()": {
        "details": "Returns the address of the current owner."
      },
      "renounceOwnership()": {
        "details": "Leaves the contract without owner. It will not be possible to call `onlyOwner` functions anymore. Can only be called by the current owner. NOTE: Renouncing ownership will leave the contract without an owner, thereby removing any functionality that is only available to the owner."
      },
      "transferOwnership(address)": {
        "details": "Transfers ownership of the contract to a new account (`newOwner`). Can only be called by the current owner."
      }
    },
    "version": 1
  },
  "userdoc": {
    "kind": "user",
    "methods": {},
    "version": 1
  },
  "storageLayout": {
    "storage": [
      {
        "astId": 7,
        "contract": "contracts/TaxOffice.sol:TaxOfficeV3",
        "label": "_owner",
        "offset": 0,
        "slot": "0",
        "type": "t_address"
      },
      {
        "astId": 13711,
        "contract": "contracts/TaxOffice.sol:TaxOfficeV3",
        "label": "_operator",
        "offset": 0,
        "slot": "1",
        "type": "t_address"
      },
      {
        "astId": 9815,
        "contract": "contracts/TaxOffice.sol:TaxOfficeV3",
        "label": "mainToken",
        "offset": 0,
        "slot": "2",
        "type": "t_contract(IERC20Taxable)14054"
      },
      {
        "astId": 9817,
        "contract": "contracts/TaxOffice.sol:TaxOfficeV3",
        "label": "shareToken",
        "offset": 0,
        "slot": "3",
        "type": "t_contract(IERC20Taxable)14054"
      },
      {
        "astId": 9819,
        "contract": "contracts/TaxOffice.sol:TaxOfficeV3",
        "label": "mainTokenOracle",
        "offset": 0,
        "slot": "4",
        "type": "t_contract(IOracle)14088"
      },
      {
        "astId": 9840,
        "contract": "contracts/TaxOffice.sol:TaxOfficeV3",
        "label": "mainTokenTaxTwapTiers",
        "offset": 0,
        "slot": "5",
        "type": "t_array(t_uint256)dyn_storage"
      },
      {
        "astId": 9858,
        "contract": "contracts/TaxOffice.sol:TaxOfficeV3",
        "label": "mainTokenTaxRateTiers",
        "offset": 0,
        "slot": "6",
        "type": "t_array(t_uint256)dyn_storage"
      },
      {
        "astId": 9876,
        "contract": "contracts/TaxOffice.sol:TaxOfficeV3",
        "label": "shareTokenTaxTwapTiers",
        "offset": 0,
        "slot": "7",
        "type": "t_array(t_uint256)dyn_storage"
      },
      {
        "astId": 9894,
        "contract": "contracts/TaxOffice.sol:TaxOfficeV3",
        "label": "shareTokenTaxRateTiers",
        "offset": 0,
        "slot": "8",
        "type": "t_array(t_uint256)dyn_storage"
      },
      {
        "astId": 9900,
        "contract": "contracts/TaxOffice.sol:TaxOfficeV3",
        "label": "taxDiscount",
        "offset": 0,
        "slot": "9",
        "type": "t_mapping(t_address,t_mapping(t_address,t_uint256))"
      },
      {
        "astId": 10424,
        "contract": "contracts/TaxOffice.sol:TaxOfficeV3",
        "label": "router",
        "offset": 0,
        "slot": "10",
        "type": "t_address"
      },
      {
        "astId": 10426,
        "contract": "contracts/TaxOffice.sol:TaxOfficeV3",
        "label": "pegToken",
        "offset": 0,
        "slot": "11",
        "type": "t_contract(IERC20)1177"
      }
    ],
    "types": {
      "t_address": {
        "encoding": "inplace",
        "label": "address",
        "numberOfBytes": "20"
      },
      "t_array(t_uint256)dyn_storage": {
        "base": "t_uint256",
        "encoding": "dynamic_array",
        "label": "uint256[]",
        "numberOfBytes": "32"
      },
      "t_contract(IERC20)1177": {
        "encoding": "inplace",
        "label": "contract IERC20",
        "numberOfBytes": "20"
      },
      "t_contract(IERC20Taxable)14054": {
        "encoding": "inplace",
        "label": "contract IERC20Taxable",
        "numberOfBytes": "20"
      },
      "t_contract(IOracle)14088": {
        "encoding": "inplace",
        "label": "contract IOracle",
        "numberOfBytes": "20"
      },
      "t_mapping(t_address,t_mapping(t_address,t_uint256))": {
        "encoding": "mapping",
        "key": "t_address",
        "label": "mapping(address => mapping(address => uint256))",
        "numberOfBytes": "32",
        "value": "t_mapping(t_address,t_uint256)"
      },
      "t_mapping(t_address,t_uint256)": {
        "encoding": "mapping",
        "key": "t_address",
        "label": "mapping(address => uint256)",
        "numberOfBytes": "32",
        "value": "t_uint256"
      },
      "t_uint256": {
        "encoding": "inplace",
        "label": "uint256",
        "numberOfBytes": "32"
      }
    }
  }
}