{
  "address": "0xa10FafF97AE5508e85012C0F63bBc008B9796D8a",
  "abi": [
    {
      "inputs": [
        {
          "internalType": "contract IStdReference",
          "name": "_ref",
          "type": "address"
        }
      ],
      "stateMutability": "nonpayable",
      "type": "constructor"
    },
    {
      "inputs": [
        {
          "internalType": "address",
          "name": "",
          "type": "address"
        },
        {
          "internalType": "uint256",
          "name": "",
          "type": "uint256"
        }
      ],
      "name": "consult",
      "outputs": [
        {
          "internalType": "uint144",
          "name": "amountOut",
          "type": "uint144"
        }
      ],
      "stateMutability": "pure",
      "type": "function"
    },
    {
      "inputs": [
        {
          "internalType": "string[]",
          "name": "_bases",
          "type": "string[]"
        },
        {
          "internalType": "string[]",
          "name": "_quotes",
          "type": "string[]"
        }
      ],
      "name": "getMultiPrices",
      "outputs": [
        {
          "internalType": "uint256[]",
          "name": "",
          "type": "uint256[]"
        }
      ],
      "stateMutability": "view",
      "type": "function"
    },
    {
      "inputs": [
        {
          "internalType": "string",
          "name": "_base",
          "type": "string"
        },
        {
          "internalType": "string",
          "name": "_quote",
          "type": "string"
        }
      ],
      "name": "getPrice",
      "outputs": [
        {
          "internalType": "uint256",
          "name": "",
          "type": "uint256"
        }
      ],
      "stateMutability": "view",
      "type": "function"
    },
    {
      "inputs": [],
      "name": "price",
      "outputs": [
        {
          "internalType": "uint256",
          "name": "",
          "type": "uint256"
        }
      ],
      "stateMutability": "view",
      "type": "function"
    },
    {
      "inputs": [
        {
          "internalType": "uint256",
          "name": "",
          "type": "uint256"
        }
      ],
      "name": "pricesArr",
      "outputs": [
        {
          "internalType": "uint256",
          "name": "",
          "type": "uint256"
        }
      ],
      "stateMutability": "view",
      "type": "function"
    },
    {
      "inputs": [
        {
          "internalType": "string[]",
          "name": "_bases",
          "type": "string[]"
        },
        {
          "internalType": "string[]",
          "name": "_quotes",
          "type": "string[]"
        }
      ],
      "name": "saveMultiPrices",
      "outputs": [],
      "stateMutability": "nonpayable",
      "type": "function"
    },
    {
      "inputs": [
        {
          "internalType": "string",
          "name": "_base",
          "type": "string"
        },
        {
          "internalType": "string",
          "name": "_quote",
          "type": "string"
        }
      ],
      "name": "savePrice",
      "outputs": [],
      "stateMutability": "nonpayable",
      "type": "function"
    },
    {
      "inputs": [
        {
          "internalType": "address",
          "name": "",
          "type": "address"
        },
        {
          "internalType": "uint256",
          "name": "",
          "type": "uint256"
        }
      ],
      "name": "twap",
      "outputs": [
        {
          "internalType": "uint144",
          "name": "_amountOut",
          "type": "uint144"
        }
      ],
      "stateMutability": "pure",
      "type": "function"
    }
  ],
  "transactionHash": "0xa3aa76694816c8a9f21c92eec7ada8779c193d3925378108300b31ada2c56683",
  "args": [
    "0xD0b2234eB9431e850a814bCdcBCB18C1093F986B"
  ],
  "numDeployments": 1,
  "solcInputHash": "67ac06147645ed6882113c15d4a11556",
  "bytecode": "0x60a060405234801561001057600080fd5b50604051610b35380380610b3583398101604081905261002f91610044565b60601b6001600160601b031916608052610072565b600060208284031215610055578081fd5b81516001600160a01b038116811461006b578182fd5b9392505050565b60805160601c610a9761009e6000398061015a528061023f52806103a452806104c65250610a976000f3fe608060405234801561001057600080fd5b50600436106100885760003560e01c8063a035b1fe1161005b578063a035b1fe146100f6578063a7ec9a5a146100fe578063d38a94c514610113578063e2bb96571461012657610088565b80633d0f34da1461008d5780633ddac953146100b65780636808a128146100b6578063942422ba146100d6575b600080fd5b6100a061009b3660046107f2565b610139565b6040516100ad9190610a11565b60405180910390f35b6100c96100c43660046106bd565b6101ea565b6040516100ad91906109f2565b6100e96100e43660046106f3565b6101f9565b6040516100ad9190610952565b6100a0610361565b61011161010c3660046106f3565b610367565b005b6100a061012136600461086b565b610489565b6101116101343660046107f2565b6104a7565b6000610143610556565b60405163195556f360e21b81526001600160a01b037f000000000000000000000000000000000000000000000000000000000000000016906365555bcc906101919087908790600401610996565b60606040518083038186803b1580156101a957600080fd5b505afa1580156101bd573d6000803e3d6000fd5b505050506040513d601f19601f820116820180604052508101906101e19190610849565b51949350505050565b670de0b6b3a764000092915050565b606081518351146102255760405162461bcd60e51b815260040161021c906109bb565b60405180910390fd5b60405163e42a071b60e01b81526060906001600160a01b037f0000000000000000000000000000000000000000000000000000000000000000169063e42a071b906102769087908790600401610924565b60006040518083038186803b15801561028e57600080fd5b505afa1580156102a2573d6000803e3d6000fd5b505050506040513d6000823e601f3d908101601f191682016040526102ca9190810190610754565b845190915060608167ffffffffffffffff811180156102e857600080fd5b50604051908082528060200260200182016040528015610312578160200160208202803683370190505b50905060005b828110156103575783818151811061032c57fe5b60200260200101516000015182828151811061034457fe5b6020908102919091010152600101610318565b5095945050505050565b60005481565b80518251146103885760405162461bcd60e51b815260040161021c906109bb565b815160405163e42a071b60e01b81526060906001600160a01b037f0000000000000000000000000000000000000000000000000000000000000000169063e42a071b906103db9087908790600401610924565b60006040518083038186803b1580156103f357600080fd5b505afa158015610407573d6000803e3d6000fd5b505050506040513d6000823e601f3d908101601f1916820160405261042f9190810190610754565b905061043d60016000610577565b60005b8281101561048257600182828151811061045657fe5b602090810291909101810151518254600181810185556000948552929093209092019190915501610440565b5050505050565b6001818154811061049657fe5b600091825260209091200154905081565b6104af610556565b60405163195556f360e21b81526001600160a01b037f000000000000000000000000000000000000000000000000000000000000000016906365555bcc906104fd9086908690600401610996565b60606040518083038186803b15801561051557600080fd5b505afa158015610529573d6000803e3d6000fd5b505050506040513d601f19601f8201168201806040525081019061054d9190610849565b51600055505050565b60405180606001604052806000815260200160008152602001600081525090565b50805460008255906000526020600020908101906105959190610598565b50565b5b808211156105ad5760008155600101610599565b5090565b600082601f8301126105c1578081fd5b81356105d46105cf82610a41565b610a1a565b818152915060208083019084810160005b8481101561060e576105fc888484358a0101610619565b845292820192908201906001016105e5565b505050505092915050565b600082601f830112610629578081fd5b813567ffffffffffffffff81111561063f578182fd5b610652601f8201601f1916602001610a1a565b915080825283602082850101111561066957600080fd5b8060208401602084013760009082016020015292915050565b600060608284031215610693578081fd5b61069d6060610a1a565b905081518152602082015160208201526040820151604082015292915050565b600080604083850312156106cf578182fd5b82356001600160a01b03811681146106e5578283fd5b946020939093013593505050565b60008060408385031215610705578182fd5b823567ffffffffffffffff8082111561071c578384fd5b610728868387016105b1565b9350602085013591508082111561073d578283fd5b5061074a858286016105b1565b9150509250929050565b60006020808385031215610766578182fd5b825167ffffffffffffffff81111561077c578283fd5b8301601f8101851361078c578283fd5b805161079a6105cf82610a41565b818152838101908385016060808502860187018a10156107b8578788fd5b8795505b848610156107e4576107ce8a83610682565b84526001959095019492860192908101906107bc565b509098975050505050505050565b60008060408385031215610804578182fd5b823567ffffffffffffffff8082111561081b578384fd5b61082786838701610619565b9350602085013591508082111561083c578283fd5b5061074a85828601610619565b60006060828403121561085a578081fd5b6108648383610682565b9392505050565b60006020828403121561087c578081fd5b5035919050565b60008282518085526020808601955080818302840101818601855b848110156108cc57601f198684030189526108ba8383516108d9565b9884019892509083019060010161089e565b5090979650505050505050565b60008151808452815b818110156108fe576020818501810151868301820152016108e2565b8181111561090f5782602083870101525b50601f01601f19169290920160200192915050565b6000604082526109376040830185610883565b82810360208401526109498185610883565b95945050505050565b6020808252825182820181905260009190848201906040850190845b8181101561098a5783518352928401929184019160010161096e565b50909695505050505050565b6000604082526109a960408301856108d9565b828103602084015261094981856108d9565b60208082526010908201527f4241445f494e5055545f4c454e47544800000000000000000000000000000000604082015260600190565b71ffffffffffffffffffffffffffffffffffff91909116815260200190565b90815260200190565b60405181810167ffffffffffffffff81118282101715610a3957600080fd5b604052919050565b600067ffffffffffffffff821115610a57578081fd5b506020908102019056fea264697066735822122092f832558b9cc0d6bf1b8fdfe3dda173bce5efbb6e3a8e29b59496e285cbb72d64736f6c634300060c0033",
  "devdoc": {
    "kind": "dev",
    "methods": {},
    "version": 1
  },
  "userdoc": {
    "kind": "user",
    "methods": {},
    "notice": "https://docs.bandchain.org/band-standard-dataset/supported-blockchains.html https://docs.bandchain.org/band-standard-dataset/using-band-dataset/using-band-dataset-evm.html*",
    "version": 1
  },
  "storageLayout": {
    "storage": [
      {
        "astId": 13136,
        "contract": "contracts/UsdcOracle.sol:UsdcOracle",
        "label": "price",
        "offset": 0,
        "slot": "0",
        "type": "t_uint256"
      },
      {
        "astId": 13139,
        "contract": "contracts/UsdcOracle.sol:UsdcOracle",
        "label": "pricesArr",
        "offset": 0,
        "slot": "1",
        "type": "t_array(t_uint256)dyn_storage"
      }
    ],
    "types": {
      "t_array(t_uint256)dyn_storage": {
        "base": "t_uint256",
        "encoding": "dynamic_array",
        "label": "uint256[]",
        "numberOfBytes": "32"
      },
      "t_uint256": {
        "encoding": "inplace",
        "label": "uint256",
        "numberOfBytes": "32"
      }
    }
  }
}