{
  "address": "0x2695D858b79b5c563aBb16ddEE7183D3cf7556b3",
  "abi": [
    {
      "inputs": [
        {
          "internalType": "contract IStdReference",
          "name": "_ref",
          "type": "address"
        }
      ],
      "stateMutability": "nonpayable",
      "type": "constructor"
    },
    {
      "inputs": [
        {
          "internalType": "address",
          "name": "",
          "type": "address"
        },
        {
          "internalType": "uint256",
          "name": "",
          "type": "uint256"
        }
      ],
      "name": "consult",
      "outputs": [
        {
          "internalType": "uint144",
          "name": "amountOut",
          "type": "uint144"
        }
      ],
      "stateMutability": "pure",
      "type": "function"
    },
    {
      "inputs": [
        {
          "internalType": "string[]",
          "name": "_bases",
          "type": "string[]"
        },
        {
          "internalType": "string[]",
          "name": "_quotes",
          "type": "string[]"
        }
      ],
      "name": "getMultiPrices",
      "outputs": [
        {
          "internalType": "uint256[]",
          "name": "",
          "type": "uint256[]"
        }
      ],
      "stateMutability": "view",
      "type": "function"
    },
    {
      "inputs": [
        {
          "internalType": "string",
          "name": "_base",
          "type": "string"
        },
        {
          "internalType": "string",
          "name": "_quote",
          "type": "string"
        }
      ],
      "name": "getPrice",
      "outputs": [
        {
          "internalType": "uint256",
          "name": "",
          "type": "uint256"
        }
      ],
      "stateMutability": "view",
      "type": "function"
    },
    {
      "inputs": [],
      "name": "price",
      "outputs": [
        {
          "internalType": "uint256",
          "name": "",
          "type": "uint256"
        }
      ],
      "stateMutability": "view",
      "type": "function"
    },
    {
      "inputs": [
        {
          "internalType": "uint256",
          "name": "",
          "type": "uint256"
        }
      ],
      "name": "pricesArr",
      "outputs": [
        {
          "internalType": "uint256",
          "name": "",
          "type": "uint256"
        }
      ],
      "stateMutability": "view",
      "type": "function"
    },
    {
      "inputs": [
        {
          "internalType": "string[]",
          "name": "_bases",
          "type": "string[]"
        },
        {
          "internalType": "string[]",
          "name": "_quotes",
          "type": "string[]"
        }
      ],
      "name": "saveMultiPrices",
      "outputs": [],
      "stateMutability": "nonpayable",
      "type": "function"
    },
    {
      "inputs": [
        {
          "internalType": "string",
          "name": "_base",
          "type": "string"
        },
        {
          "internalType": "string",
          "name": "_quote",
          "type": "string"
        }
      ],
      "name": "savePrice",
      "outputs": [],
      "stateMutability": "nonpayable",
      "type": "function"
    },
    {
      "inputs": [
        {
          "internalType": "address",
          "name": "",
          "type": "address"
        },
        {
          "internalType": "uint256",
          "name": "",
          "type": "uint256"
        }
      ],
      "name": "twap",
      "outputs": [
        {
          "internalType": "uint144",
          "name": "_amountOut",
          "type": "uint144"
        }
      ],
      "stateMutability": "pure",
      "type": "function"
    }
  ],
  "transactionHash": "0x374a0f083e4d1d46c2b3b7578e436bdf876b76eb124a7d4a5414712b17688212",
  "args": [
    "0xD0b2234eB9431e850a814bCdcBCB18C1093F986B"
  ],
  "numDeployments": 1,
  "solcInputHash": "63674f7f37222e2e62c35a0995ff0fc0",
  "bytecode": "0x608060405234801561001057600080fd5b50604051610ab4380380610ab483398101604081905261002f91610054565b600080546001600160a01b0319166001600160a01b0392909216919091179055610082565b600060208284031215610065578081fd5b81516001600160a01b038116811461007b578182fd5b9392505050565b610a23806100916000396000f3fe608060405234801561001057600080fd5b50600436106100885760003560e01c8063a035b1fe1161005b578063a035b1fe146100f6578063a7ec9a5a146100fe578063d38a94c514610113578063e2bb96571461012657610088565b80633d0f34da1461008d5780633ddac953146100b65780636808a128146100b6578063942422ba146100d6575b600080fd5b6100a061009b36600461077e565b610139565b6040516100ad919061099d565b60405180910390f35b6100c96100c4366004610649565b6101ce565b6040516100ad919061097e565b6100e96100e436600461067f565b6101dd565b6040516100ad91906108de565b6100a0610327565b61011161010c36600461067f565b61032d565b005b6100a06101213660046107f7565b610431565b61011161013436600461077e565b61044f565b60006101436104e2565b60005460405163195556f360e21b81526001600160a01b03909116906365555bcc906101759087908790600401610922565b60606040518083038186803b15801561018d57600080fd5b505afa1580156101a1573d6000803e3d6000fd5b505050506040513d601f19601f820116820180604052508101906101c591906107d5565b51949350505050565b670de0b6b3a764000092915050565b606081518351146102095760405162461bcd60e51b815260040161020090610947565b60405180910390fd5b60005460405163e42a071b60e01b81526060916001600160a01b03169063e42a071b9061023c90879087906004016108b0565b60006040518083038186803b15801561025457600080fd5b505afa158015610268573d6000803e3d6000fd5b505050506040513d6000823e601f3d908101601f1916820160405261029091908101906106e0565b845190915060608167ffffffffffffffff811180156102ae57600080fd5b506040519080825280602002602001820160405280156102d8578160200160208202803683370190505b50905060005b8281101561031d578381815181106102f257fe5b60200260200101516000015182828151811061030a57fe5b60209081029190910101526001016102de565b5095945050505050565b60015481565b805182511461034e5760405162461bcd60e51b815260040161020090610947565b815160005460405163e42a071b60e01b81526060916001600160a01b03169063e42a071b9061038390879087906004016108b0565b60006040518083038186803b15801561039b57600080fd5b505afa1580156103af573d6000803e3d6000fd5b505050506040513d6000823e601f3d908101601f191682016040526103d791908101906106e0565b90506103e560026000610503565b60005b8281101561042a5760028282815181106103fe57fe5b6020908102919091018101515182546001818101855560009485529290932090920191909155016103e8565b5050505050565b6002818154811061043e57fe5b600091825260209091200154905081565b6104576104e2565b60005460405163195556f360e21b81526001600160a01b03909116906365555bcc906104899086908690600401610922565b60606040518083038186803b1580156104a157600080fd5b505afa1580156104b5573d6000803e3d6000fd5b505050506040513d601f19601f820116820180604052508101906104d991906107d5565b51600155505050565b60405180606001604052806000815260200160008152602001600081525090565b50805460008255906000526020600020908101906105219190610524565b50565b5b808211156105395760008155600101610525565b5090565b600082601f83011261054d578081fd5b813561056061055b826109cd565b6109a6565b818152915060208083019084810160005b8481101561059a57610588888484358a01016105a5565b84529282019290820190600101610571565b505050505092915050565b600082601f8301126105b5578081fd5b813567ffffffffffffffff8111156105cb578182fd5b6105de601f8201601f19166020016109a6565b91508082528360208285010111156105f557600080fd5b8060208401602084013760009082016020015292915050565b60006060828403121561061f578081fd5b61062960606109a6565b905081518152602082015160208201526040820151604082015292915050565b6000806040838503121561065b578182fd5b82356001600160a01b0381168114610671578283fd5b946020939093013593505050565b60008060408385031215610691578182fd5b823567ffffffffffffffff808211156106a8578384fd5b6106b48683870161053d565b935060208501359150808211156106c9578283fd5b506106d68582860161053d565b9150509250929050565b600060208083850312156106f2578182fd5b825167ffffffffffffffff811115610708578283fd5b8301601f81018513610718578283fd5b805161072661055b826109cd565b818152838101908385016060808502860187018a1015610744578788fd5b8795505b848610156107705761075a8a8361060e565b8452600195909501949286019290810190610748565b509098975050505050505050565b60008060408385031215610790578182fd5b823567ffffffffffffffff808211156107a7578384fd5b6107b3868387016105a5565b935060208501359150808211156107c8578283fd5b506106d6858286016105a5565b6000606082840312156107e6578081fd5b6107f0838361060e565b9392505050565b600060208284031215610808578081fd5b5035919050565b60008282518085526020808601955080818302840101818601855b8481101561085857601f19868403018952610846838351610865565b9884019892509083019060010161082a565b5090979650505050505050565b60008151808452815b8181101561088a5760208185018101518683018201520161086e565b8181111561089b5782602083870101525b50601f01601f19169290920160200192915050565b6000604082526108c3604083018561080f565b82810360208401526108d5818561080f565b95945050505050565b6020808252825182820181905260009190848201906040850190845b81811015610916578351835292840192918401916001016108fa565b50909695505050505050565b6000604082526109356040830185610865565b82810360208401526108d58185610865565b60208082526010908201527f4241445f494e5055545f4c454e47544800000000000000000000000000000000604082015260600190565b71ffffffffffffffffffffffffffffffffffff91909116815260200190565b90815260200190565b60405181810167ffffffffffffffff811182821017156109c557600080fd5b604052919050565b600067ffffffffffffffff8211156109e3578081fd5b506020908102019056fea2646970667358221220fd2b1a6bb8b7bef0bcf1152360a90133a4cadde96c2a31d535571f1f5d90059564736f6c634300060c0033",
  "devdoc": {
    "kind": "dev",
    "methods": {},
    "version": 1
  },
  "userdoc": {
    "kind": "user",
    "methods": {},
    "notice": "https://docs.bandchain.org/band-standard-dataset/supported-blockchains.html https://docs.bandchain.org/band-standard-dataset/using-band-dataset/using-band-dataset-evm.html*",
    "version": 1
  },
  "storageLayout": {
    "storage": [
      {
        "astId": 13122,
        "contract": "contracts/UsdcOracle.sol:UsdcOracle",
        "label": "ref",
        "offset": 0,
        "slot": "0",
        "type": "t_contract(IStdReference)14122"
      },
      {
        "astId": 13124,
        "contract": "contracts/UsdcOracle.sol:UsdcOracle",
        "label": "price",
        "offset": 0,
        "slot": "1",
        "type": "t_uint256"
      },
      {
        "astId": 13127,
        "contract": "contracts/UsdcOracle.sol:UsdcOracle",
        "label": "pricesArr",
        "offset": 0,
        "slot": "2",
        "type": "t_array(t_uint256)dyn_storage"
      }
    ],
    "types": {
      "t_array(t_uint256)dyn_storage": {
        "base": "t_uint256",
        "encoding": "dynamic_array",
        "label": "uint256[]",
        "numberOfBytes": "32"
      },
      "t_contract(IStdReference)14122": {
        "encoding": "inplace",
        "label": "contract IStdReference",
        "numberOfBytes": "20"
      },
      "t_uint256": {
        "encoding": "inplace",
        "label": "uint256",
        "numberOfBytes": "32"
      }
    }
  }
}